{"abi":[{"type":"function","name":"MAX_PROTOCOL_FEE","inputs":[],"outputs":[{"name":"","type":"uint16","internalType":"uint16"}],"stateMutability":"view"}],"bytecode":{"object":"0x6080806040523460175760719081601c823930815050f35b5f80fdfe60808060405260043610156011575f80fd5b5f3560e01c63b8ca3b83146023575f80fd5b5f366003190112603757806103e860209252f35b5f80fdfea264697066735822122024197e94f78700f367ba064baba1f288fc76974bdd5295747c42b6a834046df964736f6c634300081a0033","linkReferences":{}},"methodIdentifiers":{"MAX_PROTOCOL_FEE()":"b8ca3b83"},"id":116}