{"abi":[{"type":"constructor","inputs":[{"name":"_manager","type":"address","internalType":"contract IPoolManager"}],"stateMutability":"nonpayable"},{"type":"function","name":"donate","inputs":[{"name":"key","type":"tuple","internalType":"struct PoolKey","components":[{"name":"currency0","type":"address","internalType":"Currency"},{"name":"currency1","type":"address","internalType":"Currency"},{"name":"fee","type":"uint24","internalType":"uint24"},{"name":"tickSpacing","type":"int24","internalType":"int24"},{"name":"hooks","type":"address","internalType":"contract IHooks"}]},{"name":"amount0","type":"uint256","internalType":"uint256"},{"name":"amount1","type":"uint256","internalType":"uint256"},{"name":"hookData","type":"bytes","internalType":"bytes"}],"outputs":[{"name":"delta","type":"int256","internalType":"BalanceDelta"}],"stateMutability":"payable"},{"type":"function","name":"manager","inputs":[],"outputs":[{"name":"","type":"address","internalType":"contract IPoolManager"}],"stateMutability":"view"},{"type":"function","name":"unlockCallback","inputs":[{"name":"rawData","type":"bytes","internalType":"bytes"}],"outputs":[{"name":"","type":"bytes","internalType":"bytes"}],"stateMutability":"nonpayable"}],"bytecode":{"object":"0x60a034607a57601f610dd238819003918201601f19168301916001600160401b03831184841017607e57808492602094604052833981010312607a57516001600160a01b0381168103607a57608052604051610d3f90816100938239608051818181608d0152818161056e0152818161070601526109c00152f35b5f80fd5b634e487b7160e01b5f52604160045260245ffdfe60806040526004361015610011575f80fd5b5f3560e01c8063234266d71461059d578063481c6a7514610559576391dd73461461003a575f80fd5b346104c85760203660031901126104c85760043567ffffffffffffffff81116104c857366023820112156104c857806004013567ffffffffffffffff81116104c85781019060248201913683116104c8577f00000000000000000000000000000000000000000000000000000000000000009060018060a01b038216928333036104c8576020818303126104c85760248101359067ffffffffffffffff82116104c8570190610120828203126104c85760a06024604051926100fb8461084f565b6101068286016108a1565b84528490030160431901126104c857604051926101228461084f565b61012e604484016108a1565b845261013c606484016108a1565b6020850152608483013562ffffff811681036104c857604085015260a48301358060020b81036104c857606085015260c48301356001600160a01b03811681036104c857608085015260208201938452604082019260e48101358452606083019661010482013588526101248201359167ffffffffffffffff83116104c8576101c892016024016108d1565b6080830190815284515183519196916101ef9130916001600160a01b0390811691166109b1565b8751602001518651919350610213925030916001600160a01b0390811691166109b1565b9291505061051c576104df576020908551906102515f87519361026e8c519b516040519c8d978896879563234266d760e01b8752600487019061093b565b60a485015260c484015261010060e4840152610104830190610917565b03925af19485156104d4575f9561049c575b50835151825161029e9130916001600160a01b0390811691166109b1565b8651602001518551919993506102d192506102c79130916001600160a01b0391821691166109b1565b969150505161098d565b870361043d576102e1905161098d565b83036103de57855f61033a97126103b9575b5f841261038b575b5f8113610367575b505f831361033e575b85856040519060208201526020815261032660408261087f565b604051918291602083526020830190610917565b0390f35b925160200151905161035e936001600160a01b0391821692909116610c56565b5f80808061030c565b845151835161038592916001600160a01b0391821691859116610c56565b5f610303565b84516020015183516103b4916001600160a01b039081169116846103ae8861098d565b92610a81565b6102fb565b84515183516103d9916001600160a01b039081169116846103ae8561098d565b6102f3565b60405162461bcd60e51b815260206004820152603160248201527f64656c7461416674657231206973206e6f7420657175616c20746f202d696e7460448201527032353628646174612e616d6f756e74312960781b6064820152608490fd5b60405162461bcd60e51b815260206004820152603160248201527f64656c7461416674657230206973206e6f7420657175616c20746f202d696e7460448201527032353628646174612e616d6f756e74302960781b6064820152608490fd5b9094506020813d6020116104cc575b816104b86020938361087f565b810103126104c85751935f610280565b5f80fd5b3d91506104ab565b6040513d5f823e3d90fd5b60405162461bcd60e51b8152602060048201526015602482015274064656c74614265666f726531206973206e6f74203605c1b6044820152606490fd5b60405162461bcd60e51b8152602060048201526015602482015274064656c74614265666f726530206973206e6f74203605c1b6044820152606490fd5b346104c8575f3660031901126104c8576040517f00000000000000000000000000000000000000000000000000000000000000006001600160a01b03168152602090f35b366003190161010081126104c85760a0136104c8576040516105be8161084f565b6004356001600160a01b03811681036104c85781526024356001600160a01b03811681036104c857602082015260443562ffffff811681036104c85760408201526064358060020b81036104c85760608201526084356001600160a01b03811681036104c857608082015260e43567ffffffffffffffff81116104c857610701916106df6106515f9336906004016108d1565b6106d1604051916106618361084f565b338352602083019485526040830160a4358152606084019060c4358252608085019283526106ae60405197889660208089015260018060a01b03905116604088015251606087019061093b565b516101008501525161012084015251610120610140840152610160830190610917565b03601f19810183528261087f565b604051809381926348c8949160e01b8352602060048401526024830190610917565b0381837f00000000000000000000000000000000000000000000000000000000000000006001600160a01b03165af19081156104d4575f916107d5575b50602081519181808201938492010103126104c857514780610766575b602082604051908152f35b5f80808093335af115610779578161075b565b601f19601f3d0116604051906390bfb86560e01b82523360048301525f6024830152608060448301528060a00160648301523d60848301523d5f60a484013e808201600460a482015260c4633d2cec6f60e21b91015260e40190fd5b90503d805f833e6107e6818361087f565b8101906020818303126104c85780519067ffffffffffffffff82116104c8570181601f820112156104c85780519061081d826108b5565b9261082b604051948561087f565b828452602083830101116104c857815f9260208093018386015e830101528161073e565b60a0810190811067ffffffffffffffff82111761086b57604052565b634e487b7160e01b5f52604160045260245ffd5b90601f8019910116810190811067ffffffffffffffff82111761086b57604052565b35906001600160a01b03821682036104c857565b67ffffffffffffffff811161086b57601f01601f191660200190565b81601f820112156104c8578035906108e8826108b5565b926108f6604051948561087f565b828452602083830101116104c857815f926020809301838601378301015290565b805180835260209291819084018484015e5f828201840152601f01601f1916010190565b80516001600160a01b03908116835260208083015182169084015260408083015162ffffff169084015260608083015160020b9084015260809182015116910152565b908160209103126104c8575190565b600160ff1b811461099d575f0390565b634e487b7160e01b5f52601160045260245ffd5b92906109bd9084610cbc565b927f00000000000000000000000000000000000000000000000000000000000000006001600160a01b0316906109f38282610cbc565b9360018060a01b03165f5260018060a01b0316602052602060405f2060246040518094819363789add5560e11b835260048301525afa9081156104d4575f91610a3a575090565b90506020813d602011610a61575b81610a556020938361087f565b810103126104c8575190565b3d9150610a48565b908160209103126104c8575180151581036104c85790565b9192916001600160a01b031680610aef5750604051630476982d60e21b81529250602091839160049183916001600160a01b03165af180156104d457610ac45750565b610ae59060203d602011610ae8575b610add818361087f565b81019061097e565b50565b503d610ad3565b6001600160a01b0390911691823b156104c857604051632961046560e21b815260048101839052935a945f816024818389819bf180156104d457610c41575b506001600160a01b031684308214610be6576020929160649160405195869485936323b872dd60e01b8552600485015288602485015260448401525af18015610bdb57916020918493610bae575b505b600460405180958193630476982d60e21b83525af1908115610ba25750610ac45750565b604051903d90823e3d90fd5b610bcd90833d8511610bd4575b610bc5818361087f565b810190610a69565b505f610b7c565b503d610bbb565b6040513d85823e3d90fd5b9290506044602092604051948593849263a9059cbb60e01b845288600485015260248401525af18015610bdb57916020918493610c24575b50610b7e565b610c3a90833d8511610bd457610bc5818361087f565b505f610c1e565b610c4e9195505f9061087f565b5f935f610b2e565b91906001600160a01b0316803b156104c857604051630b0d9c0960e01b81526001600160a01b03938416600482015291909216602482015260448101929092525f908290606490829084905af180156104d457610cb05750565b5f610cba9161087f565b565b6001600160a01b031680610ccf57503190565b6040516370a0823160e01b81526001600160a01b039092166004830152602090829060249082905afa9081156104d4575f91610a3a57509056fea2646970667358221220274adb13086c22b272f2f20b29b553f17fb325e60aaeb89142e0f1b641c1f6a064736f6c634300081a0033","linkReferences":{}},"methodIdentifiers":{"donate((address,address,uint24,int24,address),uint256,uint256,bytes)":"234266d7","manager()":"481c6a75","unlockCallback(bytes)":"91dd7346"},"id":84}