{"abi":[{"type":"constructor","inputs":[{"name":"_name","type":"string","internalType":"string"},{"name":"_symbol","type":"string","internalType":"string"},{"name":"deadline","type":"uint256","internalType":"uint256"}],"stateMutability":"nonpayable"},{"type":"function","name":"allowance","inputs":[{"name":"owner","type":"address","internalType":"address"},{"name":"spender","type":"address","internalType":"address"}],"outputs":[{"name":"","type":"uint256","internalType":"uint256"}],"stateMutability":"view"},{"type":"function","name":"approve","inputs":[{"name":"spender","type":"address","internalType":"address"},{"name":"value","type":"uint256","internalType":"uint256"}],"outputs":[{"name":"","type":"bool","internalType":"bool"}],"stateMutability":"nonpayable"},{"type":"function","name":"balanceOf","inputs":[{"name":"account","type":"address","internalType":"address"}],"outputs":[{"name":"","type":"uint256","internalType":"uint256"}],"stateMutability":"view"},{"type":"function","name":"decimals","inputs":[],"outputs":[{"name":"","type":"uint8","internalType":"uint8"}],"stateMutability":"view"},{"type":"function","name":"mint","inputs":[{"name":"to","type":"address","internalType":"address"},{"name":"value","type":"uint256","internalType":"uint256"}],"outputs":[],"stateMutability":"nonpayable"},{"type":"function","name":"name","inputs":[],"outputs":[{"name":"","type":"string","internalType":"string"}],"stateMutability":"view"},{"type":"function","name":"owner","inputs":[],"outputs":[{"name":"","type":"address","internalType":"address"}],"stateMutability":"view"},{"type":"function","name":"symbol","inputs":[],"outputs":[{"name":"","type":"string","internalType":"string"}],"stateMutability":"view"},{"type":"function","name":"tokenExpiry","inputs":[],"outputs":[{"name":"","type":"uint256","internalType":"uint256"}],"stateMutability":"view"},{"type":"function","name":"totalSupply","inputs":[],"outputs":[{"name":"","type":"uint256","internalType":"uint256"}],"stateMutability":"view"},{"type":"function","name":"transfer","inputs":[{"name":"to","type":"address","internalType":"address"},{"name":"value","type":"uint256","internalType":"uint256"}],"outputs":[{"name":"","type":"bool","internalType":"bool"}],"stateMutability":"nonpayable"},{"type":"function","name":"transferFrom","inputs":[{"name":"from","type":"address","internalType":"address"},{"name":"to","type":"address","internalType":"address"},{"name":"value","type":"uint256","internalType":"uint256"}],"outputs":[{"name":"","type":"bool","internalType":"bool"}],"stateMutability":"nonpayable"},{"type":"event","name":"Approval","inputs":[{"name":"owner","type":"address","indexed":true,"internalType":"address"},{"name":"spender","type":"address","indexed":true,"internalType":"address"},{"name":"value","type":"uint256","indexed":false,"internalType":"uint256"}],"anonymous":false},{"type":"event","name":"Transfer","inputs":[{"name":"from","type":"address","indexed":true,"internalType":"address"},{"name":"to","type":"address","indexed":true,"internalType":"address"},{"name":"value","type":"uint256","indexed":false,"internalType":"uint256"}],"anonymous":false},{"type":"error","name":"ERC20InsufficientAllowance","inputs":[{"name":"spender","type":"address","internalType":"address"},{"name":"allowance","type":"uint256","internalType":"uint256"},{"name":"needed","type":"uint256","internalType":"uint256"}]},{"type":"error","name":"ERC20InsufficientBalance","inputs":[{"name":"sender","type":"address","internalType":"address"},{"name":"balance","type":"uint256","internalType":"uint256"},{"name":"needed","type":"uint256","internalType":"uint256"}]},{"type":"error","name":"ERC20InvalidApprover","inputs":[{"name":"approver","type":"address","internalType":"address"}]},{"type":"error","name":"ERC20InvalidReceiver","inputs":[{"name":"receiver","type":"address","internalType":"address"}]},{"type":"error","name":"ERC20InvalidSender","inputs":[{"name":"sender","type":"address","internalType":"address"}]},{"type":"error","name":"ERC20InvalidSpender","inputs":[{"name":"spender","type":"address","internalType":"address"}]}],"bytecode":{"object":"0x60806040523461034e57610b7f8038038061001981610352565b92833981019060608183031261034e5780516001600160401b03811161034e5782610045918301610377565b60208201519092906001600160401b03811161034e57604091610069918401610377565b91015182516001600160401b03811161025f57600354600181811c91168015610344575b602082101461024157601f81116102e1575b506020601f821160011461027e57819293945f92610273575b50508160011b915f199060031b1c1916176003555b81516001600160401b03811161025f57600454600181811c91168015610255575b602082101461024157601f81116101de575b50602092601f821160011461017d57928192935f92610172575b50508160011b915f199060031b1c1916176004555b600580546001600160a01b031916331790554290810190811061015e576006556040516107b690816103c98239f35b634e487b7160e01b5f52601160045260245ffd5b015190505f8061011a565b601f1982169360045f52805f20915f5b8681106101c657508360019596106101ae575b505050811b0160045561012f565b01515f1960f88460031b161c191690555f80806101a0565b9192602060018192868501518155019401920161018d565b60045f527f8a35acfbc15ff81a39ae7d344fd709f28e8600b4aa8c65c6b64bfe7fe36bd19b601f830160051c81019160208410610237575b601f0160051c01905b81811061022c5750610100565b5f815560010161021f565b9091508190610216565b634e487b7160e01b5f52602260045260245ffd5b90607f16906100ee565b634e487b7160e01b5f52604160045260245ffd5b015190505f806100b8565b601f1982169060035f52805f20915f5b8181106102c9575095836001959697106102b1575b505050811b016003556100cd565b01515f1960f88460031b161c191690555f80806102a3565b9192602060018192868b01518155019401920161028e565b60035f527fc2575a0e9e593c00f959f8c92f12db2869c3395a3b0502d05e2516446f71f85b601f830160051c8101916020841061033a575b601f0160051c01905b81811061032f575061009f565b5f8155600101610322565b9091508190610319565b90607f169061008d565b5f80fd5b6040519190601f01601f191682016001600160401b0381118382101761025f57604052565b81601f8201121561034e578051906001600160401b03821161025f576103a6601f8301601f1916602001610352565b928284526020838301011161034e57815f9260208093018386015e830101529056fe6080806040526004361015610012575f80fd5b5f3560e01c90816306fdde031461055857508063095ea7b3146104d657806318160ddd146104b957806323b872dd146103da578063313ce567146103bf57806336654887146103a257806340c10f191461029f57806370a08231146102685780638da5cb5b1461024057806395d89b4114610125578063a9059cbb146100f45763dd62ed3e146100a0575f80fd5b346100f05760403660031901126100f0576100b9610651565b6100c1610667565b6001600160a01b039182165f908152600160209081526040808320949093168252928352819020549051908152f35b5f80fd5b346100f05760403660031901126100f05761011a610110610651565b60243590336106c9565b602060405160018152f35b346100f0575f3660031901126100f0576040515f6004548060011c90600181168015610236575b6020831081146102225782855290811561020657506001146101b1575b50819003601f01601f191681019067ffffffffffffffff82118183101761019d5761019982918260405282610627565b0390f35b634e487b7160e01b5f52604160045260245ffd5b905060045f527f8a35acfbc15ff81a39ae7d344fd709f28e8600b4aa8c65c6b64bfe7fe36bd19b5f905b8282106101f057506020915082010182610169565b60018160209254838588010152019101906101db565b90506020925060ff191682840152151560051b82010182610169565b634e487b7160e01b5f52602260045260245ffd5b91607f169161014c565b346100f0575f3660031901126100f0576005546040516001600160a01b039091168152602090f35b346100f05760203660031901126100f0576001600160a01b03610289610651565b165f525f602052602060405f2054604051908152f35b346100f05760403660031901126100f0576102b8610651565b60055460243591906001600160a01b03163303610370576102dc600654421061067d565b6001600160a01b031690811561035d576102f9600654421061067d565b600254908082018092116103495760207fddf252ad1be2c89b69c2b068fc378daa952ba7f163c4a11628f55a4df523b3ef915f9360025584845283825260408420818154019055604051908152a3005b634e487b7160e01b5f52601160045260245ffd5b63ec442f0560e01b5f525f60045260245ffd5b60405162461bcd60e51b815260206004820152600a60248201526927a7262c9027aba722a960b11b6044820152606490fd5b346100f0575f3660031901126100f0576020600654604051908152f35b346100f0575f3660031901126100f057602060405160128152f35b346100f05760603660031901126100f0576103f3610651565b6103fb610667565b6001600160a01b0382165f818152600160209081526040808320338452909152902054909260443592915f198110610439575b5061011a93506106c9565b83811061049e57841561048b5733156104785761011a945f52600160205260405f2060018060a01b0333165f526020528360405f20910390558461042e565b634a1406b160e11b5f525f60045260245ffd5b63e602df0560e01b5f525f60045260245ffd5b8390637dc7a0d960e11b5f523360045260245260445260645ffd5b346100f0575f3660031901126100f0576020600254604051908152f35b346100f05760403660031901126100f0576104ef610651565b60243590331561048b576001600160a01b031690811561047857335f52600160205260405f20825f526020528060405f20556040519081527f8c5be1e5ebec7d5bd14f71427d1e84f3dd0314c0f7b2291e5b200ac8c7c3b92560203392a3602060405160018152f35b346100f0575f3660031901126100f0575f6003548060011c9060018116801561061d575b6020831081146102225782855290811561020657506001146105c85750819003601f01601f191681019067ffffffffffffffff82118183101761019d5761019982918260405282610627565b905060035f527fc2575a0e9e593c00f959f8c92f12db2869c3395a3b0502d05e2516446f71f85b5f905b82821061060757506020915082010182610169565b60018160209254838588010152019101906105f2565b91607f169161057c565b602060409281835280519182918282860152018484015e5f828201840152601f01601f1916010190565b600435906001600160a01b03821682036100f057565b602435906001600160a01b03821682036100f057565b1561068457565b60405162461bcd60e51b815260206004820152601d60248201527f544f4b454e20455850495245442c204d494e54494e4720434c4f5345440000006044820152606490fd5b6001600160a01b031690811561076d576001600160a01b031691821561035d576106f6600654421061067d565b815f525f60205260405f205481811061075457817fddf252ad1be2c89b69c2b068fc378daa952ba7f163c4a11628f55a4df523b3ef92602092855f525f84520360405f2055845f525f825260405f20818154019055604051908152a3565b8263391434e360e21b5f5260045260245260445260645ffd5b634b637e8f60e11b5f525f60045260245ffdfea264697066735822122095cceca76e3853ec8ffc41ce09491094bdc518a9cd09cab0d06238ce93a1b37064736f6c634300081a0033","linkReferences":{}},"methodIdentifiers":{"allowance(address,address)":"dd62ed3e","approve(address,uint256)":"095ea7b3","balanceOf(address)":"70a08231","decimals()":"313ce567","mint(address,uint256)":"40c10f19","name()":"06fdde03","owner()":"8da5cb5b","symbol()":"95d89b41","tokenExpiry()":"36654887","totalSupply()":"18160ddd","transfer(address,uint256)":"a9059cbb","transferFrom(address,address,uint256)":"23b872dd"},"id":167}