{"abi":[{"type":"function","name":"tokensForGivenCost","inputs":[{"name":"circulation","type":"uint256","internalType":"uint256"},{"name":"cost","type":"uint256","internalType":"uint256"},{"name":"slope","type":"uint256","internalType":"uint256"},{"name":"fee","type":"uint256","internalType":"uint256"},{"name":"basePrice","type":"uint256","internalType":"uint256"}],"outputs":[{"name":"","type":"uint256","internalType":"uint256"}],"stateMutability":"pure"}],"bytecode":{"object":"0x60808060405234601957610306908161001e823930815050f35b5f80fdfe6080806040526004361015610012575f80fd5b5f3560e01c630835dd8614610025575f80fd5b60a036600319011261023557600435906024356044359181156101f35750670de0b6b3a76400008102908104670de0b6b3a76400000361017c57606435670de0b6b3a76400000180670de0b6b3a76400001161017c5761008491610246565b8160011c9280830290838204148315171561017c576100b090670de0b6b3a76400006084359104610239565b90600160ff1b811461017c576100c68280610250565b6003198460011b169160048305860361017c576100ef926100e9915f0390610250565b90610272565b905f82126101a4576101036101089261028a565b610272565b906001191691600283050361017c57811561019057600160ff1b81145f1983141661017c57055f811261014057602090604051908152f35b60405162461bcd60e51b8152602060048201526014602482015273125b9d985b1a59081d1bdad95b88185b5bdd5b9d60621b6044820152606490fd5b634e487b7160e01b5f52601160045260245ffd5b634e487b7160e01b5f52601260045260245ffd5b60405162461bcd60e51b815260206004820152602160248201527f4469736372696d696e616e74206d757374206265206e6f6e2d6e6567617469766044820152606560f81b6064820152608490fd5b62461bcd60e51b815260206004820152601e60248201527f436f7374206d7573742062652067726561746572207468616e207a65726f00006044820152606490fd5b5f80fd5b9190820180921161017c57565b8115610190570490565b81810292915f8212600160ff1b82141661017c57818405149015171561017c57565b81810392915f13801582851316918412161761017c57565b9081156102cb576001820180831161017c5760011c825b8382106102ac575050565b9092506102c2836102bd8184610246565b610239565b60011c906102a1565b5f915056fea2646970667358221220b38ea586f6d20068c3315ab7c3989ee585a6aaa18dc4afaa2180766166074e2a64736f6c634300081a0033","linkReferences":{}},"methodIdentifiers":{"tokensForGivenCost(uint256,uint256,uint256,uint256,uint256)":"0835dd86"},"id":96}