{"abi":[{"type":"constructor","inputs":[{"name":"_manager","type":"address","internalType":"contract IPoolManager"}],"stateMutability":"nonpayable"},{"type":"function","name":"deposit","inputs":[{"name":"currency","type":"address","internalType":"Currency"},{"name":"user","type":"address","internalType":"address"},{"name":"amount","type":"uint256","internalType":"uint256"}],"outputs":[],"stateMutability":"payable"},{"type":"function","name":"manager","inputs":[],"outputs":[{"name":"","type":"address","internalType":"contract IPoolManager"}],"stateMutability":"view"},{"type":"function","name":"unlockCallback","inputs":[{"name":"rawData","type":"bytes","internalType":"bytes"}],"outputs":[{"name":"","type":"bytes","internalType":"bytes"}],"stateMutability":"nonpayable"},{"type":"function","name":"withdraw","inputs":[{"name":"currency","type":"address","internalType":"Currency"},{"name":"user","type":"address","internalType":"address"},{"name":"amount","type":"uint256","internalType":"uint256"}],"outputs":[],"stateMutability":"payable"}],"bytecode":{"object":"0x60a034607a57601f61091b38819003918201601f19168301916001600160401b03831184841017607e57808492602094604052833981010312607a57516001600160a01b0381168103607a576080526040516108889081610093823960805181818160d0015281816101840152818161061b01526106780152f35b5f80fd5b634e487b7160e01b5f52604160045260245ffdfe6080806040526004361015610012575f80fd5b5f905f3560e01c908163481c6a7514610666575080638340f549146105bc57806391dd7346146101325763d9caed121461004a575f80fd5b6100cb816100a36100b161005d366106bb565b90916040519261006c8461071f565b33845260018060a01b0316602084015260018060a01b03166040830152606082015283608082015260405192839160208301610771565b03601f19810183528261074f565b604051809381926348c8949160e01b8352600483016106f5565b0381837f00000000000000000000000000000000000000000000000000000000000000006001600160a01b03165af1801561012757610108575080f35b610123903d8084833e61011b818361074f565b8101906107b8565b5080f35b6040513d84823e3d90fd5b50346105b85760203660031901126105b8576004359067ffffffffffffffff82116105b857366023830112156105b857816004013567ffffffffffffffff81116105b85782013660248201116105b8577f00000000000000000000000000000000000000000000000000000000000000006001600160a01b031690338290036105b85760a090849003126105b8576040516101cc8161071f565b6101d8602485016106a7565b81526101e6604485016106a7565b60208201918183526101fa606487016106a7565b604082019281845260848801359260a46060820199858b520135801515918282036105b85760800152156104d757505081518351875192506001600160a01b039182169116853b156104d357604051630ab714fb60e11b81526001600160a01b0391909116600482015260248101919091526044810191909152848160648183885af180156104c8579085916104af575b50505190519351936001600160a01b03918216911681610335575050602090600460405180958193630476982d60e21b83525af1918215610328576102f5926102f9575b505b604051906020820152602081526102e960408261074f565b604051918291826106f5565b0390f35b61031a9060203d602011610321575b610312818361074f565b810190610843565b505f6102cf565b503d610308565b50604051903d90823e3d90fd5b9383948392933b156104a057604051632961046560e21b815260048101859052858160248183885af19081156104a457869161048b575b50308214610432576020929160649160405196879485936323b872dd60e01b8552600485015287602485015260448401525af1918215610427576020926103fa575b505b600460405180958193630476982d60e21b83525af1918215610328576102f5926103db575b506102d1565b6103f39060203d60201161032157610312818361074f565b505f6103d5565b61041990833d8511610420575b610411818361074f565b81019061082b565b505f6103ae565b503d610407565b6040513d85823e3d90fd5b9390506044602092604051958693849263a9059cbb60e01b845287600485015260248401525af19182156104275760209261046e575b506103b0565b61048490833d851161042057610411818361074f565b505f610468565b816104959161074f565b6104a057845f61036c565b8480fd5b6040513d88823e3d90fd5b816104b99161074f565b6104c457835f61028b565b8380fd5b6040513d87823e3d90fd5b8680fd5b85949697953b156105b857604051637a94c56560e11b81526001600160a01b0391821660048201529116602482015260448101919091525f8160648183875af180156105ad57610594575b5051925191519284926001600160a01b03908116929116813b156104c457836064926040519687958694630b0d9c0960e01b86526004860152602485015260448401525af180156101275761057c575b506102f5906102d1565b61058782809261074f565b610591575f610572565b80fd5b6105a391939295505f9061074f565b5f9390915f610522565b6040513d5f823e3d90fd5b5f80fd5b6106165f6100a36100b16105cf366106bb565b9091604051926105de8461071f565b33845260018060a01b0316602084015260018060a01b0316604083015260608201526001608082015260405192839160208301610771565b0381837f00000000000000000000000000000000000000000000000000000000000000006001600160a01b03165af180156105ad5761065157005b610664903d805f833e61011b818361074f565b005b346105b8575f3660031901126105b8577f00000000000000000000000000000000000000000000000000000000000000006001600160a01b03168152602090f35b35906001600160a01b03821682036105b857565b60609060031901126105b8576004356001600160a01b03811681036105b857906024356001600160a01b03811681036105b8579060443590565b602060409281835280519182918282860152018484015e5f828201840152601f01601f1916010190565b60a0810190811067ffffffffffffffff82111761073b57604052565b634e487b7160e01b5f52604160045260245ffd5b90601f8019910116810190811067ffffffffffffffff82111761073b57604052565b81516001600160a01b039081168252602080840151821690830152604080840151909116908201526060808301519082015260809182015115159181019190915260a00190565b6020818303126105b85780519067ffffffffffffffff82116105b8570181601f820112156105b85780519067ffffffffffffffff821161073b576040519261080a601f8401601f19166020018561074f565b828452602083830101116105b857815f9260208093018386015e8301015290565b908160209103126105b8575180151581036105b85790565b908160209103126105b857519056fea26469706673582212201bad17b7de57c6f21e961f9a9a206f081327be3d07080bb7a4827b00f2035aeb64736f6c634300081a0033","linkReferences":{}},"methodIdentifiers":{"deposit(address,address,uint256)":"8340f549","manager()":"481c6a75","unlockCallback(bytes)":"91dd7346","withdraw(address,address,uint256)":"d9caed12"},"id":82}