{"abi":[{"type":"constructor","inputs":[{"name":"poolManager","type":"address","internalType":"contract IPoolManager"},{"name":"_baseToken","type":"address","internalType":"address"}],"stateMutability":"nonpayable"},{"type":"function","name":"BASE_PRICE","inputs":[],"outputs":[{"name":"","type":"uint256","internalType":"uint256"}],"stateMutability":"view"},{"type":"function","name":"FEE","inputs":[],"outputs":[{"name":"","type":"uint256","internalType":"uint256"}],"stateMutability":"view"},{"type":"function","name":"IV_TOKEN_SUPPLY","inputs":[],"outputs":[{"name":"","type":"uint256","internalType":"uint256"}],"stateMutability":"view"},{"type":"function","name":"RESERVE_SHIFT_SLOPE","inputs":[],"outputs":[{"name":"","type":"uint256","internalType":"uint256"}],"stateMutability":"view"},{"type":"function","name":"SLOPE","inputs":[],"outputs":[{"name":"","type":"uint256","internalType":"uint256"}],"stateMutability":"view"},{"type":"function","name":"afterAddLiquidity","inputs":[{"name":"sender","type":"address","internalType":"address"},{"name":"key","type":"tuple","internalType":"struct PoolKey","components":[{"name":"currency0","type":"address","internalType":"Currency"},{"name":"currency1","type":"address","internalType":"Currency"},{"name":"fee","type":"uint24","internalType":"uint24"},{"name":"tickSpacing","type":"int24","internalType":"int24"},{"name":"hooks","type":"address","internalType":"contract IHooks"}]},{"name":"params","type":"tuple","internalType":"struct IPoolManager.ModifyLiquidityParams","components":[{"name":"tickLower","type":"int24","internalType":"int24"},{"name":"tickUpper","type":"int24","internalType":"int24"},{"name":"liquidityDelta","type":"int256","internalType":"int256"},{"name":"salt","type":"bytes32","internalType":"bytes32"}]},{"name":"delta","type":"int256","internalType":"BalanceDelta"},{"name":"feesAccrued","type":"int256","internalType":"BalanceDelta"},{"name":"hookData","type":"bytes","internalType":"bytes"}],"outputs":[{"name":"","type":"bytes4","internalType":"bytes4"},{"name":"","type":"int256","internalType":"BalanceDelta"}],"stateMutability":"nonpayable"},{"type":"function","name":"afterDonate","inputs":[{"name":"sender","type":"address","internalType":"address"},{"name":"key","type":"tuple","internalType":"struct PoolKey","components":[{"name":"currency0","type":"address","internalType":"Currency"},{"name":"currency1","type":"address","internalType":"Currency"},{"name":"fee","type":"uint24","internalType":"uint24"},{"name":"tickSpacing","type":"int24","internalType":"int24"},{"name":"hooks","type":"address","internalType":"contract IHooks"}]},{"name":"amount0","type":"uint256","internalType":"uint256"},{"name":"amount1","type":"uint256","internalType":"uint256"},{"name":"hookData","type":"bytes","internalType":"bytes"}],"outputs":[{"name":"","type":"bytes4","internalType":"bytes4"}],"stateMutability":"nonpayable"},{"type":"function","name":"afterInitialize","inputs":[{"name":"sender","type":"address","internalType":"address"},{"name":"key","type":"tuple","internalType":"struct PoolKey","components":[{"name":"currency0","type":"address","internalType":"Currency"},{"name":"currency1","type":"address","internalType":"Currency"},{"name":"fee","type":"uint24","internalType":"uint24"},{"name":"tickSpacing","type":"int24","internalType":"int24"},{"name":"hooks","type":"address","internalType":"contract IHooks"}]},{"name":"sqrtPriceX96","type":"uint160","internalType":"uint160"},{"name":"tick","type":"int24","internalType":"int24"}],"outputs":[{"name":"","type":"bytes4","internalType":"bytes4"}],"stateMutability":"nonpayable"},{"type":"function","name":"afterRemoveLiquidity","inputs":[{"name":"sender","type":"address","internalType":"address"},{"name":"key","type":"tuple","internalType":"struct PoolKey","components":[{"name":"currency0","type":"address","internalType":"Currency"},{"name":"currency1","type":"address","internalType":"Currency"},{"name":"fee","type":"uint24","internalType":"uint24"},{"name":"tickSpacing","type":"int24","internalType":"int24"},{"name":"hooks","type":"address","internalType":"contract IHooks"}]},{"name":"params","type":"tuple","internalType":"struct IPoolManager.ModifyLiquidityParams","components":[{"name":"tickLower","type":"int24","internalType":"int24"},{"name":"tickUpper","type":"int24","internalType":"int24"},{"name":"liquidityDelta","type":"int256","internalType":"int256"},{"name":"salt","type":"bytes32","internalType":"bytes32"}]},{"name":"delta","type":"int256","internalType":"BalanceDelta"},{"name":"feesAccrued","type":"int256","internalType":"BalanceDelta"},{"name":"hookData","type":"bytes","internalType":"bytes"}],"outputs":[{"name":"","type":"bytes4","internalType":"bytes4"},{"name":"","type":"int256","internalType":"BalanceDelta"}],"stateMutability":"nonpayable"},{"type":"function","name":"afterSwap","inputs":[{"name":"sender","type":"address","internalType":"address"},{"name":"key","type":"tuple","internalType":"struct PoolKey","components":[{"name":"currency0","type":"address","internalType":"Currency"},{"name":"currency1","type":"address","internalType":"Currency"},{"name":"fee","type":"uint24","internalType":"uint24"},{"name":"tickSpacing","type":"int24","internalType":"int24"},{"name":"hooks","type":"address","internalType":"contract IHooks"}]},{"name":"params","type":"tuple","internalType":"struct IPoolManager.SwapParams","components":[{"name":"zeroForOne","type":"bool","internalType":"bool"},{"name":"amountSpecified","type":"int256","internalType":"int256"},{"name":"sqrtPriceLimitX96","type":"uint160","internalType":"uint160"}]},{"name":"delta","type":"int256","internalType":"BalanceDelta"},{"name":"hookData","type":"bytes","internalType":"bytes"}],"outputs":[{"name":"","type":"bytes4","internalType":"bytes4"},{"name":"","type":"int128","internalType":"int128"}],"stateMutability":"nonpayable"},{"type":"function","name":"baseToken","inputs":[],"outputs":[{"name":"","type":"address","internalType":"address"}],"stateMutability":"view"},{"type":"function","name":"beforeAddLiquidity","inputs":[{"name":"sender","type":"address","internalType":"address"},{"name":"key","type":"tuple","internalType":"struct PoolKey","components":[{"name":"currency0","type":"address","internalType":"Currency"},{"name":"currency1","type":"address","internalType":"Currency"},{"name":"fee","type":"uint24","internalType":"uint24"},{"name":"tickSpacing","type":"int24","internalType":"int24"},{"name":"hooks","type":"address","internalType":"contract IHooks"}]},{"name":"params","type":"tuple","internalType":"struct IPoolManager.ModifyLiquidityParams","components":[{"name":"tickLower","type":"int24","internalType":"int24"},{"name":"tickUpper","type":"int24","internalType":"int24"},{"name":"liquidityDelta","type":"int256","internalType":"int256"},{"name":"salt","type":"bytes32","internalType":"bytes32"}]},{"name":"hookData","type":"bytes","internalType":"bytes"}],"outputs":[{"name":"","type":"bytes4","internalType":"bytes4"}],"stateMutability":"nonpayable"},{"type":"function","name":"beforeDonate","inputs":[{"name":"sender","type":"address","internalType":"address"},{"name":"key","type":"tuple","internalType":"struct PoolKey","components":[{"name":"currency0","type":"address","internalType":"Currency"},{"name":"currency1","type":"address","internalType":"Currency"},{"name":"fee","type":"uint24","internalType":"uint24"},{"name":"tickSpacing","type":"int24","internalType":"int24"},{"name":"hooks","type":"address","internalType":"contract IHooks"}]},{"name":"amount0","type":"uint256","internalType":"uint256"},{"name":"amount1","type":"uint256","internalType":"uint256"},{"name":"hookData","type":"bytes","internalType":"bytes"}],"outputs":[{"name":"","type":"bytes4","internalType":"bytes4"}],"stateMutability":"nonpayable"},{"type":"function","name":"beforeInitialize","inputs":[{"name":"sender","type":"address","internalType":"address"},{"name":"key","type":"tuple","internalType":"struct PoolKey","components":[{"name":"currency0","type":"address","internalType":"Currency"},{"name":"currency1","type":"address","internalType":"Currency"},{"name":"fee","type":"uint24","internalType":"uint24"},{"name":"tickSpacing","type":"int24","internalType":"int24"},{"name":"hooks","type":"address","internalType":"contract IHooks"}]},{"name":"sqrtPriceX96","type":"uint160","internalType":"uint160"}],"outputs":[{"name":"","type":"bytes4","internalType":"bytes4"}],"stateMutability":"nonpayable"},{"type":"function","name":"beforeRemoveLiquidity","inputs":[{"name":"sender","type":"address","internalType":"address"},{"name":"key","type":"tuple","internalType":"struct PoolKey","components":[{"name":"currency0","type":"address","internalType":"Currency"},{"name":"currency1","type":"address","internalType":"Currency"},{"name":"fee","type":"uint24","internalType":"uint24"},{"name":"tickSpacing","type":"int24","internalType":"int24"},{"name":"hooks","type":"address","internalType":"contract IHooks"}]},{"name":"params","type":"tuple","internalType":"struct IPoolManager.ModifyLiquidityParams","components":[{"name":"tickLower","type":"int24","internalType":"int24"},{"name":"tickUpper","type":"int24","internalType":"int24"},{"name":"liquidityDelta","type":"int256","internalType":"int256"},{"name":"salt","type":"bytes32","internalType":"bytes32"}]},{"name":"hookData","type":"bytes","internalType":"bytes"}],"outputs":[{"name":"","type":"bytes4","internalType":"bytes4"}],"stateMutability":"nonpayable"},{"type":"function","name":"beforeSwap","inputs":[{"name":"sender","type":"address","internalType":"address"},{"name":"key","type":"tuple","internalType":"struct PoolKey","components":[{"name":"currency0","type":"address","internalType":"Currency"},{"name":"currency1","type":"address","internalType":"Currency"},{"name":"fee","type":"uint24","internalType":"uint24"},{"name":"tickSpacing","type":"int24","internalType":"int24"},{"name":"hooks","type":"address","internalType":"contract IHooks"}]},{"name":"params","type":"tuple","internalType":"struct IPoolManager.SwapParams","components":[{"name":"zeroForOne","type":"bool","internalType":"bool"},{"name":"amountSpecified","type":"int256","internalType":"int256"},{"name":"sqrtPriceLimitX96","type":"uint160","internalType":"uint160"}]},{"name":"hookData","type":"bytes","internalType":"bytes"}],"outputs":[{"name":"","type":"bytes4","internalType":"bytes4"},{"name":"","type":"int256","internalType":"BeforeSwapDelta"},{"name":"","type":"uint24","internalType":"uint24"}],"stateMutability":"nonpayable"},{"type":"function","name":"calculateIv","inputs":[{"name":"_poolAddress","type":"address","internalType":"address"},{"name":"volume","type":"uint160","internalType":"uint160"}],"outputs":[{"name":"_iv","type":"uint160","internalType":"uint160"}],"stateMutability":"view"},{"type":"function","name":"deploy2Currency","inputs":[{"name":"deriveToken","type":"address","internalType":"address"},{"name":"_tokenName","type":"string[2]","internalType":"string[2]"},{"name":"_tokenSymbol","type":"string[2]","internalType":"string[2]"},{"name":"_poolAddress","type":"address","internalType":"address"},{"name":"volume","type":"uint160","internalType":"uint160"},{"name":"deadline","type":"uint256","internalType":"uint256"}],"outputs":[{"name":"","type":"address[2]","internalType":"address[2]"}],"stateMutability":"nonpayable"},{"type":"function","name":"getHookPermissions","inputs":[],"outputs":[{"name":"","type":"tuple","internalType":"struct Hooks.Permissions","components":[{"name":"beforeInitialize","type":"bool","internalType":"bool"},{"name":"afterInitialize","type":"bool","internalType":"bool"},{"name":"beforeAddLiquidity","type":"bool","internalType":"bool"},{"name":"afterAddLiquidity","type":"bool","internalType":"bool"},{"name":"beforeRemoveLiquidity","type":"bool","internalType":"bool"},{"name":"afterRemoveLiquidity","type":"bool","internalType":"bool"},{"name":"beforeSwap","type":"bool","internalType":"bool"},{"name":"afterSwap","type":"bool","internalType":"bool"},{"name":"beforeDonate","type":"bool","internalType":"bool"},{"name":"afterDonate","type":"bool","internalType":"bool"},{"name":"beforeSwapReturnDelta","type":"bool","internalType":"bool"},{"name":"afterSwapReturnDelta","type":"bool","internalType":"bool"},{"name":"afterAddLiquidityReturnDelta","type":"bool","internalType":"bool"},{"name":"afterRemoveLiquidityReturnDelta","type":"bool","internalType":"bool"}]}],"stateMutability":"pure"},{"type":"function","name":"getVixData","inputs":[{"name":"deriveAsset","type":"address","internalType":"address"}],"outputs":[{"name":"vixHighToken","type":"address","internalType":"address"},{"name":"_vixLowToken","type":"address","internalType":"address"},{"name":"_circulation0","type":"uint256","internalType":"uint256"},{"name":"_circulation1","type":"uint256","internalType":"uint256"},{"name":"_contractHoldings0","type":"uint256","internalType":"uint256"},{"name":"_contractHoldings1","type":"uint256","internalType":"uint256"},{"name":"_reserve0","type":"uint256","internalType":"uint256"},{"name":"_reserve1","type":"uint256","internalType":"uint256"},{"name":"_poolAddress","type":"address","internalType":"address"}],"stateMutability":"view"},{"type":"function","name":"isPairInitiated","inputs":[{"name":"","type":"address","internalType":"address"}],"outputs":[{"name":"","type":"bool","internalType":"bool"}],"stateMutability":"view"},{"type":"function","name":"oneForZeroOperator","inputs":[{"name":"key","type":"tuple","internalType":"struct PoolKey","components":[{"name":"currency0","type":"address","internalType":"Currency"},{"name":"currency1","type":"address","internalType":"Currency"},{"name":"fee","type":"uint24","internalType":"uint24"},{"name":"tickSpacing","type":"int24","internalType":"int24"},{"name":"hooks","type":"address","internalType":"contract IHooks"}]},{"name":"_deriveAsset","type":"address","internalType":"address"},{"name":"params","type":"tuple","internalType":"struct IPoolManager.SwapParams","components":[{"name":"zeroForOne","type":"bool","internalType":"bool"},{"name":"amountSpecified","type":"int256","internalType":"int256"},{"name":"sqrtPriceLimitX96","type":"uint160","internalType":"uint160"}]},{"name":"amountInOutPositive","type":"uint256","internalType":"uint256"},{"name":"zeroIsBase","type":"bool","internalType":"bool"}],"outputs":[{"name":"","type":"int128","internalType":"int128"},{"name":"","type":"int128","internalType":"int128"}],"stateMutability":"nonpayable"},{"type":"function","name":"pairEndingTime","inputs":[{"name":"","type":"address","internalType":"address"}],"outputs":[{"name":"","type":"uint256","internalType":"uint256"}],"stateMutability":"view"},{"type":"function","name":"pairInitiatedTime","inputs":[{"name":"","type":"address","internalType":"address"}],"outputs":[{"name":"","type":"uint256","internalType":"uint256"}],"stateMutability":"view"},{"type":"function","name":"poolManager","inputs":[],"outputs":[{"name":"","type":"address","internalType":"contract IPoolManager"}],"stateMutability":"view"},{"type":"function","name":"resetPair","inputs":[{"name":"deriveToken","type":"address","internalType":"address"},{"name":"deadline","type":"uint256","internalType":"uint256"},{"name":"_poolAddress","type":"address","internalType":"address"},{"name":"volume","type":"uint160","internalType":"uint160"},{"name":"liquidity","type":"uint160","internalType":"uint160"},{"name":"fee","type":"uint160","internalType":"uint160"}],"outputs":[{"name":"","type":"address[2]","internalType":"address[2]"}],"stateMutability":"nonpayable"},{"type":"function","name":"swapReserve","inputs":[{"name":"initialIv","type":"uint256","internalType":"uint256"},{"name":"currentIv","type":"uint256","internalType":"uint256"},{"name":"reserve0","type":"uint256","internalType":"uint256"},{"name":"reserve1","type":"uint256","internalType":"uint256"},{"name":"circulation0","type":"uint256","internalType":"uint256"},{"name":"circulation1","type":"uint256","internalType":"uint256"},{"name":"deriveAsset","type":"address","internalType":"address"}],"outputs":[{"name":"","type":"uint256","internalType":"uint256"},{"name":"","type":"uint256","internalType":"uint256"}],"stateMutability":"nonpayable"},{"type":"function","name":"unlockCallback","inputs":[{"name":"data","type":"bytes","internalType":"bytes"}],"outputs":[{"name":"","type":"bytes","internalType":"bytes"}],"stateMutability":"nonpayable"},{"type":"function","name":"vixTokensPrice","inputs":[{"name":"circulation","type":"uint256","internalType":"uint256"}],"outputs":[{"name":"","type":"uint256","internalType":"uint256"}],"stateMutability":"pure"},{"type":"function","name":"zeroForOneOperator","inputs":[{"name":"key","type":"tuple","internalType":"struct PoolKey","components":[{"name":"currency0","type":"address","internalType":"Currency"},{"name":"currency1","type":"address","internalType":"Currency"},{"name":"fee","type":"uint24","internalType":"uint24"},{"name":"tickSpacing","type":"int24","internalType":"int24"},{"name":"hooks","type":"address","internalType":"contract IHooks"}]},{"name":"_deriveAsset","type":"address","internalType":"address"},{"name":"params","type":"tuple","internalType":"struct IPoolManager.SwapParams","components":[{"name":"zeroForOne","type":"bool","internalType":"bool"},{"name":"amountSpecified","type":"int256","internalType":"int256"},{"name":"sqrtPriceLimitX96","type":"uint160","internalType":"uint160"}]},{"name":"amountInOutPositive","type":"uint256","internalType":"uint256"},{"name":"zeroIsBase","type":"bool","internalType":"bool"}],"outputs":[{"name":"","type":"int128","internalType":"int128"},{"name":"","type":"int128","internalType":"int128"}],"stateMutability":"nonpayable"},{"type":"event","name":"HookSwap","inputs":[{"name":"id","type":"bytes32","indexed":true,"internalType":"bytes32"},{"name":"sender","type":"address","indexed":true,"internalType":"address"},{"name":"amount0","type":"int128","indexed":false,"internalType":"int128"},{"name":"amount1","type":"int128","indexed":false,"internalType":"int128"},{"name":"hookLPfeeAmount0","type":"uint128","indexed":false,"internalType":"uint128"},{"name":"hookLPfeeAmount1","type":"uint128","indexed":false,"internalType":"uint128"}],"anonymous":false},{"type":"event","name":"PairExpired","inputs":[{"name":"deriveToken","type":"address","indexed":true,"internalType":"address"},{"name":"vixHighToken","type":"address","indexed":true,"internalType":"address"},{"name":"vixLowToken","type":"address","indexed":true,"internalType":"address"},{"name":"initatedIV","type":"uint256","indexed":false,"internalType":"uint256"},{"name":"expiredTime","type":"uint256","indexed":false,"internalType":"uint256"}],"anonymous":false},{"type":"event","name":"PairInitiated","inputs":[{"name":"_deriveToken","type":"address","indexed":true,"internalType":"address"},{"name":"_vixHighToken","type":"address","indexed":true,"internalType":"address"},{"name":"_vixLowToken","type":"address","indexed":true,"internalType":"address"},{"name":"_initiatedTime","type":"uint256","indexed":false,"internalType":"uint256"},{"name":"_deadline","type":"uint256","indexed":false,"internalType":"uint256"},{"name":"initiatedIV","type":"uint256","indexed":false,"internalType":"uint256"}],"anonymous":false},{"type":"error","name":"HookNotImplemented","inputs":[]},{"type":"error","name":"NotPoolManager","inputs":[]},{"type":"error","name":"invalidLiquidityAction","inputs":[]}],"bytecode":{"object":"0x60a0604052346102d157604051601f614b2638819003918201601f19168301916001600160401b038311848410176102d55780849260409485528339810103126102d1578051906001600160a01b03821682036102d157602001516001600160a01b03811691908290036102d1576080525f6101a061007c6102e9565b8281528260208201528260408201528260608201528260808201528260a08201528260c08201528260e0820152826101008201528261012082015282610140820152826101608201528261018082015201525f6101a06100da6102e9565b82815282602082015260016040820152600160608201528260808201528260a0820152600160c0820152600160e082015282610100820152826101208201526001610140820152826101608201528261018082015201526120003016158015906102c4575b80156102b3575b80156102a2575b8015610295575b8015610288575b8015610278575b8015610268575b801561025c575b8015610250575b8015610240575b8015610234575b8015610228575b801561021c575b61020957600480546001600160a01b03191691909117905560405161481c908161030a82396080518181816101f9015281816102d601528181610328015281816107730152818161096e015281816109e301528181610cd20152818161105401528181611a0f01528181612c760152612ec40152f35b630732d7b560e51b5f523060045260245ffd5b50600130161515610193565b5060023016151561018c565b50600430161515610185565b506008301615156001141561017e565b50601030161515610177565b50602030161515610170565b5060403016151560011415610169565b5060803016151560011415610162565b506101003016151561015b565b5061020030161515610154565b50610400301615156001141561014d565b506108003016151560011415610146565b506110003016151561013f565b5f80fd5b634e487b7160e01b5f52604160045260245ffd5b604051906101c082016001600160401b038111838210176102d55760405256fe60806040526004361015610011575f80fd5b5f3560e01c806321d0ee7014611041578063259982e51461104157806336808a7c1461101c5780634c001a9e14610fdb578063575e24b414610c7c578063591094e414610c1a5780635f40ef0114610b8b5780636c2bbe7e1461095b5780636fe7e6eb14610b5357806377295a8d14610b175780638b7cc62914610af957806391dd7346146109b15780639f063efc1461095b578063a79a3478146108e0578063b47b2fb11461071d578063b6780bf214610622578063b6a8b0fa146101e6578063bb2ffdef146105ea578063c4e833ce14610481578063c55dae6314610459578063c57981b51461043d578063d111f97e14610405578063d9a6eef914610357578063dc4c90d314610313578063dc98354e146102a5578063de2ff8021461024a578063e1b4af69146101e6578063f68f3c57146101a8578063f86325ed146101885763fc63b1fd14610163575f80fd5b34610184575f366003190112610184576020604051666a94d74f4300008152f35b5f80fd5b34610184575f366003190112610184576020604051650574fbde60008152f35b346101845760403660031901126101845760206101d46101c66110aa565b6101ce6110c0565b90611f81565b6040516001600160a01b039091168152f35b34610184576101f436611453565b5050507f00000000000000000000000000000000000000000000000000000000000000006001600160a01b03163303925061023b91505057630a85dc2960e01b5f5260045ffd5b63570c108560e11b5f5260045ffd5b346101845760c0366003190112610184576102a16102956102696110aa565b6102716110d6565b6102796110ec565b9161028261125f565b5061028b611275565b5060243590611cc6565b6040519182918261141c565b0390f35b346101845760e0366003190112610184576102be6110aa565b5060a0366023190112610184576102d3611094565b507f00000000000000000000000000000000000000000000000000000000000000006001600160a01b0316330361023b57630a85dc2960e01b5f5260045ffd5b34610184575f366003190112610184576040517f00000000000000000000000000000000000000000000000000000000000000006001600160a01b03168152602090f35b3461018457610365366111a6565b6001600160a01b039384165f908152600360205260409020929390929061038b8661173f565b16936001600160a01b036103a16020880161173f565b83546001600160a01b031696871496911686156103fa575b505060205f91013512935f146103eb576103d294612bed565b905b60408051600f92830b81529290910b602083015290f35b6103f494612bb5565b906103d4565b14945060205f6103b9565b34610184576020366003190112610184576001600160a01b036104266110aa565b165f526001602052602060405f2054604051908152f35b34610184575f3660031901126101845760206040516127108152f35b34610184575f366003190112610184576004546040516001600160a01b039091168152602090f35b34610184575f366003190112610184575f6101a06040516104a18161130a565b8281528260208201528260408201528260608201528260808201528260a08201528260c08201528260e0820152826101008201528261012082015282610140820152826101608201528261018082015201526101c060206040516105048161130a565b5f8152818101905f825260408101600181526060820160018152608083015f815260a084015f815260c085016001815260e0860190600182526101008701925f84526101208801945f8652610140890196600188526101608a01985f8a526101a06101808c019b5f8d52019b5f8d526040519d8e915f835251151591015251151560408d015251151560608c015251151560808b015251151560a08a015251151560c089015251151560e08801525115156101008701525115156101208601525115156101408501525115156101608401525115156101808301525115156101a0820152f35b34610184576020366003190112610184576001600160a01b0361060b6110aa565b165f526002602052602060405f2054604051908152f35b34610184576020366003190112610184576001600160a01b036106436110aa565b165f52600360205261012060405f206040519061065f826112ee565b60018060a01b038154169182815260018060a01b03600183015416806020830152600283015480604084015260038401548060608501526004850154908160808601526005860154928360a08701526006870154948560c08801526007880154968760e08201528a60018060a01b0360088b015416998a610100840152600960018060a01b0391015416910152604051988952602089015260408801526060870152608086015260a085015260c084015260e0830152610100820152f35b3461018457610160366003190112610184576107376110aa565b5060a03660231901126101845760603660c319011261018457610144356001600160401b03811161018457610770903690600401611116565b907f00000000000000000000000000000000000000000000000000000000000000006001600160a01b0316330361023b576107ad91810190612835565b80516001600160a01b039081165f818152600360209081526040909120600881015460099091015491909401519193908316926107ed9281169116611f81565b91805f526003602052600660405f2001541515806108c8575b610821575b6040805163b47b2fb160e01b81525f6020820152f35b5f81815260036020819052604090912060068101546007820154600283015492909301546108c09661086296919492916001600160a01b0390911690611550565b9061089660409182516108758482611341565b600f81526e03932b9b2b93b329039b434b33a1d1608d1b6020820152612d9b565b6108a281519182611341565b600c81526b03a37b5b2b710313ab9371d160a51b6020820152612d9b565b80808061080b565b50805f526003602052600760405f2001541515610806565b346101845760c0366003190112610184576108f96110aa565b6024356001600160401b0381116101845761091890369060040161137d565b90604435906001600160401b038211610184576102a19261094061029593369060040161137d565b6109486110ec565b9061095161125f565b9260a43594611778565b3461018457610969366111f6565b5050507f00000000000000000000000000000000000000000000000000000000000000006001600160a01b03163303935061023b9250505057630a85dc2960e01b5f5260045ffd5b34610184576020366003190112610184576004356001600160401b038111610184576109e1903690600401611116565b7f0000000000000000000000000000000000000000000000000000000000000000906001600160a01b038216330361023b57826080918101031261018457604051610ad192610a2f826112bf565b610abd8135808452610aa7610a4660208501611102565b610a8c6020870193828552610a706060610a6260408a01611102565b9860408b01998a5201611102565b60608901818152936001600160a01b03918216918b91166128e1565b845190518651916001600160a01b03918216918991166128e1565b51835190309086906001600160a01b0316612b67565b5190519130916001600160a01b0316612b67565b6102a1604051610ae2602082611341565b5f815260405191829160208352602083019061129b565b34610184575f366003190112610184576020604051633b9aca008152f35b34610184576020366003190112610184576001600160a01b03610b386110aa565b165f525f602052602060ff60405f2054166040519015158152f35b346101845761010036600319011261018457610b6d6110aa565b5060a036602319011261018457610b82611094565b506102d361128b565b3461018457610b99366111a6565b6001600160a01b039384165f9081526003602052604090209293909290610bbf8661173f565b16936001600160a01b03610bd56020880161173f565b83546001600160a01b03169687149691168615610c0f575b505060205f91013512935f14610c06576103d2946128a3565b6103f49461286b565b14945060205f610bed565b346101845760203660031901126101845760043580633b9aca000290633b9aca00820403610c6857670de0b6b3a76400009004650574fbde60008101809111610c6857602090604051908152f35b634e487b7160e01b5f52601160045260245ffd5b346101845761014036600319011261018457610c966110aa565b60a03660231901126101845760603660c319011261018457610124356001600160401b03811161018457610cce903690600401611116565b91907f00000000000000000000000000000000000000000000000000000000000000006001600160a01b0316330361023b5760e435925f841315610fc957610d2384925b6001600160a01b0392810190612835565b5116916024359160018060a01b03831692838114159485610184576004546001600160a01b031685149360c43580151581036101845715610df957505f52600360205260405f20946101845750604435946001600160a01b03861693848703610184578554606097506001600160a01b0316908114948515610def575b50505f139215610ddf57610db5936024612bed565b6001600160801b03169060801b175b604051906315d7892d60e21b825260208201525f6040820152f35b610dea936024612bb5565b610db5565b1493505f87610da0565b5f918252600360205260409091209096929550936044356001600160a01b03811694939250848103610184575084546001600160a01b0316908114938415610fbf575b50505f1393849215610fae57610e539360246128a3565b915b60405193608083901b6001600160801b038516179390602086016001600160a01b03610e7f6110c0565b1681526001600160a01b03610e926110d6565b16604088015260643562ffffff81168091036101845760608801526084358060020b80910361018457608088015260a4356001600160a01b03811697908890036101845760609760a082015260a08152610eed60c082611341565b5190209215610f555760408051600f95860b81529290940b60208301525f93820184905260608201939093526001600160a01b03909216917f365f10e9e7ce45d7acfd986c42e0b666f8af282e440e6dafc78c1f2b2f7867609080608081015b0390a3610dc4565b60408051600f93840b81529490920b60208501525f91840182905260608401919091526001600160a01b0316917f365f10e9e7ce45d7acfd986c42e0b666f8af282e440e6dafc78c1f2b2f786760908060808101610f4d565b610fb993602461286b565b91610e55565b1492505f87610e3c565b610d23610fd585612825565b92610d12565b346101845760e0366003190112610184576040611010610ff9611094565b60a435608435606435604435602435600435611550565b82519182526020820152f35b34610184575f3660031901126101845760206040516acecb8f27f4200f3a0000008152f35b346101845761104f36611143565b5050507f00000000000000000000000000000000000000000000000000000000000000006001600160a01b03163303915061023b90505762c890a560e31b5f5260045ffd5b60c435906001600160a01b038216820361018457565b600435906001600160a01b038216820361018457565b602435906001600160a01b038216820361018457565b604435906001600160a01b038216820361018457565b606435906001600160a01b038216820361018457565b35906001600160a01b038216820361018457565b9181601f84011215610184578235916001600160401b038311610184576020838186019501011161018457565b90610160600319830112610184576004356001600160a01b0381168103610184579160a060231982011261018457602491608060c3198301126101845760c49161014435906001600160401b038211610184576111a291600401611116565b9091565b600319810161016081126101845760a0136101845760049160a4356001600160a01b0381168103610184576060909260c31901126101845760c49061012435906101443580151581036101845790565b906101a0600319830112610184576004356001600160a01b0381168103610184579160a060231982011261018457602491608060c3198301126101845760c4916101443591610164359161018435906001600160401b038211610184576111a291600401611116565b608435906001600160a01b038216820361018457565b60a435906001600160a01b038216820361018457565b60e435908160020b820361018457565b805180835260209291819084018484015e5f828201840152601f01601f1916010190565b608081019081106001600160401b038211176112da57604052565b634e487b7160e01b5f52604160045260245ffd5b61014081019081106001600160401b038211176112da57604052565b6101c081019081106001600160401b038211176112da57604052565b604081019081106001600160401b038211176112da57604052565b90601f801991011681019081106001600160401b038211176112da57604052565b6001600160401b0381116112da57601f01601f191660200190565b9080601f83011215610184576040916040519261139b604085611341565b8360408301928484116101845780915b8483106113bb5750505050505090565b82356001600160401b03811161018457820186601f82011215610184578035916113e483611362565b6113f087519182611341565b8381528860208585010111610184575f60208581968280970183860137830101528152019201916113ab565b919060408301925f905b6002821061143357505050565b82516001600160a01b031681526020928301926001929092019101611426565b610120600319820112610184576004356001600160a01b0381168103610184579160a06023198301126101845760249160c4359160e4359161010435906001600160401b038211610184576111a291600401611116565b91908203918211610c6857565b81810292918115918404141715610c6857565b81156114d4570490565b634e487b7160e01b5f52601260045260245ffd5b156114ef57565b60405162461bcd60e51b815260206004820152602660248201527f726573657276652073686966742073686f756c6420626520677265617465722060448201526507468616e20360d41b6064820152608490fd5b91908201809211610c6857565b969593949692919281811180611736575b156116465790611570916114aa565b9182666a94d74f4300000292666a94d74f430000840403610c68576115c3816115be670de0b6b3a76400006115ab6115be956115ca986114b7565b04976115b88915156114e8565b886114b7565b6114ca565b96856114b7565b9060018060a01b0316805f526003602052600660405f20016115ed8482546114aa565b9055805f526003602052600760405f2001611609848254611543565b9055805f526003602052600460405f20016116258682546114aa565b90555f526003602052611640600560405f2001918254611543565b90559190565b90808298969598949394108061172d575b1561171f5790611666916114aa565b9182666a94d74f4300000292666a94d74f430000840403610c68576116a1816115be670de0b6b3a76400006115ab6115be956116a8986114b7565b93856114b7565b9360018060a01b031690815f526003602052600660405f20016116cc848254611543565b9055815f526003602052600760405f20016116e88482546114aa565b9055815f526003602052611704600560405f20019182546114aa565b90555f526003602052600460405f2001611640848254611543565b50505050505090505f905f90565b50828411611657565b50828411611561565b356001600160a01b03811681036101845790565b9060028110156117645760051b0190565b634e487b7160e01b5f52603260045260245ffd5b929091949360409384805161178d8282611341565b36903760018060a01b031692835f525f60205260ff855f205416158015611c43575b15611c0b57835f525f602052845f20600160ff19825416179055835f52600160205242855f20556117e08642611543565b845f526002602052855f20558451966117f98689611341565b85368937613c68610b7f5f5b60028110611b1c57505050505061181c9082611f81565b8551602087018051865191966001600160a01b0391821695909492936009939216611846856112ee565b8452602084019586528484015f8152606085015f8152608086015f815260a08701905f825260c08801925f845260e08901945f86526101008a019660018060a01b031687526101208a019760018060a01b03169b8c89528d5f5260036020528b5f209a60018060a01b039060018060a01b03905116166001600160601b0360a01b8c5416178b5560018060a01b0390511660018b019060018060a01b03166001600160601b0360a01b8254161790555160028a015551600389015551600488015551600587015551600686015551600785015560018060a01b03905116600884019060018060a01b03166001600160601b0360a01b82541617905560018060a01b0390511691019060018060a01b03166001600160601b0360a01b825416179055611a0a5f60018060a01b0388511660018060a01b038751166060855161198c816112bf565b6acecb8f27f4200f3a0000008082526020808301958652888301948552309390920192835287519182015292516001600160a01b0390811684880152915182166060840152511660808083019190915281526119e960a082611341565b8351809381926348c8949160e01b835260206004840152602483019061129b565b0381837f00000000000000000000000000000000000000000000000000000000000000006001600160a01b03165af18015611b1257611a9b575b50855193516001600160a01b03908116959416937f560daaa031b8b3b2e5f80ba407405817b87a0643c3dfdda220be3c7f1e1cb0d39260609291611a889042611543565b918051924284526020840152820152a490565b903d805f843e611aab8184611341565b820191602081840312610184578051906001600160401b03821161018457019282601f8501121561018457611b096060938560207f560daaa031b8b3b2e5f80ba407405817b87a0643c3dfdda220be3c7f1e1cb0d397519101611c57565b50925090611a44565b82513d5f823e3d90fd5b611b268186611753565b51611b318286611753565b518a5191848301908382106001600160401b038311176112da578c611b798594611b6b62015180948a8c893960608752606087019061129b565b90858203602087015261129b565b92015203905ff08015611c01576001600160a01b031680611b9a838e611753565b52803b15610184575f809160448c51809481936340c10f1960e01b83523060048401526acecb8f27f4200f3a00000060248401525af18015611bf7579060019291611be7575b5001611805565b5f611bf191611341565b5f611be0565b8a513d5f823e3d90fd5b89513d5f823e3d90fd5b845162461bcd60e51b815260206004820152601160248201527050616972207374696c6c2061637469766560781b6044820152606490fd5b50835f526002602052845f205442116117af565b929192611c6382611362565b91611c716040519384611341565b829481845281830111610184578281602093845f96015e010152565b602081830312610184578051906001600160401b03821161018457019080601f83011215610184578151611cc392602001611c57565b90565b919092604093848051611cd98282611341565b36903760018060a01b03841691825f525f602052600160ff875f205416151503611ef157825f526002602052855f205442115f14611eba575f8381526003602052869020805460019091015487516001600160a01b0391821697919092169591611d4281611326565b88516306fdde0360e01b81525f816004818b5afa908115611bf7575f91611ea0575b50815288516306fdde0360e01b81525f816004818c5afa908115611bf7575f91611e86575b506020820152885191611d9b83611326565b89516395d89b4160e01b81525f816004818c5afa908115611e62575f91611e6c575b50835289516395d89b4160e01b81525f816004818d5afa908115611e6257917fcb3fbe718785507e72e2e217e13371632ac8bdcd85c308ca838df4f28bdd49e097959391611e199795935f91611e40575b506020840152611778565b94825f52600360205260018060a01b036009825f200154168151908152426020820152a490565b611e5c91503d805f833e611e548183611341565b810190611c8d565b5f611e0e565b8b513d5f823e3d90fd5b611e8091503d805f833e611e548183611341565b5f611dbd565b611e9a91503d805f833e611e548183611341565b5f611d89565b611eb491503d805f833e611e548183611341565b5f611d64565b855162461bcd60e51b815260206004820152601060248201526f14185a5c881b9bdd08195e1c1a5c995960821b6044820152606490fd5b855162461bcd60e51b815260206004820152601260248201527114185a5c881b9bdd081a5b9a5d1a585d195960721b6044820152606490fd5b51908160020b820361018457565b519061ffff8216820361018457565b519060ff8216820361018457565b5190811515820361018457565b9081602091031261018457516001600160a01b03811681036101845790565b604051630d34328160e11b81526001600160a01b03919091169190602081600481865afa908115612638575f916127e3575b50604051633850c7bd60e01b81529160e083600481875afa928315612638575f93612752575b506040516334324e9f60e21b815291602083600481885afa928315612638575f93612716575b50604051630dfe168160e01b815294602086600481845afa958615612638575f966126f5575b5060405163d21220a760e01b815295602087600481855afa918215612638576004975f936126c3575b506020906040519889809263ddca3f4360e01b82525afa968715612638575f97612682575b5060405163313ce56760e01b815290602090829060049082906001600160a01b03165afa801561263857612643575b5060405163313ce56760e01b815290602090829060049082906001600160a01b03165afa801561263857612601575b505f908460020b9360020b9081156114d457627fffff1985145f19831416610c68578180860560020b02918260020b928303610c6857820191627fffff8313627fffff19841217610c685761213161212b612137926130b0565b936130b0565b966130b0565b5f6122706040986121766001600160801b038b51966121568d89611341565b600b88526a03634b8bab4b234ba3c9d160ad1b6020890152168096612d9b565b82808b516121848d82611341565b600681526503a34b1b59d160d51b60208201526121d48d8d6121c08251948593631e53134760e11b60208601526024850152606484019061129b565b90604483015203601f198101835282611341565b6020815191016a636f6e736f6c652e6c6f675afa506001600160a01b03848116959161226a9161222491889116808281116125f6575b508061221961221f92846114aa565b866138b0565b61368d565b96612251888d61223681519182611341565b6009815268030b6b7bab73a181d160bd1b6020820152612d9b565b6001600160a01b031686818181116125eb575b506114aa565b906114b7565b61229d818a516122808c82611341565b600b81526a0373ab6b2b930ba37b91d160ad1b6020820152612d9b565b60601c966122cc888a516122b18c82611341565b6009815268030b6b7bab73a189d160bd1b6020820152612d9b565b12156125a6576122ef91906001600160a01b03906122e990612ccc565b166137c4565b9586156114d45761236a6103e89362ffffff938997886ec097ce7bc90715b34b9f1000000000049a8b935f1461259257506123329261232d916114b7565b611543565b976123656024975b6123658b8b5161234a8d82611341565b60098152686c697175696469747960b81b6020820152612d9b565b61390e565b16049360018060a01b0316916123a984516123858682611341565b60078152663b37b63ab6b29d60c91b60208201526001600160a01b03841690612d9b565b6123d98385516123b98782611341565b600e81526d3a34b1b5a634b8bab4b234ba3c9d60911b6020820152612d9b565b6001600160a01b031690604d8211610c685761247a9261247461246e6124749361243c61240987600a0a866114ca565b89516124158b82611341565b6015815274039b1b0b632a237bbb7103634b8bab4b234ba3c9d1605d1b6020820152612d9b565b61246986895161244c8b82611341565b600b81526a039b1b0b632a237bbb71d160ad1b6020820152612d9b565b612ccc565b93612cf6565b90612d7c565b8151926124878385611341565b60068452653930ba34b79d60d11b60208501526001600160a01b038216936124b0908590612d9b565b5f6003851115612582575090928391906001016001600160a01b038111610c685760011c60016001609f1b0316935b6001600160a01b038581169190811682101561252857506125008584612d7c565b6001600160a01b0390811691909101908111610c685760011c60016001609f1b0316936124df565b92505092505b60019290921b6301fffffe16916001600160a01b039081168381029091169280159084049091141715610c685781611cc39161256c81519182611341565b6004815263034bb1d160e51b6020820152612d9b565b9150921561252e5750600161252e565b6125a1935061232d91926114b7565b612332565b506125b491969250806137c4565b9283156114d4576103e89161236a6125df62ffffff9361232d8880670de0b6b3a7640000049b6114b7565b9761236560129761233a565b91505086905f612264565b91905061221f61220a565b6020813d602011612630575b8161261a60209383611341565b810103126101845761262b90611f47565b6120d1565b3d915061260d565b6040513d5f823e3d90fd5b6020813d60201161267a575b8161265c60209383611341565b8101031261018457600491612672602092611f47565b5091506120a2565b3d915061264f565b9096506020813d6020116126bb575b8161269e60209383611341565b81010312610184575162ffffff8116810361018457956020612073565b3d9150612691565b60209193506126e790823d84116126ee575b6126df8183611341565b810190611f62565b929061204e565b503d6126d5565b61270f91965060203d6020116126ee576126df8183611341565b945f612025565b9092506020813d60201161274a575b8161273260209383611341565b810103126101845761274390611f2a565b915f611fff565b3d9150612725565b90925060e0813d60e0116127db575b8161276e60e09383611341565b810103126101845780516001600160a01b03811603610184576127d360c061279860208401611f2a565b926127a560408201611f38565b506127b260608201611f38565b506127bf60808201611f38565b506127cc60a08201611f47565b5001611f55565b50915f611fd9565b3d9150612761565b90506020813d60201161281d575b816127fe60209383611341565b8101031261018457516001600160801b0381168103610184575f611fb3565b3d91506127f1565b600160ff1b8114610c68575f0390565b908160409103126101845761286360206040519261285284611326565b61285b81611102565b845201611102565b602082015290565b93919290911561288c5715612883576111a292612f67565b6111a292612efe565b1561289a576111a292612e3d565b6111a292612e01565b9391929091156128c457156128bb576111a292613073565b6111a292613013565b1561289a576111a292612fab565b90816020910312610184575190565b6001600160a01b0316939291846129505750604051630476982d60e21b8152929350602091839160049183916001600160a01b03165af18015612638576129255750565b6129469060203d602011612949575b61293e8183611341565b8101906128d2565b50565b503d612934565b916001600160a01b0390911690813b1561018457604051632961046560e21b815260048101869052925a935f816024818388819af1801561263857612aeb575b506001600160a01b0316308114612a5f579060646020928560405198899485936323b872dd60e01b8552600485015287602485015260448401525af1938415612a5457829394612a10575b506020905b600460405180958193630476982d60e21b83525af1908115612a0457506129255750565b604051903d90823e3d90fd5b9091506020813d602011612a4c575b81612a2c60209383611341565b81010312612a48578291612a41602092611f55565b50906129db565b8280fd5b3d9150612a1f565b6040513d84823e3d90fd5b5060405163a9059cbb60e01b81526001600160a01b03831660048201526024810191909152936020908590604490829086905af1938415612a5457829394612aab575b506020906129e0565b9091506020813d602011612ae3575b81612ac760209383611341565b81010312612a48578291612adc602092611f55565b5090612aa2565b3d9150612aba565b612af89194505f90611341565b5f925f612990565b9192906001600160a01b0316803b1561018457604051637a94c56560e11b81526001600160a01b03948516600482015293909216602484015260448301525f908290818381606481015b03925af1801561263857612b5b5750565b5f612b6591611341565b565b9192906001600160a01b0316803b1561018457604051630ab714fb60e11b81526001600160a01b03948516600482015293909216602484015260448301525f90829081838160648101612b4a565b939192909115612bd65715612bcd576111a292612efe565b6111a292612f67565b15612be4576111a292612e01565b6111a292612e3d565b939192909115612c0e5715612c05576111a292613013565b6111a292613073565b9193929115612cc1576001600160801b0384612cb08183956006866002612cb99801612c5785612c4083549e8f613936565b9d60048501612c50838254611543565b9055611543565b905501612c658a8254611543565b9055612c708161173f565b612c9e8a7f000000000000000000000000000000000000000000000000000000000000000092833091612b67565b612cab602030930161173f565b612b00565b16600f0b612de1565b9216600f0b90565b6111a2929391612fab565b6001600160a01b03908116670de0b6b3a764000081810290921692918184041490151715610c6857565b8015612d765760208110600116604e821060011617612d62576001600a915b60018111612d3357506001600160a01b038290048111610c68570290565b916001600160a01b038190048111610c685760018316612d59575b80029160011c612d15565b80910290612d4e565b600a0a906001600160a01b038211610c6857565b50600190565b6001600160a01b039091169081156114d4576001600160a01b03160490565b6121c0612dca5f93928493604051938492632d839cb360e21b602085015260406024850152606484019061129b565b6020815191016a636f6e736f6c652e6c6f675afa50565b600f0b6f7fffffffffffffffffffffffffffffff198114610c68575f0390565b6001600160801b0383612cb081612cb9946007859799989960038101612c5785612e2d83549e8f613936565b9d60058501612c50838254611543565b929190926003840191825490612e538183613a1f565b95670de0b6b3a7640000870296808804670de0b6b3a76400001490151715610c685786612cb9946007612cb0936001600160801b0398612e94858b996114aa565b905560058101612ea58582546114aa565b905501612eb38582546114aa565b9055612ebe8161173f565b612eec857f000000000000000000000000000000000000000000000000000000000000000092833091612b00565b612ef9602030930161173f565b612b67565b9291926003820191825490612f138683613a1f565b90670de0b6b3a7640000820291808304670de0b6b3a76400001490151715610c685781612f5e946007836001600160801b0398612c57858b996005612cb09901612c50838254611543565b9216600f0b9190565b6001600160801b038092612cb085612f5e9497969760076003850194855495612ea585612f94818a613bc6565b9860058501612fa48382546114aa565b90556114aa565b929190926002840191825490612fc18183613a1f565b95670de0b6b3a7640000870296808804670de0b6b3a76400001490151715610c685786612cb9946006612cb0936001600160801b0398613002858b996114aa565b905560048101612ea58582546114aa565b92919260028201918254906130288683613a1f565b90670de0b6b3a7640000820291808304670de0b6b3a76400001490151715610c685781612f5e946006836001600160801b0398612c57858b996004612cb09901612c50838254611543565b6001600160801b038092612cb085612f5e9497969760066002850194855495612ea5856130a0818a613bc6565b9860048501612fa48382546114aa565b60020b5f811215613687576130c481612825565b905b620d89e8821161365e57600182161561364c576001600160881b036ffffcb933bd6fad37aa2d162d1a5940015b169160028116613611575b600481166135d6575b6008811661359b575b60108116613560575b60208116613525575b604081166134ea575b608081166134af575b6101008116613474575b6102008116613439575b61040081166133fe575b61080081166133c3575b6110008116613388575b612000811661334d575b6140008116613312575b61800081166132d7575b62010000811661329c575b620200008116613263575b62040000811661322c575b62080000166131f9575b5f126131eb575b63ffffffff81166131e0576131dc5f915b6001600160a01b039260ff169060201c611543565b1690565b6131dc6001916131c7565b80156114d4575f19046131b6565b906b048a170391f7dc42444e8fa28102908082046b048a170391f7dc42444e8fa21490151715610c685760801c906131af565b916d2216e584f5fa1ea926041bedfe988102908082046d2216e584f5fa1ea926041bedfe981490151715610c685760801c916131a5565b916e5d6af8dedb81196699c329225ee6048102908082046e5d6af8dedb81196699c329225ee6041490151715610c685760801c9161319a565b916f09aa508b5b7a84e1c677de54f3e99bc98102908082046f09aa508b5b7a84e1c677de54f3e99bc91490151715610c685760801c9161318f565b916f31be135f97d08fd981231505542fcfa68102908082046f31be135f97d08fd981231505542fcfa61490151715610c685760801c91613184565b916f70d869a156d2a1b890bb3df62baf32f78102908082046f70d869a156d2a1b890bb3df62baf32f71490151715610c685760801c9161317a565b916fa9f746462d870fdf8a65dc1f90e061e58102908082046fa9f746462d870fdf8a65dc1f90e061e51490151715610c685760801c91613170565b916fd097f3bdfd2022b8845ad8f792aa58258102908082046fd097f3bdfd2022b8845ad8f792aa58251490151715610c685760801c91613166565b916fe7159475a2c29b7443b29c7fa6e889d98102908082046fe7159475a2c29b7443b29c7fa6e889d91490151715610c685760801c9161315c565b916ff3392b0822b70005940c7a398e4b70f38102908082046ff3392b0822b70005940c7a398e4b70f31490151715610c685760801c91613152565b916ff987a7253ac413176f2b074cf7815e548102908082046ff987a7253ac413176f2b074cf7815e541490151715610c685760801c91613148565b916ffcbe86c7900a88aedcffc83b479aa3a48102908082046ffcbe86c7900a88aedcffc83b479aa3a41490151715610c685760801c9161313e565b916ffe5dee046a99a2a811c461f1969c30538102908082046ffe5dee046a99a2a811c461f1969c30531490151715610c685760801c91613134565b916fff2ea16466c96a3843ec78b326b528618102908082046fff2ea16466c96a3843ec78b326b528611490151715610c685760801c9161312b565b916fff973b41fa98c081472e6896dfb254c08102908082046fff973b41fa98c081472e6896dfb254c01490151715610c685760801c91613122565b916fffcb9843d60f6159c9db58835c9266448102908082046fffcb9843d60f6159c9db58835c9266441490151715610c685760801c91613119565b916fffe5caca7e10e4e61c3624eaa0941cd08102908082046fffe5caca7e10e4e61c3624eaa0941cd01490151715610c685760801c91613110565b916ffff2e50f5f656932ef12357cf3c7fdcc8102908082046ffff2e50f5f656932ef12357cf3c7fdcc1490151715610c685760801c91613107565b916ffff97272373d413259a46990580e213a8102908082046ffff97272373d413259a46990580e213a1490151715610c685760801c916130fe565b6001600160881b03600160801b6130f3565b60405162461bcd60e51b81526020600482015260016024820152601560fa1b6044820152606490fd5b806130c6565b5f19600160601b8209918160601b918280851094039380850394146137b75783821115610184578190600160601b9009811960018101809111610c68576136e790831680930494600184805f0304019085841190036114b7565b9203041781600302600381048303610c685760021861370681846114b7565b60020360028111610c685761371a916114b7565b61372481846114b7565b60020360028111610c6857613738916114b7565b61374281846114b7565b60020360028111610c6857613756916114b7565b61376081846114b7565b60020360028111610c6857613774916114b7565b61377e81846114b7565b6002039060028211610c685761379e91613797916114b7565b80936114b7565b6002039160028311610c6857611cc39261226a916114b7565b5080925015610184570490565b5f91905f1982820990828102928380841093039280840393146138a557600160c01b8310156138a1578491600160c01b9190099361388d575068010000000000000000908284119003818102918183041490151715610c68576138286001806114b7565b8060020360028111610c685761383d916114b7565b8060020360028111610c6857613852916114b7565b8060020360028111610c6857613867916114b7565b92836002039360028511610c6857611cc394613882916114b7565b920360c01c176114b7565b634e487b7160e01b81526011600452602490fd5b8480fd5b505050905060c01c90565b915f198284099282810292838086109503948086039514613900578483111561018457829109811960018101809111610c68576136e790831680930494600184805f0304019085841190036114b7565b505080925015610184570490565b5f80916040519063f82c50f160e01b6020830152602482015260248152612dca604482611341565b633b9aca00908082029082820403610c685761395d83670de0b6b3a76400008093046114b7565b0482820291808304841490151715610c6857671bc16d674ec8000061398f84670de0b6b3a764000061399695046114b7565b0490611543565b650574fbde60008281029290830403610c6857670de0b6b3a76400006139bd920490611543565b670de0b6b3a763d8f090818102918183041490151715610c6857670de0b6b3a7640000900490565b81810292915f8212600160ff1b821416610c68578184051490151715610c6857565b81810392915f138015828513169184121617610c6857565b908015613b8157670de0b6b3a76400008102908104670de0b6b3a764000003610c6857633b9aca00670de0b6b3a764000090920482810292670de0b6b3a764271090920491830403610c6857650574fbde60008201809211610c6857613a8490612825565b90613a8f81806139e5565b631dcd650092906377359400613aae92613aa8916139e5565b90613a07565b905f8212613b3257613ac2613ac792613c26565b613a07565b8160011b916002830503610c685781156114d457600160ff1b81145f19831416610c6857055f8112613af65790565b60405162461bcd60e51b8152602060048201526014602482015273125b9d985b1a59081d1bdad95b88185b5bdd5b9d60621b6044820152606490fd5b60405162461bcd60e51b815260206004820152602160248201527f4469736372696d696e616e74206d757374206265206e6f6e2d6e6567617469766044820152606560f81b6064820152608490fd5b60405162461bcd60e51b815260206004820152601e60248201527f436f7374206d7573742062652067726561746572207468616e207a65726f00006044820152606490fd5b633b9aca00908082029082820403610c6857613bed83670de0b6b3a76400008093046114b7565b0482820291808304841490151715610c6857671bc16d674ec80000613c1f84670de0b6b3a764000061399695046114b7565b04906114aa565b908115613c625760018201808311610c685760011c825b838210613c48575050565b909250613c598361232d81846114ca565b60011c90613c3d565b5f915056fe60806040523461034e57610b7f8038038061001981610352565b92833981019060608183031261034e5780516001600160401b03811161034e5782610045918301610377565b60208201519092906001600160401b03811161034e57604091610069918401610377565b91015182516001600160401b03811161025f57600354600181811c91168015610344575b602082101461024157601f81116102e1575b506020601f821160011461027e57819293945f92610273575b50508160011b915f199060031b1c1916176003555b81516001600160401b03811161025f57600454600181811c91168015610255575b602082101461024157601f81116101de575b50602092601f821160011461017d57928192935f92610172575b50508160011b915f199060031b1c1916176004555b600580546001600160a01b031916331790554290810190811061015e576006556040516107b690816103c98239f35b634e487b7160e01b5f52601160045260245ffd5b015190505f8061011a565b601f1982169360045f52805f20915f5b8681106101c657508360019596106101ae575b505050811b0160045561012f565b01515f1960f88460031b161c191690555f80806101a0565b9192602060018192868501518155019401920161018d565b60045f527f8a35acfbc15ff81a39ae7d344fd709f28e8600b4aa8c65c6b64bfe7fe36bd19b601f830160051c81019160208410610237575b601f0160051c01905b81811061022c5750610100565b5f815560010161021f565b9091508190610216565b634e487b7160e01b5f52602260045260245ffd5b90607f16906100ee565b634e487b7160e01b5f52604160045260245ffd5b015190505f806100b8565b601f1982169060035f52805f20915f5b8181106102c9575095836001959697106102b1575b505050811b016003556100cd565b01515f1960f88460031b161c191690555f80806102a3565b9192602060018192868b01518155019401920161028e565b60035f527fc2575a0e9e593c00f959f8c92f12db2869c3395a3b0502d05e2516446f71f85b601f830160051c8101916020841061033a575b601f0160051c01905b81811061032f575061009f565b5f8155600101610322565b9091508190610319565b90607f169061008d565b5f80fd5b6040519190601f01601f191682016001600160401b0381118382101761025f57604052565b81601f8201121561034e578051906001600160401b03821161025f576103a6601f8301601f1916602001610352565b928284526020838301011161034e57815f9260208093018386015e830101529056fe6080806040526004361015610012575f80fd5b5f3560e01c90816306fdde031461055857508063095ea7b3146104d657806318160ddd146104b957806323b872dd146103da578063313ce567146103bf57806336654887146103a257806340c10f191461029f57806370a08231146102685780638da5cb5b1461024057806395d89b4114610125578063a9059cbb146100f45763dd62ed3e146100a0575f80fd5b346100f05760403660031901126100f0576100b9610651565b6100c1610667565b6001600160a01b039182165f908152600160209081526040808320949093168252928352819020549051908152f35b5f80fd5b346100f05760403660031901126100f05761011a610110610651565b60243590336106c9565b602060405160018152f35b346100f0575f3660031901126100f0576040515f6004548060011c90600181168015610236575b6020831081146102225782855290811561020657506001146101b1575b50819003601f01601f191681019067ffffffffffffffff82118183101761019d5761019982918260405282610627565b0390f35b634e487b7160e01b5f52604160045260245ffd5b905060045f527f8a35acfbc15ff81a39ae7d344fd709f28e8600b4aa8c65c6b64bfe7fe36bd19b5f905b8282106101f057506020915082010182610169565b60018160209254838588010152019101906101db565b90506020925060ff191682840152151560051b82010182610169565b634e487b7160e01b5f52602260045260245ffd5b91607f169161014c565b346100f0575f3660031901126100f0576005546040516001600160a01b039091168152602090f35b346100f05760203660031901126100f0576001600160a01b03610289610651565b165f525f602052602060405f2054604051908152f35b346100f05760403660031901126100f0576102b8610651565b60055460243591906001600160a01b03163303610370576102dc600654421061067d565b6001600160a01b031690811561035d576102f9600654421061067d565b600254908082018092116103495760207fddf252ad1be2c89b69c2b068fc378daa952ba7f163c4a11628f55a4df523b3ef915f9360025584845283825260408420818154019055604051908152a3005b634e487b7160e01b5f52601160045260245ffd5b63ec442f0560e01b5f525f60045260245ffd5b60405162461bcd60e51b815260206004820152600a60248201526927a7262c9027aba722a960b11b6044820152606490fd5b346100f0575f3660031901126100f0576020600654604051908152f35b346100f0575f3660031901126100f057602060405160128152f35b346100f05760603660031901126100f0576103f3610651565b6103fb610667565b6001600160a01b0382165f818152600160209081526040808320338452909152902054909260443592915f198110610439575b5061011a93506106c9565b83811061049e57841561048b5733156104785761011a945f52600160205260405f2060018060a01b0333165f526020528360405f20910390558461042e565b634a1406b160e11b5f525f60045260245ffd5b63e602df0560e01b5f525f60045260245ffd5b8390637dc7a0d960e11b5f523360045260245260445260645ffd5b346100f0575f3660031901126100f0576020600254604051908152f35b346100f05760403660031901126100f0576104ef610651565b60243590331561048b576001600160a01b031690811561047857335f52600160205260405f20825f526020528060405f20556040519081527f8c5be1e5ebec7d5bd14f71427d1e84f3dd0314c0f7b2291e5b200ac8c7c3b92560203392a3602060405160018152f35b346100f0575f3660031901126100f0575f6003548060011c9060018116801561061d575b6020831081146102225782855290811561020657506001146105c85750819003601f01601f191681019067ffffffffffffffff82118183101761019d5761019982918260405282610627565b905060035f527fc2575a0e9e593c00f959f8c92f12db2869c3395a3b0502d05e2516446f71f85b5f905b82821061060757506020915082010182610169565b60018160209254838588010152019101906105f2565b91607f169161057c565b602060409281835280519182918282860152018484015e5f828201840152601f01601f1916010190565b600435906001600160a01b03821682036100f057565b602435906001600160a01b03821682036100f057565b1561068457565b60405162461bcd60e51b815260206004820152601d60248201527f544f4b454e20455850495245442c204d494e54494e4720434c4f5345440000006044820152606490fd5b6001600160a01b031690811561076d576001600160a01b031691821561035d576106f6600654421061067d565b815f525f60205260405f205481811061075457817fddf252ad1be2c89b69c2b068fc378daa952ba7f163c4a11628f55a4df523b3ef92602092855f525f84520360405f2055845f525f825260405f20818154019055604051908152a3565b8263391434e360e21b5f5260045260245260445260645ffd5b634b637e8f60e11b5f525f60045260245ffdfea2646970667358221220f22c2e720126aa917cafc4257ac5d3787bfd7191f41aa2e9a12f90a87f4714d064736f6c634300081a0033a2646970667358221220ee23352754ca5c328a97b1862fc9bf887b0cfb24a3bf76bfbf1d1905a5daf0ab64736f6c634300081a0033","linkReferences":{}},"methodIdentifiers":{"BASE_PRICE()":"f86325ed","FEE()":"c57981b5","IV_TOKEN_SUPPLY()":"36808a7c","RESERVE_SHIFT_SLOPE()":"fc63b1fd","SLOPE()":"8b7cc629","afterAddLiquidity(address,(address,address,uint24,int24,address),(int24,int24,int256,bytes32),int256,int256,bytes)":"9f063efc","afterDonate(address,(address,address,uint24,int24,address),uint256,uint256,bytes)":"e1b4af69","afterInitialize(address,(address,address,uint24,int24,address),uint160,int24)":"6fe7e6eb","afterRemoveLiquidity(address,(address,address,uint24,int24,address),(int24,int24,int256,bytes32),int256,int256,bytes)":"6c2bbe7e","afterSwap(address,(address,address,uint24,int24,address),(bool,int256,uint160),int256,bytes)":"b47b2fb1","baseToken()":"c55dae63","beforeAddLiquidity(address,(address,address,uint24,int24,address),(int24,int24,int256,bytes32),bytes)":"259982e5","beforeDonate(address,(address,address,uint24,int24,address),uint256,uint256,bytes)":"b6a8b0fa","beforeInitialize(address,(address,address,uint24,int24,address),uint160)":"dc98354e","beforeRemoveLiquidity(address,(address,address,uint24,int24,address),(int24,int24,int256,bytes32),bytes)":"21d0ee70","beforeSwap(address,(address,address,uint24,int24,address),(bool,int256,uint160),bytes)":"575e24b4","calculateIv(address,uint160)":"f68f3c57","deploy2Currency(address,string[2],string[2],address,uint160,uint256)":"a79a3478","getHookPermissions()":"c4e833ce","getVixData(address)":"b6780bf2","isPairInitiated(address)":"77295a8d","oneForZeroOperator((address,address,uint24,int24,address),address,(bool,int256,uint160),uint256,bool)":"5f40ef01","pairEndingTime(address)":"bb2ffdef","pairInitiatedTime(address)":"d111f97e","poolManager()":"dc4c90d3","resetPair(address,uint256,address,uint160,uint160,uint160)":"de2ff802","swapReserve(uint256,uint256,uint256,uint256,uint256,uint256,address)":"4c001a9e","unlockCallback(bytes)":"91dd7346","vixTokensPrice(uint256)":"591094e4","zeroForOneOperator((address,address,uint24,int24,address),address,(bool,int256,uint160),uint256,bool)":"d9a6eef9"},"id":108}