{"abi":[{"type":"constructor","inputs":[{"name":"poolManager","type":"address","internalType":"contract IPoolManager"},{"name":"_baseToken","type":"address","internalType":"address"},{"name":"_bondingCurve","type":"address","internalType":"address"},{"name":"slope","type":"uint256","internalType":"uint256"},{"name":"fee","type":"uint256","internalType":"uint256"},{"name":"basePrice","type":"uint256","internalType":"uint256"}],"stateMutability":"nonpayable"},{"type":"function","name":"BASE_PRICE","inputs":[],"outputs":[{"name":"","type":"uint256","internalType":"uint256"}],"stateMutability":"view"},{"type":"function","name":"FEE","inputs":[],"outputs":[{"name":"","type":"uint256","internalType":"uint256"}],"stateMutability":"view"},{"type":"function","name":"IV_TOKEN_SUPPLY","inputs":[],"outputs":[{"name":"","type":"uint256","internalType":"uint256"}],"stateMutability":"view"},{"type":"function","name":"RESERVE_SHIFT_SLOPE","inputs":[],"outputs":[{"name":"","type":"uint256","internalType":"uint256"}],"stateMutability":"view"},{"type":"function","name":"SLOPE","inputs":[],"outputs":[{"name":"","type":"uint256","internalType":"uint256"}],"stateMutability":"view"},{"type":"function","name":"afterAddLiquidity","inputs":[{"name":"sender","type":"address","internalType":"address"},{"name":"key","type":"tuple","internalType":"struct PoolKey","components":[{"name":"currency0","type":"address","internalType":"Currency"},{"name":"currency1","type":"address","internalType":"Currency"},{"name":"fee","type":"uint24","internalType":"uint24"},{"name":"tickSpacing","type":"int24","internalType":"int24"},{"name":"hooks","type":"address","internalType":"contract IHooks"}]},{"name":"params","type":"tuple","internalType":"struct IPoolManager.ModifyLiquidityParams","components":[{"name":"tickLower","type":"int24","internalType":"int24"},{"name":"tickUpper","type":"int24","internalType":"int24"},{"name":"liquidityDelta","type":"int256","internalType":"int256"},{"name":"salt","type":"bytes32","internalType":"bytes32"}]},{"name":"delta","type":"int256","internalType":"BalanceDelta"},{"name":"feesAccrued","type":"int256","internalType":"BalanceDelta"},{"name":"hookData","type":"bytes","internalType":"bytes"}],"outputs":[{"name":"","type":"bytes4","internalType":"bytes4"},{"name":"","type":"int256","internalType":"BalanceDelta"}],"stateMutability":"nonpayable"},{"type":"function","name":"afterDonate","inputs":[{"name":"sender","type":"address","internalType":"address"},{"name":"key","type":"tuple","internalType":"struct PoolKey","components":[{"name":"currency0","type":"address","internalType":"Currency"},{"name":"currency1","type":"address","internalType":"Currency"},{"name":"fee","type":"uint24","internalType":"uint24"},{"name":"tickSpacing","type":"int24","internalType":"int24"},{"name":"hooks","type":"address","internalType":"contract IHooks"}]},{"name":"amount0","type":"uint256","internalType":"uint256"},{"name":"amount1","type":"uint256","internalType":"uint256"},{"name":"hookData","type":"bytes","internalType":"bytes"}],"outputs":[{"name":"","type":"bytes4","internalType":"bytes4"}],"stateMutability":"nonpayable"},{"type":"function","name":"afterInitialize","inputs":[{"name":"sender","type":"address","internalType":"address"},{"name":"key","type":"tuple","internalType":"struct PoolKey","components":[{"name":"currency0","type":"address","internalType":"Currency"},{"name":"currency1","type":"address","internalType":"Currency"},{"name":"fee","type":"uint24","internalType":"uint24"},{"name":"tickSpacing","type":"int24","internalType":"int24"},{"name":"hooks","type":"address","internalType":"contract IHooks"}]},{"name":"sqrtPriceX96","type":"uint160","internalType":"uint160"},{"name":"tick","type":"int24","internalType":"int24"}],"outputs":[{"name":"","type":"bytes4","internalType":"bytes4"}],"stateMutability":"nonpayable"},{"type":"function","name":"afterRemoveLiquidity","inputs":[{"name":"sender","type":"address","internalType":"address"},{"name":"key","type":"tuple","internalType":"struct PoolKey","components":[{"name":"currency0","type":"address","internalType":"Currency"},{"name":"currency1","type":"address","internalType":"Currency"},{"name":"fee","type":"uint24","internalType":"uint24"},{"name":"tickSpacing","type":"int24","internalType":"int24"},{"name":"hooks","type":"address","internalType":"contract IHooks"}]},{"name":"params","type":"tuple","internalType":"struct IPoolManager.ModifyLiquidityParams","components":[{"name":"tickLower","type":"int24","internalType":"int24"},{"name":"tickUpper","type":"int24","internalType":"int24"},{"name":"liquidityDelta","type":"int256","internalType":"int256"},{"name":"salt","type":"bytes32","internalType":"bytes32"}]},{"name":"delta","type":"int256","internalType":"BalanceDelta"},{"name":"feesAccrued","type":"int256","internalType":"BalanceDelta"},{"name":"hookData","type":"bytes","internalType":"bytes"}],"outputs":[{"name":"","type":"bytes4","internalType":"bytes4"},{"name":"","type":"int256","internalType":"BalanceDelta"}],"stateMutability":"nonpayable"},{"type":"function","name":"afterSwap","inputs":[{"name":"sender","type":"address","internalType":"address"},{"name":"key","type":"tuple","internalType":"struct PoolKey","components":[{"name":"currency0","type":"address","internalType":"Currency"},{"name":"currency1","type":"address","internalType":"Currency"},{"name":"fee","type":"uint24","internalType":"uint24"},{"name":"tickSpacing","type":"int24","internalType":"int24"},{"name":"hooks","type":"address","internalType":"contract IHooks"}]},{"name":"params","type":"tuple","internalType":"struct IPoolManager.SwapParams","components":[{"name":"zeroForOne","type":"bool","internalType":"bool"},{"name":"amountSpecified","type":"int256","internalType":"int256"},{"name":"sqrtPriceLimitX96","type":"uint160","internalType":"uint160"}]},{"name":"delta","type":"int256","internalType":"BalanceDelta"},{"name":"hookData","type":"bytes","internalType":"bytes"}],"outputs":[{"name":"","type":"bytes4","internalType":"bytes4"},{"name":"","type":"int128","internalType":"int128"}],"stateMutability":"nonpayable"},{"type":"function","name":"baseToken","inputs":[],"outputs":[{"name":"","type":"address","internalType":"address"}],"stateMutability":"view"},{"type":"function","name":"beforeAddLiquidity","inputs":[{"name":"sender","type":"address","internalType":"address"},{"name":"key","type":"tuple","internalType":"struct PoolKey","components":[{"name":"currency0","type":"address","internalType":"Currency"},{"name":"currency1","type":"address","internalType":"Currency"},{"name":"fee","type":"uint24","internalType":"uint24"},{"name":"tickSpacing","type":"int24","internalType":"int24"},{"name":"hooks","type":"address","internalType":"contract IHooks"}]},{"name":"params","type":"tuple","internalType":"struct IPoolManager.ModifyLiquidityParams","components":[{"name":"tickLower","type":"int24","internalType":"int24"},{"name":"tickUpper","type":"int24","internalType":"int24"},{"name":"liquidityDelta","type":"int256","internalType":"int256"},{"name":"salt","type":"bytes32","internalType":"bytes32"}]},{"name":"hookData","type":"bytes","internalType":"bytes"}],"outputs":[{"name":"","type":"bytes4","internalType":"bytes4"}],"stateMutability":"nonpayable"},{"type":"function","name":"beforeDonate","inputs":[{"name":"sender","type":"address","internalType":"address"},{"name":"key","type":"tuple","internalType":"struct PoolKey","components":[{"name":"currency0","type":"address","internalType":"Currency"},{"name":"currency1","type":"address","internalType":"Currency"},{"name":"fee","type":"uint24","internalType":"uint24"},{"name":"tickSpacing","type":"int24","internalType":"int24"},{"name":"hooks","type":"address","internalType":"contract IHooks"}]},{"name":"amount0","type":"uint256","internalType":"uint256"},{"name":"amount1","type":"uint256","internalType":"uint256"},{"name":"hookData","type":"bytes","internalType":"bytes"}],"outputs":[{"name":"","type":"bytes4","internalType":"bytes4"}],"stateMutability":"nonpayable"},{"type":"function","name":"beforeInitialize","inputs":[{"name":"sender","type":"address","internalType":"address"},{"name":"key","type":"tuple","internalType":"struct PoolKey","components":[{"name":"currency0","type":"address","internalType":"Currency"},{"name":"currency1","type":"address","internalType":"Currency"},{"name":"fee","type":"uint24","internalType":"uint24"},{"name":"tickSpacing","type":"int24","internalType":"int24"},{"name":"hooks","type":"address","internalType":"contract IHooks"}]},{"name":"sqrtPriceX96","type":"uint160","internalType":"uint160"}],"outputs":[{"name":"","type":"bytes4","internalType":"bytes4"}],"stateMutability":"nonpayable"},{"type":"function","name":"beforeRemoveLiquidity","inputs":[{"name":"sender","type":"address","internalType":"address"},{"name":"key","type":"tuple","internalType":"struct PoolKey","components":[{"name":"currency0","type":"address","internalType":"Currency"},{"name":"currency1","type":"address","internalType":"Currency"},{"name":"fee","type":"uint24","internalType":"uint24"},{"name":"tickSpacing","type":"int24","internalType":"int24"},{"name":"hooks","type":"address","internalType":"contract IHooks"}]},{"name":"params","type":"tuple","internalType":"struct IPoolManager.ModifyLiquidityParams","components":[{"name":"tickLower","type":"int24","internalType":"int24"},{"name":"tickUpper","type":"int24","internalType":"int24"},{"name":"liquidityDelta","type":"int256","internalType":"int256"},{"name":"salt","type":"bytes32","internalType":"bytes32"}]},{"name":"hookData","type":"bytes","internalType":"bytes"}],"outputs":[{"name":"","type":"bytes4","internalType":"bytes4"}],"stateMutability":"nonpayable"},{"type":"function","name":"beforeSwap","inputs":[{"name":"sender","type":"address","internalType":"address"},{"name":"key","type":"tuple","internalType":"struct PoolKey","components":[{"name":"currency0","type":"address","internalType":"Currency"},{"name":"currency1","type":"address","internalType":"Currency"},{"name":"fee","type":"uint24","internalType":"uint24"},{"name":"tickSpacing","type":"int24","internalType":"int24"},{"name":"hooks","type":"address","internalType":"contract IHooks"}]},{"name":"params","type":"tuple","internalType":"struct IPoolManager.SwapParams","components":[{"name":"zeroForOne","type":"bool","internalType":"bool"},{"name":"amountSpecified","type":"int256","internalType":"int256"},{"name":"sqrtPriceLimitX96","type":"uint160","internalType":"uint160"}]},{"name":"hookData","type":"bytes","internalType":"bytes"}],"outputs":[{"name":"","type":"bytes4","internalType":"bytes4"},{"name":"","type":"int256","internalType":"BeforeSwapDelta"},{"name":"","type":"uint24","internalType":"uint24"}],"stateMutability":"nonpayable"},{"type":"function","name":"bondingCurve","inputs":[],"outputs":[{"name":"","type":"address","internalType":"contract IBondingCurve"}],"stateMutability":"view"},{"type":"function","name":"calculateIv","inputs":[{"name":"_poolAddress","type":"address","internalType":"address"},{"name":"volume","type":"uint160","internalType":"uint160"}],"outputs":[{"name":"_iv","type":"uint160","internalType":"uint160"}],"stateMutability":"view"},{"type":"function","name":"deploy2Currency","inputs":[{"name":"deriveToken","type":"address","internalType":"address"},{"name":"_tokenName","type":"string[2]","internalType":"string[2]"},{"name":"_tokenSymbol","type":"string[2]","internalType":"string[2]"},{"name":"_poolAddress","type":"address","internalType":"address"},{"name":"volume","type":"uint160","internalType":"uint160"},{"name":"deadline","type":"uint256","internalType":"uint256"}],"outputs":[{"name":"","type":"address[2]","internalType":"address[2]"}],"stateMutability":"nonpayable"},{"type":"function","name":"getHookPermissions","inputs":[],"outputs":[{"name":"","type":"tuple","internalType":"struct Hooks.Permissions","components":[{"name":"beforeInitialize","type":"bool","internalType":"bool"},{"name":"afterInitialize","type":"bool","internalType":"bool"},{"name":"beforeAddLiquidity","type":"bool","internalType":"bool"},{"name":"afterAddLiquidity","type":"bool","internalType":"bool"},{"name":"beforeRemoveLiquidity","type":"bool","internalType":"bool"},{"name":"afterRemoveLiquidity","type":"bool","internalType":"bool"},{"name":"beforeSwap","type":"bool","internalType":"bool"},{"name":"afterSwap","type":"bool","internalType":"bool"},{"name":"beforeDonate","type":"bool","internalType":"bool"},{"name":"afterDonate","type":"bool","internalType":"bool"},{"name":"beforeSwapReturnDelta","type":"bool","internalType":"bool"},{"name":"afterSwapReturnDelta","type":"bool","internalType":"bool"},{"name":"afterAddLiquidityReturnDelta","type":"bool","internalType":"bool"},{"name":"afterRemoveLiquidityReturnDelta","type":"bool","internalType":"bool"}]}],"stateMutability":"pure"},{"type":"function","name":"getVixData","inputs":[{"name":"deriveAsset","type":"address","internalType":"address"}],"outputs":[{"name":"vixHighToken","type":"address","internalType":"address"},{"name":"_vixLowToken","type":"address","internalType":"address"},{"name":"_circulation0","type":"uint256","internalType":"uint256"},{"name":"_circulation1","type":"uint256","internalType":"uint256"},{"name":"_contractHoldings0","type":"uint256","internalType":"uint256"},{"name":"_contractHoldings1","type":"uint256","internalType":"uint256"},{"name":"_reserve0","type":"uint256","internalType":"uint256"},{"name":"_reserve1","type":"uint256","internalType":"uint256"},{"name":"_poolAddress","type":"address","internalType":"address"}],"stateMutability":"view"},{"type":"function","name":"isPairInitiated","inputs":[{"name":"","type":"address","internalType":"address"}],"outputs":[{"name":"","type":"bool","internalType":"bool"}],"stateMutability":"view"},{"type":"function","name":"pairEndingTime","inputs":[{"name":"","type":"address","internalType":"address"}],"outputs":[{"name":"","type":"uint256","internalType":"uint256"}],"stateMutability":"view"},{"type":"function","name":"pairInitiatedTime","inputs":[{"name":"","type":"address","internalType":"address"}],"outputs":[{"name":"","type":"uint256","internalType":"uint256"}],"stateMutability":"view"},{"type":"function","name":"poolManager","inputs":[],"outputs":[{"name":"","type":"address","internalType":"contract IPoolManager"}],"stateMutability":"view"},{"type":"function","name":"resetPair","inputs":[{"name":"deriveToken","type":"address","internalType":"address"},{"name":"deadline","type":"uint256","internalType":"uint256"},{"name":"_poolAddress","type":"address","internalType":"address"},{"name":"volume","type":"uint160","internalType":"uint160"}],"outputs":[{"name":"","type":"address[2]","internalType":"address[2]"}],"stateMutability":"nonpayable"},{"type":"function","name":"swapReserve","inputs":[{"name":"initialIv","type":"uint256","internalType":"uint256"},{"name":"currentIv","type":"uint256","internalType":"uint256"},{"name":"reserve0","type":"uint256","internalType":"uint256"},{"name":"reserve1","type":"uint256","internalType":"uint256"},{"name":"circulation0","type":"uint256","internalType":"uint256"},{"name":"circulation1","type":"uint256","internalType":"uint256"},{"name":"deriveAsset","type":"address","internalType":"address"}],"outputs":[{"name":"","type":"uint256","internalType":"uint256"},{"name":"","type":"uint256","internalType":"uint256"}],"stateMutability":"nonpayable"},{"type":"function","name":"unlockCallback","inputs":[{"name":"data","type":"bytes","internalType":"bytes"}],"outputs":[{"name":"","type":"bytes","internalType":"bytes"}],"stateMutability":"nonpayable"},{"type":"function","name":"vixTokensPrice","inputs":[{"name":"contractHoldings","type":"uint256","internalType":"uint256"}],"outputs":[{"name":"","type":"uint256","internalType":"uint256"}],"stateMutability":"view"},{"type":"event","name":"HookSwap","inputs":[{"name":"id","type":"bytes32","indexed":true,"internalType":"bytes32"},{"name":"sender","type":"address","indexed":true,"internalType":"address"},{"name":"amount0","type":"int128","indexed":false,"internalType":"int128"},{"name":"amount1","type":"int128","indexed":false,"internalType":"int128"},{"name":"hookLPfeeAmount0","type":"uint128","indexed":false,"internalType":"uint128"},{"name":"hookLPfeeAmount1","type":"uint128","indexed":false,"internalType":"uint128"}],"anonymous":false},{"type":"event","name":"PairExpired","inputs":[{"name":"deriveToken","type":"address","indexed":true,"internalType":"address"},{"name":"vixHighToken","type":"address","indexed":true,"internalType":"address"},{"name":"vixLowToken","type":"address","indexed":true,"internalType":"address"},{"name":"initatedIV","type":"uint256","indexed":false,"internalType":"uint256"},{"name":"expiredTime","type":"uint256","indexed":false,"internalType":"uint256"}],"anonymous":false},{"type":"event","name":"PairInitiated","inputs":[{"name":"_deriveToken","type":"address","indexed":true,"internalType":"address"},{"name":"_vixHighToken","type":"address","indexed":true,"internalType":"address"},{"name":"_vixLowToken","type":"address","indexed":true,"internalType":"address"},{"name":"_initiatedTime","type":"uint256","indexed":false,"internalType":"uint256"},{"name":"_deadline","type":"uint256","indexed":false,"internalType":"uint256"},{"name":"initiatedIV","type":"uint256","indexed":false,"internalType":"uint256"}],"anonymous":false},{"type":"error","name":"HookNotImplemented","inputs":[]},{"type":"error","name":"NotPoolManager","inputs":[]},{"type":"error","name":"invalidLiquidityAction","inputs":[]}],"bytecode":{"object":"0x60a06040523461030557604051601f6146dd38819003918201601f19168301916001600160401b038311848410176103095780849260c0946040528339810103126103055780516001600160a01b0381168103610305576100626020830161033d565b9161006f6040820161033d565b9260608201519060a06080840151930151936080525f6101a061009061031d565b8281528260208201528260408201528260608201528260808201528260a08201528260c08201528260e0820152826101008201528261012082015282610140820152826101608201528261018082015201525f6101a06100ee61031d565b828152826020820152600160408201528260608201528260808201528260a0820152600160c0820152600160e082015282610100820152826101208201526001610140820152826101608201528261018082015201526120003016158015906102f8575b80156102e7575b80156102da575b80156102cd575b80156102c0575b80156102b0575b80156102a0575b8015610294575b8015610288575b8015610278575b801561026c575b8015610260575b8015610254575b6102415760018060a01b031660018060a01b0319600754161760075560035560045560055560018060a01b031660018060a01b0319600854161760085560405161438b90816103528239608051818181610220015281816102a2015281816102f4015281816106e7015281816108ec0152818161096101528181610b0e01528181610bdf015281816118ab015281816118fe01526122320152f35b630732d7b560e51b5f523060045260245ffd5b506001301615156101a6565b5060023016151561019f565b50600430161515610198565b5060083016151560011415610191565b5060103016151561018a565b50602030161515610183565b506040301615156001141561017c565b5060803016151560011415610175565b506101003016151561016e565b5061020030161515610167565b5061040030161515610160565b506108003016151560011415610159565b5061100030161515610152565b5f80fd5b634e487b7160e01b5f52604160045260245ffd5b604051906101c082016001600160401b0381118382101761030957604052565b51906001600160a01b03821682036103055756fe60806040526004361015610011575f80fd5b5f3560e01c806321d0ee70146118eb578063259982e51461189857806336808a7c146118735780634c001a9e14611832578063575e24b414610b8a578063591094e414610b4b5780636c2bbe7e146108d95780636fe7e6eb14610ad057806377295a8d14610a945780638b7cc62914610a7757806391dd73461461092f5780639f063efc146108d9578063a79a347814610854578063b47b2fb114610691578063b6780bf214610596578063b6a8b0fa1461020d578063bb2ffdef1461055e578063c4e833ce146103f6578063c55dae63146103ce578063c57981b5146103b1578063d111f97e14610379578063db6ba9d414610323578063dc4c90d3146102df578063dc98354e14610271578063e1b4af691461020d578063eff1d50e146101e5578063f68f3c571461019a578063f86325ed1461017d5763fc63b1fd14610158575f80fd5b34610179575f366003190112610179576020604051666a94d74f4300008152f35b5f80fd5b34610179575f366003190112610179576020600554604051908152f35b34610179576040366003190112610179576101b3611955565b602435906001600160a01b0382168203610179576020916101d3916127a4565b6040516001600160a01b039091168152f35b34610179575f366003190112610179576008546040516001600160a01b039091168152602090f35b346101795761021b36611c46565b5050507f00000000000000000000000000000000000000000000000000000000000000006001600160a01b03163303925061026291505057630a85dc2960e01b5f5260045ffd5b63570c108560e11b5f5260045ffd5b346101795760e03660031901126101795761028a611955565b5060a03660231901126101795761029f61193f565b507f00000000000000000000000000000000000000000000000000000000000000006001600160a01b0316330361026257630a85dc2960e01b5f5260045ffd5b34610179575f366003190112610179576040517f00000000000000000000000000000000000000000000000000000000000000006001600160a01b03168152602090f35b346101795760803660031901126101795761033c611955565b6044356001600160a01b038116810361017957610375916103699161035f61196b565b91602435906124e9565b60405191829182611c0f565b0390f35b34610179576020366003190112610179576001600160a01b0361039a611955565b165f526001602052602060405f2054604051908152f35b34610179575f366003190112610179576020600454604051908152f35b34610179575f366003190112610179576007546040516001600160a01b039091168152602090f35b34610179575f366003190112610179575f6101a060405161041681611afd565b8281528260208201528260408201528260608201528260808201528260a08201528260c08201528260e0820152826101008201528261012082015282610140820152826101608201528261018082015201526101c0602060405161047981611afd565b5f8152818101905f82526040810160018152606082015f8152608083015f815260a084015f815260c085016001815260e0860190600182526101008701925f84526101208801945f8652610140890196600188526101608a01985f8a526101a06101808c019b5f8d52019b5f8d526040519d8e915f835251151591015251151560408d015251151560608c015251151560808b015251151560a08a015251151560c089015251151560e08801525115156101008701525115156101208601525115156101408501525115156101608401525115156101808301525115156101a0820152f35b34610179576020366003190112610179576001600160a01b0361057f611955565b165f526002602052602060405f2054604051908152f35b34610179576020366003190112610179576001600160a01b036105b7611955565b165f52600660205261012060405f20604051906105d382611ae1565b60018060a01b038154169182815260018060a01b03600183015416806020830152600283015480604084015260038401548060608501526004850154908160808601526005860154928360a08701526006870154948560c08801526007880154968760e08201528a60018060a01b0360088b015416998a610100840152600960018060a01b0391015416910152604051988952602089015260408801526060870152608086015260a085015260c084015260e0830152610100820152f35b3461017957610160366003190112610179576106ab611955565b5060a03660231901126101795760603660c319011261017957610144356001600160401b038111610179576106e4903690600401611995565b907f00000000000000000000000000000000000000000000000000000000000000006001600160a01b031633036102625761072191810190612d20565b80516001600160a01b039081165f8181526006602090815260409091206008810154600990910154919094015191939083169261076192811691166127a4565b91805f526006602052600660405f20015415158061083c575b610795575b6040805163b47b2fb160e01b81525f6020820152f35b5f8181526006602081905260409091209081015460078201546002830154600390930154610834966107d696919493916001600160a01b0390911690611d57565b9061080a60409182516107e98482611b34565b600f81526e03932b9b2b93b329039b434b33a1d1608d1b602082015261375f565b61081681519182611b34565b600c81526b03a37b5b2b710313ab9371d160a51b602082015261375f565b80808061077f565b50805f526006602052600760405f200154151561077a565b346101795760c03660031901126101795761086d611955565b6024356001600160401b0381116101795761088c903690600401611b70565b6044356001600160401b038111610179576108ab903690600401611b70565b916108b461196b565b608435906001600160a01b038216820361017957610375946103699460a43594611f9b565b34610179576108e736611a25565b5050507f00000000000000000000000000000000000000000000000000000000000000006001600160a01b0316330393506102629250505057630a85dc2960e01b5f5260045ffd5b34610179576020366003190112610179576004356001600160401b0381116101795761095f903690600401611995565b7f0000000000000000000000000000000000000000000000000000000000000000906001600160a01b038216330361026257826080918101031261017957604051610a4f926109ad82611ab2565b610a3b8135808452610a256109c460208501611981565b610a0a60208701938285526109ee60606109e060408a01611981565b9860408b01998a5201611981565b60608901818152936001600160a01b03918216918b9116612e09565b845190518651916001600160a01b0391821691899116612e09565b51835190309086906001600160a01b031661308f565b5190519130916001600160a01b031661308f565b610375604051610a60602082611b34565b5f8152604051918291602083526020830190611a8e565b34610179575f366003190112610179576020600354604051908152f35b34610179576020366003190112610179576001600160a01b03610ab5611955565b165f525f602052602060ff60405f2054166040519015158152f35b346101795761010036600319011261017957610aea611955565b5060a036602319011261017957610aff61193f565b5060e4358060020b03610179577f00000000000000000000000000000000000000000000000000000000000000006001600160a01b0316330361026257630a85dc2960e01b5f5260045ffd5b34610179576020366003190112610179576020610b82670de0b6b3a7640000610b78600435600354611c9d565b0460055490611d3d565b604051908152f35b346101795761014036600319011261017957610ba4611955565b5060a03660231901126101795760603660c319011261017957610124356001600160401b03811161017957610bdd903690600401611995565b7f0000000000000000000000000000000000000000000000000000000000000000916001600160a01b038316330361026257610c1b91810190612d20565b6024356001600160a01b038116919082811415806101795760075460e435936001600160a01b039091168514905f8513801561182357855b831561132757610c61612d66565b15610fcf5750610c7090612d75565b516001600160a01b03165f90815260066020526040902094826101795785546001600160a01b0316908114908115610fb0575b5015610e3f576008546003546002870180546005546004805460405163709cb5bb60e01b81529182019590955260248101839052604481018a905260648101919091526084810193909352919792909190602090899060a49082906001600160a01b03165afa978815610e34575f98610dfa575b50600483018054880190558601905560060180548601905515610db157610179578281610d47925085309161308f565b6044356001600160a01b0381168103610179576001600160801b0382610d78829484606098610d8196503091613028565b16600f0b6137b6565b9116600f0b5b6001600160801b03169060801b175b604051906315d7892d60e21b825260208201525f6040820152f35b6044356001600160a01b0381168103610179578481610dd3925087309161308f565b610179576001600160801b0382610df5829484606098610d8196503091613028565b610d78565b92919097506020833d602011610e2c575b81610e1860209383611b34565b810103126101795791519690919086610d17565b3d9150610e0b565b6040513d5f823e3d90fd5b6008546003805490870180546005546004805460405163709cb5bb60e01b81529182019590955260248101839052604481018a905260648101919091526084810193909352919792909190602090899060a49082906001600160a01b03165afa978815610e34575f98610f74575b5090610ecd878493600560079601610ec6838254611d3d565b9055611d3d565b905501610edb868254611d3d565b905515610f3057610179578281610ef5925085309161308f565b6044356001600160a01b0381168103610179576001600160801b0382610d78829484606098610f2696503091613028565b9116600f0b610d87565b50909290604435906001600160a01b03821682036101795784610df56060966001600160801b0395938694610f6d8988610f26995083309161308f565b3091613028565b92919097506020833d602011610fa8575b81610f9260209383611b34565b8101031261017957915196909190610ecd610ead565b3d9150610f85565b90506044356001600160a01b0381169081810361017957501487610ca3565b610fdf91505f9097969712612db7565b516001600160a01b03165f90815260066020526040902093826101795784546001600160a01b0316908114908115611308575b501561119b57600854600354600286018054600554600480546040516297da2760e81b81529182019590955260248101839052604481018b9052606481019190915260848101939093529692909190602090829060a49082906001600160a01b03165afa968715610e345788915f9861115d575b508392916110a69160046006960161109f838254611d4a565b9055611d4a565b9055016110b4858254611d4a565b905515611119576101795781816110ce9250853091613028565b6044356001600160a01b0381168103610179576001600160801b038092610d7885846060986110ff9650309161308f565b9116600f0b905b6001600160801b03169060801b17610d96565b6044356001600160a01b038116810361017957838161113b9250873091613028565b610179576001600160801b038092610df585846060986110ff9650309161308f565b9392915096506020833d602011611193575b8161117c60209383611b34565b810103126101795791519590919087906006611086565b3d915061116f565b600854600380549086018054600554600480546040516297da2760e81b81529182019590955260248101839052604481018b9052606481019190915260848101939093529692909190602090829060a49082906001600160a01b03165afa968715610e345788915f986112ca575b508392916112229160056007960161109f838254611d4a565b905501611230858254611d4a565b9055156112865761017957818161124a9250853091613028565b6044356001600160a01b0381168103610179576001600160801b038092610d78858460609861127b9650309161308f565b9116600f0b90611106565b50909290604435906001600160a01b03821682036101795784610df5856001600160801b03959386946112c360609a8861127b9950833091613028565b309161308f565b9392915096506020833d602011611300575b816112e960209383611b34565b810103126101795791519590919087906007611209565b3d91506112dc565b90506044356001600160a01b0381169081810361017957501487611012565b919250611335969596612d66565b1561153f57505f6113469112612db7565b516001600160a01b03165f90815260066020526040812093826101795784546001600160a01b0316908114908115611520575b501561141257600854600354600286018054600554600480546040516297da2760e81b81529182019590955260248101839052604481018b905260648101919091526084810193909352919692909190602090889060a49082906001600160a01b03165afa96871561140757908891859861115d57508392916110a69160046006960161109f838254611d4a565b6040513d86823e3d90fd5b5050600854600380549084018054600554600480546040516297da2760e81b81529182019590955260248101839052604481018990526064810191909152608481019390935291969492909190602090889060a49082906001600160a01b03165afa968715610e34575f976114e4575b509061149b86849360056007960161109f838254611d4a565b9055016114a9858254611d4a565b9055604435906001600160a01b03821682036101795784610d78856001600160801b03959386946112c360609a8861127b9950833091613028565b92919096506020833d602011611518575b8161150260209383611b34565b810103126101795791519590919061149b611482565b3d91506114f5565b90506044356001600160a01b0381169081810361017957501487611379565b905061154f919250949394612d75565b516001600160a01b039081165f90815260066020526040812080549095919283929116908114908115611804575b50156116e6576008546003546002870180546005546004805460405163709cb5bb60e01b81529182019590955260248101839052604481018a905260648101919091526084810193909352919792909190602090899060a49082906001600160a01b03165afa9788156114075784986116ac575b5060048301805488019055860190556006018054860190551561166857610179578281611621925085309161308f565b6044356001600160a01b0381168103610179576001600160801b0382610d7882948460609861165296503091613028565b60801b6001600160801b03919092161617610d96565b6044356001600160a01b038116810361017957848161168a925087309161308f565b610179576001600160801b0382610df582948460609861165296503091613028565b92919097506020833d6020116116de575b816116ca60209383611b34565b8101031261017957915196909190866115f1565b3d91506116bd565b50506008546003805490850180546005546004805460405163709cb5bb60e01b8152918201959095526024810183905260448101889052606481019190915260848101939093529496949592909190602090829060a49082906001600160a01b03165afa958615610e345787915f976117c6575b5083929161177391600560079601610ec6838254611d3d565b905501611781848254611d3d565b9055604435906001600160a01b03821682036101795784610d786060966001600160801b0395938694610f6d89886117bc995083309161308f565b9116600f0b611106565b9392915095506020833d6020116117fc575b816117e560209383611b34565b81010312610179579151949091908690600761175a565b3d91506117d8565b90506044356001600160a01b038116908181036101795750148761157d565b61182c86612d56565b95610c53565b346101795760e036600319011261017957604061186761185061193f565b60a435608435606435604435602435600435611d57565b82519182526020820152f35b34610179575f3660031901126101795760206040516acecb8f27f4200f3a0000008152f35b34610179576118a6366119c2565b5050507f00000000000000000000000000000000000000000000000000000000000000006001600160a01b03163303915061026290505762c890a560e31b5f5260045ffd5b34610179576118f9366119c2565b5050507f00000000000000000000000000000000000000000000000000000000000000006001600160a01b031633039150610262905057630a85dc2960e01b5f5260045ffd5b60c435906001600160a01b038216820361017957565b600435906001600160a01b038216820361017957565b606435906001600160a01b038216820361017957565b35906001600160a01b038216820361017957565b9181601f84011215610179578235916001600160401b038311610179576020838186019501011161017957565b90610160600319830112610179576004356001600160a01b0381168103610179579160a060231982011261017957602491608060c3198301126101795760c49161014435906001600160401b03821161017957611a2191600401611995565b9091565b906101a0600319830112610179576004356001600160a01b0381168103610179579160a060231982011261017957602491608060c3198301126101795760c4916101443591610164359161018435906001600160401b03821161017957611a2191600401611995565b805180835260209291819084018484015e5f828201840152601f01601f1916010190565b608081019081106001600160401b03821117611acd57604052565b634e487b7160e01b5f52604160045260245ffd5b61014081019081106001600160401b03821117611acd57604052565b6101c081019081106001600160401b03821117611acd57604052565b604081019081106001600160401b03821117611acd57604052565b90601f801991011681019081106001600160401b03821117611acd57604052565b6001600160401b038111611acd57601f01601f191660200190565b9080601f830112156101795760409160405192611b8e604085611b34565b8360408301928484116101795780915b848310611bae5750505050505090565b82356001600160401b03811161017957820186601f8201121561017957803591611bd783611b55565b611be387519182611b34565b8381528860208585010111610179575f6020858196828097018386013783010152815201920191611b9e565b919060408301925f905b60028210611c2657505050565b82516001600160a01b031681526020928301926001929092019101611c19565b610120600319820112610179576004356001600160a01b0381168103610179579160a06023198301126101795760249160c4359160e4359161010435906001600160401b03821161017957611a2191600401611995565b81810292918115918404141715611cb057565b634e487b7160e01b5f52601160045260245ffd5b8115611cce570490565b634e487b7160e01b5f52601260045260245ffd5b15611ce957565b60405162461bcd60e51b815260206004820152602660248201527f726573657276652073686966742073686f756c6420626520677265617465722060448201526507468616e20360d41b6064820152608490fd5b91908201809211611cb057565b91908203918211611cb057565b969593949681811180611f65575b15611e5657505080666a94d74f43000002666a94d74f43000081048203611cb057670de0b6b3a7640000611da6910494611da0861515611ce2565b85611c9d565b60018201809211611cb057611dc591611dbe91611cc4565b9584611c9d565b9060018101809111611cb057611dda91611cc4565b9060018060a01b0316805f526006602052600660405f2001611dfd848254611d4a565b9055805f526006602052600760405f2001611e19848254611d3d565b9055805f526006602052600460405f2001611e35868254611d4a565b90555f526006602052611e50600560405f2001918254611d3d565b90559190565b969493969291921080611f54575b15611f485780666a94d74f43000002666a94d74f43000081048203611cb057670de0b6b3a7640000611e9d910494611da0861515611ce2565b60018201809211611cb057611ebc91611eb591611cc4565b9284611c9d565b9060018101809111611cb057611ed191611cc4565b9360018060a01b031690815f526006602052600660405f2001611ef5848254611d3d565b9055815f526006602052600760405f2001611f11848254611d4a565b9055815f526006602052611f2d600560405f2001918254611d4a565b90555f526006602052600460405f2001611e50848254611d3d565b5050505090505f905f90565b50670de0b6b3a76400008111611e64565b50670de0b6b3a76400008311611d65565b906002811015611f875760051b0190565b634e487b7160e01b5f52603260045260245ffd5b9290919493604093848051611fb08282611b34565b36903760018060a01b031692835f525f60205260ff855f205416158015612466575b1561242e57835f525f602052845f20600160ff19825416179055835f52600160205242855f20556120038642611d3d565b845f526002602052855f205584519661201c8689611b34565b853689376137d7610b7f5f5b6002811061233f57505050505061203f90826127a4565b8551602087018051865191966001600160a01b039182169590949293600993921661206985611ae1565b8452602084019586528484015f8152606085015f8152608086015f815260a08701905f825260c08801925f845260e08901945f86526101008a019660018060a01b031687526101208a019760018060a01b03169b8c89528d5f5260066020528b5f209a60018060a01b039060018060a01b03905116166001600160601b0360a01b8c5416178b5560018060a01b0390511660018b019060018060a01b03166001600160601b0360a01b8254161790555160028a015551600389015551600488015551600587015551600686015551600785015560018060a01b03905116600884019060018060a01b03166001600160601b0360a01b82541617905560018060a01b0390511691019060018060a01b03166001600160601b0360a01b82541617905561222d5f60018060a01b0388511660018060a01b03875116606085516121af81611ab2565b6acecb8f27f4200f3a0000008082526020808301958652888301948552309390920192835287519182015292516001600160a01b03908116848801529151821660608401525116608080830191909152815261220c60a082611b34565b8351809381926348c8949160e01b8352602060048401526024830190611a8e565b0381837f00000000000000000000000000000000000000000000000000000000000000006001600160a01b03165af18015612335576122be575b50855193516001600160a01b03908116959416937f560daaa031b8b3b2e5f80ba407405817b87a0643c3dfdda220be3c7f1e1cb0d392606092916122ab9042611d3d565b918051924284526020840152820152a490565b903d805f843e6122ce8184611b34565b820191602081840312610179578051906001600160401b03821161017957019282601f850112156101795761232c6060938560207f560daaa031b8b3b2e5f80ba407405817b87a0643c3dfdda220be3c7f1e1cb0d39751910161247a565b50925090612267565b82513d5f823e3d90fd5b6123498186611f76565b516123548286611f76565b518a5191848301908382106001600160401b03831117611acd578c61239c859461238e62015180948a8c8939606087526060870190611a8e565b908582036020870152611a8e565b92015203905ff08015612424576001600160a01b0316806123bd838e611f76565b52803b15610179575f809160448c51809481936340c10f1960e01b83523060048401526acecb8f27f4200f3a00000060248401525af1801561241a57906001929161240a575b5001612028565b5f61241491611b34565b5f612403565b8a513d5f823e3d90fd5b89513d5f823e3d90fd5b845162461bcd60e51b815260206004820152601160248201527050616972207374696c6c2061637469766560781b6044820152606490fd5b50835f526002602052845f20544211611fd2565b92919261248682611b55565b916124946040519384611b34565b829481845281830111610179578281602093845f96015e010152565b602081830312610179578051906001600160401b03821161017957019080601f830112156101795781516124e69260200161247a565b90565b9190926040938480516124fc8282611b34565b36903760018060a01b03841691825f525f602052600160ff875f20541615150361271457825f526002602052855f205442115f146126dd575f8381526006602052869020805460019091015487516001600160a01b039182169791909216959161256581611b19565b88516306fdde0360e01b81525f816004818b5afa90811561241a575f916126c3575b50815288516306fdde0360e01b81525f816004818c5afa90811561241a575f916126a9575b5060208201528851916125be83611b19565b89516395d89b4160e01b81525f816004818c5afa908115612685575f9161268f575b50835289516395d89b4160e01b81525f816004818d5afa90811561268557917fcb3fbe718785507e72e2e217e13371632ac8bdcd85c308ca838df4f28bdd49e09795939161263c9795935f91612663575b506020840152611f9b565b94825f52600660205260018060a01b036009825f200154168151908152426020820152a490565b61267f91503d805f833e6126778183611b34565b8101906124b0565b5f612631565b8b513d5f823e3d90fd5b6126a391503d805f833e6126778183611b34565b5f6125e0565b6126bd91503d805f833e6126778183611b34565b5f6125ac565b6126d791503d805f833e6126778183611b34565b5f612587565b855162461bcd60e51b815260206004820152601060248201526f14185a5c881b9bdd08195e1c1a5c995960821b6044820152606490fd5b855162461bcd60e51b815260206004820152601260248201527114185a5c881b9bdd081a5b9a5d1a585d195960721b6044820152606490fd5b51908160020b820361017957565b519061ffff8216820361017957565b519060ff8216820361017957565b5190811515820361017957565b9081602091031261017957516001600160a01b03811681036101795790565b604051630d34328160e11b81526001600160a01b039190911690602081600481855afa908115610e34575f91612cde575b50604051633850c7bd60e01b81529160e083600481845afa928315610e34575f93612c4d575b506040516334324e9f60e21b8152602081600481855afa908115610e34575f91612c13575b50604051630dfe168160e01b815291602083600481845afa928315610e34575f93612bf2575b5060405163d21220a760e01b815292602084600481855afa918215610e34576004945f93612bc0575b506020906040519586809263ddca3f4360e01b82525afa938415610e34575f94612b7f575b5060405163313ce56760e01b815290602090829060049082906001600160a01b03165afa8015610e3457612b40575b5060405163313ce56760e01b815290602090829060049082906001600160a01b03165afa8015610e3457612b09575b508360020b9060020b8015611cce57627fffff1982145f19821416611cb0578080830560020b02908160020b918203611cb057810190627fffff8213627fffff19831217611cb05761295661295061294a5f936130dd565b936130dd565b966130dd565b921293828002948560c01c95816001149081612af4575b50612aef575b600114612ae0576103e862ffffff6012955b1604966001600160a01b03908116670de0b6b3a764000081810290921696918188041490151715611cb0576129f2966129ec956129ca906001600160a01b03166136ba565b9460018060a01b03948103840260601c938183030260601b0404020116613740565b90613740565b6001600160a01b03811691905f6003841115612acf57509182906001016001600160a01b038111611cb05760011c60016001609f1b0316925b6001600160a01b0384811691908116821015612a745750612a4c8483613740565b6001600160a01b0390811691909101908111611cb05760011c60016001609f1b031692612a2b565b92935050505b60019190911b6301fffffe16906001600160a01b039081168281029091169180159083049091141715611cb0576124e681604051612ab9604082611b34565b6004815263034bb1d160e51b602082015261375f565b9192905015612a7a57506001612a7a565b6103e862ffffff602495612985565b612973565b670de0b6b3a76400000260c01c96505f61296d565b6020813d602011612b38575b81612b2260209383611b34565b8101031261017957612b339061276a565b6128f2565b3d9150612b15565b6020813d602011612b77575b81612b5960209383611b34565b8101031261017957600491612b6f60209261276a565b5091506128c3565b3d9150612b4c565b9093506020813d602011612bb8575b81612b9b60209383611b34565b81010312610179575162ffffff8116810361017957926020612894565b3d9150612b8e565b6020919350612be490823d8411612beb575b612bdc8183611b34565b810190612785565b929061286f565b503d612bd2565b612c0c91935060203d602011612beb57612bdc8183611b34565b915f612846565b90506020813d602011612c45575b81612c2e60209383611b34565b8101031261017957612c3f9061274d565b5f612820565b3d9150612c21565b90925060e0813d60e011612cd6575b81612c6960e09383611b34565b810103126101795780516001600160a01b0381160361017957612cce60c0612c936020840161274d565b92612ca06040820161275b565b50612cad6060820161275b565b50612cba6080820161275b565b50612cc760a0820161276a565b5001612778565b50915f6127fb565b3d9150612c5c565b90506020813d602011612d18575b81612cf960209383611b34565b8101031261017957516001600160801b0381168103610179575f6127d5565b3d9150612cec565b9081604091031261017957612d4e602060405192612d3d84611b19565b612d4681611981565b845201611981565b602082015290565b600160ff1b8114611cb0575f0390565b60c43580151581036101795790565b15612d7c57565b60405162461bcd60e51b8152602060048201526013602482015272195e1858dd125b881b9bdd08185b1b1bddd959606a1b6044820152606490fd5b15612dbe57565b60405162461bcd60e51b8152602060048201526014602482015273195e1858dd13dd5d081b9bdd08185b1b1bddd95960621b6044820152606490fd5b90816020910312610179575190565b6001600160a01b031693929184612e785750604051630476982d60e21b8152929350602091839160049183916001600160a01b03165af18015610e3457612e4d5750565b612e6e9060203d602011612e71575b612e668183611b34565b810190612dfa565b50565b503d612e5c565b916001600160a01b0390911690813b1561017957604051632961046560e21b815260048101869052925a935f816024818388819af18015610e3457613013575b506001600160a01b0316308114612f87579060646020928560405198899485936323b872dd60e01b8552600485015287602485015260448401525af1938415612f7c57829394612f38575b506020905b600460405180958193630476982d60e21b83525af1908115612f2c5750612e4d5750565b604051903d90823e3d90fd5b9091506020813d602011612f74575b81612f5460209383611b34565b81010312612f70578291612f69602092612778565b5090612f03565b8280fd5b3d9150612f47565b6040513d84823e3d90fd5b5060405163a9059cbb60e01b81526001600160a01b03831660048201526024810191909152936020908590604490829086905af1938415612f7c57829394612fd3575b50602090612f08565b9091506020813d60201161300b575b81612fef60209383611b34565b81010312612f70578291613004602092612778565b5090612fca565b3d9150612fe2565b6130209194505f90611b34565b5f925f612eb8565b9192906001600160a01b0316803b1561017957604051637a94c56560e11b81526001600160a01b03948516600482015293909216602484015260448301525f908290818381606481015b03925af18015610e34576130835750565b5f61308d91611b34565b565b9192906001600160a01b0316803b1561017957604051630ab714fb60e11b81526001600160a01b03948516600482015293909216602484015260448301525f90829081838160648101613072565b60020b5f8112156136b4576130f181612d56565b905b620d89e8821161368b576001821615613679576001600160881b036ffffcb933bd6fad37aa2d162d1a5940015b16916002811661363e575b60048116613603575b600881166135c8575b6010811661358d575b60208116613552575b60408116613517575b608081166134dc575b61010081166134a1575b6102008116613466575b610400811661342b575b61080081166133f0575b61100081166133b5575b612000811661337a575b614000811661333f575b6180008116613304575b6201000081166132c9575b620200008116613290575b620400008116613259575b6208000016613226575b5f12613218575b63ffffffff811661320d576132095f915b6001600160a01b039260ff169060201c611d3d565b1690565b6132096001916131f4565b8015611cce575f19046131e3565b906b048a170391f7dc42444e8fa28102908082046b048a170391f7dc42444e8fa21490151715611cb05760801c906131dc565b916d2216e584f5fa1ea926041bedfe988102908082046d2216e584f5fa1ea926041bedfe981490151715611cb05760801c916131d2565b916e5d6af8dedb81196699c329225ee6048102908082046e5d6af8dedb81196699c329225ee6041490151715611cb05760801c916131c7565b916f09aa508b5b7a84e1c677de54f3e99bc98102908082046f09aa508b5b7a84e1c677de54f3e99bc91490151715611cb05760801c916131bc565b916f31be135f97d08fd981231505542fcfa68102908082046f31be135f97d08fd981231505542fcfa61490151715611cb05760801c916131b1565b916f70d869a156d2a1b890bb3df62baf32f78102908082046f70d869a156d2a1b890bb3df62baf32f71490151715611cb05760801c916131a7565b916fa9f746462d870fdf8a65dc1f90e061e58102908082046fa9f746462d870fdf8a65dc1f90e061e51490151715611cb05760801c9161319d565b916fd097f3bdfd2022b8845ad8f792aa58258102908082046fd097f3bdfd2022b8845ad8f792aa58251490151715611cb05760801c91613193565b916fe7159475a2c29b7443b29c7fa6e889d98102908082046fe7159475a2c29b7443b29c7fa6e889d91490151715611cb05760801c91613189565b916ff3392b0822b70005940c7a398e4b70f38102908082046ff3392b0822b70005940c7a398e4b70f31490151715611cb05760801c9161317f565b916ff987a7253ac413176f2b074cf7815e548102908082046ff987a7253ac413176f2b074cf7815e541490151715611cb05760801c91613175565b916ffcbe86c7900a88aedcffc83b479aa3a48102908082046ffcbe86c7900a88aedcffc83b479aa3a41490151715611cb05760801c9161316b565b916ffe5dee046a99a2a811c461f1969c30538102908082046ffe5dee046a99a2a811c461f1969c30531490151715611cb05760801c91613161565b916fff2ea16466c96a3843ec78b326b528618102908082046fff2ea16466c96a3843ec78b326b528611490151715611cb05760801c91613158565b916fff973b41fa98c081472e6896dfb254c08102908082046fff973b41fa98c081472e6896dfb254c01490151715611cb05760801c9161314f565b916fffcb9843d60f6159c9db58835c9266448102908082046fffcb9843d60f6159c9db58835c9266441490151715611cb05760801c91613146565b916fffe5caca7e10e4e61c3624eaa0941cd08102908082046fffe5caca7e10e4e61c3624eaa0941cd01490151715611cb05760801c9161313d565b916ffff2e50f5f656932ef12357cf3c7fdcc8102908082046ffff2e50f5f656932ef12357cf3c7fdcc1490151715611cb05760801c91613134565b916ffff97272373d413259a46990580e213a8102908082046ffff97272373d413259a46990580e213a1490151715611cb05760801c9161312b565b6001600160881b03600160801b613120565b60405162461bcd60e51b81526020600482015260016024820152601560fa1b6044820152606490fd5b806130f3565b801561373a5760208110600116604e821060011617613726576001600a915b600181116136f757506001600160a01b038290048111611cb0570290565b916001600160a01b038190048111611cb0576001831661371d575b80029160011c6136d9565b80910290613712565b600a0a906001600160a01b038211611cb057565b50600190565b6001600160a01b03909116908115611cce576001600160a01b03160490565b5f919082916137a3604051809261378f6020830195632d839cb360e21b8752604060248501526064840190611a8e565b90604483015203601f198101835282611b34565b51906a636f6e736f6c652e6c6f675afa50565b600f0b6f7fffffffffffffffffffffffffffffff198114611cb0575f039056fe60806040523461034e57610b7f8038038061001981610352565b92833981019060608183031261034e5780516001600160401b03811161034e5782610045918301610377565b60208201519092906001600160401b03811161034e57604091610069918401610377565b91015182516001600160401b03811161025f57600354600181811c91168015610344575b602082101461024157601f81116102e1575b506020601f821160011461027e57819293945f92610273575b50508160011b915f199060031b1c1916176003555b81516001600160401b03811161025f57600454600181811c91168015610255575b602082101461024157601f81116101de575b50602092601f821160011461017d57928192935f92610172575b50508160011b915f199060031b1c1916176004555b600580546001600160a01b031916331790554290810190811061015e576006556040516107b690816103c98239f35b634e487b7160e01b5f52601160045260245ffd5b015190505f8061011a565b601f1982169360045f52805f20915f5b8681106101c657508360019596106101ae575b505050811b0160045561012f565b01515f1960f88460031b161c191690555f80806101a0565b9192602060018192868501518155019401920161018d565b60045f527f8a35acfbc15ff81a39ae7d344fd709f28e8600b4aa8c65c6b64bfe7fe36bd19b601f830160051c81019160208410610237575b601f0160051c01905b81811061022c5750610100565b5f815560010161021f565b9091508190610216565b634e487b7160e01b5f52602260045260245ffd5b90607f16906100ee565b634e487b7160e01b5f52604160045260245ffd5b015190505f806100b8565b601f1982169060035f52805f20915f5b8181106102c9575095836001959697106102b1575b505050811b016003556100cd565b01515f1960f88460031b161c191690555f80806102a3565b9192602060018192868b01518155019401920161028e565b60035f527fc2575a0e9e593c00f959f8c92f12db2869c3395a3b0502d05e2516446f71f85b601f830160051c8101916020841061033a575b601f0160051c01905b81811061032f575061009f565b5f8155600101610322565b9091508190610319565b90607f169061008d565b5f80fd5b6040519190601f01601f191682016001600160401b0381118382101761025f57604052565b81601f8201121561034e578051906001600160401b03821161025f576103a6601f8301601f1916602001610352565b928284526020838301011161034e57815f9260208093018386015e830101529056fe6080806040526004361015610012575f80fd5b5f3560e01c90816306fdde031461055857508063095ea7b3146104d657806318160ddd146104b957806323b872dd146103da578063313ce567146103bf57806336654887146103a257806340c10f191461029f57806370a08231146102685780638da5cb5b1461024057806395d89b4114610125578063a9059cbb146100f45763dd62ed3e146100a0575f80fd5b346100f05760403660031901126100f0576100b9610651565b6100c1610667565b6001600160a01b039182165f908152600160209081526040808320949093168252928352819020549051908152f35b5f80fd5b346100f05760403660031901126100f05761011a610110610651565b60243590336106c9565b602060405160018152f35b346100f0575f3660031901126100f0576040515f6004548060011c90600181168015610236575b6020831081146102225782855290811561020657506001146101b1575b50819003601f01601f191681019067ffffffffffffffff82118183101761019d5761019982918260405282610627565b0390f35b634e487b7160e01b5f52604160045260245ffd5b905060045f527f8a35acfbc15ff81a39ae7d344fd709f28e8600b4aa8c65c6b64bfe7fe36bd19b5f905b8282106101f057506020915082010182610169565b60018160209254838588010152019101906101db565b90506020925060ff191682840152151560051b82010182610169565b634e487b7160e01b5f52602260045260245ffd5b91607f169161014c565b346100f0575f3660031901126100f0576005546040516001600160a01b039091168152602090f35b346100f05760203660031901126100f0576001600160a01b03610289610651565b165f525f602052602060405f2054604051908152f35b346100f05760403660031901126100f0576102b8610651565b60055460243591906001600160a01b03163303610370576102dc600654421061067d565b6001600160a01b031690811561035d576102f9600654421061067d565b600254908082018092116103495760207fddf252ad1be2c89b69c2b068fc378daa952ba7f163c4a11628f55a4df523b3ef915f9360025584845283825260408420818154019055604051908152a3005b634e487b7160e01b5f52601160045260245ffd5b63ec442f0560e01b5f525f60045260245ffd5b60405162461bcd60e51b815260206004820152600a60248201526927a7262c9027aba722a960b11b6044820152606490fd5b346100f0575f3660031901126100f0576020600654604051908152f35b346100f0575f3660031901126100f057602060405160128152f35b346100f05760603660031901126100f0576103f3610651565b6103fb610667565b6001600160a01b0382165f818152600160209081526040808320338452909152902054909260443592915f198110610439575b5061011a93506106c9565b83811061049e57841561048b5733156104785761011a945f52600160205260405f2060018060a01b0333165f526020528360405f20910390558461042e565b634a1406b160e11b5f525f60045260245ffd5b63e602df0560e01b5f525f60045260245ffd5b8390637dc7a0d960e11b5f523360045260245260445260645ffd5b346100f0575f3660031901126100f0576020600254604051908152f35b346100f05760403660031901126100f0576104ef610651565b60243590331561048b576001600160a01b031690811561047857335f52600160205260405f20825f526020528060405f20556040519081527f8c5be1e5ebec7d5bd14f71427d1e84f3dd0314c0f7b2291e5b200ac8c7c3b92560203392a3602060405160018152f35b346100f0575f3660031901126100f0575f6003548060011c9060018116801561061d575b6020831081146102225782855290811561020657506001146105c85750819003601f01601f191681019067ffffffffffffffff82118183101761019d5761019982918260405282610627565b905060035f527fc2575a0e9e593c00f959f8c92f12db2869c3395a3b0502d05e2516446f71f85b5f905b82821061060757506020915082010182610169565b60018160209254838588010152019101906105f2565b91607f169161057c565b602060409281835280519182918282860152018484015e5f828201840152601f01601f1916010190565b600435906001600160a01b03821682036100f057565b602435906001600160a01b03821682036100f057565b1561068457565b60405162461bcd60e51b815260206004820152601d60248201527f544f4b454e20455850495245442c204d494e54494e4720434c4f5345440000006044820152606490fd5b6001600160a01b031690811561076d576001600160a01b031691821561035d576106f6600654421061067d565b815f525f60205260405f205481811061075457817fddf252ad1be2c89b69c2b068fc378daa952ba7f163c4a11628f55a4df523b3ef92602092855f525f84520360405f2055845f525f825260405f20818154019055604051908152a3565b8263391434e360e21b5f5260045260245260445260645ffd5b634b637e8f60e11b5f525f60045260245ffdfea264697066735822122095cceca76e3853ec8ffc41ce09491094bdc518a9cd09cab0d06238ce93a1b37064736f6c634300081a0033a2646970667358221220f17184bcefb0073910b4f8fb7e496ee54c7904c29b487925242af1ff6025a34b64736f6c634300081a0033","linkReferences":{}},"methodIdentifiers":{"BASE_PRICE()":"f86325ed","FEE()":"c57981b5","IV_TOKEN_SUPPLY()":"36808a7c","RESERVE_SHIFT_SLOPE()":"fc63b1fd","SLOPE()":"8b7cc629","afterAddLiquidity(address,(address,address,uint24,int24,address),(int24,int24,int256,bytes32),int256,int256,bytes)":"9f063efc","afterDonate(address,(address,address,uint24,int24,address),uint256,uint256,bytes)":"e1b4af69","afterInitialize(address,(address,address,uint24,int24,address),uint160,int24)":"6fe7e6eb","afterRemoveLiquidity(address,(address,address,uint24,int24,address),(int24,int24,int256,bytes32),int256,int256,bytes)":"6c2bbe7e","afterSwap(address,(address,address,uint24,int24,address),(bool,int256,uint160),int256,bytes)":"b47b2fb1","baseToken()":"c55dae63","beforeAddLiquidity(address,(address,address,uint24,int24,address),(int24,int24,int256,bytes32),bytes)":"259982e5","beforeDonate(address,(address,address,uint24,int24,address),uint256,uint256,bytes)":"b6a8b0fa","beforeInitialize(address,(address,address,uint24,int24,address),uint160)":"dc98354e","beforeRemoveLiquidity(address,(address,address,uint24,int24,address),(int24,int24,int256,bytes32),bytes)":"21d0ee70","beforeSwap(address,(address,address,uint24,int24,address),(bool,int256,uint160),bytes)":"575e24b4","bondingCurve()":"eff1d50e","calculateIv(address,uint160)":"f68f3c57","deploy2Currency(address,string[2],string[2],address,uint160,uint256)":"a79a3478","getHookPermissions()":"c4e833ce","getVixData(address)":"b6780bf2","isPairInitiated(address)":"77295a8d","pairEndingTime(address)":"bb2ffdef","pairInitiatedTime(address)":"d111f97e","poolManager()":"dc4c90d3","resetPair(address,uint256,address,uint160)":"db6ba9d4","swapReserve(uint256,uint256,uint256,uint256,uint256,uint256,address)":"4c001a9e","unlockCallback(bytes)":"91dd7346","vixTokensPrice(uint256)":"591094e4"},"id":105}