{"abi":[{"type":"constructor","inputs":[{"name":"poolManager","type":"address","internalType":"contract IPoolManager"},{"name":"_baseToken","type":"address","internalType":"address"}],"stateMutability":"nonpayable"},{"type":"function","name":"BASE_PRICE","inputs":[],"outputs":[{"name":"","type":"uint256","internalType":"uint256"}],"stateMutability":"view"},{"type":"function","name":"FEE","inputs":[],"outputs":[{"name":"","type":"uint256","internalType":"uint256"}],"stateMutability":"view"},{"type":"function","name":"IV_TOKEN_SUPPLY","inputs":[],"outputs":[{"name":"","type":"uint256","internalType":"uint256"}],"stateMutability":"view"},{"type":"function","name":"RESERVE_SHIFT_SLOPE","inputs":[],"outputs":[{"name":"","type":"uint256","internalType":"uint256"}],"stateMutability":"view"},{"type":"function","name":"SLOPE","inputs":[],"outputs":[{"name":"","type":"uint256","internalType":"uint256"}],"stateMutability":"view"},{"type":"function","name":"afterAddLiquidity","inputs":[{"name":"sender","type":"address","internalType":"address"},{"name":"key","type":"tuple","internalType":"struct PoolKey","components":[{"name":"currency0","type":"address","internalType":"Currency"},{"name":"currency1","type":"address","internalType":"Currency"},{"name":"fee","type":"uint24","internalType":"uint24"},{"name":"tickSpacing","type":"int24","internalType":"int24"},{"name":"hooks","type":"address","internalType":"contract IHooks"}]},{"name":"params","type":"tuple","internalType":"struct IPoolManager.ModifyLiquidityParams","components":[{"name":"tickLower","type":"int24","internalType":"int24"},{"name":"tickUpper","type":"int24","internalType":"int24"},{"name":"liquidityDelta","type":"int256","internalType":"int256"},{"name":"salt","type":"bytes32","internalType":"bytes32"}]},{"name":"delta","type":"int256","internalType":"BalanceDelta"},{"name":"feesAccrued","type":"int256","internalType":"BalanceDelta"},{"name":"hookData","type":"bytes","internalType":"bytes"}],"outputs":[{"name":"","type":"bytes4","internalType":"bytes4"},{"name":"","type":"int256","internalType":"BalanceDelta"}],"stateMutability":"nonpayable"},{"type":"function","name":"afterDonate","inputs":[{"name":"sender","type":"address","internalType":"address"},{"name":"key","type":"tuple","internalType":"struct PoolKey","components":[{"name":"currency0","type":"address","internalType":"Currency"},{"name":"currency1","type":"address","internalType":"Currency"},{"name":"fee","type":"uint24","internalType":"uint24"},{"name":"tickSpacing","type":"int24","internalType":"int24"},{"name":"hooks","type":"address","internalType":"contract IHooks"}]},{"name":"amount0","type":"uint256","internalType":"uint256"},{"name":"amount1","type":"uint256","internalType":"uint256"},{"name":"hookData","type":"bytes","internalType":"bytes"}],"outputs":[{"name":"","type":"bytes4","internalType":"bytes4"}],"stateMutability":"nonpayable"},{"type":"function","name":"afterInitialize","inputs":[{"name":"sender","type":"address","internalType":"address"},{"name":"key","type":"tuple","internalType":"struct PoolKey","components":[{"name":"currency0","type":"address","internalType":"Currency"},{"name":"currency1","type":"address","internalType":"Currency"},{"name":"fee","type":"uint24","internalType":"uint24"},{"name":"tickSpacing","type":"int24","internalType":"int24"},{"name":"hooks","type":"address","internalType":"contract IHooks"}]},{"name":"sqrtPriceX96","type":"uint160","internalType":"uint160"},{"name":"tick","type":"int24","internalType":"int24"}],"outputs":[{"name":"","type":"bytes4","internalType":"bytes4"}],"stateMutability":"nonpayable"},{"type":"function","name":"afterRemoveLiquidity","inputs":[{"name":"sender","type":"address","internalType":"address"},{"name":"key","type":"tuple","internalType":"struct PoolKey","components":[{"name":"currency0","type":"address","internalType":"Currency"},{"name":"currency1","type":"address","internalType":"Currency"},{"name":"fee","type":"uint24","internalType":"uint24"},{"name":"tickSpacing","type":"int24","internalType":"int24"},{"name":"hooks","type":"address","internalType":"contract IHooks"}]},{"name":"params","type":"tuple","internalType":"struct IPoolManager.ModifyLiquidityParams","components":[{"name":"tickLower","type":"int24","internalType":"int24"},{"name":"tickUpper","type":"int24","internalType":"int24"},{"name":"liquidityDelta","type":"int256","internalType":"int256"},{"name":"salt","type":"bytes32","internalType":"bytes32"}]},{"name":"delta","type":"int256","internalType":"BalanceDelta"},{"name":"feesAccrued","type":"int256","internalType":"BalanceDelta"},{"name":"hookData","type":"bytes","internalType":"bytes"}],"outputs":[{"name":"","type":"bytes4","internalType":"bytes4"},{"name":"","type":"int256","internalType":"BalanceDelta"}],"stateMutability":"nonpayable"},{"type":"function","name":"afterSwap","inputs":[{"name":"sender","type":"address","internalType":"address"},{"name":"key","type":"tuple","internalType":"struct PoolKey","components":[{"name":"currency0","type":"address","internalType":"Currency"},{"name":"currency1","type":"address","internalType":"Currency"},{"name":"fee","type":"uint24","internalType":"uint24"},{"name":"tickSpacing","type":"int24","internalType":"int24"},{"name":"hooks","type":"address","internalType":"contract IHooks"}]},{"name":"params","type":"tuple","internalType":"struct IPoolManager.SwapParams","components":[{"name":"zeroForOne","type":"bool","internalType":"bool"},{"name":"amountSpecified","type":"int256","internalType":"int256"},{"name":"sqrtPriceLimitX96","type":"uint160","internalType":"uint160"}]},{"name":"delta","type":"int256","internalType":"BalanceDelta"},{"name":"hookData","type":"bytes","internalType":"bytes"}],"outputs":[{"name":"","type":"bytes4","internalType":"bytes4"},{"name":"","type":"int128","internalType":"int128"}],"stateMutability":"nonpayable"},{"type":"function","name":"baseToken","inputs":[],"outputs":[{"name":"","type":"address","internalType":"address"}],"stateMutability":"view"},{"type":"function","name":"beforeAddLiquidity","inputs":[{"name":"sender","type":"address","internalType":"address"},{"name":"key","type":"tuple","internalType":"struct PoolKey","components":[{"name":"currency0","type":"address","internalType":"Currency"},{"name":"currency1","type":"address","internalType":"Currency"},{"name":"fee","type":"uint24","internalType":"uint24"},{"name":"tickSpacing","type":"int24","internalType":"int24"},{"name":"hooks","type":"address","internalType":"contract IHooks"}]},{"name":"params","type":"tuple","internalType":"struct IPoolManager.ModifyLiquidityParams","components":[{"name":"tickLower","type":"int24","internalType":"int24"},{"name":"tickUpper","type":"int24","internalType":"int24"},{"name":"liquidityDelta","type":"int256","internalType":"int256"},{"name":"salt","type":"bytes32","internalType":"bytes32"}]},{"name":"hookData","type":"bytes","internalType":"bytes"}],"outputs":[{"name":"","type":"bytes4","internalType":"bytes4"}],"stateMutability":"nonpayable"},{"type":"function","name":"beforeDonate","inputs":[{"name":"sender","type":"address","internalType":"address"},{"name":"key","type":"tuple","internalType":"struct PoolKey","components":[{"name":"currency0","type":"address","internalType":"Currency"},{"name":"currency1","type":"address","internalType":"Currency"},{"name":"fee","type":"uint24","internalType":"uint24"},{"name":"tickSpacing","type":"int24","internalType":"int24"},{"name":"hooks","type":"address","internalType":"contract IHooks"}]},{"name":"amount0","type":"uint256","internalType":"uint256"},{"name":"amount1","type":"uint256","internalType":"uint256"},{"name":"hookData","type":"bytes","internalType":"bytes"}],"outputs":[{"name":"","type":"bytes4","internalType":"bytes4"}],"stateMutability":"nonpayable"},{"type":"function","name":"beforeInitialize","inputs":[{"name":"sender","type":"address","internalType":"address"},{"name":"key","type":"tuple","internalType":"struct PoolKey","components":[{"name":"currency0","type":"address","internalType":"Currency"},{"name":"currency1","type":"address","internalType":"Currency"},{"name":"fee","type":"uint24","internalType":"uint24"},{"name":"tickSpacing","type":"int24","internalType":"int24"},{"name":"hooks","type":"address","internalType":"contract IHooks"}]},{"name":"sqrtPriceX96","type":"uint160","internalType":"uint160"}],"outputs":[{"name":"","type":"bytes4","internalType":"bytes4"}],"stateMutability":"nonpayable"},{"type":"function","name":"beforeRemoveLiquidity","inputs":[{"name":"sender","type":"address","internalType":"address"},{"name":"key","type":"tuple","internalType":"struct PoolKey","components":[{"name":"currency0","type":"address","internalType":"Currency"},{"name":"currency1","type":"address","internalType":"Currency"},{"name":"fee","type":"uint24","internalType":"uint24"},{"name":"tickSpacing","type":"int24","internalType":"int24"},{"name":"hooks","type":"address","internalType":"contract IHooks"}]},{"name":"params","type":"tuple","internalType":"struct IPoolManager.ModifyLiquidityParams","components":[{"name":"tickLower","type":"int24","internalType":"int24"},{"name":"tickUpper","type":"int24","internalType":"int24"},{"name":"liquidityDelta","type":"int256","internalType":"int256"},{"name":"salt","type":"bytes32","internalType":"bytes32"}]},{"name":"hookData","type":"bytes","internalType":"bytes"}],"outputs":[{"name":"","type":"bytes4","internalType":"bytes4"}],"stateMutability":"nonpayable"},{"type":"function","name":"beforeSwap","inputs":[{"name":"sender","type":"address","internalType":"address"},{"name":"key","type":"tuple","internalType":"struct PoolKey","components":[{"name":"currency0","type":"address","internalType":"Currency"},{"name":"currency1","type":"address","internalType":"Currency"},{"name":"fee","type":"uint24","internalType":"uint24"},{"name":"tickSpacing","type":"int24","internalType":"int24"},{"name":"hooks","type":"address","internalType":"contract IHooks"}]},{"name":"params","type":"tuple","internalType":"struct IPoolManager.SwapParams","components":[{"name":"zeroForOne","type":"bool","internalType":"bool"},{"name":"amountSpecified","type":"int256","internalType":"int256"},{"name":"sqrtPriceLimitX96","type":"uint160","internalType":"uint160"}]},{"name":"hookData","type":"bytes","internalType":"bytes"}],"outputs":[{"name":"","type":"bytes4","internalType":"bytes4"},{"name":"","type":"int256","internalType":"BeforeSwapDelta"},{"name":"","type":"uint24","internalType":"uint24"}],"stateMutability":"nonpayable"},{"type":"function","name":"calculateIv","inputs":[{"name":"volume","type":"uint160","internalType":"uint160"},{"name":"liquidity","type":"uint160","internalType":"uint160"},{"name":"fee","type":"uint160","internalType":"uint160"}],"outputs":[{"name":"_iv","type":"uint160","internalType":"uint160"}],"stateMutability":"view"},{"type":"function","name":"deploy2Currency","inputs":[{"name":"deriveToken","type":"address","internalType":"address"},{"name":"_tokenName","type":"string[2]","internalType":"string[2]"},{"name":"_tokenSymbol","type":"string[2]","internalType":"string[2]"},{"name":"_poolAddress","type":"address","internalType":"address"},{"name":"fee","type":"uint160","internalType":"uint160"},{"name":"liquidity","type":"uint160","internalType":"uint160"},{"name":"volume","type":"uint160","internalType":"uint160"},{"name":"deadline","type":"uint256","internalType":"uint256"}],"outputs":[{"name":"","type":"address[2]","internalType":"address[2]"}],"stateMutability":"nonpayable"},{"type":"function","name":"getHookPermissions","inputs":[],"outputs":[{"name":"","type":"tuple","internalType":"struct Hooks.Permissions","components":[{"name":"beforeInitialize","type":"bool","internalType":"bool"},{"name":"afterInitialize","type":"bool","internalType":"bool"},{"name":"beforeAddLiquidity","type":"bool","internalType":"bool"},{"name":"afterAddLiquidity","type":"bool","internalType":"bool"},{"name":"beforeRemoveLiquidity","type":"bool","internalType":"bool"},{"name":"afterRemoveLiquidity","type":"bool","internalType":"bool"},{"name":"beforeSwap","type":"bool","internalType":"bool"},{"name":"afterSwap","type":"bool","internalType":"bool"},{"name":"beforeDonate","type":"bool","internalType":"bool"},{"name":"afterDonate","type":"bool","internalType":"bool"},{"name":"beforeSwapReturnDelta","type":"bool","internalType":"bool"},{"name":"afterSwapReturnDelta","type":"bool","internalType":"bool"},{"name":"afterAddLiquidityReturnDelta","type":"bool","internalType":"bool"},{"name":"afterRemoveLiquidityReturnDelta","type":"bool","internalType":"bool"}]}],"stateMutability":"pure"},{"type":"function","name":"getVixData","inputs":[{"name":"deriveAsset","type":"address","internalType":"address"}],"outputs":[{"name":"vixHighToken","type":"address","internalType":"address"},{"name":"_vixLowToken","type":"address","internalType":"address"},{"name":"_circulation0","type":"uint256","internalType":"uint256"},{"name":"_circulation1","type":"uint256","internalType":"uint256"},{"name":"_contractHoldings0","type":"uint256","internalType":"uint256"},{"name":"_contractHoldings1","type":"uint256","internalType":"uint256"},{"name":"_reserve0","type":"uint256","internalType":"uint256"},{"name":"_reserve1","type":"uint256","internalType":"uint256"}],"stateMutability":"view"},{"type":"function","name":"isPairInitiated","inputs":[{"name":"","type":"address","internalType":"address"}],"outputs":[{"name":"","type":"bool","internalType":"bool"}],"stateMutability":"view"},{"type":"function","name":"oneForZeroOperator","inputs":[{"name":"key","type":"tuple","internalType":"struct PoolKey","components":[{"name":"currency0","type":"address","internalType":"Currency"},{"name":"currency1","type":"address","internalType":"Currency"},{"name":"fee","type":"uint24","internalType":"uint24"},{"name":"tickSpacing","type":"int24","internalType":"int24"},{"name":"hooks","type":"address","internalType":"contract IHooks"}]},{"name":"_deriveAsset","type":"address","internalType":"address"},{"name":"params","type":"tuple","internalType":"struct IPoolManager.SwapParams","components":[{"name":"zeroForOne","type":"bool","internalType":"bool"},{"name":"amountSpecified","type":"int256","internalType":"int256"},{"name":"sqrtPriceLimitX96","type":"uint160","internalType":"uint160"}]},{"name":"amountInOutPositive","type":"uint256","internalType":"uint256"},{"name":"zeroIsBase","type":"bool","internalType":"bool"}],"outputs":[{"name":"","type":"int128","internalType":"int128"},{"name":"","type":"int128","internalType":"int128"}],"stateMutability":"nonpayable"},{"type":"function","name":"pairEndingTime","inputs":[{"name":"","type":"address","internalType":"address"}],"outputs":[{"name":"","type":"uint256","internalType":"uint256"}],"stateMutability":"view"},{"type":"function","name":"pairInitiatedTime","inputs":[{"name":"","type":"address","internalType":"address"}],"outputs":[{"name":"","type":"uint256","internalType":"uint256"}],"stateMutability":"view"},{"type":"function","name":"poolManager","inputs":[],"outputs":[{"name":"","type":"address","internalType":"contract IPoolManager"}],"stateMutability":"view"},{"type":"function","name":"resetPair","inputs":[{"name":"deriveToken","type":"address","internalType":"address"},{"name":"deadline","type":"uint256","internalType":"uint256"},{"name":"_poolAddress","type":"address","internalType":"address"},{"name":"volume","type":"uint160","internalType":"uint160"},{"name":"liquidity","type":"uint160","internalType":"uint160"},{"name":"fee","type":"uint160","internalType":"uint160"}],"outputs":[{"name":"","type":"address[2]","internalType":"address[2]"}],"stateMutability":"nonpayable"},{"type":"function","name":"swapReserve","inputs":[{"name":"initialIv","type":"uint256","internalType":"uint256"},{"name":"currentIv","type":"uint256","internalType":"uint256"},{"name":"reserve0","type":"uint256","internalType":"uint256"},{"name":"reserve1","type":"uint256","internalType":"uint256"},{"name":"circulation0","type":"uint256","internalType":"uint256"},{"name":"circulation1","type":"uint256","internalType":"uint256"},{"name":"deriveAsset","type":"address","internalType":"address"}],"outputs":[{"name":"","type":"uint256","internalType":"uint256"},{"name":"","type":"uint256","internalType":"uint256"}],"stateMutability":"nonpayable"},{"type":"function","name":"unlockCallback","inputs":[{"name":"data","type":"bytes","internalType":"bytes"}],"outputs":[{"name":"","type":"bytes","internalType":"bytes"}],"stateMutability":"nonpayable"},{"type":"function","name":"vixTokensPrice","inputs":[{"name":"circulation","type":"uint256","internalType":"uint256"}],"outputs":[{"name":"","type":"uint256","internalType":"uint256"}],"stateMutability":"pure"},{"type":"function","name":"zeroForOneOperator","inputs":[{"name":"key","type":"tuple","internalType":"struct PoolKey","components":[{"name":"currency0","type":"address","internalType":"Currency"},{"name":"currency1","type":"address","internalType":"Currency"},{"name":"fee","type":"uint24","internalType":"uint24"},{"name":"tickSpacing","type":"int24","internalType":"int24"},{"name":"hooks","type":"address","internalType":"contract IHooks"}]},{"name":"_deriveAsset","type":"address","internalType":"address"},{"name":"params","type":"tuple","internalType":"struct IPoolManager.SwapParams","components":[{"name":"zeroForOne","type":"bool","internalType":"bool"},{"name":"amountSpecified","type":"int256","internalType":"int256"},{"name":"sqrtPriceLimitX96","type":"uint160","internalType":"uint160"}]},{"name":"amountInOutPositive","type":"uint256","internalType":"uint256"},{"name":"zeroIsBase","type":"bool","internalType":"bool"}],"outputs":[{"name":"","type":"int128","internalType":"int128"},{"name":"","type":"int128","internalType":"int128"}],"stateMutability":"nonpayable"},{"type":"event","name":"PairExpired","inputs":[{"name":"deriveToken","type":"address","indexed":true,"internalType":"address"},{"name":"vixHighToken","type":"address","indexed":true,"internalType":"address"},{"name":"vixLowToken","type":"address","indexed":true,"internalType":"address"},{"name":"initatedIV","type":"uint256","indexed":false,"internalType":"uint256"},{"name":"closedIV","type":"uint256","indexed":false,"internalType":"uint256"},{"name":"expiredTime","type":"uint256","indexed":false,"internalType":"uint256"}],"anonymous":false},{"type":"event","name":"PairInitiated","inputs":[{"name":"_deriveToken","type":"address","indexed":true,"internalType":"address"},{"name":"_vixHighToken","type":"address","indexed":true,"internalType":"address"},{"name":"_vixLowToken","type":"address","indexed":true,"internalType":"address"},{"name":"_initiatedTime","type":"uint256","indexed":false,"internalType":"uint256"},{"name":"_deadline","type":"uint256","indexed":false,"internalType":"uint256"},{"name":"initiatedIV","type":"uint256","indexed":false,"internalType":"uint256"},{"name":"isReset","type":"bool","indexed":false,"internalType":"bool"}],"anonymous":false},{"type":"error","name":"HookNotImplemented","inputs":[]},{"type":"error","name":"NotPoolManager","inputs":[]},{"type":"error","name":"invalidLiquidityAction","inputs":[]}],"bytecode":{"object":"0x60a0604052346102d357604051601f61392e38819003918201601f19168301916001600160401b038311848410176102d75780849260409485528339810103126102d3578051906001600160a01b03821682036102d357602001516001600160a01b03811691908290036102d3576080525f6101a061007c6102eb565b8281528260208201528260408201528260608201528260808201528260a08201528260c08201528260e0820152826101008201528261012082015282610140820152826101608201528261018082015201525f6101a06100da6102eb565b82815282602082015260016040820152600160608201528260808201528260a0820152600160c08201528260e082015282610100820152826101208201526001610140820152826101608201528261018082015201526120003016158015906102c6575b80156102b5575b80156102a4575b8015610297575b801561028a575b801561027a575b801561026e575b8015610262575b8015610256575b8015610246575b801561023a575b801561022e575b8015610222575b61020f57600480546001600160a01b031916919091179055604051613622908161030c82396080518181816102580152818161032401528181610376015281816107b9015281816108090152818161087e01528181610a6601528181610be901528181610e2a01528181611b2301528181612275015261245c0152f35b630732d7b560e51b5f523060045260245ffd5b50600130161515610192565b5060023016151561018b565b50600430161515610184565b506008301615156001141561017d565b50601030161515610176565b5060203016151561016f565b50604030161515610168565b5060803016151560011415610161565b506101003016151561015a565b5061020030161515610153565b50610400301615156001141561014c565b506108003016151560011415610145565b506110003016151561013e565b5f80fd5b634e487b7160e01b5f52604160045260245ffd5b604051906101c082016001600160401b038111838210176102d75760405256fe60806040526004361015610011575f80fd5b5f3560e01c806301e07b5414610e6a57806321d0ee7014610e17578063259982e514610e1757806336808a7c14610df25780634c001a9e14610db1578063575e24b414610b94578063591094e414610b325780635f40ef0114610aa35780636c2bbe7e146107f65780636fe7e6eb14610a2857806377295a8d146109ec5780638b7cc629146109ce57806391dd73461461084c5780639f063efc146107f6578063b47b2fb114610762578063b6780bf21461066f578063b6a8b0fa14610245578063bb2ffdef14610637578063c4e833ce146104cf578063c55dae63146104a7578063c57981b51461048b578063d111f97e14610453578063d9a6eef9146103a5578063dc4c90d314610361578063dc98354e146102f3578063de2ff802146102a9578063e1b4af6914610245578063e7899571146101a8578063f86325ed146101885763fc63b1fd14610163575f80fd5b34610184575f366003190112610184576020604051666a94d74f4300008152f35b5f80fd5b34610184575f366003190112610184576020604051650574fbde60008152f35b3461018457610100366003190112610184576101c2610ebd565b6024356001600160401b038111610184576101e190369060040161120e565b90604435906001600160401b038211610184576102419261020961023593369060040161120e565b610211610eff565b610219610f15565b90610222610f2b565b9261022b610ee9565b9460e4359661178f565b60405191829182611119565b0390f35b3461018457610253366110c2565b5050507f00000000000000000000000000000000000000000000000000000000000000006001600160a01b03163303925061029a91505057630a85dc2960e01b5f5260045ffd5b63570c108560e11b5f5260045ffd5b346101845760c0366003190112610184576102416102356102c8610ebd565b6102d0610ed3565b6102d8610eff565b6102e0610f15565b916102e9610f2b565b9360243590611541565b346101845760e03660031901126101845761030c610ebd565b5060a036602319011261018457610321610ee9565b507f00000000000000000000000000000000000000000000000000000000000000006001600160a01b0316330361029a57630a85dc2960e01b5f5260045ffd5b34610184575f366003190112610184576040517f00000000000000000000000000000000000000000000000000000000000000006001600160a01b03168152602090f35b34610184576103b336610fe5565b6001600160a01b039384165f90815260036020526040902092939092906103d9866114be565b16936001600160a01b036103ef602088016114be565b83546001600160a01b03169687149691168615610448575b505060205f91013512935f1461043957610420946121ec565b905b60408051600f92830b81529290910b602083015290f35b610442946121b4565b90610422565b14945060205f610407565b34610184576020366003190112610184576001600160a01b03610474610ebd565b165f526001602052602060405f2054604051908152f35b34610184575f3660031901126101845760206040516127108152f35b34610184575f366003190112610184576004546040516001600160a01b039091168152602090f35b34610184575f366003190112610184575f6101a06040516104ef8161119b565b8281528260208201528260408201528260608201528260808201528260a08201528260c08201528260e0820152826101008201528261012082015282610140820152826101608201528261018082015201526101c060206040516105528161119b565b5f8152818101905f825260408101600181526060820160018152608083015f815260a084015f815260c085016001815260e08601905f82526101008701925f84526101208801945f8652610140890196600188526101608a01985f8a526101a06101808c019b5f8d52019b5f8d526040519d8e915f835251151591015251151560408d015251151560608c015251151560808b015251151560a08a015251151560c089015251151560e08801525115156101008701525115156101208601525115156101408501525115156101608401525115156101808301525115156101a0820152f35b34610184576020366003190112610184576001600160a01b03610658610ebd565b165f526002602052602060405f2054604051908152f35b34610184576020366003190112610184576001600160a01b03610690610ebd565b165f52600360205261010060405f20604051906106ac8261117f565b60018060a01b038154169182815260018060a01b03600183015416806020830152600283015480604084015260038401548060608501526004850154918260808601526005860154938460a08701526006870154958660c08201526101206007890154988960e084015260018060a01b036008820154168c840152600960018060a01b0391015416910152604051978852602088015260408701526060860152608085015260a084015260c083015260e0820152f35b34610184576101603660031901126101845761077c610ebd565b5060a03660231901126101845760603660c319011261018457610144356001600160401b038111610184576107b5903690600401610f55565b50507f00000000000000000000000000000000000000000000000000000000000000006001600160a01b0316330361029a57630a85dc2960e01b5f5260045ffd5b346101845761080436611035565b5050507f00000000000000000000000000000000000000000000000000000000000000006001600160a01b03163303935061029a9250505057630a85dc2960e01b5f5260045ffd5b34610184576020366003190112610184576004356001600160401b0381116101845761087c903690600401610f55565b7f0000000000000000000000000000000000000000000000000000000000000000906001600160a01b038216330361029a578260809181010312610184576040516109a6926108ca82611150565b610992813580845261097c6108e160208501610f41565b916020860192835261094161090b60606108fd60408901610f41565b9760408a0198895201610f41565b91606088019283526040516109216040826111d2565b600e81526d031b0b6363130b1b5a230ba309d160951b6020820152611e8f565b8251815187516109619290916001600160a01b03908116918b9116611f10565b845190518651916001600160a01b0391821691899116611f10565b51835190309086906001600160a01b0316612166565b5190519130916001600160a01b0316612166565b6102416040516109b76020826111d2565b5f815260405191829160208352602083019061109e565b34610184575f366003190112610184576020604051633b9aca008152f35b34610184576020366003190112610184576001600160a01b03610a0d610ebd565b165f525f602052602060ff60405f2054166040519015158152f35b346101845761010036600319011261018457610a42610ebd565b5060a036602319011261018457610a57610ee9565b5060e4358060020b03610184577f00000000000000000000000000000000000000000000000000000000000000006001600160a01b0316330361029a57630a85dc2960e01b5f5260045ffd5b3461018457610ab136610fe5565b6001600160a01b039384165f9081526003602052604090209293909290610ad7866114be565b16936001600160a01b03610aed602088016114be565b83546001600160a01b03169687149691168615610b27575b505060205f91013512935f14610b1e5761042094611e60565b61044294611e28565b14945060205f610b05565b346101845760203660031901126101845760043580633b9aca000290633b9aca00820403610b8057670de0b6b3a76400009004650574fbde60008101809111610b8057602090604051908152f35b634e487b7160e01b5f52601160045260245ffd5b346101845761014036600319011261018457610bae610ebd565b5060a03660231901126101845760603660c319011261018457610124356001600160401b03811161018457610be7903690600401610f55565b7f00000000000000000000000000000000000000000000000000000000000000006001600160a01b0316330361029a5760e435915f831315610d9f5760208184935b8101031261018457356001600160a01b0381169190829003610184576024356001600160a01b03811680821415939092909184610184576004546001600160a01b031684149260c43580151581036101845715610d1a575f52600360205260405f20946101845750604435946001600160a01b03861693848703610184578554606097506001600160a01b0316908114948515610d10575b50505f139215610d0057610cd69360246121ec565b6001600160801b03169060801b175b604051906315d7892d60e21b825260208201525f6040820152f35b610d0b9360246121b4565b610cd6565b1493505f87610cc1565b5f908152600360205260409020604435969095506001600160a01b03871694909150848703610184578554606097506001600160a01b0316908114948515610d95575b50505f139215610d8557610d72936024611e60565b6001600160801b03169060801b17610ce5565b610d90936024611e28565b610d72565b1493505f87610d5d565b602081610dab85611e18565b93610c29565b346101845760e0366003190112610184576040610de6610dcf610ee9565b60a4356084356064356044356024356004356112f8565b82519182526020820152f35b34610184575f3660031901126101845760206040516acecb8f27f4200f3a0000008152f35b3461018457610e2536610f82565b5050507f00000000000000000000000000000000000000000000000000000000000000006001600160a01b03163303915061029a90505762c890a560e31b5f5260045ffd5b3461018457606036600319011261018457610e83610ebd565b6024356001600160a01b038116810361018457602091610eab91610ea5610ed3565b91611d02565b6040516001600160a01b039091168152f35b600435906001600160a01b038216820361018457565b604435906001600160a01b038216820361018457565b60c435906001600160a01b038216820361018457565b606435906001600160a01b038216820361018457565b608435906001600160a01b038216820361018457565b60a435906001600160a01b038216820361018457565b35906001600160a01b038216820361018457565b9181601f84011215610184578235916001600160401b038311610184576020838186019501011161018457565b90610160600319830112610184576004356001600160a01b0381168103610184579160a060231982011261018457602491608060c3198301126101845760c49161014435906001600160401b03821161018457610fe191600401610f55565b9091565b600319810161016081126101845760a0136101845760049160a4356001600160a01b0381168103610184576060909260c31901126101845760c49061012435906101443580151581036101845790565b906101a0600319830112610184576004356001600160a01b0381168103610184579160a060231982011261018457602491608060c3198301126101845760c4916101443591610164359161018435906001600160401b03821161018457610fe191600401610f55565b805180835260209291819084018484015e5f828201840152601f01601f1916010190565b610120600319820112610184576004356001600160a01b0381168103610184579160a06023198301126101845760249160c4359160e4359161010435906001600160401b03821161018457610fe191600401610f55565b919060408301925f905b6002821061113057505050565b82516001600160a01b031681526020928301926001929092019101611123565b608081019081106001600160401b0382111761116b57604052565b634e487b7160e01b5f52604160045260245ffd5b61014081019081106001600160401b0382111761116b57604052565b6101c081019081106001600160401b0382111761116b57604052565b604081019081106001600160401b0382111761116b57604052565b90601f801991011681019081106001600160401b0382111761116b57604052565b6001600160401b03811161116b57601f01601f191660200190565b9080601f83011215610184576040916040519261122c6040856111d2565b8360408301928484116101845780915b84831061124c5750505050505090565b82356001600160401b03811161018457820186601f8201121561018457803591611275836111f3565b611281875191826111d2565b8381528860208585010111610184575f602085819682809701838601378301015281520192019161123c565b91908203918211610b8057565b81810292918115918404141715610b8057565b81156112d7570490565b634e487b7160e01b5f52601260045260245ffd5b91908201809211610b8057565b9496959394919291818111156113dd5790611312916112ad565b9182666a94d74f4300000292666a94d74f430000840403610b805761135a81611355670de0b6b3a764000061134d61135595611361986112ba565b0497886112ba565b6112cd565b96856112ba565b9060018060a01b0316805f526003602052600660405f20016113848482546112ad565b9055805f526003602052600760405f20016113a08482546112eb565b9055805f526003602052600460405f20016113bc8682546112ad565b90555f5260036020526113d7600560405f20019182546112eb565b90559190565b9396949391929190808210156114b057906113f7916112ad565b9182666a94d74f4300000292666a94d74f430000840403610b805761143281611355670de0b6b3a764000061134d61135595611439986112ba565b93856112ba565b9360018060a01b031690815f526003602052600660405f200161145d8482546112eb565b9055815f526003602052600760405f20016114798482546112ad565b9055815f526003602052611495600560405f20019182546112ad565b90555f526003602052600460405f20016113d78482546112eb565b50505050505090505f905f90565b356001600160a01b03811681036101845790565b9291926114de826111f3565b916114ec60405193846111d2565b829481845281830111610184578281602093845f96015e010152565b602081830312610184578051906001600160401b03821161018457019080601f8301121561018457815161153e926020016114d2565b90565b959490939160409687805161155682826111d2565b36903760018060a01b03811690815f525f602052600160ff8a5f20541615150361173157815f526002602052885f205442115f146116fa575f918252600360205290889020805460019091015489516001600160a01b039283169390929091166115bf836111b7565b8a516306fdde0360e01b81525f81600481885afa9081156116bc575f916116e0575b5083528a516306fdde0360e01b81525f81600481855afa9081156116bc575f916116c6575b50602084015260045f8c519561161b876111b7565b8d516395d89b4160e01b815292839182905afa9182156116bc576004925f9283916116a2575b5086528c516395d89b4160e01b815292839182905afa9081156116985761153e9a9b505f91611676575b50602084015261178f565b61169291503d805f833e61168a81836111d2565b810190611508565b5f61166b565b8b513d5f823e3d90fd5b6116b691503d8085833e61168a81836111d2565b5f611641565b8c513d5f823e3d90fd5b6116da91503d805f833e61168a81836111d2565b5f611606565b6116f491503d805f833e61168a81836111d2565b5f6115e1565b885162461bcd60e51b815260206004820152601060248201526f14185a5c881b9bdd08195e1c1a5c995960821b6044820152606490fd5b885162461bcd60e51b815260206004820152601260248201527114185a5c881b9bdd081a5b9a5d1a585d195960721b6044820152606490fd5b90600281101561177b5760051b0190565b634e487b7160e01b5f52603260045260245ffd5b949097969391956040958680516117a682826111d2565b36903760018060a01b031694855f525f6020525f8060ff898220541661182b8a8051926117d382856111d2565b6011845270034b9a830b4b924b734ba34b0ba32b21d1607d1b6020850152611815825194859363c3b5563560e01b60208601526024850152606484019061109e565b901515604483015203601f1981018352826111d2565b6020815191016a636f6e736f6c652e6c6f675afa50855f52600260205261187d875f2054885161185b8a826111d2565b601081526f03830b4b922b73234b733aa34b6b29d160851b6020820152611e8f565b6118aa875161188c89826111d2565b600a81526903232b0b23634b7329d160b51b60208201524290611e8f565b855f525f60205260ff875f205416158015611ccf575b15611c97576118f190865f525f602052875f20600160ff19825416179055865f52600160205242885f2055426112eb565b855f526002602052865f205585519661190a87896111d2565b86368937610b7f90612a6e5f5b60028110611bb25750505050611b1e969798505f94939260099261193a92611d02565b8751602089018051885191969195926001600160a01b03918216911661195f8761117f565b8652602086019081528886018881526060870189815260808801908a825260a08901928b845260c08a01948c865260e08b01968d88526101008c019860018060a01b031689526101208c019960018060a01b03168a528d5260036020528d8d209a60018060a01b039060018060a01b03905116166001600160601b0360a01b8c5416178b5560018060a01b0390511660018b019060018060a01b03166001600160601b0360a01b8254161790555160028a015551600389015551600488015551600587015551600686015551600785015560018060a01b03905116600884019060018060a01b03166001600160601b0360a01b82541617905560018060a01b0390511691019060018060a01b03166001600160601b0360a01b82541617905560018060a01b038551169060018060a01b0390511660608451611aa081611150565b6acecb8f27f4200f3a0000008082526020808301958652878301948552309390920192835286519182015292516001600160a01b039081168487015291518216606084015251166080808301919091528152611afd60a0826111d2565b8251809481926348c8949160e01b835260206004840152602483019061109e565b0381837f00000000000000000000000000000000000000000000000000000000000000006001600160a01b03165af1908115611ba95750611b5d575090565b3d805f833e611b6c81836111d2565b810190602081830312610184578051906001600160401b03821161018457019080601f83011215610184578151611ba5926020016114d2565b5090565b513d5f823e3d90fd5b611bbc818e61176a565b51611bc7828561176a565b518b5191868301908382106001600160401b0383111761116b578d611c0f8594611c0162015180948c8b893960608752606087019061109e565b90858203602087015261109e565b92015203905ff08015611c8d576001600160a01b031680611c30838e61176a565b52803b15610184575f809160448d51809481936340c10f1960e01b83523060048401526acecb8f27f4200f3a00000060248401525af18015611698579060019291611c7d575b5001611917565b5f611c87916111d2565b5f611c76565b8a513d5f823e3d90fd5b865162461bcd60e51b815260206004820152601160248201527050616972207374696c6c2061637469766560781b6044820152606490fd5b50855f52600260205242875f2054106118c0565b6001600160a01b039091169081156112d7576001600160a01b03160490565b6001600160a01b03908116670de0b6b3a764000081810290921692918184041490151715610b8057611d3391611ce3565b6001600160a01b03811691905f6003841115611e0757509182906001016001600160a01b038111610b805760011c60016001609f1b0316925b6001600160a01b0384811691908116821015611db55750611d8d8483611ce3565b6001600160a01b0390811691909101908111610b805760011c60016001609f1b031692611d6c565b92935050505b600182901b6002600160a01b03169160016001609f1b0381166001600160a01b0390911603610b80576001600160a01b039081168281029091169180159083049091141715610b805790565b9192905015611dbb57506001611dbb565b600160ff1b8114610b80575f0390565b939192909115611e495715611e4057610fe19261257d565b610fe192612496565b15611e5757610fe1926123a8565b610fe1926122eb565b939192909115611e815715611e7857610fe1926126b3565b610fe192612653565b15611e5757610fe1926125d9565b611ebe611ed25f93928493604051938492632d839cb360e21b602085015260406024850152606484019061109e565b90604483015203601f1981018352826111d2565b6020815191016a636f6e736f6c652e6c6f675afa50565b90816020910312610184575180151581036101845790565b90816020910312610184575190565b9192916001600160a01b031680611f895750604051630476982d60e21b81529250602091839160049183916001600160a01b03165af18015611f7e57611f535750565b611f749060203d602011611f77575b611f6c81836111d2565b810190611f01565b50565b503d611f62565b6040513d5f823e3d90fd5b6001600160a01b039091169190823b1561018457604051632961046560e21b815260048101829052935a945f816024818389819bf18015611f7e576120ea575b506001600160a01b03169184308414612082576020929360649160405195869485936323b872dd60e01b8552600485015288602485015260448401525af180156120775791602091849361204a575b505b600460405180958193630476982d60e21b83525af190811561203e5750611f535750565b604051903d90823e3d90fd5b61206990833d8511612070575b61206181836111d2565b810190611ee9565b505f612018565b503d612057565b6040513d85823e3d90fd5b60405163a9059cbb60e01b81526001600160a01b0386166004820152602481019290925290925060209183916044918391905af18015612077579160209184936120cd575b5061201a565b6120e390833d85116120705761206181836111d2565b505f6120c7565b6120f79195505f906111d2565b5f935f611fc9565b9192906001600160a01b0316803b1561018457604051637a94c56560e11b81526001600160a01b03948516600482015293909216602484015260448301525f908290818381606481015b03925af18015611f7e5761215a5750565b5f612164916111d2565b565b9192906001600160a01b0316803b1561018457604051630ab714fb60e11b81526001600160a01b03948516600482015293909216602484015260448301525f90829081838160648101612149565b9391929091156121d557156121cc57610fe192612496565b610fe19261257d565b156121e357610fe1926122eb565b610fe1926123a8565b93919290911561220d571561220457610fe192612653565b610fe1926126b3565b91939291156122c0576001600160801b03846122af81839560068660026122b898016122568561223f83549e8f6126fc565b9d6004850161224f8382546112eb565b90556112eb565b9055016122648a82546112eb565b905561226f816114be565b61229d8a7f000000000000000000000000000000000000000000000000000000000000000092833091612166565b6122aa60203093016114be565b6120ff565b16600f0b6122cb565b9216600f0b90565b610fe19293916125d9565b600f0b6f7fffffffffffffffffffffffffffffff198114610b80575f0390565b6001600160801b03836122af816122b89460078597999899600381016122568561231783549e8f6126fc565b9d6005850161224f8382546112eb565b604051906123366040836111d2565b600d82526c195e1858dd08081bdd5d081215609a1b6020830152565b604051906123616040836111d2565b600f82526e03a37b5b2b7103a379039b2b6361d1608d1b6020830152565b6040519061238e6040836111d2565b600b82526a030b6b7bab73a1034b71d160ad1b6020830152565b929190926123bc6123b7612327565b6127ab565b60038401918254906123ce8183612820565b95670de0b6b3a7640000870296808804670de0b6b3a76400001490151715610b8057866122b89460076122af936001600160801b039861242c858b9961241b82612416612352565b611e8f565b6124278a61241661237f565b6112ad565b90556005810161243d8582546112ad565b90550161244b8582546112ad565b9055612456816114be565b612484857f0000000000000000000000000000000000000000000000000000000000000000928330916120ff565b61249160203093016114be565b612166565b92919260038201918254906124ab8683612820565b90670de0b6b3a7640000820291808304670de0b6b3a76400001490151715610b8057816124f6946007836001600160801b0398612256858b9960056122af990161224f8382546112eb565b9216600f0b9190565b6040519061250e6040836111d2565b601382527203130b9b2aa37b5b2b7103932ba3ab937399d1606d1b6020830152565b6040519061253f6060836111d2565b6029825268034103a37b5b2b71d160bd1b6040837f52657475726e73206f66204554482061667465722073656c6c696e672068696760208201520152565b6001600160801b0380926125cd856124f6949796976007600385019485549561243d856125aa818a6129c7565b986125b78a6124166124ff565b600585016125c68382546112ad565b90556112ad565b6122af81612416612530565b929190926125e86123b7612327565b60028401918254906125fa8183612820565b95670de0b6b3a7640000870296808804670de0b6b3a76400001490151715610b8057866122b89460066122af936001600160801b0398612642858b9961241b82612416612352565b90556004810161243d8582546112ad565b92919260028201918254906126688683612820565b90670de0b6b3a7640000820291808304670de0b6b3a76400001490151715610b8057816124f6946006836001600160801b0398612256858b9960046122af990161224f8382546112eb565b6001600160801b0380926125cd856124f6949796976006600285019485549561243d856126e0818a6129c7565b986126ed8a6124166124ff565b600485016125c68382546112ad565b633b9aca00908082029082820403610b805761272383670de0b6b3a76400008093046112ba565b0482820291808304841490151715610b8057671bc16d674ec8000061275584670de0b6b3a764000061275c95046112ba565b04906112eb565b650574fbde60008281029290830403610b8057670de0b6b3a76400006127839204906112eb565b670de0b6b3a763d8f090818102918183041490151715610b8057670de0b6b3a7640000900490565b5f6127d8611ed2829360405192839163104c13eb60e21b602084015260206024840152604483019061109e565b03601f1981018352826111d2565b81810292915f8212600160ff1b821416610b80578184051490151715610b8057565b81810392915f138015828513169184121617610b8057565b90801561298257670de0b6b3a76400008102908104670de0b6b3a764000003610b8057633b9aca00670de0b6b3a764000090920482810292670de0b6b3a764271090920491830403610b8057650574fbde60008201809211610b805761288590611e18565b9061289081806127e6565b631dcd6500929063773594006128af926128a9916127e6565b90612808565b905f8212612933576128c36128c892612a27565b612808565b8160011b916002830503610b805781156112d757600160ff1b81145f19831416610b8057055f81126128f75790565b60405162461bcd60e51b8152602060048201526014602482015273125b9d985b1a59081d1bdad95b88185b5bdd5b9d60621b6044820152606490fd5b60405162461bcd60e51b815260206004820152602160248201527f4469736372696d696e616e74206d757374206265206e6f6e2d6e6567617469766044820152606560f81b6064820152608490fd5b60405162461bcd60e51b815260206004820152601e60248201527f436f7374206d7573742062652067726561746572207468616e207a65726f00006044820152606490fd5b633b9aca00908082029082820403610b80576129ee83670de0b6b3a76400008093046112ba565b0482820291808304841490151715610b8057671bc16d674ec80000612a2084670de0b6b3a764000061275c95046112ba565b04906112ad565b908115612a685760018201808311610b805760011c825b838210612a49575050565b909250612a5f83612a5a81846112cd565b6112eb565b60011c90612a3e565b5f915056fe60806040523461034e57610b7f8038038061001981610352565b92833981019060608183031261034e5780516001600160401b03811161034e5782610045918301610377565b60208201519092906001600160401b03811161034e57604091610069918401610377565b91015182516001600160401b03811161025f57600354600181811c91168015610344575b602082101461024157601f81116102e1575b506020601f821160011461027e57819293945f92610273575b50508160011b915f199060031b1c1916176003555b81516001600160401b03811161025f57600454600181811c91168015610255575b602082101461024157601f81116101de575b50602092601f821160011461017d57928192935f92610172575b50508160011b915f199060031b1c1916176004555b600580546001600160a01b031916331790554290810190811061015e576006556040516107b690816103c98239f35b634e487b7160e01b5f52601160045260245ffd5b015190505f8061011a565b601f1982169360045f52805f20915f5b8681106101c657508360019596106101ae575b505050811b0160045561012f565b01515f1960f88460031b161c191690555f80806101a0565b9192602060018192868501518155019401920161018d565b60045f527f8a35acfbc15ff81a39ae7d344fd709f28e8600b4aa8c65c6b64bfe7fe36bd19b601f830160051c81019160208410610237575b601f0160051c01905b81811061022c5750610100565b5f815560010161021f565b9091508190610216565b634e487b7160e01b5f52602260045260245ffd5b90607f16906100ee565b634e487b7160e01b5f52604160045260245ffd5b015190505f806100b8565b601f1982169060035f52805f20915f5b8181106102c9575095836001959697106102b1575b505050811b016003556100cd565b01515f1960f88460031b161c191690555f80806102a3565b9192602060018192868b01518155019401920161028e565b60035f527fc2575a0e9e593c00f959f8c92f12db2869c3395a3b0502d05e2516446f71f85b601f830160051c8101916020841061033a575b601f0160051c01905b81811061032f575061009f565b5f8155600101610322565b9091508190610319565b90607f169061008d565b5f80fd5b6040519190601f01601f191682016001600160401b0381118382101761025f57604052565b81601f8201121561034e578051906001600160401b03821161025f576103a6601f8301601f1916602001610352565b928284526020838301011161034e57815f9260208093018386015e830101529056fe6080806040526004361015610012575f80fd5b5f3560e01c90816306fdde031461055857508063095ea7b3146104d657806318160ddd146104b957806323b872dd146103da578063313ce567146103bf57806336654887146103a257806340c10f191461029f57806370a08231146102685780638da5cb5b1461024057806395d89b4114610125578063a9059cbb146100f45763dd62ed3e146100a0575f80fd5b346100f05760403660031901126100f0576100b9610651565b6100c1610667565b6001600160a01b039182165f908152600160209081526040808320949093168252928352819020549051908152f35b5f80fd5b346100f05760403660031901126100f05761011a610110610651565b60243590336106c9565b602060405160018152f35b346100f0575f3660031901126100f0576040515f6004548060011c90600181168015610236575b6020831081146102225782855290811561020657506001146101b1575b50819003601f01601f191681019067ffffffffffffffff82118183101761019d5761019982918260405282610627565b0390f35b634e487b7160e01b5f52604160045260245ffd5b905060045f527f8a35acfbc15ff81a39ae7d344fd709f28e8600b4aa8c65c6b64bfe7fe36bd19b5f905b8282106101f057506020915082010182610169565b60018160209254838588010152019101906101db565b90506020925060ff191682840152151560051b82010182610169565b634e487b7160e01b5f52602260045260245ffd5b91607f169161014c565b346100f0575f3660031901126100f0576005546040516001600160a01b039091168152602090f35b346100f05760203660031901126100f0576001600160a01b03610289610651565b165f525f602052602060405f2054604051908152f35b346100f05760403660031901126100f0576102b8610651565b60055460243591906001600160a01b03163303610370576102dc600654421061067d565b6001600160a01b031690811561035d576102f9600654421061067d565b600254908082018092116103495760207fddf252ad1be2c89b69c2b068fc378daa952ba7f163c4a11628f55a4df523b3ef915f9360025584845283825260408420818154019055604051908152a3005b634e487b7160e01b5f52601160045260245ffd5b63ec442f0560e01b5f525f60045260245ffd5b60405162461bcd60e51b815260206004820152600a60248201526927a7262c9027aba722a960b11b6044820152606490fd5b346100f0575f3660031901126100f0576020600654604051908152f35b346100f0575f3660031901126100f057602060405160128152f35b346100f05760603660031901126100f0576103f3610651565b6103fb610667565b6001600160a01b0382165f818152600160209081526040808320338452909152902054909260443592915f198110610439575b5061011a93506106c9565b83811061049e57841561048b5733156104785761011a945f52600160205260405f2060018060a01b0333165f526020528360405f20910390558461042e565b634a1406b160e11b5f525f60045260245ffd5b63e602df0560e01b5f525f60045260245ffd5b8390637dc7a0d960e11b5f523360045260245260445260645ffd5b346100f0575f3660031901126100f0576020600254604051908152f35b346100f05760403660031901126100f0576104ef610651565b60243590331561048b576001600160a01b031690811561047857335f52600160205260405f20825f526020528060405f20556040519081527f8c5be1e5ebec7d5bd14f71427d1e84f3dd0314c0f7b2291e5b200ac8c7c3b92560203392a3602060405160018152f35b346100f0575f3660031901126100f0575f6003548060011c9060018116801561061d575b6020831081146102225782855290811561020657506001146105c85750819003601f01601f191681019067ffffffffffffffff82118183101761019d5761019982918260405282610627565b905060035f527fc2575a0e9e593c00f959f8c92f12db2869c3395a3b0502d05e2516446f71f85b5f905b82821061060757506020915082010182610169565b60018160209254838588010152019101906105f2565b91607f169161057c565b602060409281835280519182918282860152018484015e5f828201840152601f01601f1916010190565b600435906001600160a01b03821682036100f057565b602435906001600160a01b03821682036100f057565b1561068457565b60405162461bcd60e51b815260206004820152601d60248201527f544f4b454e20455850495245442c204d494e54494e4720434c4f5345440000006044820152606490fd5b6001600160a01b031690811561076d576001600160a01b031691821561035d576106f6600654421061067d565b815f525f60205260405f205481811061075457817fddf252ad1be2c89b69c2b068fc378daa952ba7f163c4a11628f55a4df523b3ef92602092855f525f84520360405f2055845f525f825260405f20818154019055604051908152a3565b8263391434e360e21b5f5260045260245260445260645ffd5b634b637e8f60e11b5f525f60045260245ffdfea2646970667358221220d6f942ae2c43716d98cba2b48a46ca73ec1b3f7cf1c27b8197cdb16f2d9705ff64736f6c634300081a0033a26469706673582212201e240237cbc47e2e832ebc1921701dcb076f073adec6813b863c32bc06b3646664736f6c634300081a0033","linkReferences":{}},"methodIdentifiers":{"BASE_PRICE()":"f86325ed","FEE()":"c57981b5","IV_TOKEN_SUPPLY()":"36808a7c","RESERVE_SHIFT_SLOPE()":"fc63b1fd","SLOPE()":"8b7cc629","afterAddLiquidity(address,(address,address,uint24,int24,address),(int24,int24,int256,bytes32),int256,int256,bytes)":"9f063efc","afterDonate(address,(address,address,uint24,int24,address),uint256,uint256,bytes)":"e1b4af69","afterInitialize(address,(address,address,uint24,int24,address),uint160,int24)":"6fe7e6eb","afterRemoveLiquidity(address,(address,address,uint24,int24,address),(int24,int24,int256,bytes32),int256,int256,bytes)":"6c2bbe7e","afterSwap(address,(address,address,uint24,int24,address),(bool,int256,uint160),int256,bytes)":"b47b2fb1","baseToken()":"c55dae63","beforeAddLiquidity(address,(address,address,uint24,int24,address),(int24,int24,int256,bytes32),bytes)":"259982e5","beforeDonate(address,(address,address,uint24,int24,address),uint256,uint256,bytes)":"b6a8b0fa","beforeInitialize(address,(address,address,uint24,int24,address),uint160)":"dc98354e","beforeRemoveLiquidity(address,(address,address,uint24,int24,address),(int24,int24,int256,bytes32),bytes)":"21d0ee70","beforeSwap(address,(address,address,uint24,int24,address),(bool,int256,uint160),bytes)":"575e24b4","calculateIv(uint160,uint160,uint160)":"01e07b54","deploy2Currency(address,string[2],string[2],address,uint160,uint160,uint160,uint256)":"e7899571","getHookPermissions()":"c4e833ce","getVixData(address)":"b6780bf2","isPairInitiated(address)":"77295a8d","oneForZeroOperator((address,address,uint24,int24,address),address,(bool,int256,uint160),uint256,bool)":"5f40ef01","pairEndingTime(address)":"bb2ffdef","pairInitiatedTime(address)":"d111f97e","poolManager()":"dc4c90d3","resetPair(address,uint256,address,uint160,uint160,uint160)":"de2ff802","swapReserve(uint256,uint256,uint256,uint256,uint256,uint256,address)":"4c001a9e","unlockCallback(bytes)":"91dd7346","vixTokensPrice(uint256)":"591094e4","zeroForOneOperator((address,address,uint24,int24,address),address,(bool,int256,uint160),uint256,bool)":"d9a6eef9"},"id":94}