{"abi":[{"type":"constructor","inputs":[{"name":"poolManager","type":"address","internalType":"contract IPoolManager"},{"name":"_baseToken","type":"address","internalType":"address"}],"stateMutability":"nonpayable"},{"type":"function","name":"BASE_PRICE","inputs":[],"outputs":[{"name":"","type":"uint256","internalType":"uint256"}],"stateMutability":"view"},{"type":"function","name":"FEE","inputs":[],"outputs":[{"name":"","type":"uint256","internalType":"uint256"}],"stateMutability":"view"},{"type":"function","name":"IV_TOKEN_SUPPLY","inputs":[],"outputs":[{"name":"","type":"uint256","internalType":"uint256"}],"stateMutability":"view"},{"type":"function","name":"SLOPE","inputs":[],"outputs":[{"name":"","type":"uint256","internalType":"uint256"}],"stateMutability":"view"},{"type":"function","name":"afterAddLiquidity","inputs":[{"name":"sender","type":"address","internalType":"address"},{"name":"key","type":"tuple","internalType":"struct PoolKey","components":[{"name":"currency0","type":"address","internalType":"Currency"},{"name":"currency1","type":"address","internalType":"Currency"},{"name":"fee","type":"uint24","internalType":"uint24"},{"name":"tickSpacing","type":"int24","internalType":"int24"},{"name":"hooks","type":"address","internalType":"contract IHooks"}]},{"name":"params","type":"tuple","internalType":"struct IPoolManager.ModifyLiquidityParams","components":[{"name":"tickLower","type":"int24","internalType":"int24"},{"name":"tickUpper","type":"int24","internalType":"int24"},{"name":"liquidityDelta","type":"int256","internalType":"int256"},{"name":"salt","type":"bytes32","internalType":"bytes32"}]},{"name":"delta","type":"int256","internalType":"BalanceDelta"},{"name":"feesAccrued","type":"int256","internalType":"BalanceDelta"},{"name":"hookData","type":"bytes","internalType":"bytes"}],"outputs":[{"name":"","type":"bytes4","internalType":"bytes4"},{"name":"","type":"int256","internalType":"BalanceDelta"}],"stateMutability":"nonpayable"},{"type":"function","name":"afterDonate","inputs":[{"name":"sender","type":"address","internalType":"address"},{"name":"key","type":"tuple","internalType":"struct PoolKey","components":[{"name":"currency0","type":"address","internalType":"Currency"},{"name":"currency1","type":"address","internalType":"Currency"},{"name":"fee","type":"uint24","internalType":"uint24"},{"name":"tickSpacing","type":"int24","internalType":"int24"},{"name":"hooks","type":"address","internalType":"contract IHooks"}]},{"name":"amount0","type":"uint256","internalType":"uint256"},{"name":"amount1","type":"uint256","internalType":"uint256"},{"name":"hookData","type":"bytes","internalType":"bytes"}],"outputs":[{"name":"","type":"bytes4","internalType":"bytes4"}],"stateMutability":"nonpayable"},{"type":"function","name":"afterInitialize","inputs":[{"name":"sender","type":"address","internalType":"address"},{"name":"key","type":"tuple","internalType":"struct PoolKey","components":[{"name":"currency0","type":"address","internalType":"Currency"},{"name":"currency1","type":"address","internalType":"Currency"},{"name":"fee","type":"uint24","internalType":"uint24"},{"name":"tickSpacing","type":"int24","internalType":"int24"},{"name":"hooks","type":"address","internalType":"contract IHooks"}]},{"name":"sqrtPriceX96","type":"uint160","internalType":"uint160"},{"name":"tick","type":"int24","internalType":"int24"}],"outputs":[{"name":"","type":"bytes4","internalType":"bytes4"}],"stateMutability":"nonpayable"},{"type":"function","name":"afterRemoveLiquidity","inputs":[{"name":"sender","type":"address","internalType":"address"},{"name":"key","type":"tuple","internalType":"struct PoolKey","components":[{"name":"currency0","type":"address","internalType":"Currency"},{"name":"currency1","type":"address","internalType":"Currency"},{"name":"fee","type":"uint24","internalType":"uint24"},{"name":"tickSpacing","type":"int24","internalType":"int24"},{"name":"hooks","type":"address","internalType":"contract IHooks"}]},{"name":"params","type":"tuple","internalType":"struct IPoolManager.ModifyLiquidityParams","components":[{"name":"tickLower","type":"int24","internalType":"int24"},{"name":"tickUpper","type":"int24","internalType":"int24"},{"name":"liquidityDelta","type":"int256","internalType":"int256"},{"name":"salt","type":"bytes32","internalType":"bytes32"}]},{"name":"delta","type":"int256","internalType":"BalanceDelta"},{"name":"feesAccrued","type":"int256","internalType":"BalanceDelta"},{"name":"hookData","type":"bytes","internalType":"bytes"}],"outputs":[{"name":"","type":"bytes4","internalType":"bytes4"},{"name":"","type":"int256","internalType":"BalanceDelta"}],"stateMutability":"nonpayable"},{"type":"function","name":"afterSwap","inputs":[{"name":"sender","type":"address","internalType":"address"},{"name":"key","type":"tuple","internalType":"struct PoolKey","components":[{"name":"currency0","type":"address","internalType":"Currency"},{"name":"currency1","type":"address","internalType":"Currency"},{"name":"fee","type":"uint24","internalType":"uint24"},{"name":"tickSpacing","type":"int24","internalType":"int24"},{"name":"hooks","type":"address","internalType":"contract IHooks"}]},{"name":"params","type":"tuple","internalType":"struct IPoolManager.SwapParams","components":[{"name":"zeroForOne","type":"bool","internalType":"bool"},{"name":"amountSpecified","type":"int256","internalType":"int256"},{"name":"sqrtPriceLimitX96","type":"uint160","internalType":"uint160"}]},{"name":"delta","type":"int256","internalType":"BalanceDelta"},{"name":"hookData","type":"bytes","internalType":"bytes"}],"outputs":[{"name":"","type":"bytes4","internalType":"bytes4"},{"name":"","type":"int128","internalType":"int128"}],"stateMutability":"nonpayable"},{"type":"function","name":"baseToken","inputs":[],"outputs":[{"name":"","type":"address","internalType":"address"}],"stateMutability":"view"},{"type":"function","name":"beforeAddLiquidity","inputs":[{"name":"sender","type":"address","internalType":"address"},{"name":"key","type":"tuple","internalType":"struct PoolKey","components":[{"name":"currency0","type":"address","internalType":"Currency"},{"name":"currency1","type":"address","internalType":"Currency"},{"name":"fee","type":"uint24","internalType":"uint24"},{"name":"tickSpacing","type":"int24","internalType":"int24"},{"name":"hooks","type":"address","internalType":"contract IHooks"}]},{"name":"params","type":"tuple","internalType":"struct IPoolManager.ModifyLiquidityParams","components":[{"name":"tickLower","type":"int24","internalType":"int24"},{"name":"tickUpper","type":"int24","internalType":"int24"},{"name":"liquidityDelta","type":"int256","internalType":"int256"},{"name":"salt","type":"bytes32","internalType":"bytes32"}]},{"name":"hookData","type":"bytes","internalType":"bytes"}],"outputs":[{"name":"","type":"bytes4","internalType":"bytes4"}],"stateMutability":"nonpayable"},{"type":"function","name":"beforeDonate","inputs":[{"name":"sender","type":"address","internalType":"address"},{"name":"key","type":"tuple","internalType":"struct PoolKey","components":[{"name":"currency0","type":"address","internalType":"Currency"},{"name":"currency1","type":"address","internalType":"Currency"},{"name":"fee","type":"uint24","internalType":"uint24"},{"name":"tickSpacing","type":"int24","internalType":"int24"},{"name":"hooks","type":"address","internalType":"contract IHooks"}]},{"name":"amount0","type":"uint256","internalType":"uint256"},{"name":"amount1","type":"uint256","internalType":"uint256"},{"name":"hookData","type":"bytes","internalType":"bytes"}],"outputs":[{"name":"","type":"bytes4","internalType":"bytes4"}],"stateMutability":"nonpayable"},{"type":"function","name":"beforeInitialize","inputs":[{"name":"sender","type":"address","internalType":"address"},{"name":"key","type":"tuple","internalType":"struct PoolKey","components":[{"name":"currency0","type":"address","internalType":"Currency"},{"name":"currency1","type":"address","internalType":"Currency"},{"name":"fee","type":"uint24","internalType":"uint24"},{"name":"tickSpacing","type":"int24","internalType":"int24"},{"name":"hooks","type":"address","internalType":"contract IHooks"}]},{"name":"sqrtPriceX96","type":"uint160","internalType":"uint160"}],"outputs":[{"name":"","type":"bytes4","internalType":"bytes4"}],"stateMutability":"nonpayable"},{"type":"function","name":"beforeRemoveLiquidity","inputs":[{"name":"sender","type":"address","internalType":"address"},{"name":"key","type":"tuple","internalType":"struct PoolKey","components":[{"name":"currency0","type":"address","internalType":"Currency"},{"name":"currency1","type":"address","internalType":"Currency"},{"name":"fee","type":"uint24","internalType":"uint24"},{"name":"tickSpacing","type":"int24","internalType":"int24"},{"name":"hooks","type":"address","internalType":"contract IHooks"}]},{"name":"params","type":"tuple","internalType":"struct IPoolManager.ModifyLiquidityParams","components":[{"name":"tickLower","type":"int24","internalType":"int24"},{"name":"tickUpper","type":"int24","internalType":"int24"},{"name":"liquidityDelta","type":"int256","internalType":"int256"},{"name":"salt","type":"bytes32","internalType":"bytes32"}]},{"name":"hookData","type":"bytes","internalType":"bytes"}],"outputs":[{"name":"","type":"bytes4","internalType":"bytes4"}],"stateMutability":"nonpayable"},{"type":"function","name":"beforeSwap","inputs":[{"name":"sender","type":"address","internalType":"address"},{"name":"key","type":"tuple","internalType":"struct PoolKey","components":[{"name":"currency0","type":"address","internalType":"Currency"},{"name":"currency1","type":"address","internalType":"Currency"},{"name":"fee","type":"uint24","internalType":"uint24"},{"name":"tickSpacing","type":"int24","internalType":"int24"},{"name":"hooks","type":"address","internalType":"contract IHooks"}]},{"name":"params","type":"tuple","internalType":"struct IPoolManager.SwapParams","components":[{"name":"zeroForOne","type":"bool","internalType":"bool"},{"name":"amountSpecified","type":"int256","internalType":"int256"},{"name":"sqrtPriceLimitX96","type":"uint160","internalType":"uint160"}]},{"name":"hookData","type":"bytes","internalType":"bytes"}],"outputs":[{"name":"","type":"bytes4","internalType":"bytes4"},{"name":"","type":"int256","internalType":"BeforeSwapDelta"},{"name":"","type":"uint24","internalType":"uint24"}],"stateMutability":"nonpayable"},{"type":"function","name":"deploy2Currency","inputs":[{"name":"deriveToken","type":"address","internalType":"address"},{"name":"_tokenName","type":"string[2]","internalType":"string[2]"},{"name":"_tokenSymbol","type":"string[2]","internalType":"string[2]"},{"name":"deadline","type":"uint256","internalType":"uint256"}],"outputs":[{"name":"","type":"address[2]","internalType":"address[2]"}],"stateMutability":"nonpayable"},{"type":"function","name":"getHookPermissions","inputs":[],"outputs":[{"name":"","type":"tuple","internalType":"struct Hooks.Permissions","components":[{"name":"beforeInitialize","type":"bool","internalType":"bool"},{"name":"afterInitialize","type":"bool","internalType":"bool"},{"name":"beforeAddLiquidity","type":"bool","internalType":"bool"},{"name":"afterAddLiquidity","type":"bool","internalType":"bool"},{"name":"beforeRemoveLiquidity","type":"bool","internalType":"bool"},{"name":"afterRemoveLiquidity","type":"bool","internalType":"bool"},{"name":"beforeSwap","type":"bool","internalType":"bool"},{"name":"afterSwap","type":"bool","internalType":"bool"},{"name":"beforeDonate","type":"bool","internalType":"bool"},{"name":"afterDonate","type":"bool","internalType":"bool"},{"name":"beforeSwapReturnDelta","type":"bool","internalType":"bool"},{"name":"afterSwapReturnDelta","type":"bool","internalType":"bool"},{"name":"afterAddLiquidityReturnDelta","type":"bool","internalType":"bool"},{"name":"afterRemoveLiquidityReturnDelta","type":"bool","internalType":"bool"}]}],"stateMutability":"pure"},{"type":"function","name":"isPairInitiated","inputs":[{"name":"","type":"address","internalType":"address"}],"outputs":[{"name":"","type":"bool","internalType":"bool"}],"stateMutability":"view"},{"type":"function","name":"oneForZeroOperator","inputs":[],"outputs":[],"stateMutability":"nonpayable"},{"type":"function","name":"pairEndingTime","inputs":[{"name":"","type":"address","internalType":"address"}],"outputs":[{"name":"","type":"uint256","internalType":"uint256"}],"stateMutability":"view"},{"type":"function","name":"pairInitiatedTime","inputs":[{"name":"","type":"address","internalType":"address"}],"outputs":[{"name":"","type":"uint256","internalType":"uint256"}],"stateMutability":"view"},{"type":"function","name":"poolManager","inputs":[],"outputs":[{"name":"","type":"address","internalType":"contract IPoolManager"}],"stateMutability":"view"},{"type":"function","name":"resetPair","inputs":[{"name":"deriveToken","type":"address","internalType":"address"},{"name":"deadline","type":"uint256","internalType":"uint256"}],"outputs":[{"name":"","type":"address[2]","internalType":"address[2]"}],"stateMutability":"nonpayable"},{"type":"function","name":"unlockCallback","inputs":[{"name":"data","type":"bytes","internalType":"bytes"}],"outputs":[{"name":"","type":"bytes","internalType":"bytes"}],"stateMutability":"nonpayable"},{"type":"function","name":"zeroForOneOperator","inputs":[{"name":"key","type":"tuple","internalType":"struct PoolKey","components":[{"name":"currency0","type":"address","internalType":"Currency"},{"name":"currency1","type":"address","internalType":"Currency"},{"name":"fee","type":"uint24","internalType":"uint24"},{"name":"tickSpacing","type":"int24","internalType":"int24"},{"name":"hooks","type":"address","internalType":"contract IHooks"}]},{"name":"_deriveAsset","type":"address","internalType":"address"},{"name":"params","type":"tuple","internalType":"struct IPoolManager.SwapParams","components":[{"name":"zeroForOne","type":"bool","internalType":"bool"},{"name":"amountSpecified","type":"int256","internalType":"int256"},{"name":"sqrtPriceLimitX96","type":"uint160","internalType":"uint160"}]},{"name":"amountInOutPositive","type":"uint256","internalType":"uint256"},{"name":"zeroIsBase","type":"bool","internalType":"bool"}],"outputs":[{"name":"","type":"int128","internalType":"int128"},{"name":"","type":"int128","internalType":"int128"}],"stateMutability":"nonpayable"},{"type":"error","name":"HookNotImplemented","inputs":[]},{"type":"error","name":"NotPoolManager","inputs":[]},{"type":"error","name":"invalidLiquidityAction","inputs":[]}],"bytecode":{"object":"0x60a0604052346102cc57604051601f612cef38819003918201601f19168301916001600160401b038311848410176102d05780849260409485528339810103126102cc578051906001600160a01b03821682036102cc57602001516001600160a01b03811691908290036102cc576080525f6101a061007c6102e4565b8281528260208201528260408201528260608201528260808201528260a08201528260c08201528260e0820152826101008201528261012082015282610140820152826101608201528261018082015201525f6101a06100da6102e4565b82815282602082015260016040820152600160608201528260808201528260a0820152600160c08201528260e082015282610100820152826101208201526001610140820152826101608201528261018082015201526120003016158015906102bf575b80156102ae575b801561029d575b8015610290575b8015610283575b8015610273575b8015610267575b801561025b575b801561024f575b801561023f575b8015610233575b8015610227575b801561021b575b61020857600480546001600160a01b0319169190911790556040516129ea90816103058239608051818181610163015281816101e50152818161023701528181610448015281816108f801528181610948015281816109bd01528181610ba301528181610c3601528181610f0e01526116180152f35b630732d7b560e51b5f523060045260245ffd5b50600130161515610192565b5060023016151561018b565b50600430161515610184565b506008301615156001141561017d565b50601030161515610176565b5060203016151561016f565b50604030161515610168565b5060803016151560011415610161565b506101003016151561015a565b5061020030161515610153565b50610400301615156001141561014c565b506108003016151560011415610145565b506110003016151561013e565b5f80fd5b634e487b7160e01b5f52604160045260245ffd5b604051906101c082016001600160401b038111838210176102d05760405256fe60806040526004361015610011575f80fd5b5f3560e01c806321d0ee7014610efb578063259982e514610efb57806336808a7c14610ed657806356a11aae14610ec4578063575e24b414610be05780636c2bbe7e146109355780636fe7e6eb14610b6557806377295a8d14610b295780638b7cc62914610b0d57806391dd73461461098b5780639f063efc14610935578063b47b2fb1146108a1578063b6a8b0fa14610150578063bb2ffdef14610869578063c39b5ad1146107ff578063c4e833ce14610697578063c55dae631461066f578063c57981b514610653578063ca4e41601461061b578063d111f97e146105e3578063d9a6eef914610266578063dc4c90d314610222578063dc98354e146101b4578063e1b4af69146101505763f86325ed1461012c575f80fd5b3461014c575f36600319011261014c576020604051650574fbde60008152f35b5f80fd5b3461014c5761015e366110ab565b5050507f00000000000000000000000000000000000000000000000000000000000000006001600160a01b0316330392506101a591505057630a85dc2960e01b5f5260045ffd5b63570c108560e11b5f5260045ffd5b3461014c5760e036600319011261014c576101cd610f4e565b5060a036602319011261014c576101e2611071565b507f00000000000000000000000000000000000000000000000000000000000000006001600160a01b031633036101a557630a85dc2960e01b5f5260045ffd5b3461014c575f36600319011261014c576040517f00000000000000000000000000000000000000000000000000000000000000006001600160a01b03168152602090f35b3461014c573660031901610160811261014c5760a01361014c5760a4356001600160a01b0381169081900361014c5760603660c319011261014c5761012435906101443590811515820361014c57805f52600360205260405f206004359160018060a01b0383169384840361014c57602435946001600160a01b0386169081870361014c575f915f9160018060a01b038754168091149182156105d9575b505060e435955f871291156105bc576004015493816105b4575b50156105a4575050851561055f57670de0b6b3a76400008602868104670de0b6b3a7640000036104ac5761037a61037461036f670de0b6b3a7640000670de0b6b3a764271061039695049504611da2565b61127a565b92611a6d565b6103906103878480611db5565b91610258611db5565b90611dd7565b905f8212610510576103aa6103af92611def565b611dd7565b61012c9005945f86126104c057670de0b6b3a7640000860295808704670de0b6b3a764000014901517156104ac576001600160801b039461047c94610470889385610477965f526003602052600660405f200161040d87825461128d565b9055805f526003602052600460405f200161042987825461128d565b90555f526003602052600860405f200161044482825461128d565b90557f000000000000000000000000000000000000000000000000000000000000000092833091611d54565b3091611ced565b611a6d565b600f0b9116600f0b9060016001607f1b031982146104ac576040915f035b825191600f0b8252600f0b6020820152f35b634e487b7160e01b5f52601160045260245ffd5b60405162461bcd60e51b8152602060048201526014602482015273125b9d985b1a59081d1bdad95b88185b5bdd5b9d60621b6044820152606490fd5b634e487b7160e01b5f52601260045260245ffd5b60405162461bcd60e51b815260206004820152602160248201527f4469736372696d696e616e74206d757374206265206e6f6e2d6e6567617469766044820152606560f81b6064820152608490fd5b60405162461bcd60e51b815260206004820152601e60248201527f436f7374206d7573742062652067726561746572207468616e207a65726f00006044820152606490fd5b945094505050506040925061049a565b90508961031e565b509350945094509150604094506105d4575b5061049a565b6105ce565b1490508980610304565b3461014c57602036600319011261014c576001600160a01b03610604610f4e565b165f526001602052602060405f2054604051908152f35b3461014c57604036600319011261014c5761064f61064361063a610f4e565b60243590611851565b60405191829182611243565b0390f35b3461014c575f36600319011261014c5760206040516127108152f35b3461014c575f36600319011261014c576004546040516001600160a01b039091168152602090f35b3461014c575f36600319011261014c575f6101a06040516106b781611131565b8281528260208201528260408201528260608201528260808201528260a08201528260c08201528260e0820152826101008201528261012082015282610140820152826101608201528261018082015201526101c0602060405161071a81611131565b5f8152818101905f825260408101600181526060820160018152608083015f815260a084015f815260c085016001815260e08601905f82526101008701925f84526101208801945f8652610140890196600188526101608a01985f8a526101a06101808c019b5f8d52019b5f8d526040519d8e915f835251151591015251151560408d015251151560608c015251151560808b015251151560a08a015251151560c089015251151560e08801525115156101008701525115156101208601525115156101408501525115156101608401525115156101808301525115156101a0820152f35b3461014c57608036600319011261014c57610818610f4e565b6024356001600160401b03811161014c576108379036906004016111a4565b90604435906001600160401b03821161014c5761064f9261085f6106439336906004016111a4565b90606435926112bf565b3461014c57602036600319011261014c576001600160a01b0361088a610f4e565b165f526002602052602060405f2054604051908152f35b3461014c5761016036600319011261014c576108bb610f4e565b5060a036602319011261014c5760603660c319011261014c57610144356001600160401b03811161014c576108f4903690600401610f78565b50507f00000000000000000000000000000000000000000000000000000000000000006001600160a01b031633036101a557630a85dc2960e01b5f5260045ffd5b3461014c5761094336611008565b5050507f00000000000000000000000000000000000000000000000000000000000000006001600160a01b0316330393506101a59250505057630a85dc2960e01b5f5260045ffd5b3461014c57602036600319011261014c576004356001600160401b03811161014c576109bb903690600401610f78565b7f0000000000000000000000000000000000000000000000000000000000000000906001600160a01b03821633036101a557826080918101031261014c57604051610ae592610a0982611102565b610ad18135808452610abb610a2060208501610f64565b9160208601928352610a80610a4a6060610a3c60408901610f64565b9760408a0198895201610f64565b9160608801928352604051610a60604082611168565b600e81526d031b0b6363130b1b5a230ba309d160951b6020820152611a7d565b825181518751610aa09290916001600160a01b03908116918b9116611afe565b845190518651916001600160a01b0391821691899116611afe565b51835190309086906001600160a01b0316611d54565b5190519130916001600160a01b0316611d54565b61064f604051610af6602082611168565b5f8152604051918291602083526020830190611087565b3461014c575f36600319011261014c57602060405161012c8152f35b3461014c57602036600319011261014c576001600160a01b03610b4a610f4e565b165f525f602052602060ff60405f2054166040519015158152f35b3461014c5761010036600319011261014c57610b7f610f4e565b5060a036602319011261014c57610b94611071565b5060e4358060020b0361014c577f00000000000000000000000000000000000000000000000000000000000000006001600160a01b031633036101a557630a85dc2960e01b5f5260045ffd5b3461014c5761014036600319011261014c57610bfa610f4e565b5060a036602319011261014c5760603660c319011261014c57610124356001600160401b03811161014c57610c33903690600401610f78565b907f0000000000000000000000000000000000000000000000000000000000000000906001600160a01b03821633036101a5575f9060e4359082821315610eb25760208183965b8101031261014c57356001600160a01b038116929083900361014c5760c435801515810361014c5715610ea557506024356001600160a01b038116949085810361014c576004545f858152600360205260409020604435976001600160a01b039283168114928916808a0361014c575f925f9260018060a01b03825416809114928315610e9b575b50505f88129115610e7d57600401549381610e75575b5015610e64575050821561055f57670de0b6b3a76400008302838104670de0b6b3a7640000036104ac5761037a61037461036f670de0b6b3a7640000670de0b6b3a7642710610d6995049504611da2565b905f8212610510576103aa610d7d92611def565b61012c9005955f87126104c057670de0b6b3a7640000870296808804670de0b6b3a764000014901517156104ac576001600160801b039561047061047794899488610e1c995f526003602052600660405f2001610ddb88825461128d565b9055805f526003602052600460405f2001610df788825461128d565b90555f526003602052600860405f2001610e1283825461128d565b9055833091611d54565b600f0b9116600f0b9060016001607f1b031982146104ac576060915f035b6001600160801b03169060801b175b604051906315d7892d60e21b825260208201525f6040820152f35b955095505050505060609250610e3a565b90508a610d18565b5094509550955092505060609450610e96575b50610e3a565b610e90565b1491508b80610d02565b9250505060609150610e49565b602081610ebe84611a6d565b96610c7a565b3461014c575f36600319011261014c57005b3461014c575f36600319011261014c5760206040516acecb8f27f4200f3a0000008152f35b3461014c57610f0936610fa5565b5050507f00000000000000000000000000000000000000000000000000000000000000006001600160a01b0316330391506101a590505762c890a560e31b5f5260045ffd5b600435906001600160a01b038216820361014c57565b35906001600160a01b038216820361014c57565b9181601f8401121561014c578235916001600160401b03831161014c576020838186019501011161014c57565b9061016060031983011261014c576004356001600160a01b038116810361014c579160a060231982011261014c57602491608060c31983011261014c5760c49161014435906001600160401b03821161014c5761100491600401610f78565b9091565b906101a060031983011261014c576004356001600160a01b038116810361014c579160a060231982011261014c57602491608060c31983011261014c5760c4916101443591610164359161018435906001600160401b03821161014c5761100491600401610f78565b60c435906001600160a01b038216820361014c57565b805180835260209291819084018484015e5f828201840152601f01601f1916010190565b61012060031982011261014c576004356001600160a01b038116810361014c579160a060231983011261014c5760249160c4359160e4359161010435906001600160401b03821161014c5761100491600401610f78565b608081019081106001600160401b0382111761111d57604052565b634e487b7160e01b5f52604160045260245ffd5b6101c081019081106001600160401b0382111761111d57604052565b604081019081106001600160401b0382111761111d57604052565b90601f801991011681019081106001600160401b0382111761111d57604052565b6001600160401b03811161111d57601f01601f191660200190565b9080601f8301121561014c57604091604051926111c2604085611168565b83604083019284841161014c5780915b8483106111e25750505050505090565b82356001600160401b03811161014c57820186601f8201121561014c5780359161120b83611189565b61121787519182611168565b838152886020858501011161014c575f60208581968280970183860137830101528152019201916111d2565b919060408301925f905b6002821061125a57505050565b82516001600160a01b03168152602092830192600192909201910161124d565b90650574fbde600082018092116104ac57565b919082018092116104ac57565b9060028110156112ab5760051b0190565b634e487b7160e01b5f52603260045260245ffd5b909291926040918280516112d38282611168565b36903760018060a01b031692835f525f6020525f8061134261135860ff87842054168751906113028983611168565b6011825270034b9a830b4b924b734ba34b0ba32b21d1607d1b6020830152885193849263c3b5563560e01b60208501528a60248501526064840190611087565b901515604483015203601f198101835282611168565b6020815191016a636f6e736f6c652e6c6f675afa50835f5260026020526113aa835f205484516113888682611168565b601081526f03830b4b922b73234b733aa34b6b29d160851b6020820152611a7d565b6113d783516113b98582611168565b600a81526903232b0b23634b7329d160b51b60208201524290611a7d565b835f525f60205260ff835f2054161580156117ce575b156117965761141e90845f525f602052835f20600160ff19825416179055845f52600160205242845f20554261128d565b835f526002602052825f20558151936114378386611168565b82368637611e36610b7f5f5b600281106116a7575050855160208701805186516001600160a01b039182169893909116955090935091506101408201906001600160401b0382118383101761111d57611613965f956009938852845260208401908152868401650574fbde6000815260608501650574fbde600081526080860188815260a087019089825260c08801928a845260e08901948b86526101008a01968c88526101208b01988d8a528d5260036020528d8d209a60018060a01b039060018060a01b03905116166bffffffffffffffffffffffff60a01b8c5416178b5560018060a01b0390511660018b019060018060a01b03166bffffffffffffffffffffffff60a01b8254161790555160028a01555160038901555160048801555160058701555160068601555160078501555160088401555191015560018060a01b038551169060018060a01b039051166060845161159581611102565b6acecb8f27f4200f3a0000008082526020808301958652878301948552309390920192835286519182015292516001600160a01b0390811684870152915182166060840152511660808083019190915281526115f260a082611168565b8251809481926348c8949160e01b8352602060048401526024830190611087565b0381837f00000000000000000000000000000000000000000000000000000000000000006001600160a01b03165af190811561169e5750611652575090565b3d805f833e6116618183611168565b81019060208183031261014c578051906001600160401b03821161014c57019080601f8301121561014c57815161169a926020016117e2565b5090565b513d5f823e3d90fd5b6116b1818661129a565b516116bc828661129a565b51875191848301908382106001600160401b0383111761111d578961170485946116f662015180948a8c8939606087526060870190611087565b908582036020870152611087565b92015203905ff0801561178c576001600160a01b031680611725838b61129a565b52803b1561014c575f809160448951809481936340c10f1960e01b83523060048401526acecb8f27f4200f3a00000060248401525af18015611782579060019291611772575b5001611443565b5f61177c91611168565b5f61176b565b87513d5f823e3d90fd5b86513d5f823e3d90fd5b825162461bcd60e51b815260206004820152601160248201527050616972207374696c6c2061637469766560781b6044820152606490fd5b50835f52600260205242835f2054106113ed565b9291926117ee82611189565b916117fc6040519384611168565b82948184528183011161014c578281602093845f96015e010152565b60208183031261014c578051906001600160401b03821161014c57019080601f8301121561014c57815161184e926020016117e2565b90565b91906040928380516118638282611168565b36903760018060a01b03811690815f525f602052600160ff865f205416151503611a3457815f526002602052845f205442115f146119fd575f918252600360205290849020805460019091015485516001600160a01b039283169390929091166118cc8361114d565b86516306fdde0360e01b81525f81600481885afa9081156119bf575f916119e3575b50835286516306fdde0360e01b81525f81600481855afa9081156119bf575f916119c9575b50602084015260045f8851956119288761114d565b89516395d89b4160e01b815292839182905afa9182156119bf576004925f9283916119a5575b50865288516395d89b4160e01b815292839182905afa9081156117825761184e9697505f91611983575b5060208401526112bf565b61199f91503d805f833e6119978183611168565b810190611818565b5f611978565b6119b991503d8085833e6119978183611168565b5f61194e565b88513d5f823e3d90fd5b6119dd91503d805f833e6119978183611168565b5f611913565b6119f791503d805f833e6119978183611168565b5f6118ee565b845162461bcd60e51b815260206004820152601060248201526f14185a5c881b9bdd08195e1c1a5c995960821b6044820152606490fd5b845162461bcd60e51b815260206004820152601260248201527114185a5c881b9bdd081a5b9a5d1a585d195960721b6044820152606490fd5b600160ff1b81146104ac575f0390565b611aac611ac05f93928493604051938492632d839cb360e21b6020850152604060248501526064840190611087565b90604483015203601f198101835282611168565b6020815191016a636f6e736f6c652e6c6f675afa50565b9081602091031261014c5751801515810361014c5790565b9081602091031261014c575190565b9192916001600160a01b031680611b775750604051630476982d60e21b81529250602091839160049183916001600160a01b03165af18015611b6c57611b415750565b611b629060203d602011611b65575b611b5a8183611168565b810190611aef565b50565b503d611b50565b6040513d5f823e3d90fd5b6001600160a01b039091169190823b1561014c57604051632961046560e21b815260048101829052935a945f816024818389819bf18015611b6c57611cd8575b506001600160a01b03169184308414611c70576020929360649160405195869485936323b872dd60e01b8552600485015288602485015260448401525af18015611c6557916020918493611c38575b505b600460405180958193630476982d60e21b83525af1908115611c2c5750611b415750565b604051903d90823e3d90fd5b611c5790833d8511611c5e575b611c4f8183611168565b810190611ad7565b505f611c06565b503d611c45565b6040513d85823e3d90fd5b60405163a9059cbb60e01b81526001600160a01b0386166004820152602481019290925290925060209183916044918391905af18015611c6557916020918493611cbb575b50611c08565b611cd190833d8511611c5e57611c4f8183611168565b505f611cb5565b611ce59195505f90611168565b5f935f611bb7565b9192906001600160a01b0316803b1561014c57604051637a94c56560e11b81526001600160a01b03948516600482015293909216602484015260448301525f908290818381606481015b03925af18015611b6c57611d485750565b5f611d5291611168565b565b9192906001600160a01b0316803b1561014c57604051630ab714fb60e11b81526001600160a01b03948516600482015293909216602484015260448301525f90829081838160648101611d37565b908161012c029161012c8304036104ac57565b81810292915f8212600160ff1b8214166104ac5781840514901517156104ac57565b81810392915f1380158285131691841216176104ac57565b908115611e3057600182018083116104ac5760011c825b838210611e11575050565b9092508280156104fc5780611e2791830461128d565b60011c90611e06565b5f915056fe60806040523461034e57610b7f8038038061001981610352565b92833981019060608183031261034e5780516001600160401b03811161034e5782610045918301610377565b60208201519092906001600160401b03811161034e57604091610069918401610377565b91015182516001600160401b03811161025f57600354600181811c91168015610344575b602082101461024157601f81116102e1575b506020601f821160011461027e57819293945f92610273575b50508160011b915f199060031b1c1916176003555b81516001600160401b03811161025f57600454600181811c91168015610255575b602082101461024157601f81116101de575b50602092601f821160011461017d57928192935f92610172575b50508160011b915f199060031b1c1916176004555b600580546001600160a01b031916331790554290810190811061015e576006556040516107b690816103c98239f35b634e487b7160e01b5f52601160045260245ffd5b015190505f8061011a565b601f1982169360045f52805f20915f5b8681106101c657508360019596106101ae575b505050811b0160045561012f565b01515f1960f88460031b161c191690555f80806101a0565b9192602060018192868501518155019401920161018d565b60045f527f8a35acfbc15ff81a39ae7d344fd709f28e8600b4aa8c65c6b64bfe7fe36bd19b601f830160051c81019160208410610237575b601f0160051c01905b81811061022c5750610100565b5f815560010161021f565b9091508190610216565b634e487b7160e01b5f52602260045260245ffd5b90607f16906100ee565b634e487b7160e01b5f52604160045260245ffd5b015190505f806100b8565b601f1982169060035f52805f20915f5b8181106102c9575095836001959697106102b1575b505050811b016003556100cd565b01515f1960f88460031b161c191690555f80806102a3565b9192602060018192868b01518155019401920161028e565b60035f527fc2575a0e9e593c00f959f8c92f12db2869c3395a3b0502d05e2516446f71f85b601f830160051c8101916020841061033a575b601f0160051c01905b81811061032f575061009f565b5f8155600101610322565b9091508190610319565b90607f169061008d565b5f80fd5b6040519190601f01601f191682016001600160401b0381118382101761025f57604052565b81601f8201121561034e578051906001600160401b03821161025f576103a6601f8301601f1916602001610352565b928284526020838301011161034e57815f9260208093018386015e830101529056fe6080806040526004361015610012575f80fd5b5f3560e01c90816306fdde031461055857508063095ea7b3146104d657806318160ddd146104b957806323b872dd146103da578063313ce567146103bf57806336654887146103a257806340c10f191461029f57806370a08231146102685780638da5cb5b1461024057806395d89b4114610125578063a9059cbb146100f45763dd62ed3e146100a0575f80fd5b346100f05760403660031901126100f0576100b9610651565b6100c1610667565b6001600160a01b039182165f908152600160209081526040808320949093168252928352819020549051908152f35b5f80fd5b346100f05760403660031901126100f05761011a610110610651565b60243590336106c9565b602060405160018152f35b346100f0575f3660031901126100f0576040515f6004548060011c90600181168015610236575b6020831081146102225782855290811561020657506001146101b1575b50819003601f01601f191681019067ffffffffffffffff82118183101761019d5761019982918260405282610627565b0390f35b634e487b7160e01b5f52604160045260245ffd5b905060045f527f8a35acfbc15ff81a39ae7d344fd709f28e8600b4aa8c65c6b64bfe7fe36bd19b5f905b8282106101f057506020915082010182610169565b60018160209254838588010152019101906101db565b90506020925060ff191682840152151560051b82010182610169565b634e487b7160e01b5f52602260045260245ffd5b91607f169161014c565b346100f0575f3660031901126100f0576005546040516001600160a01b039091168152602090f35b346100f05760203660031901126100f0576001600160a01b03610289610651565b165f525f602052602060405f2054604051908152f35b346100f05760403660031901126100f0576102b8610651565b60055460243591906001600160a01b03163303610370576102dc600654421061067d565b6001600160a01b031690811561035d576102f9600654421061067d565b600254908082018092116103495760207fddf252ad1be2c89b69c2b068fc378daa952ba7f163c4a11628f55a4df523b3ef915f9360025584845283825260408420818154019055604051908152a3005b634e487b7160e01b5f52601160045260245ffd5b63ec442f0560e01b5f525f60045260245ffd5b60405162461bcd60e51b815260206004820152600a60248201526927a7262c9027aba722a960b11b6044820152606490fd5b346100f0575f3660031901126100f0576020600654604051908152f35b346100f0575f3660031901126100f057602060405160128152f35b346100f05760603660031901126100f0576103f3610651565b6103fb610667565b6001600160a01b0382165f818152600160209081526040808320338452909152902054909260443592915f198110610439575b5061011a93506106c9565b83811061049e57841561048b5733156104785761011a945f52600160205260405f2060018060a01b0333165f526020528360405f20910390558461042e565b634a1406b160e11b5f525f60045260245ffd5b63e602df0560e01b5f525f60045260245ffd5b8390637dc7a0d960e11b5f523360045260245260445260645ffd5b346100f0575f3660031901126100f0576020600254604051908152f35b346100f05760403660031901126100f0576104ef610651565b60243590331561048b576001600160a01b031690811561047857335f52600160205260405f20825f526020528060405f20556040519081527f8c5be1e5ebec7d5bd14f71427d1e84f3dd0314c0f7b2291e5b200ac8c7c3b92560203392a3602060405160018152f35b346100f0575f3660031901126100f0575f6003548060011c9060018116801561061d575b6020831081146102225782855290811561020657506001146105c85750819003601f01601f191681019067ffffffffffffffff82118183101761019d5761019982918260405282610627565b905060035f527fc2575a0e9e593c00f959f8c92f12db2869c3395a3b0502d05e2516446f71f85b5f905b82821061060757506020915082010182610169565b60018160209254838588010152019101906105f2565b91607f169161057c565b602060409281835280519182918282860152018484015e5f828201840152601f01601f1916010190565b600435906001600160a01b03821682036100f057565b602435906001600160a01b03821682036100f057565b1561068457565b60405162461bcd60e51b815260206004820152601d60248201527f544f4b454e20455850495245442c204d494e54494e4720434c4f5345440000006044820152606490fd5b6001600160a01b031690811561076d576001600160a01b031691821561035d576106f6600654421061067d565b815f525f60205260405f205481811061075457817fddf252ad1be2c89b69c2b068fc378daa952ba7f163c4a11628f55a4df523b3ef92602092855f525f84520360405f2055845f525f825260405f20818154019055604051908152a3565b8263391434e360e21b5f5260045260245260445260645ffd5b634b637e8f60e11b5f525f60045260245ffdfea2646970667358221220d6f942ae2c43716d98cba2b48a46ca73ec1b3f7cf1c27b8197cdb16f2d9705ff64736f6c634300081a0033a26469706673582212205be7fbffa736c1741cf27b267f9c342f82242286ed22eb724032e2f98e0f281b64736f6c634300081a0033","linkReferences":{}},"methodIdentifiers":{"BASE_PRICE()":"f86325ed","FEE()":"c57981b5","IV_TOKEN_SUPPLY()":"36808a7c","SLOPE()":"8b7cc629","afterAddLiquidity(address,(address,address,uint24,int24,address),(int24,int24,int256,bytes32),int256,int256,bytes)":"9f063efc","afterDonate(address,(address,address,uint24,int24,address),uint256,uint256,bytes)":"e1b4af69","afterInitialize(address,(address,address,uint24,int24,address),uint160,int24)":"6fe7e6eb","afterRemoveLiquidity(address,(address,address,uint24,int24,address),(int24,int24,int256,bytes32),int256,int256,bytes)":"6c2bbe7e","afterSwap(address,(address,address,uint24,int24,address),(bool,int256,uint160),int256,bytes)":"b47b2fb1","baseToken()":"c55dae63","beforeAddLiquidity(address,(address,address,uint24,int24,address),(int24,int24,int256,bytes32),bytes)":"259982e5","beforeDonate(address,(address,address,uint24,int24,address),uint256,uint256,bytes)":"b6a8b0fa","beforeInitialize(address,(address,address,uint24,int24,address),uint160)":"dc98354e","beforeRemoveLiquidity(address,(address,address,uint24,int24,address),(int24,int24,int256,bytes32),bytes)":"21d0ee70","beforeSwap(address,(address,address,uint24,int24,address),(bool,int256,uint160),bytes)":"575e24b4","deploy2Currency(address,string[2],string[2],uint256)":"c39b5ad1","getHookPermissions()":"c4e833ce","isPairInitiated(address)":"77295a8d","oneForZeroOperator()":"56a11aae","pairEndingTime(address)":"bb2ffdef","pairInitiatedTime(address)":"d111f97e","poolManager()":"dc4c90d3","resetPair(address,uint256)":"ca4e4160","unlockCallback(bytes)":"91dd7346","zeroForOneOperator((address,address,uint24,int24,address),address,(bool,int256,uint160),uint256,bool)":"d9a6eef9"},"id":94}