{"abi":[{"type":"constructor","inputs":[{"name":"poolManager","type":"address","internalType":"contract IPoolManager"},{"name":"_baseToken","type":"address","internalType":"address"}],"stateMutability":"nonpayable"},{"type":"function","name":"BASE_PRICE","inputs":[],"outputs":[{"name":"","type":"uint256","internalType":"uint256"}],"stateMutability":"view"},{"type":"function","name":"FEE","inputs":[],"outputs":[{"name":"","type":"uint256","internalType":"uint256"}],"stateMutability":"view"},{"type":"function","name":"IV_TOKEN_SUPPLY","inputs":[],"outputs":[{"name":"","type":"uint256","internalType":"uint256"}],"stateMutability":"view"},{"type":"function","name":"SLOPE","inputs":[],"outputs":[{"name":"","type":"uint256","internalType":"uint256"}],"stateMutability":"view"},{"type":"function","name":"afterAddLiquidity","inputs":[{"name":"sender","type":"address","internalType":"address"},{"name":"key","type":"tuple","internalType":"struct PoolKey","components":[{"name":"currency0","type":"address","internalType":"Currency"},{"name":"currency1","type":"address","internalType":"Currency"},{"name":"fee","type":"uint24","internalType":"uint24"},{"name":"tickSpacing","type":"int24","internalType":"int24"},{"name":"hooks","type":"address","internalType":"contract IHooks"}]},{"name":"params","type":"tuple","internalType":"struct IPoolManager.ModifyLiquidityParams","components":[{"name":"tickLower","type":"int24","internalType":"int24"},{"name":"tickUpper","type":"int24","internalType":"int24"},{"name":"liquidityDelta","type":"int256","internalType":"int256"},{"name":"salt","type":"bytes32","internalType":"bytes32"}]},{"name":"delta","type":"int256","internalType":"BalanceDelta"},{"name":"feesAccrued","type":"int256","internalType":"BalanceDelta"},{"name":"hookData","type":"bytes","internalType":"bytes"}],"outputs":[{"name":"","type":"bytes4","internalType":"bytes4"},{"name":"","type":"int256","internalType":"BalanceDelta"}],"stateMutability":"nonpayable"},{"type":"function","name":"afterDonate","inputs":[{"name":"sender","type":"address","internalType":"address"},{"name":"key","type":"tuple","internalType":"struct PoolKey","components":[{"name":"currency0","type":"address","internalType":"Currency"},{"name":"currency1","type":"address","internalType":"Currency"},{"name":"fee","type":"uint24","internalType":"uint24"},{"name":"tickSpacing","type":"int24","internalType":"int24"},{"name":"hooks","type":"address","internalType":"contract IHooks"}]},{"name":"amount0","type":"uint256","internalType":"uint256"},{"name":"amount1","type":"uint256","internalType":"uint256"},{"name":"hookData","type":"bytes","internalType":"bytes"}],"outputs":[{"name":"","type":"bytes4","internalType":"bytes4"}],"stateMutability":"nonpayable"},{"type":"function","name":"afterInitialize","inputs":[{"name":"sender","type":"address","internalType":"address"},{"name":"key","type":"tuple","internalType":"struct PoolKey","components":[{"name":"currency0","type":"address","internalType":"Currency"},{"name":"currency1","type":"address","internalType":"Currency"},{"name":"fee","type":"uint24","internalType":"uint24"},{"name":"tickSpacing","type":"int24","internalType":"int24"},{"name":"hooks","type":"address","internalType":"contract IHooks"}]},{"name":"sqrtPriceX96","type":"uint160","internalType":"uint160"},{"name":"tick","type":"int24","internalType":"int24"}],"outputs":[{"name":"","type":"bytes4","internalType":"bytes4"}],"stateMutability":"nonpayable"},{"type":"function","name":"afterRemoveLiquidity","inputs":[{"name":"sender","type":"address","internalType":"address"},{"name":"key","type":"tuple","internalType":"struct PoolKey","components":[{"name":"currency0","type":"address","internalType":"Currency"},{"name":"currency1","type":"address","internalType":"Currency"},{"name":"fee","type":"uint24","internalType":"uint24"},{"name":"tickSpacing","type":"int24","internalType":"int24"},{"name":"hooks","type":"address","internalType":"contract IHooks"}]},{"name":"params","type":"tuple","internalType":"struct IPoolManager.ModifyLiquidityParams","components":[{"name":"tickLower","type":"int24","internalType":"int24"},{"name":"tickUpper","type":"int24","internalType":"int24"},{"name":"liquidityDelta","type":"int256","internalType":"int256"},{"name":"salt","type":"bytes32","internalType":"bytes32"}]},{"name":"delta","type":"int256","internalType":"BalanceDelta"},{"name":"feesAccrued","type":"int256","internalType":"BalanceDelta"},{"name":"hookData","type":"bytes","internalType":"bytes"}],"outputs":[{"name":"","type":"bytes4","internalType":"bytes4"},{"name":"","type":"int256","internalType":"BalanceDelta"}],"stateMutability":"nonpayable"},{"type":"function","name":"afterSwap","inputs":[{"name":"sender","type":"address","internalType":"address"},{"name":"key","type":"tuple","internalType":"struct PoolKey","components":[{"name":"currency0","type":"address","internalType":"Currency"},{"name":"currency1","type":"address","internalType":"Currency"},{"name":"fee","type":"uint24","internalType":"uint24"},{"name":"tickSpacing","type":"int24","internalType":"int24"},{"name":"hooks","type":"address","internalType":"contract IHooks"}]},{"name":"params","type":"tuple","internalType":"struct IPoolManager.SwapParams","components":[{"name":"zeroForOne","type":"bool","internalType":"bool"},{"name":"amountSpecified","type":"int256","internalType":"int256"},{"name":"sqrtPriceLimitX96","type":"uint160","internalType":"uint160"}]},{"name":"delta","type":"int256","internalType":"BalanceDelta"},{"name":"hookData","type":"bytes","internalType":"bytes"}],"outputs":[{"name":"","type":"bytes4","internalType":"bytes4"},{"name":"","type":"int128","internalType":"int128"}],"stateMutability":"nonpayable"},{"type":"function","name":"baseToken","inputs":[],"outputs":[{"name":"","type":"address","internalType":"address"}],"stateMutability":"view"},{"type":"function","name":"beforeAddLiquidity","inputs":[{"name":"sender","type":"address","internalType":"address"},{"name":"key","type":"tuple","internalType":"struct PoolKey","components":[{"name":"currency0","type":"address","internalType":"Currency"},{"name":"currency1","type":"address","internalType":"Currency"},{"name":"fee","type":"uint24","internalType":"uint24"},{"name":"tickSpacing","type":"int24","internalType":"int24"},{"name":"hooks","type":"address","internalType":"contract IHooks"}]},{"name":"params","type":"tuple","internalType":"struct IPoolManager.ModifyLiquidityParams","components":[{"name":"tickLower","type":"int24","internalType":"int24"},{"name":"tickUpper","type":"int24","internalType":"int24"},{"name":"liquidityDelta","type":"int256","internalType":"int256"},{"name":"salt","type":"bytes32","internalType":"bytes32"}]},{"name":"hookData","type":"bytes","internalType":"bytes"}],"outputs":[{"name":"","type":"bytes4","internalType":"bytes4"}],"stateMutability":"nonpayable"},{"type":"function","name":"beforeDonate","inputs":[{"name":"sender","type":"address","internalType":"address"},{"name":"key","type":"tuple","internalType":"struct PoolKey","components":[{"name":"currency0","type":"address","internalType":"Currency"},{"name":"currency1","type":"address","internalType":"Currency"},{"name":"fee","type":"uint24","internalType":"uint24"},{"name":"tickSpacing","type":"int24","internalType":"int24"},{"name":"hooks","type":"address","internalType":"contract IHooks"}]},{"name":"amount0","type":"uint256","internalType":"uint256"},{"name":"amount1","type":"uint256","internalType":"uint256"},{"name":"hookData","type":"bytes","internalType":"bytes"}],"outputs":[{"name":"","type":"bytes4","internalType":"bytes4"}],"stateMutability":"nonpayable"},{"type":"function","name":"beforeInitialize","inputs":[{"name":"sender","type":"address","internalType":"address"},{"name":"key","type":"tuple","internalType":"struct PoolKey","components":[{"name":"currency0","type":"address","internalType":"Currency"},{"name":"currency1","type":"address","internalType":"Currency"},{"name":"fee","type":"uint24","internalType":"uint24"},{"name":"tickSpacing","type":"int24","internalType":"int24"},{"name":"hooks","type":"address","internalType":"contract IHooks"}]},{"name":"sqrtPriceX96","type":"uint160","internalType":"uint160"}],"outputs":[{"name":"","type":"bytes4","internalType":"bytes4"}],"stateMutability":"nonpayable"},{"type":"function","name":"beforeRemoveLiquidity","inputs":[{"name":"sender","type":"address","internalType":"address"},{"name":"key","type":"tuple","internalType":"struct PoolKey","components":[{"name":"currency0","type":"address","internalType":"Currency"},{"name":"currency1","type":"address","internalType":"Currency"},{"name":"fee","type":"uint24","internalType":"uint24"},{"name":"tickSpacing","type":"int24","internalType":"int24"},{"name":"hooks","type":"address","internalType":"contract IHooks"}]},{"name":"params","type":"tuple","internalType":"struct IPoolManager.ModifyLiquidityParams","components":[{"name":"tickLower","type":"int24","internalType":"int24"},{"name":"tickUpper","type":"int24","internalType":"int24"},{"name":"liquidityDelta","type":"int256","internalType":"int256"},{"name":"salt","type":"bytes32","internalType":"bytes32"}]},{"name":"hookData","type":"bytes","internalType":"bytes"}],"outputs":[{"name":"","type":"bytes4","internalType":"bytes4"}],"stateMutability":"nonpayable"},{"type":"function","name":"beforeSwap","inputs":[{"name":"sender","type":"address","internalType":"address"},{"name":"key","type":"tuple","internalType":"struct PoolKey","components":[{"name":"currency0","type":"address","internalType":"Currency"},{"name":"currency1","type":"address","internalType":"Currency"},{"name":"fee","type":"uint24","internalType":"uint24"},{"name":"tickSpacing","type":"int24","internalType":"int24"},{"name":"hooks","type":"address","internalType":"contract IHooks"}]},{"name":"params","type":"tuple","internalType":"struct IPoolManager.SwapParams","components":[{"name":"zeroForOne","type":"bool","internalType":"bool"},{"name":"amountSpecified","type":"int256","internalType":"int256"},{"name":"sqrtPriceLimitX96","type":"uint160","internalType":"uint160"}]},{"name":"hookData","type":"bytes","internalType":"bytes"}],"outputs":[{"name":"","type":"bytes4","internalType":"bytes4"},{"name":"","type":"int256","internalType":"BeforeSwapDelta"},{"name":"","type":"uint24","internalType":"uint24"}],"stateMutability":"nonpayable"},{"type":"function","name":"deploy2Currency","inputs":[{"name":"deriveToken","type":"address","internalType":"address"},{"name":"_tokenName","type":"string[2]","internalType":"string[2]"},{"name":"_tokenSymbol","type":"string[2]","internalType":"string[2]"},{"name":"deadline","type":"uint256","internalType":"uint256"}],"outputs":[{"name":"","type":"address[2]","internalType":"address[2]"}],"stateMutability":"nonpayable"},{"type":"function","name":"getHookPermissions","inputs":[],"outputs":[{"name":"","type":"tuple","internalType":"struct Hooks.Permissions","components":[{"name":"beforeInitialize","type":"bool","internalType":"bool"},{"name":"afterInitialize","type":"bool","internalType":"bool"},{"name":"beforeAddLiquidity","type":"bool","internalType":"bool"},{"name":"afterAddLiquidity","type":"bool","internalType":"bool"},{"name":"beforeRemoveLiquidity","type":"bool","internalType":"bool"},{"name":"afterRemoveLiquidity","type":"bool","internalType":"bool"},{"name":"beforeSwap","type":"bool","internalType":"bool"},{"name":"afterSwap","type":"bool","internalType":"bool"},{"name":"beforeDonate","type":"bool","internalType":"bool"},{"name":"afterDonate","type":"bool","internalType":"bool"},{"name":"beforeSwapReturnDelta","type":"bool","internalType":"bool"},{"name":"afterSwapReturnDelta","type":"bool","internalType":"bool"},{"name":"afterAddLiquidityReturnDelta","type":"bool","internalType":"bool"},{"name":"afterRemoveLiquidityReturnDelta","type":"bool","internalType":"bool"}]}],"stateMutability":"pure"},{"type":"function","name":"isPairInitiated","inputs":[{"name":"","type":"address","internalType":"address"}],"outputs":[{"name":"","type":"bool","internalType":"bool"}],"stateMutability":"view"},{"type":"function","name":"oneForZeroOperator","inputs":[],"outputs":[],"stateMutability":"nonpayable"},{"type":"function","name":"pairEndingTime","inputs":[{"name":"","type":"address","internalType":"address"}],"outputs":[{"name":"","type":"uint256","internalType":"uint256"}],"stateMutability":"view"},{"type":"function","name":"pairInitiatedTime","inputs":[{"name":"","type":"address","internalType":"address"}],"outputs":[{"name":"","type":"uint256","internalType":"uint256"}],"stateMutability":"view"},{"type":"function","name":"poolManager","inputs":[],"outputs":[{"name":"","type":"address","internalType":"contract IPoolManager"}],"stateMutability":"view"},{"type":"function","name":"resetPair","inputs":[{"name":"deriveToken","type":"address","internalType":"address"},{"name":"deadline","type":"uint256","internalType":"uint256"}],"outputs":[{"name":"","type":"address[2]","internalType":"address[2]"}],"stateMutability":"nonpayable"},{"type":"function","name":"unlockCallback","inputs":[{"name":"data","type":"bytes","internalType":"bytes"}],"outputs":[{"name":"","type":"bytes","internalType":"bytes"}],"stateMutability":"nonpayable"},{"type":"function","name":"zeroForOneOperator","inputs":[{"name":"key","type":"tuple","internalType":"struct PoolKey","components":[{"name":"currency0","type":"address","internalType":"Currency"},{"name":"currency1","type":"address","internalType":"Currency"},{"name":"fee","type":"uint24","internalType":"uint24"},{"name":"tickSpacing","type":"int24","internalType":"int24"},{"name":"hooks","type":"address","internalType":"contract IHooks"}]},{"name":"_deriveAsset","type":"address","internalType":"address"},{"name":"params","type":"tuple","internalType":"struct IPoolManager.SwapParams","components":[{"name":"zeroForOne","type":"bool","internalType":"bool"},{"name":"amountSpecified","type":"int256","internalType":"int256"},{"name":"sqrtPriceLimitX96","type":"uint160","internalType":"uint160"}]},{"name":"amountInOutPositive","type":"uint256","internalType":"uint256"},{"name":"zeroIsBase","type":"bool","internalType":"bool"}],"outputs":[{"name":"","type":"int128","internalType":"int128"},{"name":"","type":"int128","internalType":"int128"}],"stateMutability":"nonpayable"},{"type":"error","name":"HookNotImplemented","inputs":[]},{"type":"error","name":"NotPoolManager","inputs":[]},{"type":"error","name":"invalidLiquidityAction","inputs":[]}],"bytecode":{"object":"0x60a0604052346102cc57604051601f61302f38819003918201601f19168301916001600160401b038311848410176102d05780849260409485528339810103126102cc578051906001600160a01b03821682036102cc57602001516001600160a01b03811691908290036102cc576080525f6101a061007c6102e4565b8281528260208201528260408201528260608201528260808201528260a08201528260c08201528260e0820152826101008201528261012082015282610140820152826101608201528261018082015201525f6101a06100da6102e4565b82815282602082015260016040820152600160608201528260808201528260a0820152600160c08201528260e082015282610100820152826101208201526001610140820152826101608201528261018082015201526120003016158015906102bf575b80156102ae575b801561029d575b8015610290575b8015610283575b8015610273575b8015610267575b801561025b575b801561024f575b801561023f575b8015610233575b8015610227575b801561021b575b61020857600480546001600160a01b031916919091179055604051612d2a90816103058239608051818181610163015281816101e5015281816102370152818161053901528181610a5601528181610aa601528181610b1b01528181610d0101528181610d93015281816111c501526118cf0152f35b630732d7b560e51b5f523060045260245ffd5b50600130161515610192565b5060023016151561018b565b50600430161515610184565b506008301615156001141561017d565b50601030161515610176565b5060203016151561016f565b50604030161515610168565b5060803016151560011415610161565b506101003016151561015a565b5061020030161515610153565b50610400301615156001141561014c565b506108003016151560011415610145565b506110003016151561013e565b5f80fd5b634e487b7160e01b5f52604160045260245ffd5b604051906101c082016001600160401b038111838210176102d05760405256fe60806040526004361015610011575f80fd5b5f3560e01c806321d0ee70146111b2578063259982e5146111b257806336808a7c1461118d57806356a11aae1461117b578063575e24b414610d3e5780636c2bbe7e14610a935780636fe7e6eb14610cc357806377295a8d14610c875780638b7cc62914610c6b57806391dd734614610ae95780639f063efc14610a93578063b47b2fb1146109ff578063b6a8b0fa14610150578063bb2ffdef146109c7578063c39b5ad11461095d578063c4e833ce146107f5578063c55dae63146107cd578063c57981b5146107b1578063ca4e416014610779578063d111f97e14610741578063d9a6eef914610266578063dc4c90d314610222578063dc98354e146101b4578063e1b4af69146101505763f86325ed1461012c575f80fd5b3461014c575f36600319011261014c576020604051650574fbde60008152f35b5f80fd5b3461014c5761015e36611362565b5050507f00000000000000000000000000000000000000000000000000000000000000006001600160a01b0316330392506101a591505057630a85dc2960e01b5f5260045ffd5b63570c108560e11b5f5260045ffd5b3461014c5760e036600319011261014c576101cd611205565b5060a036602319011261014c576101e2611328565b507f00000000000000000000000000000000000000000000000000000000000000006001600160a01b031633036101a557630a85dc2960e01b5f5260045ffd5b3461014c575f36600319011261014c576040517f00000000000000000000000000000000000000000000000000000000000000006001600160a01b03168152602090f35b3461014c573660031901610160811261014c5760a01361014c5760a4356001600160a01b0381169081900361014c5760603660c319011261014c57610124356101443591821515830361014c575f81815260036020526040902092600435926001600160a01b0384169182850361014c576040956103078488516102ea8a8261141f565b600b81526a031bab93932b731bc981d160ad1b602082015261206c565b602435936001600160a01b0385169182860361014c5761034a838a5161032d8c8261141f565b600b81526a031bab93932b731bc989d160ad1b602082015261206c565b60018060a01b0381541692610385848b516103658d8261141f565b600e81526d03b34bc2434b3b42a37b5b2b71d160951b602082015261206c565b60018201548a516103c3916001600160a01b0316906103a48d8261141f565b600d81526c03b34bc2637bbaa37b5b2b71d1609d1b602082015261206c565b5f93805f9414918215610737575b5050156106fd576004906104078a516103ea8c8261141f565b600b81526a34b9a434b3b42a37b5b2b760a91b60208201526120ba565b0154925f60e43512156106f057156106e457505081156106a057670de0b6b3a76400008202828104670de0b6b3a7640000036105ef5761046f610469610464670de0b6b3a7640000670de0b6b3a764271061048b95049504611d24565b611531565b92611d37565b61048561047c84806120f5565b916102586120f5565b90612117565b5f8112610652579061049f6104a49261212f565b612117565b61012c9005935f851261060357670de0b6b3a7640000850294808604670de0b6b3a764000014901517156105ef57846001600160801b039493610594928587965f52600360205260068a5f20016104fc858254611544565b9055805f52600360205260048a5f2001610517858254611544565b90555f5260036020526008895f2001610531868254611544565b9055610561857f00000000000000000000000000000000000000000000000000000000000000009283309161201e565b61058d89516105708b8261141f565b600b81526a1d185ad9481c185cdcd95960aa1b60208201526120ba565b3091611fb7565b6105c285516105a3878261141f565b600d81526c1cd95d1d1b19481c185cdcd959609a1b60208201526120ba565b16600f0b9116600f0b60016001607f1b031981146105ef575f035b825191600f0b8252600f0b6020820152f35b634e487b7160e01b5f52601160045260245ffd5b855162461bcd60e51b8152602060048201526014602482015273125b9d985b1a59081d1bdad95b88185b5bdd5b9d60621b6044820152606490fd5b634e487b7160e01b5f52601260045260245ffd5b865162461bcd60e51b815260206004820152602160248201527f4469736372696d696e616e74206d757374206265206e6f6e2d6e6567617469766044820152606560f81b6064820152608490fd5b855162461bcd60e51b815260206004820152601e60248201527f436f7374206d7573742062652067726561746572207468616e207a65726f00006044820152606490fd5b945094505050506105dd565b50945094505050506105dd565b50945094505050506107328351610714858261141f565b600c81526b3637bb9034bb103a37b5b2b760a11b60208201526120ba565b6105dd565b1490508a806103d1565b3461014c57602036600319011261014c576001600160a01b03610762611205565b165f526001602052602060405f2054604051908152f35b3461014c57604036600319011261014c576107ad6107a1610798611205565b60243590611b08565b604051918291826114fa565b0390f35b3461014c575f36600319011261014c5760206040516127108152f35b3461014c575f36600319011261014c576004546040516001600160a01b039091168152602090f35b3461014c575f36600319011261014c575f6101a0604051610815816113e8565b8281528260208201528260408201528260608201528260808201528260a08201528260c08201528260e0820152826101008201528261012082015282610140820152826101608201528261018082015201526101c06020604051610878816113e8565b5f8152818101905f825260408101600181526060820160018152608083015f815260a084015f815260c085016001815260e08601905f82526101008701925f84526101208801945f8652610140890196600188526101608a01985f8a526101a06101808c019b5f8d52019b5f8d526040519d8e915f835251151591015251151560408d015251151560608c015251151560808b015251151560a08a015251151560c089015251151560e08801525115156101008701525115156101208601525115156101408501525115156101608401525115156101808301525115156101a0820152f35b3461014c57608036600319011261014c57610976611205565b6024356001600160401b03811161014c5761099590369060040161145b565b90604435906001600160401b03821161014c576107ad926109bd6107a193369060040161145b565b9060643592611576565b3461014c57602036600319011261014c576001600160a01b036109e8611205565b165f526002602052602060405f2054604051908152f35b3461014c5761016036600319011261014c57610a19611205565b5060a036602319011261014c5760603660c319011261014c57610144356001600160401b03811161014c57610a5290369060040161122f565b50507f00000000000000000000000000000000000000000000000000000000000000006001600160a01b031633036101a557630a85dc2960e01b5f5260045ffd5b3461014c57610aa1366112bf565b5050507f00000000000000000000000000000000000000000000000000000000000000006001600160a01b0316330393506101a59250505057630a85dc2960e01b5f5260045ffd5b3461014c57602036600319011261014c576004356001600160401b03811161014c57610b1990369060040161122f565b7f0000000000000000000000000000000000000000000000000000000000000000906001600160a01b03821633036101a557826080918101031261014c57604051610c4392610b67826113b9565b610c2f8135808452610c19610b7e6020850161121b565b9160208601928352610bde610ba86060610b9a6040890161121b565b9760408a019889520161121b565b9160608801928352604051610bbe60408261141f565b600e81526d031b0b6363130b1b5a230ba309d160951b6020820152611d47565b825181518751610bfe9290916001600160a01b03908116918b9116611dc8565b845190518651916001600160a01b0391821691899116611dc8565b51835190309086906001600160a01b031661201e565b5190519130916001600160a01b031661201e565b6107ad604051610c5460208261141f565b5f815260405191829160208352602083019061133e565b3461014c575f36600319011261014c57602060405161012c8152f35b3461014c57602036600319011261014c576001600160a01b03610ca8611205565b165f525f602052602060ff60405f2054166040519015158152f35b3461014c5761010036600319011261014c57610cdd611205565b5060a036602319011261014c57610cf2611328565b5060e4358060020b0361014c577f00000000000000000000000000000000000000000000000000000000000000006001600160a01b031633036101a557630a85dc2960e01b5f5260045ffd5b3461014c5761014036600319011261014c57610d58611205565b5060a036602319011261014c5760603660c319011261014c57610124356001600160401b03811161014c57610d9190369060040161122f565b7f0000000000000000000000000000000000000000000000000000000000000000916001600160a01b03831633036101a5575f9160e43591838313156111695760208184935b8101031261014c57356001600160a01b038116939084900361014c5760c435801515810361014c571561115c5750602435936001600160a01b03851680860361014c5760018060a01b0360045416811493855f52600360205260405f20604092610e478185516102ea878261141f565b604435966001600160a01b0388169283890361014c57610e6d84875161032d898261141f565b60018060a01b0381541693610e888588516103658a8261141f565b60018201548751610ea7916001600160a01b0316906103a48a8261141f565b5f94805f9514918215611152575b50501561112f5760045f91610ecf88516103ea8a8261141f565b015494121561111d571561110c57505083156110c857670de0b6b3a76400008402848104670de0b6b3a7640000036105ef5761046f610469610464670de0b6b3a7640000670de0b6b3a7642710610f2895049504611d24565b5f811261107a579061049f610f3c9261212f565b61012c9005955f871261103f57670de0b6b3a7640000870296808804670de0b6b3a764000014901517156105ef57866001600160801b039695610ff694610fdb87610fea958a8c9b5f5260036020526006895f2001610f9c888254611544565b9055805f5260036020526004895f2001610fb7888254611544565b90555f5260036020526008885f2001610fd1838254611544565b905583309161201e565b61058d8551610570878261141f565b6105a38151918261141f565b16600f0b9116600f0b9060016001607f1b031982146105ef576060915f035b6001600160801b03169060801b175b604051906315d7892d60e21b825260208201525f6040820152f35b815162461bcd60e51b8152602060048201526014602482015273125b9d985b1a59081d1bdad95b88185b5bdd5b9d60621b6044820152606490fd5b825162461bcd60e51b815260206004820152602160248201527f4469736372696d696e616e74206d757374206265206e6f6e2d6e6567617469766044820152606560f81b6064820152608490fd5b815162461bcd60e51b815260206004820152601e60248201527f436f7374206d7573742062652067726561746572207468616e207a65726f00006044820152606490fd5b955095505050505060609250611015565b50955095505050505060609250611015565b5050955095505090506060945061114d91506107148151918261141f565b611015565b1490508c80610eb5565b9250505060609150611024565b60208161117585611d37565b93610dd7565b3461014c575f36600319011261014c57005b3461014c575f36600319011261014c5760206040516acecb8f27f4200f3a0000008152f35b3461014c576111c03661125c565b5050507f00000000000000000000000000000000000000000000000000000000000000006001600160a01b0316330391506101a590505762c890a560e31b5f5260045ffd5b600435906001600160a01b038216820361014c57565b35906001600160a01b038216820361014c57565b9181601f8401121561014c578235916001600160401b03831161014c576020838186019501011161014c57565b9061016060031983011261014c576004356001600160a01b038116810361014c579160a060231982011261014c57602491608060c31983011261014c5760c49161014435906001600160401b03821161014c576112bb9160040161122f565b9091565b906101a060031983011261014c576004356001600160a01b038116810361014c579160a060231982011261014c57602491608060c31983011261014c5760c4916101443591610164359161018435906001600160401b03821161014c576112bb9160040161122f565b60c435906001600160a01b038216820361014c57565b805180835260209291819084018484015e5f828201840152601f01601f1916010190565b61012060031982011261014c576004356001600160a01b038116810361014c579160a060231983011261014c5760249160c4359160e4359161010435906001600160401b03821161014c576112bb9160040161122f565b608081019081106001600160401b038211176113d457604052565b634e487b7160e01b5f52604160045260245ffd5b6101c081019081106001600160401b038211176113d457604052565b604081019081106001600160401b038211176113d457604052565b90601f801991011681019081106001600160401b038211176113d457604052565b6001600160401b0381116113d457601f01601f191660200190565b9080601f8301121561014c576040916040519261147960408561141f565b83604083019284841161014c5780915b8483106114995750505050505090565b82356001600160401b03811161014c57820186601f8201121561014c578035916114c283611440565b6114ce8751918261141f565b838152886020858501011161014c575f6020858196828097018386013783010152815201920191611489565b919060408301925f905b6002821061151157505050565b82516001600160a01b031681526020928301926001929092019101611504565b90650574fbde600082018092116105ef57565b919082018092116105ef57565b9060028110156115625760051b0190565b634e487b7160e01b5f52603260045260245ffd5b9092919260409182805161158a828261141f565b36903760018060a01b031692835f525f6020525f806115f961160f60ff87842054168751906115b9898361141f565b6011825270034b9a830b4b924b734ba34b0ba32b21d1607d1b6020830152885193849263c3b5563560e01b60208501528a6024850152606484019061133e565b901515604483015203601f19810183528261141f565b6020815191016a636f6e736f6c652e6c6f675afa50835f526002602052611661835f2054845161163f868261141f565b601081526f03830b4b922b73234b733aa34b6b29d160851b6020820152611d47565b61168e8351611670858261141f565b600a81526903232b0b23634b7329d160b51b60208201524290611d47565b835f525f60205260ff835f205416158015611a85575b15611a4d576116d590845f525f602052835f20600160ff19825416179055845f52600160205242845f205542611544565b835f526002602052825f20558151936116ee838661141f565b82368637612176610b7f5f5b6002811061195e575050855160208701805186516001600160a01b039182169893909116955090935091506101408201906001600160401b038211838310176113d4576118ca965f956009938852845260208401908152868401650574fbde6000815260608501650574fbde600081526080860188815260a087019089825260c08801928a845260e08901948b86526101008a01968c88526101208b01988d8a528d5260036020528d8d209a60018060a01b039060018060a01b03905116166bffffffffffffffffffffffff60a01b8c5416178b5560018060a01b0390511660018b019060018060a01b03166bffffffffffffffffffffffff60a01b8254161790555160028a01555160038901555160048801555160058701555160068601555160078501555160088401555191015560018060a01b038551169060018060a01b039051166060845161184c816113b9565b6acecb8f27f4200f3a0000008082526020808301958652878301948552309390920192835286519182015292516001600160a01b0390811684870152915182166060840152511660808083019190915281526118a960a08261141f565b8251809481926348c8949160e01b835260206004840152602483019061133e565b0381837f00000000000000000000000000000000000000000000000000000000000000006001600160a01b03165af19081156119555750611909575090565b3d805f833e611918818361141f565b81019060208183031261014c578051906001600160401b03821161014c57019080601f8301121561014c57815161195192602001611a99565b5090565b513d5f823e3d90fd5b6119688186611551565b516119738286611551565b51875191848301908382106001600160401b038311176113d457896119bb85946119ad62015180948a8c893960608752606087019061133e565b90858203602087015261133e565b92015203905ff08015611a43576001600160a01b0316806119dc838b611551565b52803b1561014c575f809160448951809481936340c10f1960e01b83523060048401526acecb8f27f4200f3a00000060248401525af18015611a39579060019291611a29575b50016116fa565b5f611a339161141f565b5f611a22565b87513d5f823e3d90fd5b86513d5f823e3d90fd5b825162461bcd60e51b815260206004820152601160248201527050616972207374696c6c2061637469766560781b6044820152606490fd5b50835f52600260205242835f2054106116a4565b929192611aa582611440565b91611ab3604051938461141f565b82948184528183011161014c578281602093845f96015e010152565b60208183031261014c578051906001600160401b03821161014c57019080601f8301121561014c578151611b0592602001611a99565b90565b9190604092838051611b1a828261141f565b36903760018060a01b03811690815f525f602052600160ff865f205416151503611ceb57815f526002602052845f205442115f14611cb4575f918252600360205290849020805460019091015485516001600160a01b03928316939092909116611b8383611404565b86516306fdde0360e01b81525f81600481885afa908115611c76575f91611c9a575b50835286516306fdde0360e01b81525f81600481855afa908115611c76575f91611c80575b50602084015260045f885195611bdf87611404565b89516395d89b4160e01b815292839182905afa918215611c76576004925f928391611c5c575b50865288516395d89b4160e01b815292839182905afa908115611a3957611b059697505f91611c3a575b506020840152611576565b611c5691503d805f833e611c4e818361141f565b810190611acf565b5f611c2f565b611c7091503d8085833e611c4e818361141f565b5f611c05565b88513d5f823e3d90fd5b611c9491503d805f833e611c4e818361141f565b5f611bca565b611cae91503d805f833e611c4e818361141f565b5f611ba5565b845162461bcd60e51b815260206004820152601060248201526f14185a5c881b9bdd08195e1c1a5c995960821b6044820152606490fd5b845162461bcd60e51b815260206004820152601260248201527114185a5c881b9bdd081a5b9a5d1a585d195960721b6044820152606490fd5b908161012c029161012c8304036105ef57565b600160ff1b81146105ef575f0390565b611d76611d8a5f93928493604051938492632d839cb360e21b602085015260406024850152606484019061133e565b90604483015203601f19810183528261141f565b6020815191016a636f6e736f6c652e6c6f675afa50565b9081602091031261014c5751801515810361014c5790565b9081602091031261014c575190565b9192916001600160a01b031680611e415750604051630476982d60e21b81529250602091839160049183916001600160a01b03165af18015611e3657611e0b5750565b611e2c9060203d602011611e2f575b611e24818361141f565b810190611db9565b50565b503d611e1a565b6040513d5f823e3d90fd5b6001600160a01b039091169190823b1561014c57604051632961046560e21b815260048101829052935a945f816024818389819bf18015611e3657611fa2575b506001600160a01b03169184308414611f3a576020929360649160405195869485936323b872dd60e01b8552600485015288602485015260448401525af18015611f2f57916020918493611f02575b505b600460405180958193630476982d60e21b83525af1908115611ef65750611e0b5750565b604051903d90823e3d90fd5b611f2190833d8511611f28575b611f19818361141f565b810190611da1565b505f611ed0565b503d611f0f565b6040513d85823e3d90fd5b60405163a9059cbb60e01b81526001600160a01b0386166004820152602481019290925290925060209183916044918391905af18015611f2f57916020918493611f85575b50611ed2565b611f9b90833d8511611f2857611f19818361141f565b505f611f7f565b611faf9195505f9061141f565b5f935f611e81565b9192906001600160a01b0316803b1561014c57604051637a94c56560e11b81526001600160a01b03948516600482015293909216602484015260448301525f908290818381606481015b03925af18015611e36576120125750565b5f61201c9161141f565b565b9192906001600160a01b0316803b1561014c57604051630ab714fb60e11b81526001600160a01b03948516600482015293909216602484015260448301525f90829081838160648101612001565b61209b611d8a5f9392849360405193849263319af33360e01b602085015260406024850152606484019061133e565b6001600160a01b0391909116604483015203601f19810183528261141f565b5f6120e7611d8a829360405192839163104c13eb60e21b602084015260206024840152604483019061133e565b03601f19810183528261141f565b81810292915f8212600160ff1b8214166105ef5781840514901517156105ef57565b81810392915f1380158285131691841216176105ef57565b90811561217057600182018083116105ef5760011c825b838210612151575050565b90925082801561063e5780612167918304611544565b60011c90612146565b5f915056fe60806040523461034e57610b7f8038038061001981610352565b92833981019060608183031261034e5780516001600160401b03811161034e5782610045918301610377565b60208201519092906001600160401b03811161034e57604091610069918401610377565b91015182516001600160401b03811161025f57600354600181811c91168015610344575b602082101461024157601f81116102e1575b506020601f821160011461027e57819293945f92610273575b50508160011b915f199060031b1c1916176003555b81516001600160401b03811161025f57600454600181811c91168015610255575b602082101461024157601f81116101de575b50602092601f821160011461017d57928192935f92610172575b50508160011b915f199060031b1c1916176004555b600580546001600160a01b031916331790554290810190811061015e576006556040516107b690816103c98239f35b634e487b7160e01b5f52601160045260245ffd5b015190505f8061011a565b601f1982169360045f52805f20915f5b8681106101c657508360019596106101ae575b505050811b0160045561012f565b01515f1960f88460031b161c191690555f80806101a0565b9192602060018192868501518155019401920161018d565b60045f527f8a35acfbc15ff81a39ae7d344fd709f28e8600b4aa8c65c6b64bfe7fe36bd19b601f830160051c81019160208410610237575b601f0160051c01905b81811061022c5750610100565b5f815560010161021f565b9091508190610216565b634e487b7160e01b5f52602260045260245ffd5b90607f16906100ee565b634e487b7160e01b5f52604160045260245ffd5b015190505f806100b8565b601f1982169060035f52805f20915f5b8181106102c9575095836001959697106102b1575b505050811b016003556100cd565b01515f1960f88460031b161c191690555f80806102a3565b9192602060018192868b01518155019401920161028e565b60035f527fc2575a0e9e593c00f959f8c92f12db2869c3395a3b0502d05e2516446f71f85b601f830160051c8101916020841061033a575b601f0160051c01905b81811061032f575061009f565b5f8155600101610322565b9091508190610319565b90607f169061008d565b5f80fd5b6040519190601f01601f191682016001600160401b0381118382101761025f57604052565b81601f8201121561034e578051906001600160401b03821161025f576103a6601f8301601f1916602001610352565b928284526020838301011161034e57815f9260208093018386015e830101529056fe6080806040526004361015610012575f80fd5b5f3560e01c90816306fdde031461055857508063095ea7b3146104d657806318160ddd146104b957806323b872dd146103da578063313ce567146103bf57806336654887146103a257806340c10f191461029f57806370a08231146102685780638da5cb5b1461024057806395d89b4114610125578063a9059cbb146100f45763dd62ed3e146100a0575f80fd5b346100f05760403660031901126100f0576100b9610651565b6100c1610667565b6001600160a01b039182165f908152600160209081526040808320949093168252928352819020549051908152f35b5f80fd5b346100f05760403660031901126100f05761011a610110610651565b60243590336106c9565b602060405160018152f35b346100f0575f3660031901126100f0576040515f6004548060011c90600181168015610236575b6020831081146102225782855290811561020657506001146101b1575b50819003601f01601f191681019067ffffffffffffffff82118183101761019d5761019982918260405282610627565b0390f35b634e487b7160e01b5f52604160045260245ffd5b905060045f527f8a35acfbc15ff81a39ae7d344fd709f28e8600b4aa8c65c6b64bfe7fe36bd19b5f905b8282106101f057506020915082010182610169565b60018160209254838588010152019101906101db565b90506020925060ff191682840152151560051b82010182610169565b634e487b7160e01b5f52602260045260245ffd5b91607f169161014c565b346100f0575f3660031901126100f0576005546040516001600160a01b039091168152602090f35b346100f05760203660031901126100f0576001600160a01b03610289610651565b165f525f602052602060405f2054604051908152f35b346100f05760403660031901126100f0576102b8610651565b60055460243591906001600160a01b03163303610370576102dc600654421061067d565b6001600160a01b031690811561035d576102f9600654421061067d565b600254908082018092116103495760207fddf252ad1be2c89b69c2b068fc378daa952ba7f163c4a11628f55a4df523b3ef915f9360025584845283825260408420818154019055604051908152a3005b634e487b7160e01b5f52601160045260245ffd5b63ec442f0560e01b5f525f60045260245ffd5b60405162461bcd60e51b815260206004820152600a60248201526927a7262c9027aba722a960b11b6044820152606490fd5b346100f0575f3660031901126100f0576020600654604051908152f35b346100f0575f3660031901126100f057602060405160128152f35b346100f05760603660031901126100f0576103f3610651565b6103fb610667565b6001600160a01b0382165f818152600160209081526040808320338452909152902054909260443592915f198110610439575b5061011a93506106c9565b83811061049e57841561048b5733156104785761011a945f52600160205260405f2060018060a01b0333165f526020528360405f20910390558461042e565b634a1406b160e11b5f525f60045260245ffd5b63e602df0560e01b5f525f60045260245ffd5b8390637dc7a0d960e11b5f523360045260245260445260645ffd5b346100f0575f3660031901126100f0576020600254604051908152f35b346100f05760403660031901126100f0576104ef610651565b60243590331561048b576001600160a01b031690811561047857335f52600160205260405f20825f526020528060405f20556040519081527f8c5be1e5ebec7d5bd14f71427d1e84f3dd0314c0f7b2291e5b200ac8c7c3b92560203392a3602060405160018152f35b346100f0575f3660031901126100f0575f6003548060011c9060018116801561061d575b6020831081146102225782855290811561020657506001146105c85750819003601f01601f191681019067ffffffffffffffff82118183101761019d5761019982918260405282610627565b905060035f527fc2575a0e9e593c00f959f8c92f12db2869c3395a3b0502d05e2516446f71f85b5f905b82821061060757506020915082010182610169565b60018160209254838588010152019101906105f2565b91607f169161057c565b602060409281835280519182918282860152018484015e5f828201840152601f01601f1916010190565b600435906001600160a01b03821682036100f057565b602435906001600160a01b03821682036100f057565b1561068457565b60405162461bcd60e51b815260206004820152601d60248201527f544f4b454e20455850495245442c204d494e54494e4720434c4f5345440000006044820152606490fd5b6001600160a01b031690811561076d576001600160a01b031691821561035d576106f6600654421061067d565b815f525f60205260405f205481811061075457817fddf252ad1be2c89b69c2b068fc378daa952ba7f163c4a11628f55a4df523b3ef92602092855f525f84520360405f2055845f525f825260405f20818154019055604051908152a3565b8263391434e360e21b5f5260045260245260445260645ffd5b634b637e8f60e11b5f525f60045260245ffdfea2646970667358221220d6f942ae2c43716d98cba2b48a46ca73ec1b3f7cf1c27b8197cdb16f2d9705ff64736f6c634300081a0033a2646970667358221220d265b9d3fa8d3e263e8c1c0ec592a970fd87aeb33b72b6e81e49c3660ed38f8364736f6c634300081a0033","linkReferences":{}},"methodIdentifiers":{"BASE_PRICE()":"f86325ed","FEE()":"c57981b5","IV_TOKEN_SUPPLY()":"36808a7c","SLOPE()":"8b7cc629","afterAddLiquidity(address,(address,address,uint24,int24,address),(int24,int24,int256,bytes32),int256,int256,bytes)":"9f063efc","afterDonate(address,(address,address,uint24,int24,address),uint256,uint256,bytes)":"e1b4af69","afterInitialize(address,(address,address,uint24,int24,address),uint160,int24)":"6fe7e6eb","afterRemoveLiquidity(address,(address,address,uint24,int24,address),(int24,int24,int256,bytes32),int256,int256,bytes)":"6c2bbe7e","afterSwap(address,(address,address,uint24,int24,address),(bool,int256,uint160),int256,bytes)":"b47b2fb1","baseToken()":"c55dae63","beforeAddLiquidity(address,(address,address,uint24,int24,address),(int24,int24,int256,bytes32),bytes)":"259982e5","beforeDonate(address,(address,address,uint24,int24,address),uint256,uint256,bytes)":"b6a8b0fa","beforeInitialize(address,(address,address,uint24,int24,address),uint160)":"dc98354e","beforeRemoveLiquidity(address,(address,address,uint24,int24,address),(int24,int24,int256,bytes32),bytes)":"21d0ee70","beforeSwap(address,(address,address,uint24,int24,address),(bool,int256,uint160),bytes)":"575e24b4","deploy2Currency(address,string[2],string[2],uint256)":"c39b5ad1","getHookPermissions()":"c4e833ce","isPairInitiated(address)":"77295a8d","oneForZeroOperator()":"56a11aae","pairEndingTime(address)":"bb2ffdef","pairInitiatedTime(address)":"d111f97e","poolManager()":"dc4c90d3","resetPair(address,uint256)":"ca4e4160","unlockCallback(bytes)":"91dd7346","zeroForOneOperator((address,address,uint24,int24,address),address,(bool,int256,uint160),uint256,bool)":"d9a6eef9"},"id":94}