{"abi":[{"type":"constructor","inputs":[{"name":"poolManager","type":"address","internalType":"contract IPoolManager"},{"name":"_baseToken","type":"address","internalType":"address"}],"stateMutability":"nonpayable"},{"type":"function","name":"BASE_PRICE","inputs":[],"outputs":[{"name":"","type":"uint256","internalType":"uint256"}],"stateMutability":"view"},{"type":"function","name":"FEE","inputs":[],"outputs":[{"name":"","type":"uint256","internalType":"uint256"}],"stateMutability":"view"},{"type":"function","name":"IV_TOKEN_SUPPLY","inputs":[],"outputs":[{"name":"","type":"uint256","internalType":"uint256"}],"stateMutability":"view"},{"type":"function","name":"SLOPE","inputs":[],"outputs":[{"name":"","type":"uint256","internalType":"uint256"}],"stateMutability":"view"},{"type":"function","name":"afterAddLiquidity","inputs":[{"name":"sender","type":"address","internalType":"address"},{"name":"key","type":"tuple","internalType":"struct PoolKey","components":[{"name":"currency0","type":"address","internalType":"Currency"},{"name":"currency1","type":"address","internalType":"Currency"},{"name":"fee","type":"uint24","internalType":"uint24"},{"name":"tickSpacing","type":"int24","internalType":"int24"},{"name":"hooks","type":"address","internalType":"contract IHooks"}]},{"name":"params","type":"tuple","internalType":"struct IPoolManager.ModifyLiquidityParams","components":[{"name":"tickLower","type":"int24","internalType":"int24"},{"name":"tickUpper","type":"int24","internalType":"int24"},{"name":"liquidityDelta","type":"int256","internalType":"int256"},{"name":"salt","type":"bytes32","internalType":"bytes32"}]},{"name":"delta","type":"int256","internalType":"BalanceDelta"},{"name":"feesAccrued","type":"int256","internalType":"BalanceDelta"},{"name":"hookData","type":"bytes","internalType":"bytes"}],"outputs":[{"name":"","type":"bytes4","internalType":"bytes4"},{"name":"","type":"int256","internalType":"BalanceDelta"}],"stateMutability":"nonpayable"},{"type":"function","name":"afterDonate","inputs":[{"name":"sender","type":"address","internalType":"address"},{"name":"key","type":"tuple","internalType":"struct PoolKey","components":[{"name":"currency0","type":"address","internalType":"Currency"},{"name":"currency1","type":"address","internalType":"Currency"},{"name":"fee","type":"uint24","internalType":"uint24"},{"name":"tickSpacing","type":"int24","internalType":"int24"},{"name":"hooks","type":"address","internalType":"contract IHooks"}]},{"name":"amount0","type":"uint256","internalType":"uint256"},{"name":"amount1","type":"uint256","internalType":"uint256"},{"name":"hookData","type":"bytes","internalType":"bytes"}],"outputs":[{"name":"","type":"bytes4","internalType":"bytes4"}],"stateMutability":"nonpayable"},{"type":"function","name":"afterInitialize","inputs":[{"name":"sender","type":"address","internalType":"address"},{"name":"key","type":"tuple","internalType":"struct PoolKey","components":[{"name":"currency0","type":"address","internalType":"Currency"},{"name":"currency1","type":"address","internalType":"Currency"},{"name":"fee","type":"uint24","internalType":"uint24"},{"name":"tickSpacing","type":"int24","internalType":"int24"},{"name":"hooks","type":"address","internalType":"contract IHooks"}]},{"name":"sqrtPriceX96","type":"uint160","internalType":"uint160"},{"name":"tick","type":"int24","internalType":"int24"}],"outputs":[{"name":"","type":"bytes4","internalType":"bytes4"}],"stateMutability":"nonpayable"},{"type":"function","name":"afterRemoveLiquidity","inputs":[{"name":"sender","type":"address","internalType":"address"},{"name":"key","type":"tuple","internalType":"struct PoolKey","components":[{"name":"currency0","type":"address","internalType":"Currency"},{"name":"currency1","type":"address","internalType":"Currency"},{"name":"fee","type":"uint24","internalType":"uint24"},{"name":"tickSpacing","type":"int24","internalType":"int24"},{"name":"hooks","type":"address","internalType":"contract IHooks"}]},{"name":"params","type":"tuple","internalType":"struct IPoolManager.ModifyLiquidityParams","components":[{"name":"tickLower","type":"int24","internalType":"int24"},{"name":"tickUpper","type":"int24","internalType":"int24"},{"name":"liquidityDelta","type":"int256","internalType":"int256"},{"name":"salt","type":"bytes32","internalType":"bytes32"}]},{"name":"delta","type":"int256","internalType":"BalanceDelta"},{"name":"feesAccrued","type":"int256","internalType":"BalanceDelta"},{"name":"hookData","type":"bytes","internalType":"bytes"}],"outputs":[{"name":"","type":"bytes4","internalType":"bytes4"},{"name":"","type":"int256","internalType":"BalanceDelta"}],"stateMutability":"nonpayable"},{"type":"function","name":"afterSwap","inputs":[{"name":"sender","type":"address","internalType":"address"},{"name":"key","type":"tuple","internalType":"struct PoolKey","components":[{"name":"currency0","type":"address","internalType":"Currency"},{"name":"currency1","type":"address","internalType":"Currency"},{"name":"fee","type":"uint24","internalType":"uint24"},{"name":"tickSpacing","type":"int24","internalType":"int24"},{"name":"hooks","type":"address","internalType":"contract IHooks"}]},{"name":"params","type":"tuple","internalType":"struct IPoolManager.SwapParams","components":[{"name":"zeroForOne","type":"bool","internalType":"bool"},{"name":"amountSpecified","type":"int256","internalType":"int256"},{"name":"sqrtPriceLimitX96","type":"uint160","internalType":"uint160"}]},{"name":"delta","type":"int256","internalType":"BalanceDelta"},{"name":"hookData","type":"bytes","internalType":"bytes"}],"outputs":[{"name":"","type":"bytes4","internalType":"bytes4"},{"name":"","type":"int128","internalType":"int128"}],"stateMutability":"nonpayable"},{"type":"function","name":"baseToken","inputs":[],"outputs":[{"name":"","type":"address","internalType":"address"}],"stateMutability":"view"},{"type":"function","name":"beforeAddLiquidity","inputs":[{"name":"sender","type":"address","internalType":"address"},{"name":"key","type":"tuple","internalType":"struct PoolKey","components":[{"name":"currency0","type":"address","internalType":"Currency"},{"name":"currency1","type":"address","internalType":"Currency"},{"name":"fee","type":"uint24","internalType":"uint24"},{"name":"tickSpacing","type":"int24","internalType":"int24"},{"name":"hooks","type":"address","internalType":"contract IHooks"}]},{"name":"params","type":"tuple","internalType":"struct IPoolManager.ModifyLiquidityParams","components":[{"name":"tickLower","type":"int24","internalType":"int24"},{"name":"tickUpper","type":"int24","internalType":"int24"},{"name":"liquidityDelta","type":"int256","internalType":"int256"},{"name":"salt","type":"bytes32","internalType":"bytes32"}]},{"name":"hookData","type":"bytes","internalType":"bytes"}],"outputs":[{"name":"","type":"bytes4","internalType":"bytes4"}],"stateMutability":"nonpayable"},{"type":"function","name":"beforeDonate","inputs":[{"name":"sender","type":"address","internalType":"address"},{"name":"key","type":"tuple","internalType":"struct PoolKey","components":[{"name":"currency0","type":"address","internalType":"Currency"},{"name":"currency1","type":"address","internalType":"Currency"},{"name":"fee","type":"uint24","internalType":"uint24"},{"name":"tickSpacing","type":"int24","internalType":"int24"},{"name":"hooks","type":"address","internalType":"contract IHooks"}]},{"name":"amount0","type":"uint256","internalType":"uint256"},{"name":"amount1","type":"uint256","internalType":"uint256"},{"name":"hookData","type":"bytes","internalType":"bytes"}],"outputs":[{"name":"","type":"bytes4","internalType":"bytes4"}],"stateMutability":"nonpayable"},{"type":"function","name":"beforeInitialize","inputs":[{"name":"sender","type":"address","internalType":"address"},{"name":"key","type":"tuple","internalType":"struct PoolKey","components":[{"name":"currency0","type":"address","internalType":"Currency"},{"name":"currency1","type":"address","internalType":"Currency"},{"name":"fee","type":"uint24","internalType":"uint24"},{"name":"tickSpacing","type":"int24","internalType":"int24"},{"name":"hooks","type":"address","internalType":"contract IHooks"}]},{"name":"sqrtPriceX96","type":"uint160","internalType":"uint160"}],"outputs":[{"name":"","type":"bytes4","internalType":"bytes4"}],"stateMutability":"nonpayable"},{"type":"function","name":"beforeRemoveLiquidity","inputs":[{"name":"sender","type":"address","internalType":"address"},{"name":"key","type":"tuple","internalType":"struct PoolKey","components":[{"name":"currency0","type":"address","internalType":"Currency"},{"name":"currency1","type":"address","internalType":"Currency"},{"name":"fee","type":"uint24","internalType":"uint24"},{"name":"tickSpacing","type":"int24","internalType":"int24"},{"name":"hooks","type":"address","internalType":"contract IHooks"}]},{"name":"params","type":"tuple","internalType":"struct IPoolManager.ModifyLiquidityParams","components":[{"name":"tickLower","type":"int24","internalType":"int24"},{"name":"tickUpper","type":"int24","internalType":"int24"},{"name":"liquidityDelta","type":"int256","internalType":"int256"},{"name":"salt","type":"bytes32","internalType":"bytes32"}]},{"name":"hookData","type":"bytes","internalType":"bytes"}],"outputs":[{"name":"","type":"bytes4","internalType":"bytes4"}],"stateMutability":"nonpayable"},{"type":"function","name":"beforeSwap","inputs":[{"name":"sender","type":"address","internalType":"address"},{"name":"key","type":"tuple","internalType":"struct PoolKey","components":[{"name":"currency0","type":"address","internalType":"Currency"},{"name":"currency1","type":"address","internalType":"Currency"},{"name":"fee","type":"uint24","internalType":"uint24"},{"name":"tickSpacing","type":"int24","internalType":"int24"},{"name":"hooks","type":"address","internalType":"contract IHooks"}]},{"name":"params","type":"tuple","internalType":"struct IPoolManager.SwapParams","components":[{"name":"zeroForOne","type":"bool","internalType":"bool"},{"name":"amountSpecified","type":"int256","internalType":"int256"},{"name":"sqrtPriceLimitX96","type":"uint160","internalType":"uint160"}]},{"name":"hookData","type":"bytes","internalType":"bytes"}],"outputs":[{"name":"","type":"bytes4","internalType":"bytes4"},{"name":"","type":"int256","internalType":"BeforeSwapDelta"},{"name":"","type":"uint24","internalType":"uint24"}],"stateMutability":"nonpayable"},{"type":"function","name":"deploy2Currency","inputs":[{"name":"deriveToken","type":"address","internalType":"address"},{"name":"_tokenName","type":"string[2]","internalType":"string[2]"},{"name":"_tokenSymbol","type":"string[2]","internalType":"string[2]"},{"name":"deadline","type":"uint256","internalType":"uint256"}],"outputs":[{"name":"","type":"address[2]","internalType":"address[2]"}],"stateMutability":"nonpayable"},{"type":"function","name":"getHookPermissions","inputs":[],"outputs":[{"name":"","type":"tuple","internalType":"struct Hooks.Permissions","components":[{"name":"beforeInitialize","type":"bool","internalType":"bool"},{"name":"afterInitialize","type":"bool","internalType":"bool"},{"name":"beforeAddLiquidity","type":"bool","internalType":"bool"},{"name":"afterAddLiquidity","type":"bool","internalType":"bool"},{"name":"beforeRemoveLiquidity","type":"bool","internalType":"bool"},{"name":"afterRemoveLiquidity","type":"bool","internalType":"bool"},{"name":"beforeSwap","type":"bool","internalType":"bool"},{"name":"afterSwap","type":"bool","internalType":"bool"},{"name":"beforeDonate","type":"bool","internalType":"bool"},{"name":"afterDonate","type":"bool","internalType":"bool"},{"name":"beforeSwapReturnDelta","type":"bool","internalType":"bool"},{"name":"afterSwapReturnDelta","type":"bool","internalType":"bool"},{"name":"afterAddLiquidityReturnDelta","type":"bool","internalType":"bool"},{"name":"afterRemoveLiquidityReturnDelta","type":"bool","internalType":"bool"}]}],"stateMutability":"pure"},{"type":"function","name":"getVixData","inputs":[{"name":"deriveAsset","type":"address","internalType":"address"}],"outputs":[{"name":"vixHighToken","type":"address","internalType":"address"},{"name":"_vixLowToken","type":"address","internalType":"address"},{"name":"_price0","type":"uint256","internalType":"uint256"},{"name":"_price1","type":"uint256","internalType":"uint256"},{"name":"_circulation0","type":"uint256","internalType":"uint256"},{"name":"_circulation1","type":"uint256","internalType":"uint256"},{"name":"_contractHoldings0","type":"uint256","internalType":"uint256"},{"name":"_contractHoldings1","type":"uint256","internalType":"uint256"},{"name":"_reserve0","type":"uint256","internalType":"uint256"},{"name":"_reserve1","type":"uint256","internalType":"uint256"}],"stateMutability":"view"},{"type":"function","name":"isPairInitiated","inputs":[{"name":"","type":"address","internalType":"address"}],"outputs":[{"name":"","type":"bool","internalType":"bool"}],"stateMutability":"view"},{"type":"function","name":"oneForZeroOperator","inputs":[{"name":"key","type":"tuple","internalType":"struct PoolKey","components":[{"name":"currency0","type":"address","internalType":"Currency"},{"name":"currency1","type":"address","internalType":"Currency"},{"name":"fee","type":"uint24","internalType":"uint24"},{"name":"tickSpacing","type":"int24","internalType":"int24"},{"name":"hooks","type":"address","internalType":"contract IHooks"}]},{"name":"_deriveAsset","type":"address","internalType":"address"},{"name":"params","type":"tuple","internalType":"struct IPoolManager.SwapParams","components":[{"name":"zeroForOne","type":"bool","internalType":"bool"},{"name":"amountSpecified","type":"int256","internalType":"int256"},{"name":"sqrtPriceLimitX96","type":"uint160","internalType":"uint160"}]},{"name":"amountInOutPositive","type":"uint256","internalType":"uint256"},{"name":"zeroIsBase","type":"bool","internalType":"bool"}],"outputs":[{"name":"","type":"int128","internalType":"int128"},{"name":"","type":"int128","internalType":"int128"}],"stateMutability":"nonpayable"},{"type":"function","name":"pairEndingTime","inputs":[{"name":"","type":"address","internalType":"address"}],"outputs":[{"name":"","type":"uint256","internalType":"uint256"}],"stateMutability":"view"},{"type":"function","name":"pairInitiatedTime","inputs":[{"name":"","type":"address","internalType":"address"}],"outputs":[{"name":"","type":"uint256","internalType":"uint256"}],"stateMutability":"view"},{"type":"function","name":"poolManager","inputs":[],"outputs":[{"name":"","type":"address","internalType":"contract IPoolManager"}],"stateMutability":"view"},{"type":"function","name":"resetPair","inputs":[{"name":"deriveToken","type":"address","internalType":"address"},{"name":"deadline","type":"uint256","internalType":"uint256"}],"outputs":[{"name":"","type":"address[2]","internalType":"address[2]"}],"stateMutability":"nonpayable"},{"type":"function","name":"unlockCallback","inputs":[{"name":"data","type":"bytes","internalType":"bytes"}],"outputs":[{"name":"","type":"bytes","internalType":"bytes"}],"stateMutability":"nonpayable"},{"type":"function","name":"zeroForOneOperator","inputs":[{"name":"key","type":"tuple","internalType":"struct PoolKey","components":[{"name":"currency0","type":"address","internalType":"Currency"},{"name":"currency1","type":"address","internalType":"Currency"},{"name":"fee","type":"uint24","internalType":"uint24"},{"name":"tickSpacing","type":"int24","internalType":"int24"},{"name":"hooks","type":"address","internalType":"contract IHooks"}]},{"name":"_deriveAsset","type":"address","internalType":"address"},{"name":"params","type":"tuple","internalType":"struct IPoolManager.SwapParams","components":[{"name":"zeroForOne","type":"bool","internalType":"bool"},{"name":"amountSpecified","type":"int256","internalType":"int256"},{"name":"sqrtPriceLimitX96","type":"uint160","internalType":"uint160"}]},{"name":"amountInOutPositive","type":"uint256","internalType":"uint256"},{"name":"zeroIsBase","type":"bool","internalType":"bool"}],"outputs":[{"name":"","type":"int128","internalType":"int128"},{"name":"","type":"int128","internalType":"int128"}],"stateMutability":"nonpayable"},{"type":"error","name":"HookNotImplemented","inputs":[]},{"type":"error","name":"NotPoolManager","inputs":[]},{"type":"error","name":"invalidLiquidityAction","inputs":[]}],"bytecode":{"object":"0x60a0604052346102d357604051601f6133b238819003918201601f19168301916001600160401b038311848410176102d75780849260409485528339810103126102d3578051906001600160a01b03821682036102d357602001516001600160a01b03811691908290036102d3576080525f6101a061007c6102eb565b8281528260208201528260408201528260608201528260808201528260a08201528260c08201528260e0820152826101008201528261012082015282610140820152826101608201528261018082015201525f6101a06100da6102eb565b82815282602082015260016040820152600160608201528260808201528260a0820152600160c08201528260e082015282610100820152826101208201526001610140820152826101608201528261018082015201526120003016158015906102c6575b80156102b5575b80156102a4575b8015610297575b801561028a575b801561027a575b801561026e575b8015610262575b8015610256575b8015610246575b801561023a575b801561022e575b8015610222575b61020f57600480546001600160a01b0319169190911790556040516130a6908161030c823960805181818161016e015281816101f0015281816102420152818161072801528181610778015281816107ed015281816109d301528181610af401528181610cf40152818161144301528181611cf50152611efc0152f35b630732d7b560e51b5f523060045260245ffd5b50600130161515610192565b5060023016151561018b565b50600430161515610184565b506008301615156001141561017d565b50601030161515610176565b5060203016151561016f565b50604030161515610168565b5060803016151560011415610161565b506101003016151561015a565b5061020030161515610153565b50610400301615156001141561014c565b506108003016151560011415610145565b506110003016151561013e565b5f80fd5b634e487b7160e01b5f52604160045260245ffd5b604051906101c082016001600160401b038111838210176102d75760405256fe60806040526004361015610011575f80fd5b5f3560e01c806321d0ee7014610ce1578063259982e514610ce157806336808a7c14610cbc578063575e24b414610a9f5780635f40ef0114610a105780636c2bbe7e146107655780636fe7e6eb1461099557806377295a8d146109595780638b7cc6291461093d57806391dd7346146107bb5780639f063efc14610765578063b47b2fb1146106d1578063b6780bf2146105dd578063b6a8b0fa1461015b578063bb2ffdef146105a5578063c39b5ad11461053b578063c4e833ce146103d3578063c55dae63146103ab578063c57981b51461038f578063ca4e41601461035b578063d111f97e14610323578063d9a6eef914610271578063dc4c90d31461022d578063dc98354e146101bf578063e1b4af691461015b5763f86325ed14610137575f80fd5b34610157575f366003190112610157576020604051650574fbde60008152f35b5f80fd5b346101575761016936610ee1565b5050507f00000000000000000000000000000000000000000000000000000000000000006001600160a01b0316330392506101b091505057630a85dc2960e01b5f5260045ffd5b63570c108560e11b5f5260045ffd5b346101575760e0366003190112610157576101d8610d34565b5060a0366023190112610157576101ed610ea7565b507f00000000000000000000000000000000000000000000000000000000000000006001600160a01b031633036101b057630a85dc2960e01b5f5260045ffd5b34610157575f366003190112610157576040517f00000000000000000000000000000000000000000000000000000000000000006001600160a01b03168152602090f35b346101575761027f36610dee565b6001600160a01b039384165f90815260036020526040902092939092906102a5866110cc565b16936001600160a01b036102bb602088016110cc565b83546001600160a01b03169687149691168615610318575b505060205f91013512935f14610309576102ec94611c6c565b905b60408051600f92830b81529290910b602083015290f35b0390f35b61031294611c34565b906102ee565b14945060205f6102d3565b34610157576020366003190112610157576001600160a01b03610344610d34565b165f526001602052602060405f2054604051908152f35b346101575760403660031901126101575761030561038361037a610d34565b6024359061167c565b60405191829182611095565b34610157575f3660031901126101575760206040516127108152f35b34610157575f366003190112610157576004546040516001600160a01b039091168152602090f35b34610157575f366003190112610157575f6101a06040516103f381610f83565b8281528260208201528260408201528260608201528260808201528260a08201528260c08201528260e0820152826101008201528261012082015282610140820152826101608201528261018082015201526101c0602060405161045681610f83565b5f8152818101905f825260408101600181526060820160018152608083015f815260a084015f815260c085016001815260e08601905f82526101008701925f84526101208801945f8652610140890196600188526101608a01985f8a526101a06101808c019b5f8d52019b5f8d526040519d8e915f835251151591015251151560408d015251151560608c015251151560808b015251151560a08a015251151560c089015251151560e08801525115156101008701525115156101208601525115156101408501525115156101608401525115156101808301525115156101a0820152f35b3461015757608036600319011261015757610554610d34565b6024356001600160401b03811161015757610573903690600401610ff6565b90604435906001600160401b038211610157576103059261059b610383933690600401610ff6565b9060643592611126565b34610157576020366003190112610157576001600160a01b036105c6610d34565b165f526002602052602060405f2054604051908152f35b34610157576020366003190112610157576001600160a01b036105fe610d34565b165f52600360205261014060405f206101206040519161061d83610f67565b60018060a01b038154169283815260018060a01b03600183015416806020830152600283015480604084015260038401548060608501526004850154908160808601526005860154928360a08701526006870154948560c08801526007880154968760e0820152600960088a0154998a6101008401520154998a910152604051998a5260208a015260408901526060880152608087015260a086015260c085015260e0840152610100830152610120820152f35b3461015757610160366003190112610157576106eb610d34565b5060a03660231901126101575760603660c319011261015757610144356001600160401b03811161015757610724903690600401610d5e565b50507f00000000000000000000000000000000000000000000000000000000000000006001600160a01b031633036101b057630a85dc2960e01b5f5260045ffd5b346101575761077336610e3e565b5050507f00000000000000000000000000000000000000000000000000000000000000006001600160a01b0316330393506101b09250505057630a85dc2960e01b5f5260045ffd5b34610157576020366003190112610157576004356001600160401b038111610157576107eb903690600401610d5e565b7f0000000000000000000000000000000000000000000000000000000000000000906001600160a01b03821633036101b0578260809181010312610157576040516109159261083982610f38565b61090181358084526108eb61085060208501610d4a565b91602086019283526108b061087a606061086c60408901610d4a565b9760408a0198895201610d4a565b9160608801928352604051610890604082610fba565b600e81526d031b0b6363130b1b5a230ba309d160951b602082015261190f565b8251815187516108d09290916001600160a01b03908116918b9116611990565b845190518651916001600160a01b0391821691899116611990565b51835190309086906001600160a01b0316611be6565b5190519130916001600160a01b0316611be6565b610305604051610926602082610fba565b5f8152604051918291602083526020830190610ebd565b34610157575f36600319011261015757602060405161012c8152f35b34610157576020366003190112610157576001600160a01b0361097a610d34565b165f525f602052602060ff60405f2054166040519015158152f35b3461015757610100366003190112610157576109af610d34565b5060a0366023190112610157576109c4610ea7565b5060e4358060020b03610157577f00000000000000000000000000000000000000000000000000000000000000006001600160a01b031633036101b057630a85dc2960e01b5f5260045ffd5b3461015757610a1e36610dee565b6001600160a01b039384165f9081526003602052604090209293909290610a44866110cc565b16936001600160a01b03610a5a602088016110cc565b83546001600160a01b03169687149691168615610a94575b505060205f91013512935f14610a8b576102ec946118e0565b610312946118a8565b14945060205f610a72565b346101575761014036600319011261015757610ab9610d34565b5060a03660231901126101575760603660c319011261015757610124356001600160401b03811161015757610af2903690600401610d5e565b7f00000000000000000000000000000000000000000000000000000000000000006001600160a01b031633036101b05760e435915f831315610caa5760208184935b8101031261015757356001600160a01b0381169190829003610157576024356001600160a01b03811680821415939092909184610157576004546001600160a01b031684149260c43580151581036101575715610c25575f52600360205260405f20946101575750604435946001600160a01b03861693848703610157578554606097506001600160a01b0316908114948515610c1b575b50505f139215610c0b57610be1936024611c6c565b6001600160801b03169060801b175b604051906315d7892d60e21b825260208201525f6040820152f35b610c16936024611c34565b610be1565b1493505f87610bcc565b5f908152600360205260409020604435969095506001600160a01b03871694909150848703610157578554606097506001600160a01b0316908114948515610ca0575b50505f139215610c9057610c7d9360246118e0565b6001600160801b03169060801b17610bf0565b610c9b9360246118a8565b610c7d565b1493505f87610c68565b602081610cb685611898565b93610b34565b34610157575f3660031901126101575760206040516acecb8f27f4200f3a0000008152f35b3461015757610cef36610d8b565b5050507f00000000000000000000000000000000000000000000000000000000000000006001600160a01b0316330391506101b090505762c890a560e31b5f5260045ffd5b600435906001600160a01b038216820361015757565b35906001600160a01b038216820361015757565b9181601f84011215610157578235916001600160401b038311610157576020838186019501011161015757565b90610160600319830112610157576004356001600160a01b0381168103610157579160a060231982011261015757602491608060c3198301126101575760c49161014435906001600160401b03821161015757610dea91600401610d5e565b9091565b600319810161016081126101575760a0136101575760049160a4356001600160a01b0381168103610157576060909260c31901126101575760c49061012435906101443580151581036101575790565b906101a0600319830112610157576004356001600160a01b0381168103610157579160a060231982011261015757602491608060c3198301126101575760c4916101443591610164359161018435906001600160401b03821161015757610dea91600401610d5e565b60c435906001600160a01b038216820361015757565b805180835260209291819084018484015e5f828201840152601f01601f1916010190565b610120600319820112610157576004356001600160a01b0381168103610157579160a06023198301126101575760249160c4359160e4359161010435906001600160401b03821161015757610dea91600401610d5e565b608081019081106001600160401b03821117610f5357604052565b634e487b7160e01b5f52604160045260245ffd5b61014081019081106001600160401b03821117610f5357604052565b6101c081019081106001600160401b03821117610f5357604052565b604081019081106001600160401b03821117610f5357604052565b90601f801991011681019081106001600160401b03821117610f5357604052565b6001600160401b038111610f5357601f01601f191660200190565b9080601f830112156101575760409160405192611014604085610fba565b8360408301928484116101575780915b8483106110345750505050505090565b82356001600160401b03811161015757820186601f820112156101575780359161105d83610fdb565b61106987519182610fba565b8381528860208585010111610157575f6020858196828097018386013783010152815201920191611024565b919060408301925f905b600282106110ac57505050565b82516001600160a01b03168152602092830192600192909201910161109f565b356001600160a01b03811681036101575790565b919082018092116110ed57565b634e487b7160e01b5f52601160045260245ffd5b9060028110156111125760051b0190565b634e487b7160e01b5f52603260045260245ffd5b9093926040918280516111398282610fba565b36903760018060a01b031690815f525f6020525f806111a86111be60ff87842054168751906111688983610fba565b6011825270034b9a830b4b924b734ba34b0ba32b21d1607d1b6020830152885193849263c3b5563560e01b60208501528a60248501526064840190610ebd565b901515604483015203601f198101835282610fba565b6020815191016a636f6e736f6c652e6c6f675afa50815f526002602052611210835f205484516111ee8682610fba565b601081526f03830b4b922b73234b733aa34b6b29d160851b602082015261190f565b61123d835161121f8582610fba565b600a81526903232b0b23634b7329d160b51b6020820152429061190f565b815f525f60205260ff835f2054161580156115f9575b156115c15761128490825f525f602052835f20600160ff19825416179055825f52600160205242845f2055426110e0565b815f526002602052825f205581519261129d8385610fba565b82368537610b7f906124f25f5b600281106114d257505084516020860180518651989950969761143e975f969295509093506009926001600160a01b0391821691166112e885610f67565b84526020808501918252650574fbde60008886018181526060808801928352608088018a815260a089018b815260c08a018c815260e08b018d81526101008c018e81526101208d018f81529a8f526003988990528f8f209c518d546001600160a01b03199081166001600160a01b03928316178f559a5160018f018054909c1690821617909a55955160028d01559551968b0196909655905160048a0155516005890155925160068801559051600787015551600886015591519290930191909155865192518551938316939216916113c081610f38565b6acecb8f27f4200f3a0000008082526020808301958652878301948552309390920192835286519182015292516001600160a01b03908116848701529151821660608401525116608080830191909152815261141d60a082610fba565b8251809481926348c8949160e01b8352602060048401526024830190610ebd565b0381837f00000000000000000000000000000000000000000000000000000000000000006001600160a01b03165af19081156114c9575061147d575090565b3d805f833e61148c8183610fba565b810190602081830312610157578051906001600160401b03821161015757019080601f830112156101575781516114c59260200161160d565b5090565b513d5f823e3d90fd5b6114dc818a611101565b516114e78285611101565b51875191868301908382106001600160401b03831117610f53578961152f859461152162015180948c8b8939606087526060870190610ebd565b908582036020870152610ebd565b92015203905ff080156115b7576001600160a01b031680611550838a611101565b52803b15610157575f809160448951809481936340c10f1960e01b83523060048401526acecb8f27f4200f3a00000060248401525af180156115ad57906001929161159d575b50016112aa565b5f6115a791610fba565b5f611596565b87513d5f823e3d90fd5b86513d5f823e3d90fd5b825162461bcd60e51b815260206004820152601160248201527050616972207374696c6c2061637469766560781b6044820152606490fd5b50815f52600260205242835f205410611253565b92919261161982610fdb565b916116276040519384610fba565b829481845281830111610157578281602093845f96015e010152565b602081830312610157578051906001600160401b03821161015757019080601f830112156101575781516116799260200161160d565b90565b919060409283805161168e8282610fba565b36903760018060a01b03811690815f525f602052600160ff865f20541615150361185f57815f526002602052845f205442115f14611828575f918252600360205290849020805460019091015485516001600160a01b039283169390929091166116f783610f9f565b86516306fdde0360e01b81525f81600481885afa9081156117ea575f9161180e575b50835286516306fdde0360e01b81525f81600481855afa9081156117ea575f916117f4575b50602084015260045f88519561175387610f9f565b89516395d89b4160e01b815292839182905afa9182156117ea576004925f9283916117d0575b50865288516395d89b4160e01b815292839182905afa9081156115ad576116799697505f916117ae575b506020840152611126565b6117ca91503d805f833e6117c28183610fba565b810190611643565b5f6117a3565b6117e491503d8085833e6117c28183610fba565b5f611779565b88513d5f823e3d90fd5b61180891503d805f833e6117c28183610fba565b5f61173e565b61182291503d805f833e6117c28183610fba565b5f611719565b845162461bcd60e51b815260206004820152601060248201526f14185a5c881b9bdd08195e1c1a5c995960821b6044820152606490fd5b845162461bcd60e51b815260206004820152601260248201527114185a5c881b9bdd081a5b9a5d1a585d195960721b6044820152606490fd5b600160ff1b81146110ed575f0390565b9391929091156118c957156118c057610dea9261201d565b610dea92611f36565b156118d757610dea92611e48565b610dea92611d6b565b93919290911561190157156118f857610dea92612153565b610dea926120f3565b156118d757610dea92612079565b61193e6119525f93928493604051938492632d839cb360e21b6020850152604060248501526064840190610ebd565b90604483015203601f198101835282610fba565b6020815191016a636f6e736f6c652e6c6f675afa50565b90816020910312610157575180151581036101575790565b90816020910312610157575190565b9192916001600160a01b031680611a095750604051630476982d60e21b81529250602091839160049183916001600160a01b03165af180156119fe576119d35750565b6119f49060203d6020116119f7575b6119ec8183610fba565b810190611981565b50565b503d6119e2565b6040513d5f823e3d90fd5b6001600160a01b039091169190823b1561015757604051632961046560e21b815260048101829052935a945f816024818389819bf180156119fe57611b6a575b506001600160a01b03169184308414611b02576020929360649160405195869485936323b872dd60e01b8552600485015288602485015260448401525af18015611af757916020918493611aca575b505b600460405180958193630476982d60e21b83525af1908115611abe57506119d35750565b604051903d90823e3d90fd5b611ae990833d8511611af0575b611ae18183610fba565b810190611969565b505f611a98565b503d611ad7565b6040513d85823e3d90fd5b60405163a9059cbb60e01b81526001600160a01b0386166004820152602481019290925290925060209183916044918391905af18015611af757916020918493611b4d575b50611a9a565b611b6390833d8511611af057611ae18183610fba565b505f611b47565b611b779195505f90610fba565b5f935f611a49565b9192906001600160a01b0316803b1561015757604051637a94c56560e11b81526001600160a01b03948516600482015293909216602484015260448301525f908290818381606481015b03925af180156119fe57611bda5750565b5f611be491610fba565b565b9192906001600160a01b0316803b1561015757604051630ab714fb60e11b81526001600160a01b03948516600482015293909216602484015260448301525f90829081838160648101611bc9565b939192909115611c555715611c4c57610dea92611f36565b610dea9261201d565b15611c6357610dea92611d6b565b610dea92611e48565b939192909115611c8d5715611c8457610dea926120f3565b610dea92612153565b9193929115611d40576001600160801b0384611d2f8183956008866004611d389801611cd685611cbf83549e8f61219c565b9d60068501611ccf8382546110e0565b90556110e0565b905501611ce48a82546110e0565b9055611cef816110cc565b611d1d8a7f000000000000000000000000000000000000000000000000000000000000000092833091611be6565b611d2a60203093016110cc565b611b7f565b16600f0b611d4b565b9216600f0b90565b610dea929391612079565b600f0b6f7fffffffffffffffffffffffffffffff1981146110ed575f0390565b6001600160801b0383611d2f81611d38946009859799989960058101611cd685611d9783549e8f61219c565b9d60078501611ccf8382546110e0565b60405190611db6604083610fba565b600d82526c195e1858dd08081bdd5d081215609a1b6020830152565b818102929181159184041417156110ed57565b60405190611df4604083610fba565b600f82526e03a37b5b2b7103a379039b2b6361d1608d1b6020830152565b60405190611e21604083610fba565b600b82526a030b6b7bab73a1034b71d160ad1b6020830152565b919082039182116110ed57565b92919092611e5c611e57611da7565b612249565b6005840191825490611e6e81836122be565b95670de0b6b3a7640000870296808804670de0b6b3a764000014901517156110ed5786611d38946009611d2f936001600160801b0398611ecc858b99611ebb82611eb6611de5565b61190f565b611ec78a611eb6611e12565b611e3b565b905560078101611edd858254611e3b565b905501611eeb858254611e3b565b9055611ef6816110cc565b611f24857f000000000000000000000000000000000000000000000000000000000000000092833091611b7f565b611f3160203093016110cc565b611be6565b9291926005820191825490611f4b86836122be565b90670de0b6b3a7640000820291808304670de0b6b3a764000014901517156110ed5781611f96946009836001600160801b0398611cd6858b996007611d2f9901611ccf8382546110e0565b9216600f0b9190565b60405190611fae604083610fba565b601382527203130b9b2aa37b5b2b7103932ba3ab937399d1606d1b6020830152565b60405190611fdf606083610fba565b6029825268034103a37b5b2b71d160bd1b6040837f52657475726e73206f66204554482061667465722073656c6c696e672068696760208201520152565b6001600160801b03809261206d85611f969497969760096005850194855495611edd8561204a818a61244d565b986120578a611eb6611f9f565b60078501612066838254611e3b565b9055611e3b565b611d2f81611eb6611fd0565b92919092612088611e57611da7565b600484019182549061209a81836122be565b95670de0b6b3a7640000870296808804670de0b6b3a764000014901517156110ed5786611d38946008611d2f936001600160801b03986120e2858b99611ebb82611eb6611de5565b905560068101611edd858254611e3b565b929192600482019182549061210886836122be565b90670de0b6b3a7640000820291808304670de0b6b3a764000014901517156110ed5781611f96946008836001600160801b0398611cd6858b996006611d2f9901611ccf8382546110e0565b6001600160801b03809261206d85611f969497969760086004850194855495611edd85612180818a61244d565b9861218d8a611eb6611f9f565b60068501612066838254611e3b565b61012c9080820290828204036110ed576121c183670de0b6b3a7640000809304611dd2565b04828202918083048414901517156110ed57671bc16d674ec800006121f384670de0b6b3a76400006121fa9504611dd2565b04906110e0565b650574fbde600082810292908304036110ed57670de0b6b3a76400006122219204906110e0565b670de0b6b3a763d8f0908181029181830414901517156110ed57670de0b6b3a7640000900490565b5f612276611952829360405192839163104c13eb60e21b6020840152602060248401526044830190610ebd565b03601f198101835282610fba565b81810292915f8212600160ff1b8214166110ed5781840514901517156110ed57565b81810392915f1380158285131691841216176110ed57565b90801561240857670de0b6b3a76400008102908104670de0b6b3a7640000036110ed5761012c670de0b6b3a764000090920482810292670de0b6b3a7642710909204918304036110ed57650574fbde600082018092116110ed5761232190611898565b61232b8280612284565b6102586123419261233b91612284565b906122a6565b905f82126123b95761235561235a926124ab565b6122a6565b61012c90055f81126123695790565b60405162461bcd60e51b8152602060048201526014602482015273125b9d985b1a59081d1bdad95b88185b5bdd5b9d60621b6044820152606490fd5b634e487b7160e01b5f52601260045260245ffd5b60405162461bcd60e51b815260206004820152602160248201527f4469736372696d696e616e74206d757374206265206e6f6e2d6e6567617469766044820152606560f81b6064820152608490fd5b60405162461bcd60e51b815260206004820152601e60248201527f436f7374206d7573742062652067726561746572207468616e207a65726f00006044820152606490fd5b61012c9080820290828204036110ed5761247283670de0b6b3a7640000809304611dd2565b04828202918083048414901517156110ed57671bc16d674ec800006124a484670de0b6b3a76400006121fa9504611dd2565b0490611e3b565b9081156124ec57600182018083116110ed5760011c825b8382106124cd575050565b9092508280156123a557806124e39183046110e0565b60011c906124c2565b5f915056fe60806040523461034e57610b7f8038038061001981610352565b92833981019060608183031261034e5780516001600160401b03811161034e5782610045918301610377565b60208201519092906001600160401b03811161034e57604091610069918401610377565b91015182516001600160401b03811161025f57600354600181811c91168015610344575b602082101461024157601f81116102e1575b506020601f821160011461027e57819293945f92610273575b50508160011b915f199060031b1c1916176003555b81516001600160401b03811161025f57600454600181811c91168015610255575b602082101461024157601f81116101de575b50602092601f821160011461017d57928192935f92610172575b50508160011b915f199060031b1c1916176004555b600580546001600160a01b031916331790554290810190811061015e576006556040516107b690816103c98239f35b634e487b7160e01b5f52601160045260245ffd5b015190505f8061011a565b601f1982169360045f52805f20915f5b8681106101c657508360019596106101ae575b505050811b0160045561012f565b01515f1960f88460031b161c191690555f80806101a0565b9192602060018192868501518155019401920161018d565b60045f527f8a35acfbc15ff81a39ae7d344fd709f28e8600b4aa8c65c6b64bfe7fe36bd19b601f830160051c81019160208410610237575b601f0160051c01905b81811061022c5750610100565b5f815560010161021f565b9091508190610216565b634e487b7160e01b5f52602260045260245ffd5b90607f16906100ee565b634e487b7160e01b5f52604160045260245ffd5b015190505f806100b8565b601f1982169060035f52805f20915f5b8181106102c9575095836001959697106102b1575b505050811b016003556100cd565b01515f1960f88460031b161c191690555f80806102a3565b9192602060018192868b01518155019401920161028e565b60035f527fc2575a0e9e593c00f959f8c92f12db2869c3395a3b0502d05e2516446f71f85b601f830160051c8101916020841061033a575b601f0160051c01905b81811061032f575061009f565b5f8155600101610322565b9091508190610319565b90607f169061008d565b5f80fd5b6040519190601f01601f191682016001600160401b0381118382101761025f57604052565b81601f8201121561034e578051906001600160401b03821161025f576103a6601f8301601f1916602001610352565b928284526020838301011161034e57815f9260208093018386015e830101529056fe6080806040526004361015610012575f80fd5b5f3560e01c90816306fdde031461055857508063095ea7b3146104d657806318160ddd146104b957806323b872dd146103da578063313ce567146103bf57806336654887146103a257806340c10f191461029f57806370a08231146102685780638da5cb5b1461024057806395d89b4114610125578063a9059cbb146100f45763dd62ed3e146100a0575f80fd5b346100f05760403660031901126100f0576100b9610651565b6100c1610667565b6001600160a01b039182165f908152600160209081526040808320949093168252928352819020549051908152f35b5f80fd5b346100f05760403660031901126100f05761011a610110610651565b60243590336106c9565b602060405160018152f35b346100f0575f3660031901126100f0576040515f6004548060011c90600181168015610236575b6020831081146102225782855290811561020657506001146101b1575b50819003601f01601f191681019067ffffffffffffffff82118183101761019d5761019982918260405282610627565b0390f35b634e487b7160e01b5f52604160045260245ffd5b905060045f527f8a35acfbc15ff81a39ae7d344fd709f28e8600b4aa8c65c6b64bfe7fe36bd19b5f905b8282106101f057506020915082010182610169565b60018160209254838588010152019101906101db565b90506020925060ff191682840152151560051b82010182610169565b634e487b7160e01b5f52602260045260245ffd5b91607f169161014c565b346100f0575f3660031901126100f0576005546040516001600160a01b039091168152602090f35b346100f05760203660031901126100f0576001600160a01b03610289610651565b165f525f602052602060405f2054604051908152f35b346100f05760403660031901126100f0576102b8610651565b60055460243591906001600160a01b03163303610370576102dc600654421061067d565b6001600160a01b031690811561035d576102f9600654421061067d565b600254908082018092116103495760207fddf252ad1be2c89b69c2b068fc378daa952ba7f163c4a11628f55a4df523b3ef915f9360025584845283825260408420818154019055604051908152a3005b634e487b7160e01b5f52601160045260245ffd5b63ec442f0560e01b5f525f60045260245ffd5b60405162461bcd60e51b815260206004820152600a60248201526927a7262c9027aba722a960b11b6044820152606490fd5b346100f0575f3660031901126100f0576020600654604051908152f35b346100f0575f3660031901126100f057602060405160128152f35b346100f05760603660031901126100f0576103f3610651565b6103fb610667565b6001600160a01b0382165f818152600160209081526040808320338452909152902054909260443592915f198110610439575b5061011a93506106c9565b83811061049e57841561048b5733156104785761011a945f52600160205260405f2060018060a01b0333165f526020528360405f20910390558461042e565b634a1406b160e11b5f525f60045260245ffd5b63e602df0560e01b5f525f60045260245ffd5b8390637dc7a0d960e11b5f523360045260245260445260645ffd5b346100f0575f3660031901126100f0576020600254604051908152f35b346100f05760403660031901126100f0576104ef610651565b60243590331561048b576001600160a01b031690811561047857335f52600160205260405f20825f526020528060405f20556040519081527f8c5be1e5ebec7d5bd14f71427d1e84f3dd0314c0f7b2291e5b200ac8c7c3b92560203392a3602060405160018152f35b346100f0575f3660031901126100f0575f6003548060011c9060018116801561061d575b6020831081146102225782855290811561020657506001146105c85750819003601f01601f191681019067ffffffffffffffff82118183101761019d5761019982918260405282610627565b905060035f527fc2575a0e9e593c00f959f8c92f12db2869c3395a3b0502d05e2516446f71f85b5f905b82821061060757506020915082010182610169565b60018160209254838588010152019101906105f2565b91607f169161057c565b602060409281835280519182918282860152018484015e5f828201840152601f01601f1916010190565b600435906001600160a01b03821682036100f057565b602435906001600160a01b03821682036100f057565b1561068457565b60405162461bcd60e51b815260206004820152601d60248201527f544f4b454e20455850495245442c204d494e54494e4720434c4f5345440000006044820152606490fd5b6001600160a01b031690811561076d576001600160a01b031691821561035d576106f6600654421061067d565b815f525f60205260405f205481811061075457817fddf252ad1be2c89b69c2b068fc378daa952ba7f163c4a11628f55a4df523b3ef92602092855f525f84520360405f2055845f525f825260405f20818154019055604051908152a3565b8263391434e360e21b5f5260045260245260445260645ffd5b634b637e8f60e11b5f525f60045260245ffdfea2646970667358221220d6f942ae2c43716d98cba2b48a46ca73ec1b3f7cf1c27b8197cdb16f2d9705ff64736f6c634300081a0033a26469706673582212204f95cd31e86126fbdd71500c14cd10c01ee4b379e2f8c651fde84a7ce2833c1964736f6c634300081a0033","linkReferences":{}},"methodIdentifiers":{"BASE_PRICE()":"f86325ed","FEE()":"c57981b5","IV_TOKEN_SUPPLY()":"36808a7c","SLOPE()":"8b7cc629","afterAddLiquidity(address,(address,address,uint24,int24,address),(int24,int24,int256,bytes32),int256,int256,bytes)":"9f063efc","afterDonate(address,(address,address,uint24,int24,address),uint256,uint256,bytes)":"e1b4af69","afterInitialize(address,(address,address,uint24,int24,address),uint160,int24)":"6fe7e6eb","afterRemoveLiquidity(address,(address,address,uint24,int24,address),(int24,int24,int256,bytes32),int256,int256,bytes)":"6c2bbe7e","afterSwap(address,(address,address,uint24,int24,address),(bool,int256,uint160),int256,bytes)":"b47b2fb1","baseToken()":"c55dae63","beforeAddLiquidity(address,(address,address,uint24,int24,address),(int24,int24,int256,bytes32),bytes)":"259982e5","beforeDonate(address,(address,address,uint24,int24,address),uint256,uint256,bytes)":"b6a8b0fa","beforeInitialize(address,(address,address,uint24,int24,address),uint160)":"dc98354e","beforeRemoveLiquidity(address,(address,address,uint24,int24,address),(int24,int24,int256,bytes32),bytes)":"21d0ee70","beforeSwap(address,(address,address,uint24,int24,address),(bool,int256,uint160),bytes)":"575e24b4","deploy2Currency(address,string[2],string[2],uint256)":"c39b5ad1","getHookPermissions()":"c4e833ce","getVixData(address)":"b6780bf2","isPairInitiated(address)":"77295a8d","oneForZeroOperator((address,address,uint24,int24,address),address,(bool,int256,uint160),uint256,bool)":"5f40ef01","pairEndingTime(address)":"bb2ffdef","pairInitiatedTime(address)":"d111f97e","poolManager()":"dc4c90d3","resetPair(address,uint256)":"ca4e4160","unlockCallback(bytes)":"91dd7346","zeroForOneOperator((address,address,uint24,int24,address),address,(bool,int256,uint160),uint256,bool)":"d9a6eef9"},"id":94}