{"abi":[{"type":"constructor","inputs":[{"name":"poolManager","type":"address","internalType":"contract IPoolManager"},{"name":"_baseToken","type":"address","internalType":"address"}],"stateMutability":"nonpayable"},{"type":"function","name":"BASE_PRICE","inputs":[],"outputs":[{"name":"","type":"uint256","internalType":"uint256"}],"stateMutability":"view"},{"type":"function","name":"FEE","inputs":[],"outputs":[{"name":"","type":"uint256","internalType":"uint256"}],"stateMutability":"view"},{"type":"function","name":"IV_TOKEN_SUPPLY","inputs":[],"outputs":[{"name":"","type":"uint256","internalType":"uint256"}],"stateMutability":"view"},{"type":"function","name":"RESERVE_SHIFT_SLOPE","inputs":[],"outputs":[{"name":"","type":"uint256","internalType":"uint256"}],"stateMutability":"view"},{"type":"function","name":"SLOPE","inputs":[],"outputs":[{"name":"","type":"uint256","internalType":"uint256"}],"stateMutability":"view"},{"type":"function","name":"afterAddLiquidity","inputs":[{"name":"sender","type":"address","internalType":"address"},{"name":"key","type":"tuple","internalType":"struct PoolKey","components":[{"name":"currency0","type":"address","internalType":"Currency"},{"name":"currency1","type":"address","internalType":"Currency"},{"name":"fee","type":"uint24","internalType":"uint24"},{"name":"tickSpacing","type":"int24","internalType":"int24"},{"name":"hooks","type":"address","internalType":"contract IHooks"}]},{"name":"params","type":"tuple","internalType":"struct IPoolManager.ModifyLiquidityParams","components":[{"name":"tickLower","type":"int24","internalType":"int24"},{"name":"tickUpper","type":"int24","internalType":"int24"},{"name":"liquidityDelta","type":"int256","internalType":"int256"},{"name":"salt","type":"bytes32","internalType":"bytes32"}]},{"name":"delta","type":"int256","internalType":"BalanceDelta"},{"name":"feesAccrued","type":"int256","internalType":"BalanceDelta"},{"name":"hookData","type":"bytes","internalType":"bytes"}],"outputs":[{"name":"","type":"bytes4","internalType":"bytes4"},{"name":"","type":"int256","internalType":"BalanceDelta"}],"stateMutability":"nonpayable"},{"type":"function","name":"afterDonate","inputs":[{"name":"sender","type":"address","internalType":"address"},{"name":"key","type":"tuple","internalType":"struct PoolKey","components":[{"name":"currency0","type":"address","internalType":"Currency"},{"name":"currency1","type":"address","internalType":"Currency"},{"name":"fee","type":"uint24","internalType":"uint24"},{"name":"tickSpacing","type":"int24","internalType":"int24"},{"name":"hooks","type":"address","internalType":"contract IHooks"}]},{"name":"amount0","type":"uint256","internalType":"uint256"},{"name":"amount1","type":"uint256","internalType":"uint256"},{"name":"hookData","type":"bytes","internalType":"bytes"}],"outputs":[{"name":"","type":"bytes4","internalType":"bytes4"}],"stateMutability":"nonpayable"},{"type":"function","name":"afterInitialize","inputs":[{"name":"sender","type":"address","internalType":"address"},{"name":"key","type":"tuple","internalType":"struct PoolKey","components":[{"name":"currency0","type":"address","internalType":"Currency"},{"name":"currency1","type":"address","internalType":"Currency"},{"name":"fee","type":"uint24","internalType":"uint24"},{"name":"tickSpacing","type":"int24","internalType":"int24"},{"name":"hooks","type":"address","internalType":"contract IHooks"}]},{"name":"sqrtPriceX96","type":"uint160","internalType":"uint160"},{"name":"tick","type":"int24","internalType":"int24"}],"outputs":[{"name":"","type":"bytes4","internalType":"bytes4"}],"stateMutability":"nonpayable"},{"type":"function","name":"afterRemoveLiquidity","inputs":[{"name":"sender","type":"address","internalType":"address"},{"name":"key","type":"tuple","internalType":"struct PoolKey","components":[{"name":"currency0","type":"address","internalType":"Currency"},{"name":"currency1","type":"address","internalType":"Currency"},{"name":"fee","type":"uint24","internalType":"uint24"},{"name":"tickSpacing","type":"int24","internalType":"int24"},{"name":"hooks","type":"address","internalType":"contract IHooks"}]},{"name":"params","type":"tuple","internalType":"struct IPoolManager.ModifyLiquidityParams","components":[{"name":"tickLower","type":"int24","internalType":"int24"},{"name":"tickUpper","type":"int24","internalType":"int24"},{"name":"liquidityDelta","type":"int256","internalType":"int256"},{"name":"salt","type":"bytes32","internalType":"bytes32"}]},{"name":"delta","type":"int256","internalType":"BalanceDelta"},{"name":"feesAccrued","type":"int256","internalType":"BalanceDelta"},{"name":"hookData","type":"bytes","internalType":"bytes"}],"outputs":[{"name":"","type":"bytes4","internalType":"bytes4"},{"name":"","type":"int256","internalType":"BalanceDelta"}],"stateMutability":"nonpayable"},{"type":"function","name":"afterSwap","inputs":[{"name":"sender","type":"address","internalType":"address"},{"name":"key","type":"tuple","internalType":"struct PoolKey","components":[{"name":"currency0","type":"address","internalType":"Currency"},{"name":"currency1","type":"address","internalType":"Currency"},{"name":"fee","type":"uint24","internalType":"uint24"},{"name":"tickSpacing","type":"int24","internalType":"int24"},{"name":"hooks","type":"address","internalType":"contract IHooks"}]},{"name":"params","type":"tuple","internalType":"struct IPoolManager.SwapParams","components":[{"name":"zeroForOne","type":"bool","internalType":"bool"},{"name":"amountSpecified","type":"int256","internalType":"int256"},{"name":"sqrtPriceLimitX96","type":"uint160","internalType":"uint160"}]},{"name":"delta","type":"int256","internalType":"BalanceDelta"},{"name":"hookData","type":"bytes","internalType":"bytes"}],"outputs":[{"name":"","type":"bytes4","internalType":"bytes4"},{"name":"","type":"int128","internalType":"int128"}],"stateMutability":"nonpayable"},{"type":"function","name":"baseToken","inputs":[],"outputs":[{"name":"","type":"address","internalType":"address"}],"stateMutability":"view"},{"type":"function","name":"beforeAddLiquidity","inputs":[{"name":"sender","type":"address","internalType":"address"},{"name":"key","type":"tuple","internalType":"struct PoolKey","components":[{"name":"currency0","type":"address","internalType":"Currency"},{"name":"currency1","type":"address","internalType":"Currency"},{"name":"fee","type":"uint24","internalType":"uint24"},{"name":"tickSpacing","type":"int24","internalType":"int24"},{"name":"hooks","type":"address","internalType":"contract IHooks"}]},{"name":"params","type":"tuple","internalType":"struct IPoolManager.ModifyLiquidityParams","components":[{"name":"tickLower","type":"int24","internalType":"int24"},{"name":"tickUpper","type":"int24","internalType":"int24"},{"name":"liquidityDelta","type":"int256","internalType":"int256"},{"name":"salt","type":"bytes32","internalType":"bytes32"}]},{"name":"hookData","type":"bytes","internalType":"bytes"}],"outputs":[{"name":"","type":"bytes4","internalType":"bytes4"}],"stateMutability":"nonpayable"},{"type":"function","name":"beforeDonate","inputs":[{"name":"sender","type":"address","internalType":"address"},{"name":"key","type":"tuple","internalType":"struct PoolKey","components":[{"name":"currency0","type":"address","internalType":"Currency"},{"name":"currency1","type":"address","internalType":"Currency"},{"name":"fee","type":"uint24","internalType":"uint24"},{"name":"tickSpacing","type":"int24","internalType":"int24"},{"name":"hooks","type":"address","internalType":"contract IHooks"}]},{"name":"amount0","type":"uint256","internalType":"uint256"},{"name":"amount1","type":"uint256","internalType":"uint256"},{"name":"hookData","type":"bytes","internalType":"bytes"}],"outputs":[{"name":"","type":"bytes4","internalType":"bytes4"}],"stateMutability":"nonpayable"},{"type":"function","name":"beforeInitialize","inputs":[{"name":"sender","type":"address","internalType":"address"},{"name":"key","type":"tuple","internalType":"struct PoolKey","components":[{"name":"currency0","type":"address","internalType":"Currency"},{"name":"currency1","type":"address","internalType":"Currency"},{"name":"fee","type":"uint24","internalType":"uint24"},{"name":"tickSpacing","type":"int24","internalType":"int24"},{"name":"hooks","type":"address","internalType":"contract IHooks"}]},{"name":"sqrtPriceX96","type":"uint160","internalType":"uint160"}],"outputs":[{"name":"","type":"bytes4","internalType":"bytes4"}],"stateMutability":"nonpayable"},{"type":"function","name":"beforeRemoveLiquidity","inputs":[{"name":"sender","type":"address","internalType":"address"},{"name":"key","type":"tuple","internalType":"struct PoolKey","components":[{"name":"currency0","type":"address","internalType":"Currency"},{"name":"currency1","type":"address","internalType":"Currency"},{"name":"fee","type":"uint24","internalType":"uint24"},{"name":"tickSpacing","type":"int24","internalType":"int24"},{"name":"hooks","type":"address","internalType":"contract IHooks"}]},{"name":"params","type":"tuple","internalType":"struct IPoolManager.ModifyLiquidityParams","components":[{"name":"tickLower","type":"int24","internalType":"int24"},{"name":"tickUpper","type":"int24","internalType":"int24"},{"name":"liquidityDelta","type":"int256","internalType":"int256"},{"name":"salt","type":"bytes32","internalType":"bytes32"}]},{"name":"hookData","type":"bytes","internalType":"bytes"}],"outputs":[{"name":"","type":"bytes4","internalType":"bytes4"}],"stateMutability":"nonpayable"},{"type":"function","name":"beforeSwap","inputs":[{"name":"sender","type":"address","internalType":"address"},{"name":"key","type":"tuple","internalType":"struct PoolKey","components":[{"name":"currency0","type":"address","internalType":"Currency"},{"name":"currency1","type":"address","internalType":"Currency"},{"name":"fee","type":"uint24","internalType":"uint24"},{"name":"tickSpacing","type":"int24","internalType":"int24"},{"name":"hooks","type":"address","internalType":"contract IHooks"}]},{"name":"params","type":"tuple","internalType":"struct IPoolManager.SwapParams","components":[{"name":"zeroForOne","type":"bool","internalType":"bool"},{"name":"amountSpecified","type":"int256","internalType":"int256"},{"name":"sqrtPriceLimitX96","type":"uint160","internalType":"uint160"}]},{"name":"hookData","type":"bytes","internalType":"bytes"}],"outputs":[{"name":"","type":"bytes4","internalType":"bytes4"},{"name":"","type":"int256","internalType":"BeforeSwapDelta"},{"name":"","type":"uint24","internalType":"uint24"}],"stateMutability":"nonpayable"},{"type":"function","name":"calculateIv","inputs":[{"name":"_poolAddress","type":"address","internalType":"address"},{"name":"volume","type":"uint160","internalType":"uint160"}],"outputs":[{"name":"_iv","type":"uint160","internalType":"uint160"}],"stateMutability":"view"},{"type":"function","name":"deploy2Currency","inputs":[{"name":"deriveToken","type":"address","internalType":"address"},{"name":"_tokenName","type":"string[2]","internalType":"string[2]"},{"name":"_tokenSymbol","type":"string[2]","internalType":"string[2]"},{"name":"_poolAddress","type":"address","internalType":"address"},{"name":"volume","type":"uint160","internalType":"uint160"},{"name":"deadline","type":"uint256","internalType":"uint256"}],"outputs":[{"name":"","type":"address[2]","internalType":"address[2]"}],"stateMutability":"nonpayable"},{"type":"function","name":"getHookPermissions","inputs":[],"outputs":[{"name":"","type":"tuple","internalType":"struct Hooks.Permissions","components":[{"name":"beforeInitialize","type":"bool","internalType":"bool"},{"name":"afterInitialize","type":"bool","internalType":"bool"},{"name":"beforeAddLiquidity","type":"bool","internalType":"bool"},{"name":"afterAddLiquidity","type":"bool","internalType":"bool"},{"name":"beforeRemoveLiquidity","type":"bool","internalType":"bool"},{"name":"afterRemoveLiquidity","type":"bool","internalType":"bool"},{"name":"beforeSwap","type":"bool","internalType":"bool"},{"name":"afterSwap","type":"bool","internalType":"bool"},{"name":"beforeDonate","type":"bool","internalType":"bool"},{"name":"afterDonate","type":"bool","internalType":"bool"},{"name":"beforeSwapReturnDelta","type":"bool","internalType":"bool"},{"name":"afterSwapReturnDelta","type":"bool","internalType":"bool"},{"name":"afterAddLiquidityReturnDelta","type":"bool","internalType":"bool"},{"name":"afterRemoveLiquidityReturnDelta","type":"bool","internalType":"bool"}]}],"stateMutability":"pure"},{"type":"function","name":"getVixData","inputs":[{"name":"deriveAsset","type":"address","internalType":"address"}],"outputs":[{"name":"vixHighToken","type":"address","internalType":"address"},{"name":"_vixLowToken","type":"address","internalType":"address"},{"name":"_circulation0","type":"uint256","internalType":"uint256"},{"name":"_circulation1","type":"uint256","internalType":"uint256"},{"name":"_contractHoldings0","type":"uint256","internalType":"uint256"},{"name":"_contractHoldings1","type":"uint256","internalType":"uint256"},{"name":"_reserve0","type":"uint256","internalType":"uint256"},{"name":"_reserve1","type":"uint256","internalType":"uint256"},{"name":"_poolAddress","type":"address","internalType":"address"}],"stateMutability":"view"},{"type":"function","name":"isPairInitiated","inputs":[{"name":"","type":"address","internalType":"address"}],"outputs":[{"name":"","type":"bool","internalType":"bool"}],"stateMutability":"view"},{"type":"function","name":"oneForZeroOperator","inputs":[{"name":"key","type":"tuple","internalType":"struct PoolKey","components":[{"name":"currency0","type":"address","internalType":"Currency"},{"name":"currency1","type":"address","internalType":"Currency"},{"name":"fee","type":"uint24","internalType":"uint24"},{"name":"tickSpacing","type":"int24","internalType":"int24"},{"name":"hooks","type":"address","internalType":"contract IHooks"}]},{"name":"_deriveAsset","type":"address","internalType":"address"},{"name":"params","type":"tuple","internalType":"struct IPoolManager.SwapParams","components":[{"name":"zeroForOne","type":"bool","internalType":"bool"},{"name":"amountSpecified","type":"int256","internalType":"int256"},{"name":"sqrtPriceLimitX96","type":"uint160","internalType":"uint160"}]},{"name":"amountInOutPositive","type":"uint256","internalType":"uint256"},{"name":"zeroIsBase","type":"bool","internalType":"bool"}],"outputs":[{"name":"","type":"int128","internalType":"int128"},{"name":"","type":"int128","internalType":"int128"}],"stateMutability":"nonpayable"},{"type":"function","name":"pairEndingTime","inputs":[{"name":"","type":"address","internalType":"address"}],"outputs":[{"name":"","type":"uint256","internalType":"uint256"}],"stateMutability":"view"},{"type":"function","name":"pairInitiatedTime","inputs":[{"name":"","type":"address","internalType":"address"}],"outputs":[{"name":"","type":"uint256","internalType":"uint256"}],"stateMutability":"view"},{"type":"function","name":"poolManager","inputs":[],"outputs":[{"name":"","type":"address","internalType":"contract IPoolManager"}],"stateMutability":"view"},{"type":"function","name":"resetPair","inputs":[{"name":"deriveToken","type":"address","internalType":"address"},{"name":"deadline","type":"uint256","internalType":"uint256"},{"name":"_poolAddress","type":"address","internalType":"address"},{"name":"volume","type":"uint160","internalType":"uint160"}],"outputs":[{"name":"","type":"address[2]","internalType":"address[2]"}],"stateMutability":"nonpayable"},{"type":"function","name":"swapReserve","inputs":[{"name":"initialIv","type":"uint256","internalType":"uint256"},{"name":"currentIv","type":"uint256","internalType":"uint256"},{"name":"reserve0","type":"uint256","internalType":"uint256"},{"name":"reserve1","type":"uint256","internalType":"uint256"},{"name":"circulation0","type":"uint256","internalType":"uint256"},{"name":"circulation1","type":"uint256","internalType":"uint256"},{"name":"deriveAsset","type":"address","internalType":"address"}],"outputs":[{"name":"","type":"uint256","internalType":"uint256"},{"name":"","type":"uint256","internalType":"uint256"}],"stateMutability":"nonpayable"},{"type":"function","name":"unlockCallback","inputs":[{"name":"data","type":"bytes","internalType":"bytes"}],"outputs":[{"name":"","type":"bytes","internalType":"bytes"}],"stateMutability":"nonpayable"},{"type":"function","name":"vixTokensPrice","inputs":[{"name":"contractHoldings","type":"uint256","internalType":"uint256"}],"outputs":[{"name":"","type":"uint256","internalType":"uint256"}],"stateMutability":"pure"},{"type":"function","name":"zeroForOneOperator","inputs":[{"name":"key","type":"tuple","internalType":"struct PoolKey","components":[{"name":"currency0","type":"address","internalType":"Currency"},{"name":"currency1","type":"address","internalType":"Currency"},{"name":"fee","type":"uint24","internalType":"uint24"},{"name":"tickSpacing","type":"int24","internalType":"int24"},{"name":"hooks","type":"address","internalType":"contract IHooks"}]},{"name":"_deriveAsset","type":"address","internalType":"address"},{"name":"params","type":"tuple","internalType":"struct IPoolManager.SwapParams","components":[{"name":"zeroForOne","type":"bool","internalType":"bool"},{"name":"amountSpecified","type":"int256","internalType":"int256"},{"name":"sqrtPriceLimitX96","type":"uint160","internalType":"uint160"}]},{"name":"amountInOutPositive","type":"uint256","internalType":"uint256"},{"name":"zeroIsBase","type":"bool","internalType":"bool"}],"outputs":[{"name":"","type":"int128","internalType":"int128"},{"name":"","type":"int128","internalType":"int128"}],"stateMutability":"nonpayable"},{"type":"event","name":"HookSwap","inputs":[{"name":"id","type":"bytes32","indexed":true,"internalType":"bytes32"},{"name":"sender","type":"address","indexed":true,"internalType":"address"},{"name":"amount0","type":"int128","indexed":false,"internalType":"int128"},{"name":"amount1","type":"int128","indexed":false,"internalType":"int128"},{"name":"hookLPfeeAmount0","type":"uint128","indexed":false,"internalType":"uint128"},{"name":"hookLPfeeAmount1","type":"uint128","indexed":false,"internalType":"uint128"}],"anonymous":false},{"type":"event","name":"PairExpired","inputs":[{"name":"deriveToken","type":"address","indexed":true,"internalType":"address"},{"name":"vixHighToken","type":"address","indexed":true,"internalType":"address"},{"name":"vixLowToken","type":"address","indexed":true,"internalType":"address"},{"name":"initatedIV","type":"uint256","indexed":false,"internalType":"uint256"},{"name":"expiredTime","type":"uint256","indexed":false,"internalType":"uint256"}],"anonymous":false},{"type":"event","name":"PairInitiated","inputs":[{"name":"_deriveToken","type":"address","indexed":true,"internalType":"address"},{"name":"_vixHighToken","type":"address","indexed":true,"internalType":"address"},{"name":"_vixLowToken","type":"address","indexed":true,"internalType":"address"},{"name":"_initiatedTime","type":"uint256","indexed":false,"internalType":"uint256"},{"name":"_deadline","type":"uint256","indexed":false,"internalType":"uint256"},{"name":"initiatedIV","type":"uint256","indexed":false,"internalType":"uint256"}],"anonymous":false},{"type":"error","name":"HookNotImplemented","inputs":[]},{"type":"error","name":"NotPoolManager","inputs":[]},{"type":"error","name":"invalidLiquidityAction","inputs":[]}],"bytecode":{"object":"0x60a0604052346102cc57604051601f61490a38819003918201601f19168301916001600160401b038311848410176102d05780849260409485528339810103126102cc578051906001600160a01b03821682036102cc57602001516001600160a01b03811691908290036102cc576080525f6101a061007c6102e4565b8281528260208201528260408201528260608201528260808201528260a08201528260c08201528260e0820152826101008201528261012082015282610140820152826101608201528261018082015201525f6101a06100da6102e4565b828152826020820152600160408201528260608201528260808201528260a0820152600160c0820152600160e082015282610100820152826101208201526001610140820152826101608201528261018082015201526120003016158015906102bf575b80156102ae575b80156102a1575b8015610294575b8015610287575b8015610277575b8015610267575b801561025b575b801561024f575b801561023f575b8015610233575b8015610227575b801561021b575b61020857600480546001600160a01b031916919091179055604051614605908161030582396080518181816101f90152818161027b015281816102cd0152818161076001528181610965015281816109da01528181610cc9015281816110a301528181611a6201528181612a760152612cd50152f35b630732d7b560e51b5f523060045260245ffd5b50600130161515610192565b5060023016151561018b565b50600430161515610184565b506008301615156001141561017d565b50601030161515610176565b5060203016151561016f565b5060403016151560011415610168565b5060803016151560011415610161565b506101003016151561015a565b5061020030161515610153565b506104003016151561014c565b506108003016151560011415610145565b506110003016151561013e565b5f80fd5b634e487b7160e01b5f52604160045260245ffd5b604051906101c082016001600160401b038111838210176102d05760405256fe60806040526004361015610011575f80fd5b5f3560e01c806321d0ee7014611090578063259982e51461109057806336808a7c1461106b5780634c001a9e1461102a578063575e24b414610c73578063591094e414610c115780635f40ef0114610b825780636c2bbe7e146109525780636fe7e6eb14610b4a57806377295a8d14610b0e5780638b7cc62914610af057806391dd7346146109a85780639f063efc14610952578063a79a3478146108cd578063b47b2fb11461070a578063b6780bf21461060f578063b6a8b0fa146101e6578063bb2ffdef146105d7578063c4e833ce1461046f578063c55dae6314610447578063c57981b51461042b578063d111f97e146103f3578063d9a6eef914610345578063db6ba9d4146102fc578063dc4c90d3146102b8578063dc98354e1461024a578063e1b4af69146101e6578063f68f3c57146101a8578063f86325ed146101885763fc63b1fd14610163575f80fd5b34610184575f366003190112610184576020604051666a94d74f4300008152f35b5f80fd5b34610184575f366003190112610184576020604051650574fbde60008152f35b346101845760403660031901126101845760206101d46101c66110f9565b6101ce61110f565b90611fd4565b6040516001600160a01b039091168152f35b34610184576101f436611476565b5050507f00000000000000000000000000000000000000000000000000000000000000006001600160a01b03163303925061023b91505057630a85dc2960e01b5f5260045ffd5b63570c108560e11b5f5260045ffd5b346101845760e0366003190112610184576102636110f9565b5060a0366023190112610184576102786110e3565b507f00000000000000000000000000000000000000000000000000000000000000006001600160a01b0316330361023b57630a85dc2960e01b5f5260045ffd5b34610184575f366003190112610184576040517f00000000000000000000000000000000000000000000000000000000000000006001600160a01b03168152602090f35b346101845760803660031901126101845761034161033561031b6110f9565b610323611125565b61032b61113b565b9160243590611d19565b6040519182918261143f565b0390f35b3461018457610353366111f5565b6001600160a01b039384165f908152600360205260409020929390929061037986611792565b16936001600160a01b0361038f60208801611792565b83546001600160a01b031696871496911686156103e8575b505060205f91013512935f146103d9576103c0946129ed565b905b60408051600f92830b81529290910b602083015290f35b6103e2946129b5565b906103c2565b14945060205f6103a7565b34610184576020366003190112610184576001600160a01b036104146110f9565b165f526001602052602060405f2054604051908152f35b34610184575f3660031901126101845760206040516127108152f35b34610184575f366003190112610184576004546040516001600160a01b039091168152602090f35b34610184575f366003190112610184575f6101a060405161048f8161132d565b8281528260208201528260408201528260608201528260808201528260a08201528260c08201528260e0820152826101008201528261012082015282610140820152826101608201528261018082015201526101c060206040516104f28161132d565b5f8152818101905f82526040810160018152606082015f8152608083015f815260a084015f815260c085016001815260e0860190600182526101008701925f84526101208801945f8652610140890196600188526101608a01985f8a526101a06101808c019b5f8d52019b5f8d526040519d8e915f835251151591015251151560408d015251151560608c015251151560808b015251151560a08a015251151560c089015251151560e08801525115156101008701525115156101208601525115156101408501525115156101608401525115156101808301525115156101a0820152f35b34610184576020366003190112610184576001600160a01b036105f86110f9565b165f526002602052602060405f2054604051908152f35b34610184576020366003190112610184576001600160a01b036106306110f9565b165f52600360205261012060405f206040519061064c82611311565b60018060a01b038154169182815260018060a01b03600183015416806020830152600283015480604084015260038401548060608501526004850154908160808601526005860154928360a08701526006870154948560c08801526007880154968760e08201528a60018060a01b0360088b015416998a610100840152600960018060a01b0391015416910152604051988952602089015260408801526060870152608086015260a085015260c084015260e0830152610100820152f35b3461018457610160366003190112610184576107246110f9565b5060a03660231901126101845760603660c319011261018457610144356001600160401b0381116101845761075d903690600401611165565b907f00000000000000000000000000000000000000000000000000000000000000006001600160a01b0316330361023b5761079a91810190612635565b80516001600160a01b039081165f818152600360209081526040909120600881015460099091015491909401519193908316926107da9281169116611fd4565b91805f526003602052600660405f2001541515806108b5575b61080e575b6040805163b47b2fb160e01b81525f6020820152f35b5f81815260036020819052604090912060068101546007820154600283015492909301546108ad9661084f96919492916001600160a01b0390911690611573565b9061088360409182516108628482611364565b600f81526e03932b9b2b93b329039b434b33a1d1608d1b6020820152612b9b565b61088f81519182611364565b600c81526b03a37b5b2b710313ab9371d160a51b6020820152612b9b565b8080806107f8565b50805f526003602052600760405f20015415156107f3565b346101845760c0366003190112610184576108e66110f9565b6024356001600160401b038111610184576109059036906004016113a0565b6044356001600160401b038111610184576109249036906004016113a0565b9161092d61113b565b608435906001600160a01b038216820361018457610341946103359460a435946117cb565b346101845761096036611245565b5050507f00000000000000000000000000000000000000000000000000000000000000006001600160a01b03163303935061023b9250505057630a85dc2960e01b5f5260045ffd5b34610184576020366003190112610184576004356001600160401b038111610184576109d8903690600401611165565b7f0000000000000000000000000000000000000000000000000000000000000000906001600160a01b038216330361023b57826080918101031261018457604051610ac892610a26826112e2565b610ab48135808452610a9e610a3d60208501611151565b610a836020870193828552610a676060610a5960408a01611151565b9860408b01998a5201611151565b60608901818152936001600160a01b03918216918b91166126e1565b845190518651916001600160a01b03918216918991166126e1565b51835190309086906001600160a01b0316612967565b5190519130916001600160a01b0316612967565b610341604051610ad9602082611364565b5f81526040519182916020835260208301906112be565b34610184575f366003190112610184576020604051633b9aca008152f35b34610184576020366003190112610184576001600160a01b03610b2f6110f9565b165f525f602052602060ff60405f2054166040519015158152f35b346101845761010036600319011261018457610b646110f9565b5060a036602319011261018457610b796110e3565b506102786112ae565b3461018457610b90366111f5565b6001600160a01b039384165f9081526003602052604090209293909290610bb686611792565b16936001600160a01b03610bcc60208801611792565b83546001600160a01b03169687149691168615610c06575b505060205f91013512935f14610bfd576103c0946126a3565b6103e29461266b565b14945060205f610be4565b346101845760203660031901126101845760043580633b9aca000290633b9aca00820403610c5f57670de0b6b3a76400009004650574fbde60008101809111610c5f57602090604051908152f35b634e487b7160e01b5f52601160045260245ffd5b346101845761014036600319011261018457610c8d6110f9565b60a03660231901126101845760603660c319011261018457610124356001600160401b03811161018457610cc5903690600401611165565b91907f00000000000000000000000000000000000000000000000000000000000000006001600160a01b0316330361023b5760e435925f84131561101857610d1a84925b6001600160a01b0392810190612635565b5116916024359160018060a01b038316928381141594856101845760018060a01b0360045416851493815f52600260205260405f2054421015610fd35760c43580151581036101845715610e0357505f52600360205260405f20946101845750604435946001600160a01b03861693848703610184578554606097506001600160a01b0316908114948515610df9575b50505f139215610de957610dbf9360246129ed565b6001600160801b03169060801b175b604051906315d7892d60e21b825260208201525f6040820152f35b610df49360246129b5565b610dbf565b1493505f87610daa565b5f918252600360205260409091209096929550936044356001600160a01b03811694939250848103610184575084546001600160a01b0316908114938415610fc9575b50505f1393849215610fb857610e5d9360246126a3565b915b60405193608083901b6001600160801b038516179390602086016001600160a01b03610e8961110f565b1681526001600160a01b03610e9c611125565b16604088015260643562ffffff81168091036101845760608801526084358060020b80910361018457608088015260a4356001600160a01b03811697908890036101845760609760a082015260a08152610ef760c082611364565b5190209215610f5f5760408051600f95860b81529290940b60208301525f93820184905260608201939093526001600160a01b03909216917f365f10e9e7ce45d7acfd986c42e0b666f8af282e440e6dafc78c1f2b2f7867609080608081015b0390a3610dce565b60408051600f93840b81529490920b60208501525f91840182905260608401919091526001600160a01b0316917f365f10e9e7ce45d7acfd986c42e0b666f8af282e440e6dafc78c1f2b2f786760908060808101610f57565b610fc393602461266b565b91610e5f565b1492505f87610e46565b60405162461bcd60e51b815260206004820152601760248201527f506169722065787069726564212c2072657365742069740000000000000000006044820152606490fd5b610d1a61102485612625565b92610d09565b346101845760e036600319011261018457604061105f6110486110e3565b60a435608435606435604435602435600435611573565b82519182526020820152f35b34610184575f3660031901126101845760206040516acecb8f27f4200f3a0000008152f35b346101845761109e36611192565b5050507f00000000000000000000000000000000000000000000000000000000000000006001600160a01b03163303915061023b90505762c890a560e31b5f5260045ffd5b60c435906001600160a01b038216820361018457565b600435906001600160a01b038216820361018457565b602435906001600160a01b038216820361018457565b604435906001600160a01b038216820361018457565b606435906001600160a01b038216820361018457565b35906001600160a01b038216820361018457565b9181601f84011215610184578235916001600160401b038311610184576020838186019501011161018457565b90610160600319830112610184576004356001600160a01b0381168103610184579160a060231982011261018457602491608060c3198301126101845760c49161014435906001600160401b038211610184576111f191600401611165565b9091565b600319810161016081126101845760a0136101845760049160a4356001600160a01b0381168103610184576060909260c31901126101845760c49061012435906101443580151581036101845790565b906101a0600319830112610184576004356001600160a01b0381168103610184579160a060231982011261018457602491608060c3198301126101845760c4916101443591610164359161018435906001600160401b038211610184576111f191600401611165565b60e435908160020b820361018457565b805180835260209291819084018484015e5f828201840152601f01601f1916010190565b608081019081106001600160401b038211176112fd57604052565b634e487b7160e01b5f52604160045260245ffd5b61014081019081106001600160401b038211176112fd57604052565b6101c081019081106001600160401b038211176112fd57604052565b604081019081106001600160401b038211176112fd57604052565b90601f801991011681019081106001600160401b038211176112fd57604052565b6001600160401b0381116112fd57601f01601f191660200190565b9080601f8301121561018457604091604051926113be604085611364565b8360408301928484116101845780915b8483106113de5750505050505090565b82356001600160401b03811161018457820186601f820112156101845780359161140783611385565b61141387519182611364565b8381528860208585010111610184575f60208581968280970183860137830101528152019201916113ce565b919060408301925f905b6002821061145657505050565b82516001600160a01b031681526020928301926001929092019101611449565b610120600319820112610184576004356001600160a01b0381168103610184579160a06023198301126101845760249160c4359160e4359161010435906001600160401b038211610184576111f191600401611165565b81810292918115918404141715610c5f57565b81156114ea570490565b634e487b7160e01b5f52601260045260245ffd5b1561150557565b60405162461bcd60e51b815260206004820152602660248201527f726573657276652073686966742073686f756c6420626520677265617465722060448201526507468616e20360d41b6064820152608490fd5b91908201809211610c5f57565b91908203918211610c5f57565b969593949681811180611781575b1561167257505080666a94d74f43000002666a94d74f43000081048203610c5f57670de0b6b3a76400006115c29104946115bc8615156114fe565b856114cd565b60018201809211610c5f576115e1916115da916114e0565b95846114cd565b9060018101809111610c5f576115f6916114e0565b9060018060a01b0316805f526003602052600660405f2001611619848254611566565b9055805f526003602052600760405f2001611635848254611559565b9055805f526003602052600460405f2001611651868254611566565b90555f52600360205261166c600560405f2001918254611559565b90559190565b969493969291921080611770575b156117645780666a94d74f43000002666a94d74f43000081048203610c5f57670de0b6b3a76400006116b99104946115bc8615156114fe565b60018201809211610c5f576116d8916116d1916114e0565b92846114cd565b9060018101809111610c5f576116ed916114e0565b9360018060a01b031690815f526003602052600660405f2001611711848254611559565b9055815f526003602052600760405f200161172d848254611566565b9055815f526003602052611749600560405f2001918254611566565b90555f526003602052600460405f200161166c848254611559565b5050505090505f905f90565b50670de0b6b3a76400008111611680565b50670de0b6b3a76400008311611581565b356001600160a01b03811681036101845790565b9060028110156117b75760051b0190565b634e487b7160e01b5f52603260045260245ffd5b92909194936040938480516117e08282611364565b36903760018060a01b031692835f525f60205260ff855f205416158015611c96575b15611c5e57835f525f602052845f20600160ff19825416179055835f52600160205242855f20556118338642611559565b845f526002602052855f205584519661184c8689611364565b85368937613a51610b7f5f5b60028110611b6f57505050505061186f9082611fd4565b8551602087018051865191966001600160a01b039182169590949293600993921661189985611311565b8452602084019586528484015f8152606085015f8152608086015f815260a08701905f825260c08801925f845260e08901945f86526101008a019660018060a01b031687526101208a019760018060a01b03169b8c89528d5f5260036020528b5f209a60018060a01b039060018060a01b03905116166001600160601b0360a01b8c5416178b5560018060a01b0390511660018b019060018060a01b03166001600160601b0360a01b8254161790555160028a015551600389015551600488015551600587015551600686015551600785015560018060a01b03905116600884019060018060a01b03166001600160601b0360a01b82541617905560018060a01b0390511691019060018060a01b03166001600160601b0360a01b825416179055611a5d5f60018060a01b0388511660018060a01b03875116606085516119df816112e2565b6acecb8f27f4200f3a0000008082526020808301958652888301948552309390920192835287519182015292516001600160a01b039081168488015291518216606084015251166080808301919091528152611a3c60a082611364565b8351809381926348c8949160e01b83526020600484015260248301906112be565b0381837f00000000000000000000000000000000000000000000000000000000000000006001600160a01b03165af18015611b6557611aee575b50855193516001600160a01b03908116959416937f560daaa031b8b3b2e5f80ba407405817b87a0643c3dfdda220be3c7f1e1cb0d39260609291611adb9042611559565b918051924284526020840152820152a490565b903d805f843e611afe8184611364565b820191602081840312610184578051906001600160401b03821161018457019282601f8501121561018457611b5c6060938560207f560daaa031b8b3b2e5f80ba407405817b87a0643c3dfdda220be3c7f1e1cb0d397519101611caa565b50925090611a97565b82513d5f823e3d90fd5b611b7981866117a6565b51611b8482866117a6565b518a5191848301908382106001600160401b038311176112fd578c611bcc8594611bbe62015180948a8c89396060875260608701906112be565b9085820360208701526112be565b92015203905ff08015611c54576001600160a01b031680611bed838e6117a6565b52803b15610184575f809160448c51809481936340c10f1960e01b83523060048401526acecb8f27f4200f3a00000060248401525af18015611c4a579060019291611c3a575b5001611858565b5f611c4491611364565b5f611c33565b8a513d5f823e3d90fd5b89513d5f823e3d90fd5b845162461bcd60e51b815260206004820152601160248201527050616972207374696c6c2061637469766560781b6044820152606490fd5b50835f526002602052845f20544211611802565b929192611cb682611385565b91611cc46040519384611364565b829481845281830111610184578281602093845f96015e010152565b602081830312610184578051906001600160401b03821161018457019080601f83011215610184578151611d1692602001611caa565b90565b919092604093848051611d2c8282611364565b36903760018060a01b03841691825f525f602052600160ff875f205416151503611f4457825f526002602052855f205442115f14611f0d575f8381526003602052869020805460019091015487516001600160a01b0391821697919092169591611d9581611349565b88516306fdde0360e01b81525f816004818b5afa908115611c4a575f91611ef3575b50815288516306fdde0360e01b81525f816004818c5afa908115611c4a575f91611ed9575b506020820152885191611dee83611349565b89516395d89b4160e01b81525f816004818c5afa908115611eb5575f91611ebf575b50835289516395d89b4160e01b81525f816004818d5afa908115611eb557917fcb3fbe718785507e72e2e217e13371632ac8bdcd85c308ca838df4f28bdd49e097959391611e6c9795935f91611e93575b5060208401526117cb565b94825f52600360205260018060a01b036009825f200154168151908152426020820152a490565b611eaf91503d805f833e611ea78183611364565b810190611ce0565b5f611e61565b8b513d5f823e3d90fd5b611ed391503d805f833e611ea78183611364565b5f611e10565b611eed91503d805f833e611ea78183611364565b5f611ddc565b611f0791503d805f833e611ea78183611364565b5f611db7565b855162461bcd60e51b815260206004820152601060248201526f14185a5c881b9bdd08195e1c1a5c995960821b6044820152606490fd5b855162461bcd60e51b815260206004820152601260248201527114185a5c881b9bdd081a5b9a5d1a585d195960721b6044820152606490fd5b51908160020b820361018457565b519061ffff8216820361018457565b519060ff8216820361018457565b5190811515820361018457565b9081602091031261018457516001600160a01b03811681036101845790565b604051630d34328160e11b81526001600160a01b039190911690602081600481855afa90811561243a575f916125e3575b50604051633850c7bd60e01b81529060e082600481865afa91821561243a575f92612552575b506040516334324e9f60e21b8152602081600481875afa90811561243a575f91612518575b50604051630dfe168160e01b815293602085600481845afa94851561243a575f956124f7575b5060405163d21220a760e01b815294602086600481855afa91821561243a576004965f936124c5575b506020906040519788809263ddca3f4360e01b82525afa95861561243a575f96612484575b5060405163313ce56760e01b815290602090829060049082906001600160a01b03165afa801561243a57612445575b5060405163313ce56760e01b815290602090829060049082906001600160a01b03165afa801561243a57612403575b505f928060020b9160020b9283156114ea57627fffff1983145f19851416610c5f578380840560020b02938460020b948503610c5f57840193627fffff8513627fffff19861217610c5f576121f56001600160801b0361219461218e6121885f95612ec1565b98612ec1565b95612ec1565b6001600160a01b0380821696919592909216916121ef916121d591889116808281116123f8575b50806121ca6121d09284611566565b866136c1565b61349e565b976001600160a01b031686818181116123ed575b50611566565b906114cd565b60601c9312156123bd5761221c91906001600160a01b039061221690612acc565b166135d5565b80156114ea576122be93156123ab57612250929161224b916ec097ce7bc90715b34b9f100000000004906114cd565b611559565b6122b86024915b6122a961229a6103e862ffffff604098612292868b516122778d82611364565b60098152686c697175696469747960b81b6020820152612b9b565b160497612acc565b936001600160a01b0316612af6565b906001600160a01b0316612b7c565b90612b7c565b6001600160a01b038116925f600385111561239b575090928391906001016001600160a01b038111610c5f5760011c60016001609f1b0316935b6001600160a01b038581169190811682101561234157506123198584612b7c565b6001600160a01b0390811691909101908111610c5f5760011c60016001609f1b0316936122f8565b92505092505b60019290921b6301fffffe16916001600160a01b039081168381029091169280159084049091141715610c5f5781611d169161238581519182611364565b6004815263034bb1d160e51b6020820152612b9b565b9150921561234757506001612347565b61224b906123b8936114cd565b612250565b506123cb91929350806135d5565b9081156114ea5761224b6123e2926122be946114cd565b6122b8601291612257565b91505086905f6121e9565b9190506121d06121bb565b6020813d602011612432575b8161241c60209383611364565b810103126101845761242d90611f9a565b612122565b3d915061240f565b6040513d5f823e3d90fd5b6020813d60201161247c575b8161245e60209383611364565b8101031261018457600491612474602092611f9a565b5091506120f3565b3d9150612451565b9095506020813d6020116124bd575b816124a060209383611364565b81010312610184575162ffffff81168103610184579460206120c4565b3d9150612493565b60209193506124e990823d84116124f0575b6124e18183611364565b810190611fb5565b929061209f565b503d6124d7565b61251191955060203d6020116124f0576124e18183611364565b935f612076565b90506020813d60201161254a575b8161253360209383611364565b810103126101845761254490611f7d565b5f612050565b3d9150612526565b90915060e0813d60e0116125db575b8161256e60e09383611364565b810103126101845780516001600160a01b03811603610184576125d360c061259860208401611f7d565b926125a560408201611f8b565b506125b260608201611f8b565b506125bf60808201611f8b565b506125cc60a08201611f9a565b5001611fa8565b50905f61202b565b3d9150612561565b90506020813d60201161261d575b816125fe60209383611364565b8101031261018457516001600160801b0381168103610184575f612005565b3d91506125f1565b600160ff1b8114610c5f575f0390565b908160409103126101845761266360206040519261265284611349565b61265b81611151565b845201611151565b602082015290565b93919290911561268c5715612683576111f192612d78565b6111f192612d0f565b1561269a576111f192612c4e565b6111f192612c12565b9391929091156126c457156126bb576111f192612e84565b6111f192612e24565b1561269a576111f192612dbc565b90816020910312610184575190565b6001600160a01b0316939291846127505750604051630476982d60e21b8152929350602091839160049183916001600160a01b03165af1801561243a576127255750565b6127469060203d602011612749575b61273e8183611364565b8101906126d2565b50565b503d612734565b916001600160a01b0390911690813b1561018457604051632961046560e21b815260048101869052925a935f816024818388819af1801561243a576128eb575b506001600160a01b031630811461285f579060646020928560405198899485936323b872dd60e01b8552600485015287602485015260448401525af193841561285457829394612810575b506020905b600460405180958193630476982d60e21b83525af190811561280457506127255750565b604051903d90823e3d90fd5b9091506020813d60201161284c575b8161282c60209383611364565b81010312612848578291612841602092611fa8565b50906127db565b8280fd5b3d915061281f565b6040513d84823e3d90fd5b5060405163a9059cbb60e01b81526001600160a01b03831660048201526024810191909152936020908590604490829086905af1938415612854578293946128ab575b506020906127e0565b9091506020813d6020116128e3575b816128c760209383611364565b810103126128485782916128dc602092611fa8565b50906128a2565b3d91506128ba565b6128f89194505f90611364565b5f925f612790565b9192906001600160a01b0316803b1561018457604051637a94c56560e11b81526001600160a01b03948516600482015293909216602484015260448301525f908290818381606481015b03925af1801561243a5761295b5750565b5f61296591611364565b565b9192906001600160a01b0316803b1561018457604051630ab714fb60e11b81526001600160a01b03948516600482015293909216602484015260448301525f9082908183816064810161294a565b9391929091156129d657156129cd576111f192612d0f565b6111f192612d78565b156129e4576111f192612c12565b6111f192612c4e565b939192909115612a0e5715612a05576111f192612e24565b6111f192612e84565b9193929115612ac1576001600160801b0384612ab08183956006866002612ab99801612a5785612a4083549e8f61371f565b9d60048501612a50838254611559565b9055611559565b905501612a658a8254611559565b9055612a7081611792565b612a9e8a7f000000000000000000000000000000000000000000000000000000000000000092833091612967565b612aab6020309301611792565b612900565b16600f0b612bf2565b9216600f0b90565b6111f1929391612dbc565b6001600160a01b03908116670de0b6b3a764000081810290921692918184041490151715610c5f57565b8015612b765760208110600116604e821060011617612b62576001600a915b60018111612b3357506001600160a01b038290048111610c5f570290565b916001600160a01b038190048111610c5f5760018316612b59575b80029160011c612b15565b80910290612b4e565b600a0a906001600160a01b038211610c5f57565b50600190565b6001600160a01b039091169081156114ea576001600160a01b03160490565b5f91908291612bdf6040518092612bcb6020830195632d839cb360e21b87526040602485015260648401906112be565b90604483015203601f198101835282611364565b51906a636f6e736f6c652e6c6f675afa50565b600f0b6f7fffffffffffffffffffffffffffffff198114610c5f575f0390565b6001600160801b0383612ab081612ab9946007859799989960038101612a5785612c3e83549e8f61371f565b9d60058501612a50838254611559565b929190926003840191825490612c648183613808565b95670de0b6b3a7640000870296808804670de0b6b3a76400001490151715610c5f5786612ab9946007612ab0936001600160801b0398612ca5858b99611566565b905560058101612cb6858254611566565b905501612cc4858254611566565b9055612ccf81611792565b612cfd857f000000000000000000000000000000000000000000000000000000000000000092833091612900565b612d0a6020309301611792565b612967565b9291926003820191825490612d248683613808565b90670de0b6b3a7640000820291808304670de0b6b3a76400001490151715610c5f5781612d6f946007836001600160801b0398612a57858b996005612ab09901612a50838254611559565b9216600f0b9190565b6001600160801b038092612ab085612d6f9497969760076003850194855495612cb685612da5818a6139af565b9860058501612db5838254611566565b9055611566565b929190926002840191825490612dd28183613808565b95670de0b6b3a7640000870296808804670de0b6b3a76400001490151715610c5f5786612ab9946006612ab0936001600160801b0398612e13858b99611566565b905560048101612cb6858254611566565b9291926002820191825490612e398683613808565b90670de0b6b3a7640000820291808304670de0b6b3a76400001490151715610c5f5781612d6f946006836001600160801b0398612a57858b996004612ab09901612a50838254611559565b6001600160801b038092612ab085612d6f9497969760066002850194855495612cb685612eb1818a6139af565b9860048501612db5838254611566565b60020b5f81121561349857612ed581612625565b905b620d89e8821161346f57600182161561345d576001600160881b036ffffcb933bd6fad37aa2d162d1a5940015b169160028116613422575b600481166133e7575b600881166133ac575b60108116613371575b60208116613336575b604081166132fb575b608081166132c0575b6101008116613285575b610200811661324a575b610400811661320f575b61080081166131d4575b6110008116613199575b612000811661315e575b6140008116613123575b61800081166130e8575b6201000081166130ad575b620200008116613074575b62040000811661303d575b620800001661300a575b5f12612ffc575b63ffffffff8116612ff157612fed5f915b6001600160a01b039260ff169060201c611559565b1690565b612fed600191612fd8565b80156114ea575f1904612fc7565b906b048a170391f7dc42444e8fa28102908082046b048a170391f7dc42444e8fa21490151715610c5f5760801c90612fc0565b916d2216e584f5fa1ea926041bedfe988102908082046d2216e584f5fa1ea926041bedfe981490151715610c5f5760801c91612fb6565b916e5d6af8dedb81196699c329225ee6048102908082046e5d6af8dedb81196699c329225ee6041490151715610c5f5760801c91612fab565b916f09aa508b5b7a84e1c677de54f3e99bc98102908082046f09aa508b5b7a84e1c677de54f3e99bc91490151715610c5f5760801c91612fa0565b916f31be135f97d08fd981231505542fcfa68102908082046f31be135f97d08fd981231505542fcfa61490151715610c5f5760801c91612f95565b916f70d869a156d2a1b890bb3df62baf32f78102908082046f70d869a156d2a1b890bb3df62baf32f71490151715610c5f5760801c91612f8b565b916fa9f746462d870fdf8a65dc1f90e061e58102908082046fa9f746462d870fdf8a65dc1f90e061e51490151715610c5f5760801c91612f81565b916fd097f3bdfd2022b8845ad8f792aa58258102908082046fd097f3bdfd2022b8845ad8f792aa58251490151715610c5f5760801c91612f77565b916fe7159475a2c29b7443b29c7fa6e889d98102908082046fe7159475a2c29b7443b29c7fa6e889d91490151715610c5f5760801c91612f6d565b916ff3392b0822b70005940c7a398e4b70f38102908082046ff3392b0822b70005940c7a398e4b70f31490151715610c5f5760801c91612f63565b916ff987a7253ac413176f2b074cf7815e548102908082046ff987a7253ac413176f2b074cf7815e541490151715610c5f5760801c91612f59565b916ffcbe86c7900a88aedcffc83b479aa3a48102908082046ffcbe86c7900a88aedcffc83b479aa3a41490151715610c5f5760801c91612f4f565b916ffe5dee046a99a2a811c461f1969c30538102908082046ffe5dee046a99a2a811c461f1969c30531490151715610c5f5760801c91612f45565b916fff2ea16466c96a3843ec78b326b528618102908082046fff2ea16466c96a3843ec78b326b528611490151715610c5f5760801c91612f3c565b916fff973b41fa98c081472e6896dfb254c08102908082046fff973b41fa98c081472e6896dfb254c01490151715610c5f5760801c91612f33565b916fffcb9843d60f6159c9db58835c9266448102908082046fffcb9843d60f6159c9db58835c9266441490151715610c5f5760801c91612f2a565b916fffe5caca7e10e4e61c3624eaa0941cd08102908082046fffe5caca7e10e4e61c3624eaa0941cd01490151715610c5f5760801c91612f21565b916ffff2e50f5f656932ef12357cf3c7fdcc8102908082046ffff2e50f5f656932ef12357cf3c7fdcc1490151715610c5f5760801c91612f18565b916ffff97272373d413259a46990580e213a8102908082046ffff97272373d413259a46990580e213a1490151715610c5f5760801c91612f0f565b6001600160881b03600160801b612f04565b60405162461bcd60e51b81526020600482015260016024820152601560fa1b6044820152606490fd5b80612ed7565b5f19600160601b8209918160601b918280851094039380850394146135c85783821115610184578190600160601b9009811960018101809111610c5f576134f890831680930494600184805f0304019085841190036114cd565b9203041781600302600381048303610c5f5760021861351781846114cd565b60020360028111610c5f5761352b916114cd565b61353581846114cd565b60020360028111610c5f57613549916114cd565b61355381846114cd565b60020360028111610c5f57613567916114cd565b61357181846114cd565b60020360028111610c5f57613585916114cd565b61358f81846114cd565b6002039060028211610c5f576135af916135a8916114cd565b80936114cd565b6002039160028311610c5f57611d16926121ef916114cd565b5080925015610184570490565b5f91905f1982820990828102928380841093039280840393146136b657600160c01b8310156136b2578491600160c01b9190099361369e575068010000000000000000908284119003818102918183041490151715610c5f576136396001806114cd565b8060020360028111610c5f5761364e916114cd565b8060020360028111610c5f57613663916114cd565b8060020360028111610c5f57613678916114cd565b92836002039360028511610c5f57611d1694613693916114cd565b920360c01c176114cd565b634e487b7160e01b81526011600452602490fd5b8480fd5b505050905060c01c90565b915f198284099282810292838086109503948086039514613711578483111561018457829109811960018101809111610c5f576134f890831680930494600184805f0304019085841190036114cd565b505080925015610184570490565b633b9aca00908082029082820403610c5f5761374683670de0b6b3a76400008093046114cd565b0482820291808304841490151715610c5f57671bc16d674ec8000061377884670de0b6b3a764000061377f95046114cd565b0490611559565b650574fbde60008281029290830403610c5f57670de0b6b3a76400006137a6920490611559565b670de0b6b3a763d8f090818102918183041490151715610c5f57670de0b6b3a7640000900490565b81810292915f8212600160ff1b821416610c5f578184051490151715610c5f57565b81810392915f138015828513169184121617610c5f57565b90801561396a57670de0b6b3a76400008102908104670de0b6b3a764000003610c5f57633b9aca00670de0b6b3a764000090920482810292670de0b6b3a764271090920491830403610c5f57650574fbde60008201809211610c5f5761386d90612625565b9061387881806137ce565b631dcd65009290637735940061389792613891916137ce565b906137f0565b905f821261391b576138ab6138b092613a0f565b6137f0565b8160011b916002830503610c5f5781156114ea57600160ff1b81145f19831416610c5f57055f81126138df5790565b60405162461bcd60e51b8152602060048201526014602482015273125b9d985b1a59081d1bdad95b88185b5bdd5b9d60621b6044820152606490fd5b60405162461bcd60e51b815260206004820152602160248201527f4469736372696d696e616e74206d757374206265206e6f6e2d6e6567617469766044820152606560f81b6064820152608490fd5b60405162461bcd60e51b815260206004820152601e60248201527f436f7374206d7573742062652067726561746572207468616e207a65726f00006044820152606490fd5b633b9aca00908082029082820403610c5f576139d683670de0b6b3a76400008093046114cd565b0482820291808304841490151715610c5f57671bc16d674ec80000613a0884670de0b6b3a764000061377f95046114cd565b0490611566565b908115613a4b5760018201808311610c5f5760011c825b838210613a31575050565b909250613a428361224b81846114e0565b60011c90613a26565b5f915056fe60806040523461034e57610b7f8038038061001981610352565b92833981019060608183031261034e5780516001600160401b03811161034e5782610045918301610377565b60208201519092906001600160401b03811161034e57604091610069918401610377565b91015182516001600160401b03811161025f57600354600181811c91168015610344575b602082101461024157601f81116102e1575b506020601f821160011461027e57819293945f92610273575b50508160011b915f199060031b1c1916176003555b81516001600160401b03811161025f57600454600181811c91168015610255575b602082101461024157601f81116101de575b50602092601f821160011461017d57928192935f92610172575b50508160011b915f199060031b1c1916176004555b600580546001600160a01b031916331790554290810190811061015e576006556040516107b690816103c98239f35b634e487b7160e01b5f52601160045260245ffd5b015190505f8061011a565b601f1982169360045f52805f20915f5b8681106101c657508360019596106101ae575b505050811b0160045561012f565b01515f1960f88460031b161c191690555f80806101a0565b9192602060018192868501518155019401920161018d565b60045f527f8a35acfbc15ff81a39ae7d344fd709f28e8600b4aa8c65c6b64bfe7fe36bd19b601f830160051c81019160208410610237575b601f0160051c01905b81811061022c5750610100565b5f815560010161021f565b9091508190610216565b634e487b7160e01b5f52602260045260245ffd5b90607f16906100ee565b634e487b7160e01b5f52604160045260245ffd5b015190505f806100b8565b601f1982169060035f52805f20915f5b8181106102c9575095836001959697106102b1575b505050811b016003556100cd565b01515f1960f88460031b161c191690555f80806102a3565b9192602060018192868b01518155019401920161028e565b60035f527fc2575a0e9e593c00f959f8c92f12db2869c3395a3b0502d05e2516446f71f85b601f830160051c8101916020841061033a575b601f0160051c01905b81811061032f575061009f565b5f8155600101610322565b9091508190610319565b90607f169061008d565b5f80fd5b6040519190601f01601f191682016001600160401b0381118382101761025f57604052565b81601f8201121561034e578051906001600160401b03821161025f576103a6601f8301601f1916602001610352565b928284526020838301011161034e57815f9260208093018386015e830101529056fe6080806040526004361015610012575f80fd5b5f3560e01c90816306fdde031461055857508063095ea7b3146104d657806318160ddd146104b957806323b872dd146103da578063313ce567146103bf57806336654887146103a257806340c10f191461029f57806370a08231146102685780638da5cb5b1461024057806395d89b4114610125578063a9059cbb146100f45763dd62ed3e146100a0575f80fd5b346100f05760403660031901126100f0576100b9610651565b6100c1610667565b6001600160a01b039182165f908152600160209081526040808320949093168252928352819020549051908152f35b5f80fd5b346100f05760403660031901126100f05761011a610110610651565b60243590336106c9565b602060405160018152f35b346100f0575f3660031901126100f0576040515f6004548060011c90600181168015610236575b6020831081146102225782855290811561020657506001146101b1575b50819003601f01601f191681019067ffffffffffffffff82118183101761019d5761019982918260405282610627565b0390f35b634e487b7160e01b5f52604160045260245ffd5b905060045f527f8a35acfbc15ff81a39ae7d344fd709f28e8600b4aa8c65c6b64bfe7fe36bd19b5f905b8282106101f057506020915082010182610169565b60018160209254838588010152019101906101db565b90506020925060ff191682840152151560051b82010182610169565b634e487b7160e01b5f52602260045260245ffd5b91607f169161014c565b346100f0575f3660031901126100f0576005546040516001600160a01b039091168152602090f35b346100f05760203660031901126100f0576001600160a01b03610289610651565b165f525f602052602060405f2054604051908152f35b346100f05760403660031901126100f0576102b8610651565b60055460243591906001600160a01b03163303610370576102dc600654421061067d565b6001600160a01b031690811561035d576102f9600654421061067d565b600254908082018092116103495760207fddf252ad1be2c89b69c2b068fc378daa952ba7f163c4a11628f55a4df523b3ef915f9360025584845283825260408420818154019055604051908152a3005b634e487b7160e01b5f52601160045260245ffd5b63ec442f0560e01b5f525f60045260245ffd5b60405162461bcd60e51b815260206004820152600a60248201526927a7262c9027aba722a960b11b6044820152606490fd5b346100f0575f3660031901126100f0576020600654604051908152f35b346100f0575f3660031901126100f057602060405160128152f35b346100f05760603660031901126100f0576103f3610651565b6103fb610667565b6001600160a01b0382165f818152600160209081526040808320338452909152902054909260443592915f198110610439575b5061011a93506106c9565b83811061049e57841561048b5733156104785761011a945f52600160205260405f2060018060a01b0333165f526020528360405f20910390558461042e565b634a1406b160e11b5f525f60045260245ffd5b63e602df0560e01b5f525f60045260245ffd5b8390637dc7a0d960e11b5f523360045260245260445260645ffd5b346100f0575f3660031901126100f0576020600254604051908152f35b346100f05760403660031901126100f0576104ef610651565b60243590331561048b576001600160a01b031690811561047857335f52600160205260405f20825f526020528060405f20556040519081527f8c5be1e5ebec7d5bd14f71427d1e84f3dd0314c0f7b2291e5b200ac8c7c3b92560203392a3602060405160018152f35b346100f0575f3660031901126100f0575f6003548060011c9060018116801561061d575b6020831081146102225782855290811561020657506001146105c85750819003601f01601f191681019067ffffffffffffffff82118183101761019d5761019982918260405282610627565b905060035f527fc2575a0e9e593c00f959f8c92f12db2869c3395a3b0502d05e2516446f71f85b5f905b82821061060757506020915082010182610169565b60018160209254838588010152019101906105f2565b91607f169161057c565b602060409281835280519182918282860152018484015e5f828201840152601f01601f1916010190565b600435906001600160a01b03821682036100f057565b602435906001600160a01b03821682036100f057565b1561068457565b60405162461bcd60e51b815260206004820152601d60248201527f544f4b454e20455850495245442c204d494e54494e4720434c4f5345440000006044820152606490fd5b6001600160a01b031690811561076d576001600160a01b031691821561035d576106f6600654421061067d565b815f525f60205260405f205481811061075457817fddf252ad1be2c89b69c2b068fc378daa952ba7f163c4a11628f55a4df523b3ef92602092855f525f84520360405f2055845f525f825260405f20818154019055604051908152a3565b8263391434e360e21b5f5260045260245260445260645ffd5b634b637e8f60e11b5f525f60045260245ffdfea2646970667358221220abfda25689cbcef33723c8b5f385780cf200176a90814075bd637963d3ea454f64736f6c634300081a0033a264697066735822122017e4eb37c5948a518d2310dc26f36b7c49bf22625bf280062a4c56cf2a09ed0f64736f6c634300081a0033","linkReferences":{}},"methodIdentifiers":{"BASE_PRICE()":"f86325ed","FEE()":"c57981b5","IV_TOKEN_SUPPLY()":"36808a7c","RESERVE_SHIFT_SLOPE()":"fc63b1fd","SLOPE()":"8b7cc629","afterAddLiquidity(address,(address,address,uint24,int24,address),(int24,int24,int256,bytes32),int256,int256,bytes)":"9f063efc","afterDonate(address,(address,address,uint24,int24,address),uint256,uint256,bytes)":"e1b4af69","afterInitialize(address,(address,address,uint24,int24,address),uint160,int24)":"6fe7e6eb","afterRemoveLiquidity(address,(address,address,uint24,int24,address),(int24,int24,int256,bytes32),int256,int256,bytes)":"6c2bbe7e","afterSwap(address,(address,address,uint24,int24,address),(bool,int256,uint160),int256,bytes)":"b47b2fb1","baseToken()":"c55dae63","beforeAddLiquidity(address,(address,address,uint24,int24,address),(int24,int24,int256,bytes32),bytes)":"259982e5","beforeDonate(address,(address,address,uint24,int24,address),uint256,uint256,bytes)":"b6a8b0fa","beforeInitialize(address,(address,address,uint24,int24,address),uint160)":"dc98354e","beforeRemoveLiquidity(address,(address,address,uint24,int24,address),(int24,int24,int256,bytes32),bytes)":"21d0ee70","beforeSwap(address,(address,address,uint24,int24,address),(bool,int256,uint160),bytes)":"575e24b4","calculateIv(address,uint160)":"f68f3c57","deploy2Currency(address,string[2],string[2],address,uint160,uint256)":"a79a3478","getHookPermissions()":"c4e833ce","getVixData(address)":"b6780bf2","isPairInitiated(address)":"77295a8d","oneForZeroOperator((address,address,uint24,int24,address),address,(bool,int256,uint160),uint256,bool)":"5f40ef01","pairEndingTime(address)":"bb2ffdef","pairInitiatedTime(address)":"d111f97e","poolManager()":"dc4c90d3","resetPair(address,uint256,address,uint160)":"db6ba9d4","swapReserve(uint256,uint256,uint256,uint256,uint256,uint256,address)":"4c001a9e","unlockCallback(bytes)":"91dd7346","vixTokensPrice(uint256)":"591094e4","zeroForOneOperator((address,address,uint24,int24,address),address,(bool,int256,uint160),uint256,bool)":"d9a6eef9"},"id":106}