{"abi":[{"type":"constructor","inputs":[{"name":"_poolManager","type":"address","internalType":"contract IPoolManager"},{"name":"_baseToken","type":"address","internalType":"address"}],"stateMutability":"nonpayable"},{"type":"function","name":"afterAddLiquidity","inputs":[{"name":"sender","type":"address","internalType":"address"},{"name":"key","type":"tuple","internalType":"struct PoolKey","components":[{"name":"currency0","type":"address","internalType":"Currency"},{"name":"currency1","type":"address","internalType":"Currency"},{"name":"fee","type":"uint24","internalType":"uint24"},{"name":"tickSpacing","type":"int24","internalType":"int24"},{"name":"hooks","type":"address","internalType":"contract IHooks"}]},{"name":"params","type":"tuple","internalType":"struct IPoolManager.ModifyLiquidityParams","components":[{"name":"tickLower","type":"int24","internalType":"int24"},{"name":"tickUpper","type":"int24","internalType":"int24"},{"name":"liquidityDelta","type":"int256","internalType":"int256"},{"name":"salt","type":"bytes32","internalType":"bytes32"}]},{"name":"delta","type":"int256","internalType":"BalanceDelta"},{"name":"feesAccrued","type":"int256","internalType":"BalanceDelta"},{"name":"hookData","type":"bytes","internalType":"bytes"}],"outputs":[{"name":"","type":"bytes4","internalType":"bytes4"},{"name":"","type":"int256","internalType":"BalanceDelta"}],"stateMutability":"nonpayable"},{"type":"function","name":"afterDonate","inputs":[{"name":"sender","type":"address","internalType":"address"},{"name":"key","type":"tuple","internalType":"struct PoolKey","components":[{"name":"currency0","type":"address","internalType":"Currency"},{"name":"currency1","type":"address","internalType":"Currency"},{"name":"fee","type":"uint24","internalType":"uint24"},{"name":"tickSpacing","type":"int24","internalType":"int24"},{"name":"hooks","type":"address","internalType":"contract IHooks"}]},{"name":"amount0","type":"uint256","internalType":"uint256"},{"name":"amount1","type":"uint256","internalType":"uint256"},{"name":"hookData","type":"bytes","internalType":"bytes"}],"outputs":[{"name":"","type":"bytes4","internalType":"bytes4"}],"stateMutability":"nonpayable"},{"type":"function","name":"afterInitialize","inputs":[{"name":"sender","type":"address","internalType":"address"},{"name":"key","type":"tuple","internalType":"struct PoolKey","components":[{"name":"currency0","type":"address","internalType":"Currency"},{"name":"currency1","type":"address","internalType":"Currency"},{"name":"fee","type":"uint24","internalType":"uint24"},{"name":"tickSpacing","type":"int24","internalType":"int24"},{"name":"hooks","type":"address","internalType":"contract IHooks"}]},{"name":"sqrtPriceX96","type":"uint160","internalType":"uint160"},{"name":"tick","type":"int24","internalType":"int24"}],"outputs":[{"name":"","type":"bytes4","internalType":"bytes4"}],"stateMutability":"nonpayable"},{"type":"function","name":"afterRemoveLiquidity","inputs":[{"name":"sender","type":"address","internalType":"address"},{"name":"key","type":"tuple","internalType":"struct PoolKey","components":[{"name":"currency0","type":"address","internalType":"Currency"},{"name":"currency1","type":"address","internalType":"Currency"},{"name":"fee","type":"uint24","internalType":"uint24"},{"name":"tickSpacing","type":"int24","internalType":"int24"},{"name":"hooks","type":"address","internalType":"contract IHooks"}]},{"name":"params","type":"tuple","internalType":"struct IPoolManager.ModifyLiquidityParams","components":[{"name":"tickLower","type":"int24","internalType":"int24"},{"name":"tickUpper","type":"int24","internalType":"int24"},{"name":"liquidityDelta","type":"int256","internalType":"int256"},{"name":"salt","type":"bytes32","internalType":"bytes32"}]},{"name":"delta","type":"int256","internalType":"BalanceDelta"},{"name":"feesAccrued","type":"int256","internalType":"BalanceDelta"},{"name":"hookData","type":"bytes","internalType":"bytes"}],"outputs":[{"name":"","type":"bytes4","internalType":"bytes4"},{"name":"","type":"int256","internalType":"BalanceDelta"}],"stateMutability":"nonpayable"},{"type":"function","name":"afterSwap","inputs":[{"name":"sender","type":"address","internalType":"address"},{"name":"key","type":"tuple","internalType":"struct PoolKey","components":[{"name":"currency0","type":"address","internalType":"Currency"},{"name":"currency1","type":"address","internalType":"Currency"},{"name":"fee","type":"uint24","internalType":"uint24"},{"name":"tickSpacing","type":"int24","internalType":"int24"},{"name":"hooks","type":"address","internalType":"contract IHooks"}]},{"name":"params","type":"tuple","internalType":"struct IPoolManager.SwapParams","components":[{"name":"zeroForOne","type":"bool","internalType":"bool"},{"name":"amountSpecified","type":"int256","internalType":"int256"},{"name":"sqrtPriceLimitX96","type":"uint160","internalType":"uint160"}]},{"name":"delta","type":"int256","internalType":"BalanceDelta"},{"name":"hookData","type":"bytes","internalType":"bytes"}],"outputs":[{"name":"","type":"bytes4","internalType":"bytes4"},{"name":"","type":"int128","internalType":"int128"}],"stateMutability":"nonpayable"},{"type":"function","name":"baseToken","inputs":[],"outputs":[{"name":"","type":"address","internalType":"address"}],"stateMutability":"view"},{"type":"function","name":"beforeAddLiquidity","inputs":[{"name":"sender","type":"address","internalType":"address"},{"name":"key","type":"tuple","internalType":"struct PoolKey","components":[{"name":"currency0","type":"address","internalType":"Currency"},{"name":"currency1","type":"address","internalType":"Currency"},{"name":"fee","type":"uint24","internalType":"uint24"},{"name":"tickSpacing","type":"int24","internalType":"int24"},{"name":"hooks","type":"address","internalType":"contract IHooks"}]},{"name":"params","type":"tuple","internalType":"struct IPoolManager.ModifyLiquidityParams","components":[{"name":"tickLower","type":"int24","internalType":"int24"},{"name":"tickUpper","type":"int24","internalType":"int24"},{"name":"liquidityDelta","type":"int256","internalType":"int256"},{"name":"salt","type":"bytes32","internalType":"bytes32"}]},{"name":"hookData","type":"bytes","internalType":"bytes"}],"outputs":[{"name":"","type":"bytes4","internalType":"bytes4"}],"stateMutability":"nonpayable"},{"type":"function","name":"beforeDonate","inputs":[{"name":"sender","type":"address","internalType":"address"},{"name":"key","type":"tuple","internalType":"struct PoolKey","components":[{"name":"currency0","type":"address","internalType":"Currency"},{"name":"currency1","type":"address","internalType":"Currency"},{"name":"fee","type":"uint24","internalType":"uint24"},{"name":"tickSpacing","type":"int24","internalType":"int24"},{"name":"hooks","type":"address","internalType":"contract IHooks"}]},{"name":"amount0","type":"uint256","internalType":"uint256"},{"name":"amount1","type":"uint256","internalType":"uint256"},{"name":"hookData","type":"bytes","internalType":"bytes"}],"outputs":[{"name":"","type":"bytes4","internalType":"bytes4"}],"stateMutability":"nonpayable"},{"type":"function","name":"beforeInitialize","inputs":[{"name":"sender","type":"address","internalType":"address"},{"name":"key","type":"tuple","internalType":"struct PoolKey","components":[{"name":"currency0","type":"address","internalType":"Currency"},{"name":"currency1","type":"address","internalType":"Currency"},{"name":"fee","type":"uint24","internalType":"uint24"},{"name":"tickSpacing","type":"int24","internalType":"int24"},{"name":"hooks","type":"address","internalType":"contract IHooks"}]},{"name":"sqrtPriceX96","type":"uint160","internalType":"uint160"}],"outputs":[{"name":"","type":"bytes4","internalType":"bytes4"}],"stateMutability":"nonpayable"},{"type":"function","name":"beforeRemoveLiquidity","inputs":[{"name":"sender","type":"address","internalType":"address"},{"name":"key","type":"tuple","internalType":"struct PoolKey","components":[{"name":"currency0","type":"address","internalType":"Currency"},{"name":"currency1","type":"address","internalType":"Currency"},{"name":"fee","type":"uint24","internalType":"uint24"},{"name":"tickSpacing","type":"int24","internalType":"int24"},{"name":"hooks","type":"address","internalType":"contract IHooks"}]},{"name":"params","type":"tuple","internalType":"struct IPoolManager.ModifyLiquidityParams","components":[{"name":"tickLower","type":"int24","internalType":"int24"},{"name":"tickUpper","type":"int24","internalType":"int24"},{"name":"liquidityDelta","type":"int256","internalType":"int256"},{"name":"salt","type":"bytes32","internalType":"bytes32"}]},{"name":"hookData","type":"bytes","internalType":"bytes"}],"outputs":[{"name":"","type":"bytes4","internalType":"bytes4"}],"stateMutability":"nonpayable"},{"type":"function","name":"beforeSwap","inputs":[{"name":"sender","type":"address","internalType":"address"},{"name":"key","type":"tuple","internalType":"struct PoolKey","components":[{"name":"currency0","type":"address","internalType":"Currency"},{"name":"currency1","type":"address","internalType":"Currency"},{"name":"fee","type":"uint24","internalType":"uint24"},{"name":"tickSpacing","type":"int24","internalType":"int24"},{"name":"hooks","type":"address","internalType":"contract IHooks"}]},{"name":"params","type":"tuple","internalType":"struct IPoolManager.SwapParams","components":[{"name":"zeroForOne","type":"bool","internalType":"bool"},{"name":"amountSpecified","type":"int256","internalType":"int256"},{"name":"sqrtPriceLimitX96","type":"uint160","internalType":"uint160"}]},{"name":"hookData","type":"bytes","internalType":"bytes"}],"outputs":[{"name":"","type":"bytes4","internalType":"bytes4"},{"name":"","type":"int256","internalType":"BeforeSwapDelta"},{"name":"","type":"uint24","internalType":"uint24"}],"stateMutability":"nonpayable"},{"type":"function","name":"deploy2Currency","inputs":[{"name":"_currency0","type":"address","internalType":"address"},{"name":"_currency1","type":"address","internalType":"address"},{"name":"_tokenName","type":"string[2]","internalType":"string[2]"},{"name":"_tokenSymbol","type":"string[2]","internalType":"string[2]"},{"name":"deadline","type":"uint256","internalType":"uint256"}],"outputs":[{"name":"","type":"address[2]","internalType":"address[2]"}],"stateMutability":"nonpayable"},{"type":"function","name":"getHookPermissions","inputs":[],"outputs":[{"name":"","type":"tuple","internalType":"struct Hooks.Permissions","components":[{"name":"beforeInitialize","type":"bool","internalType":"bool"},{"name":"afterInitialize","type":"bool","internalType":"bool"},{"name":"beforeAddLiquidity","type":"bool","internalType":"bool"},{"name":"afterAddLiquidity","type":"bool","internalType":"bool"},{"name":"beforeRemoveLiquidity","type":"bool","internalType":"bool"},{"name":"afterRemoveLiquidity","type":"bool","internalType":"bool"},{"name":"beforeSwap","type":"bool","internalType":"bool"},{"name":"afterSwap","type":"bool","internalType":"bool"},{"name":"beforeDonate","type":"bool","internalType":"bool"},{"name":"afterDonate","type":"bool","internalType":"bool"},{"name":"beforeSwapReturnDelta","type":"bool","internalType":"bool"},{"name":"afterSwapReturnDelta","type":"bool","internalType":"bool"},{"name":"afterAddLiquidityReturnDelta","type":"bool","internalType":"bool"},{"name":"afterRemoveLiquidityReturnDelta","type":"bool","internalType":"bool"}]}],"stateMutability":"pure"},{"type":"function","name":"isPairInitiated","inputs":[{"name":"","type":"address","internalType":"address"},{"name":"","type":"address","internalType":"address"}],"outputs":[{"name":"","type":"bool","internalType":"bool"}],"stateMutability":"view"},{"type":"function","name":"isPairedWithBaseToken","inputs":[{"name":"_currency0","type":"address","internalType":"address"},{"name":"_currency1","type":"address","internalType":"address"}],"outputs":[{"name":"","type":"bool","internalType":"bool"}],"stateMutability":"view"},{"type":"function","name":"pairEndingTime","inputs":[{"name":"","type":"address","internalType":"address"},{"name":"","type":"address","internalType":"address"}],"outputs":[{"name":"","type":"uint256","internalType":"uint256"}],"stateMutability":"view"},{"type":"function","name":"pairInitiatedTime","inputs":[{"name":"","type":"address","internalType":"address"},{"name":"","type":"address","internalType":"address"}],"outputs":[{"name":"","type":"uint256","internalType":"uint256"}],"stateMutability":"view"},{"type":"function","name":"poolManager","inputs":[],"outputs":[{"name":"","type":"address","internalType":"contract IPoolManager"}],"stateMutability":"view"},{"type":"function","name":"resetPair","inputs":[{"name":"_currency0","type":"address","internalType":"address"},{"name":"_currency1","type":"address","internalType":"address"},{"name":"deadline","type":"uint256","internalType":"uint256"}],"outputs":[{"name":"","type":"address[2]","internalType":"address[2]"}],"stateMutability":"nonpayable"},{"type":"function","name":"transferVixtoken","inputs":[{"name":"to","type":"address","internalType":"address"},{"name":"value","type":"uint256","internalType":"uint256"},{"name":"_token","type":"address","internalType":"address"}],"outputs":[{"name":"","type":"bool","internalType":"bool"}],"stateMutability":"nonpayable"},{"type":"error","name":"HookNotImplemented","inputs":[]},{"type":"error","name":"NotPoolManager","inputs":[]}],"bytecode":{"object":"0x60a0604052346102c057604051601f61230038819003918201601f19168301916001600160401b038311848410176102c45780849260409485528339810103126102c0578051906001600160a01b03821682036102c057602001516001600160a01b03811691908290036102c0576080525f6101a061007c6102d8565b8281528260208201528260408201528260608201528260808201528260a08201528260c08201528260e0820152826101008201528261012082015282610140820152826101608201528261018082015201525f6101a06100da6102d8565b82815282602082015260016040820152600160608201528260808201528260a08201528260c0820152600160e0820152826101008201528261012082015282610140820152826101608201528261018082015201526120003016158015906102b3575b80156102a2575b8015610291575b8015610284575b8015610277575b801561026b575b801561025b575b801561024f575b8015610243575b8015610237575b801561022b575b801561021f575b8015610213575b61020057600480546001600160a01b03191691909117905560405161200790816102f982396080518181816101de0152818161031b0152818161036d015281816105d20152818161062c01528181610719015281816107bf01528181610859015281816108a901526109000152f35b630732d7b560e51b5f523060045260245ffd5b50600130161515610191565b5060023016151561018a565b50600430161515610183565b5060083016151561017c565b50601030161515610175565b5060203016151561016e565b5060403016151560011415610167565b50608030161515610160565b5061010030161515610159565b5061020030161515610152565b50610400301615156001141561014b565b506108003016151560011415610144565b506110003016151561013d565b5f80fd5b634e487b7160e01b5f52604160045260245ffd5b604051906101c082016001600160401b038111838210176102c45760405256fe60806040526004361015610011575f80fd5b5f3560e01c806321d0ee70146108ed578063259982e514610896578063575e24b4146108025780636c2bbe7e146107ac5780636f5e84b6146107565780636fe7e6eb146106db57806396accffe146106a5578063989840bd146106755780639f063efc14610616578063b47b2fb11461057b578063b6a8b0fa146101cb578063c4e833ce14610414578063c55dae63146103ec578063caf70ff51461039c578063dc4c90d314610358578063dc98354e146102ea578063df8c52701461022f578063e1b4af69146101cb578063e7b29966146101495763f9f9e221146100f5575f80fd5b346101455760403660031901126101455761010e610941565b610116610957565b6001600160a01b039182165f908152600260209081526040808320949093168252928352819020549051908152f35b5f80fd5b346101455760a036600319011261014557610162610941565b61016a610957565b6044356001600160401b03811161014557610189903690600401610b91565b91606435916001600160401b038311610145576101c7936101b16101bb943690600401610b91565b9160843593610fc1565b60405191829182610a7c565b0390f35b34610145576101d936610ab3565b5050507f00000000000000000000000000000000000000000000000000000000000000006001600160a01b03163303925061022091505057630a85dc2960e01b5f5260045ffd5b63570c108560e11b5f5260045ffd5b3461014557606036600319011261014557610248610941565b6044356001600160a01b03811691908290036101455760405163a9059cbb60e01b81526001600160a01b039091166004820152602480359082015290602090829060449082905f905af180156102df576102a8575b602060405160018152f35b6020813d6020116102d7575b816102c160209383610b55565b810103126101455751801515811461029d575f80fd5b3d91506102b4565b6040513d5f823e3d90fd5b346101455760e036600319011261014557610303610941565b5060a036602319011261014557610318610a66565b507f00000000000000000000000000000000000000000000000000000000000000006001600160a01b0316330361022057630a85dc2960e01b5f5260045ffd5b34610145575f366003190112610145576040517f00000000000000000000000000000000000000000000000000000000000000006001600160a01b03168152602090f35b34610145576040366003190112610145576103b5610941565b6103bd610957565b6001600160a01b039182165f908152600160209081526040808320949093168252928352819020549051908152f35b34610145575f366003190112610145576004546040516001600160a01b039091168152602090f35b34610145575f366003190112610145575f6101a060405161043481610b0a565b8281528260208201528260408201528260608201528260808201528260a08201528260c08201528260e0820152826101008201528261012082015282610140820152826101608201528261018082015201526101c0602060405161049781610b0a565b5f8152818101905f825260408101600181526060820160018152608083015f815260a084015f815260c085015f815260e0860190600182526101008701925f84526101208801945f86526101408901965f88526101608a01985f8a526101a06101808c019b5f8d52019b5f8d526040519d8e915f835251151591015251151560408d015251151560608c015251151560808b015251151560a08a015251151560c089015251151560e08801525115156101008701525115156101208601525115156101408501525115156101608401525115156101808301525115156101a0820152f35b346101455761016036600319011261014557610595610941565b5060a03660231901126101455760603660c319011261014557610144356001600160401b038111610145576105ce90369060040161096d565b50507f00000000000000000000000000000000000000000000000000000000000000006001600160a01b03163303610220576040805163b47b2fb160e01b81525f6020820152f35b3461014557610624366109fd565b5091945050507f00000000000000000000000000000000000000000000000000000000000000006001600160a01b0316330391506102209050576040908151906327c18fbf60e21b82526020820152f35b34610145576060366003190112610145576101c76101bb610694610941565b61069c610957565b60443591610d10565b346101455760403660031901126101455760206106d16106c3610941565b6106cb610957565b90610c30565b6040519015158152f35b3461014557610100366003190112610145576106f5610941565b5060a03660231901126101455761070a610a66565b5060e4358060020b03610145577f00000000000000000000000000000000000000000000000000000000000000006001600160a01b0316330361022057630a85dc2960e01b5f5260045ffd5b346101455760403660031901126101455761076f610941565b610777610957565b9060018060a01b03165f525f60205260405f209060018060a01b03165f52602052602060ff60405f2054166040519015158152f35b34610145576107ba366109fd565b5050507f00000000000000000000000000000000000000000000000000000000000000006001600160a01b0316330393506102209250505057630a85dc2960e01b5f5260045ffd5b34610145576101403660031901126101455761081c610941565b5060a03660231901126101455760603660c319011261014557610124356001600160401b0381116101455761085590369060040161096d565b50507f00000000000000000000000000000000000000000000000000000000000000006001600160a01b0316330361022057630a85dc2960e01b5f5260045ffd5b34610145576108a43661099a565b5050507f00000000000000000000000000000000000000000000000000000000000000006001600160a01b03163303915061022090505760405163259982e560e01b8152602090f35b34610145576108fb3661099a565b5050507f00000000000000000000000000000000000000000000000000000000000000006001600160a01b031633039150610220905057630a85dc2960e01b5f5260045ffd5b600435906001600160a01b038216820361014557565b602435906001600160a01b038216820361014557565b9181601f84011215610145578235916001600160401b038311610145576020838186019501011161014557565b90610160600319830112610145576004356001600160a01b0381168103610145579160a060231982011261014557602491608060c3198301126101455760c49161014435906001600160401b038211610145576109f99160040161096d565b9091565b906101a0600319830112610145576004356001600160a01b0381168103610145579160a060231982011261014557602491608060c3198301126101455760c4916101443591610164359161018435906001600160401b038211610145576109f99160040161096d565b60c435906001600160a01b038216820361014557565b919060408301925f905b60028210610a9357505050565b82516001600160a01b031681526020928301926001929092019101610a86565b610120600319820112610145576004356001600160a01b0381168103610145579160a06023198301126101455760249160c4359160e4359161010435906001600160401b038211610145576109f99160040161096d565b6101c081019081106001600160401b03821117610b2657604052565b634e487b7160e01b5f52604160045260245ffd5b604081019081106001600160401b03821117610b2657604052565b90601f801991011681019081106001600160401b03821117610b2657604052565b6001600160401b038111610b2657601f01601f191660200190565b9080601f830112156101455760409160405192610baf604085610b55565b8360408301928484116101455780915b848310610bcf5750505050505090565b82356001600160401b03811161014557820186601f8201121561014557803591610bf883610b76565b610c0487519182610b55565b8381528860208585010111610145575f6020858196828097018386013783010152815201920191610bbf565b6004546001600160a01b0390811691168114918215610c9b575b505015610c5657600190565b60405162461bcd60e51b815260206004820152601f60248201527f50616972206e6f74207061697265642077697468206261736520746f6b656e006044820152606490fd5b6001600160a01b03161490505f80610c4a565b602081830312610145578051906001600160401b038211610145570181601f8201121561014557805190610ce182610b76565b92610cef6040519485610b55565b8284526020838301011161014557815f9260208093018386015e8301015290565b929190604093848051610d238282610b55565b36903760018060a01b03811691825f525f602052855f2060018060a01b0382165f52602052600160ff875f205416151503610f3f575f838152600260209081528782206001600160a01b0384168352905286902054421115610f08575f838152600360208181528883206001600160a01b038581168086529183528a85205497855292825289842090845290529087902060010154875194821694939116610dca84610b3a565b87516306fdde0360e01b81525f81600481895afa908115610eca575f91610eee575b50845287516306fdde0360e01b81525f81600481855afa908115610eca575f91610ed4575b50602085015260045f895196610e2688610b3a565b8a516395d89b4160e01b815292839182905afa918215610eca576004925f928391610eb0575b50875289516395d89b4160e01b815292839182905afa908115610ea657610e819798505f91610e84575b506020850152610fc1565b90565b610ea091503d805f833e610e988183610b55565b810190610cae565b5f610e76565b88513d5f823e3d90fd5b610ec491503d8085833e610e988183610b55565b5f610e4c565b89513d5f823e3d90fd5b610ee891503d805f833e610e988183610b55565b5f610e11565b610f0291503d805f833e610e988183610b55565b5f610dec565b855162461bcd60e51b815260206004820152601060248201526f14185a5c881b9bdd08195e1c1a5c995960821b6044820152606490fd5b855162461bcd60e51b815260206004820152601260248201527114185a5c881b9bdd081a5b9a5d1a585d195960721b6044820152606490fd5b906002811015610f895760051b0190565b634e487b7160e01b5f52603260045260245ffd5b805180835260209291819084018484015e5f828201840152601f01601f1916010190565b9193909293604091828051610fd68282610b55565b36903760018060a01b03841693845f525f602052835f2060018060a01b0387165f526020525f8061105761106d60ff88842054168851906110178a83610b55565b6011825270034b9a830b4b924b734ba34b0ba32b21d1607d1b6020830152895193849263c3b5563560e01b60208501528b60248501526064840190610f9d565b901515604483015203601f198101835282610b55565b6020815191016a636f6e736f6c652e6c6f675afa50845f526002602052835f2060018060a01b0387165f526020526110d0845f205485516110ae8782610b55565b601081526f03830b4b922b73234b733aa34b6b29d160851b60208201526113f8565b6110fd84516110df8682610b55565b600a81526903232b0b23634b7329d160b51b602082015242906113f8565b5f85815260208181528582206001600160a01b038916835290528490205460ff161580156113d0575b15611398578561113591610c30565b15611354575f84815260208181528482206001600160a01b038816808452908252858320805460ff19166001908117909155878452825285832090835290528390204290819055908101908110611340575f848152600260209081528482206001600160a01b03881683529052839020558151946111b38387610b55565b82368737611453610b7f5f5b60028110611251575050865160208801518551976001976001600160a01b039283169796509094509250166111f387610b3a565b865260208087019485525f9182526003815283822060a087901b8790039384168352905291909120935184549082166001600160a01b03199182161785559151939092018054939092166001600160a01b0316921691909117905590565b61125b8186610f78565b516112668286610f78565b51875191848301908382106001600160401b03831117610b2657896112ae85946112a062015180948a8c8939606087526060870190610f9d565b908582036020870152610f9d565b92015203905ff08015611336576001600160a01b0316806112cf838c610f78565b52803b15610145575f809160448951809481936340c10f1960e01b83523060048401526acecb8f27f4200f3a00000060248401525af1801561132c57906001929161131c575b50016111bf565b5f61132691610b55565b5f611315565b87513d5f823e3d90fd5b86513d5f823e3d90fd5b634e487b7160e01b5f52601160045260245ffd5b825162461bcd60e51b815260206004820152601f60248201527f50616972206e6f74207061697265642077697468204261736520546f6b656e006044820152606490fd5b835162461bcd60e51b815260206004820152601160248201527050616972207374696c6c2061637469766560781b6044820152606490fd5b505f858152600260209081528582206001600160a01b03891683529052849020544211611126565b61142761143b5f93928493604051938492632d839cb360e21b6020850152604060248501526064840190610f9d565b90604483015203601f198101835282610b55565b6020815191016a636f6e736f6c652e6c6f675afa5056fe60806040523461034e57610b7f8038038061001981610352565b92833981019060608183031261034e5780516001600160401b03811161034e5782610045918301610377565b60208201519092906001600160401b03811161034e57604091610069918401610377565b91015182516001600160401b03811161025f57600354600181811c91168015610344575b602082101461024157601f81116102e1575b506020601f821160011461027e57819293945f92610273575b50508160011b915f199060031b1c1916176003555b81516001600160401b03811161025f57600454600181811c91168015610255575b602082101461024157601f81116101de575b50602092601f821160011461017d57928192935f92610172575b50508160011b915f199060031b1c1916176004555b600580546001600160a01b031916331790554290810190811061015e576006556040516107b690816103c98239f35b634e487b7160e01b5f52601160045260245ffd5b015190505f8061011a565b601f1982169360045f52805f20915f5b8681106101c657508360019596106101ae575b505050811b0160045561012f565b01515f1960f88460031b161c191690555f80806101a0565b9192602060018192868501518155019401920161018d565b60045f527f8a35acfbc15ff81a39ae7d344fd709f28e8600b4aa8c65c6b64bfe7fe36bd19b601f830160051c81019160208410610237575b601f0160051c01905b81811061022c5750610100565b5f815560010161021f565b9091508190610216565b634e487b7160e01b5f52602260045260245ffd5b90607f16906100ee565b634e487b7160e01b5f52604160045260245ffd5b015190505f806100b8565b601f1982169060035f52805f20915f5b8181106102c9575095836001959697106102b1575b505050811b016003556100cd565b01515f1960f88460031b161c191690555f80806102a3565b9192602060018192868b01518155019401920161028e565b60035f527fc2575a0e9e593c00f959f8c92f12db2869c3395a3b0502d05e2516446f71f85b601f830160051c8101916020841061033a575b601f0160051c01905b81811061032f575061009f565b5f8155600101610322565b9091508190610319565b90607f169061008d565b5f80fd5b6040519190601f01601f191682016001600160401b0381118382101761025f57604052565b81601f8201121561034e578051906001600160401b03821161025f576103a6601f8301601f1916602001610352565b928284526020838301011161034e57815f9260208093018386015e830101529056fe6080806040526004361015610012575f80fd5b5f3560e01c90816306fdde031461055857508063095ea7b3146104d657806318160ddd146104b957806323b872dd146103da578063313ce567146103bf57806336654887146103a257806340c10f191461029f57806370a08231146102685780638da5cb5b1461024057806395d89b4114610125578063a9059cbb146100f45763dd62ed3e146100a0575f80fd5b346100f05760403660031901126100f0576100b9610651565b6100c1610667565b6001600160a01b039182165f908152600160209081526040808320949093168252928352819020549051908152f35b5f80fd5b346100f05760403660031901126100f05761011a610110610651565b60243590336106c9565b602060405160018152f35b346100f0575f3660031901126100f0576040515f6004548060011c90600181168015610236575b6020831081146102225782855290811561020657506001146101b1575b50819003601f01601f191681019067ffffffffffffffff82118183101761019d5761019982918260405282610627565b0390f35b634e487b7160e01b5f52604160045260245ffd5b905060045f527f8a35acfbc15ff81a39ae7d344fd709f28e8600b4aa8c65c6b64bfe7fe36bd19b5f905b8282106101f057506020915082010182610169565b60018160209254838588010152019101906101db565b90506020925060ff191682840152151560051b82010182610169565b634e487b7160e01b5f52602260045260245ffd5b91607f169161014c565b346100f0575f3660031901126100f0576005546040516001600160a01b039091168152602090f35b346100f05760203660031901126100f0576001600160a01b03610289610651565b165f525f602052602060405f2054604051908152f35b346100f05760403660031901126100f0576102b8610651565b60055460243591906001600160a01b03163303610370576102dc600654421061067d565b6001600160a01b031690811561035d576102f9600654421061067d565b600254908082018092116103495760207fddf252ad1be2c89b69c2b068fc378daa952ba7f163c4a11628f55a4df523b3ef915f9360025584845283825260408420818154019055604051908152a3005b634e487b7160e01b5f52601160045260245ffd5b63ec442f0560e01b5f525f60045260245ffd5b60405162461bcd60e51b815260206004820152600a60248201526927a7262c9027aba722a960b11b6044820152606490fd5b346100f0575f3660031901126100f0576020600654604051908152f35b346100f0575f3660031901126100f057602060405160128152f35b346100f05760603660031901126100f0576103f3610651565b6103fb610667565b6001600160a01b0382165f818152600160209081526040808320338452909152902054909260443592915f198110610439575b5061011a93506106c9565b83811061049e57841561048b5733156104785761011a945f52600160205260405f2060018060a01b0333165f526020528360405f20910390558461042e565b634a1406b160e11b5f525f60045260245ffd5b63e602df0560e01b5f525f60045260245ffd5b8390637dc7a0d960e11b5f523360045260245260445260645ffd5b346100f0575f3660031901126100f0576020600254604051908152f35b346100f05760403660031901126100f0576104ef610651565b60243590331561048b576001600160a01b031690811561047857335f52600160205260405f20825f526020528060405f20556040519081527f8c5be1e5ebec7d5bd14f71427d1e84f3dd0314c0f7b2291e5b200ac8c7c3b92560203392a3602060405160018152f35b346100f0575f3660031901126100f0575f6003548060011c9060018116801561061d575b6020831081146102225782855290811561020657506001146105c85750819003601f01601f191681019067ffffffffffffffff82118183101761019d5761019982918260405282610627565b905060035f527fc2575a0e9e593c00f959f8c92f12db2869c3395a3b0502d05e2516446f71f85b5f905b82821061060757506020915082010182610169565b60018160209254838588010152019101906105f2565b91607f169161057c565b602060409281835280519182918282860152018484015e5f828201840152601f01601f1916010190565b600435906001600160a01b03821682036100f057565b602435906001600160a01b03821682036100f057565b1561068457565b60405162461bcd60e51b815260206004820152601d60248201527f544f4b454e20455850495245442c204d494e54494e4720434c4f5345440000006044820152606490fd5b6001600160a01b031690811561076d576001600160a01b031691821561035d576106f6600654421061067d565b815f525f60205260405f205481811061075457817fddf252ad1be2c89b69c2b068fc378daa952ba7f163c4a11628f55a4df523b3ef92602092855f525f84520360405f2055845f525f825260405f20818154019055604051908152a3565b8263391434e360e21b5f5260045260245260445260645ffd5b634b637e8f60e11b5f525f60045260245ffdfea2646970667358221220d6f942ae2c43716d98cba2b48a46ca73ec1b3f7cf1c27b8197cdb16f2d9705ff64736f6c634300081a0033a264697066735822122013be743ee8dd8bba2b2895ec07994a470825895ec870aefe9fc8aee256dcf7b864736f6c634300081a0033","linkReferences":{}},"methodIdentifiers":{"afterAddLiquidity(address,(address,address,uint24,int24,address),(int24,int24,int256,bytes32),int256,int256,bytes)":"9f063efc","afterDonate(address,(address,address,uint24,int24,address),uint256,uint256,bytes)":"e1b4af69","afterInitialize(address,(address,address,uint24,int24,address),uint160,int24)":"6fe7e6eb","afterRemoveLiquidity(address,(address,address,uint24,int24,address),(int24,int24,int256,bytes32),int256,int256,bytes)":"6c2bbe7e","afterSwap(address,(address,address,uint24,int24,address),(bool,int256,uint160),int256,bytes)":"b47b2fb1","baseToken()":"c55dae63","beforeAddLiquidity(address,(address,address,uint24,int24,address),(int24,int24,int256,bytes32),bytes)":"259982e5","beforeDonate(address,(address,address,uint24,int24,address),uint256,uint256,bytes)":"b6a8b0fa","beforeInitialize(address,(address,address,uint24,int24,address),uint160)":"dc98354e","beforeRemoveLiquidity(address,(address,address,uint24,int24,address),(int24,int24,int256,bytes32),bytes)":"21d0ee70","beforeSwap(address,(address,address,uint24,int24,address),(bool,int256,uint160),bytes)":"575e24b4","deploy2Currency(address,address,string[2],string[2],uint256)":"e7b29966","getHookPermissions()":"c4e833ce","isPairInitiated(address,address)":"6f5e84b6","isPairedWithBaseToken(address,address)":"96accffe","pairEndingTime(address,address)":"f9f9e221","pairInitiatedTime(address,address)":"caf70ff5","poolManager()":"dc4c90d3","resetPair(address,address,uint256)":"989840bd","transferVixtoken(address,uint256,address)":"df8c5270"},"id":94}