{"abi":[{"type":"constructor","inputs":[{"name":"_poolManager","type":"address","internalType":"contract IPoolManager"},{"name":"_baseToken","type":"address","internalType":"address"}],"stateMutability":"nonpayable"},{"type":"function","name":"BASE_PRICE","inputs":[],"outputs":[{"name":"","type":"uint256","internalType":"uint256"}],"stateMutability":"view"},{"type":"function","name":"FEE","inputs":[],"outputs":[{"name":"","type":"uint256","internalType":"uint256"}],"stateMutability":"view"},{"type":"function","name":"SLOPE","inputs":[],"outputs":[{"name":"","type":"uint256","internalType":"uint256"}],"stateMutability":"view"},{"type":"function","name":"afterAddLiquidity","inputs":[{"name":"sender","type":"address","internalType":"address"},{"name":"key","type":"tuple","internalType":"struct PoolKey","components":[{"name":"currency0","type":"address","internalType":"Currency"},{"name":"currency1","type":"address","internalType":"Currency"},{"name":"fee","type":"uint24","internalType":"uint24"},{"name":"tickSpacing","type":"int24","internalType":"int24"},{"name":"hooks","type":"address","internalType":"contract IHooks"}]},{"name":"params","type":"tuple","internalType":"struct IPoolManager.ModifyLiquidityParams","components":[{"name":"tickLower","type":"int24","internalType":"int24"},{"name":"tickUpper","type":"int24","internalType":"int24"},{"name":"liquidityDelta","type":"int256","internalType":"int256"},{"name":"salt","type":"bytes32","internalType":"bytes32"}]},{"name":"delta","type":"int256","internalType":"BalanceDelta"},{"name":"feesAccrued","type":"int256","internalType":"BalanceDelta"},{"name":"hookData","type":"bytes","internalType":"bytes"}],"outputs":[{"name":"","type":"bytes4","internalType":"bytes4"},{"name":"","type":"int256","internalType":"BalanceDelta"}],"stateMutability":"nonpayable"},{"type":"function","name":"afterDonate","inputs":[{"name":"sender","type":"address","internalType":"address"},{"name":"key","type":"tuple","internalType":"struct PoolKey","components":[{"name":"currency0","type":"address","internalType":"Currency"},{"name":"currency1","type":"address","internalType":"Currency"},{"name":"fee","type":"uint24","internalType":"uint24"},{"name":"tickSpacing","type":"int24","internalType":"int24"},{"name":"hooks","type":"address","internalType":"contract IHooks"}]},{"name":"amount0","type":"uint256","internalType":"uint256"},{"name":"amount1","type":"uint256","internalType":"uint256"},{"name":"hookData","type":"bytes","internalType":"bytes"}],"outputs":[{"name":"","type":"bytes4","internalType":"bytes4"}],"stateMutability":"nonpayable"},{"type":"function","name":"afterInitialize","inputs":[{"name":"sender","type":"address","internalType":"address"},{"name":"key","type":"tuple","internalType":"struct PoolKey","components":[{"name":"currency0","type":"address","internalType":"Currency"},{"name":"currency1","type":"address","internalType":"Currency"},{"name":"fee","type":"uint24","internalType":"uint24"},{"name":"tickSpacing","type":"int24","internalType":"int24"},{"name":"hooks","type":"address","internalType":"contract IHooks"}]},{"name":"sqrtPriceX96","type":"uint160","internalType":"uint160"},{"name":"tick","type":"int24","internalType":"int24"}],"outputs":[{"name":"","type":"bytes4","internalType":"bytes4"}],"stateMutability":"nonpayable"},{"type":"function","name":"afterRemoveLiquidity","inputs":[{"name":"sender","type":"address","internalType":"address"},{"name":"key","type":"tuple","internalType":"struct PoolKey","components":[{"name":"currency0","type":"address","internalType":"Currency"},{"name":"currency1","type":"address","internalType":"Currency"},{"name":"fee","type":"uint24","internalType":"uint24"},{"name":"tickSpacing","type":"int24","internalType":"int24"},{"name":"hooks","type":"address","internalType":"contract IHooks"}]},{"name":"params","type":"tuple","internalType":"struct IPoolManager.ModifyLiquidityParams","components":[{"name":"tickLower","type":"int24","internalType":"int24"},{"name":"tickUpper","type":"int24","internalType":"int24"},{"name":"liquidityDelta","type":"int256","internalType":"int256"},{"name":"salt","type":"bytes32","internalType":"bytes32"}]},{"name":"delta","type":"int256","internalType":"BalanceDelta"},{"name":"feesAccrued","type":"int256","internalType":"BalanceDelta"},{"name":"hookData","type":"bytes","internalType":"bytes"}],"outputs":[{"name":"","type":"bytes4","internalType":"bytes4"},{"name":"","type":"int256","internalType":"BalanceDelta"}],"stateMutability":"nonpayable"},{"type":"function","name":"afterSwap","inputs":[{"name":"sender","type":"address","internalType":"address"},{"name":"key","type":"tuple","internalType":"struct PoolKey","components":[{"name":"currency0","type":"address","internalType":"Currency"},{"name":"currency1","type":"address","internalType":"Currency"},{"name":"fee","type":"uint24","internalType":"uint24"},{"name":"tickSpacing","type":"int24","internalType":"int24"},{"name":"hooks","type":"address","internalType":"contract IHooks"}]},{"name":"params","type":"tuple","internalType":"struct IPoolManager.SwapParams","components":[{"name":"zeroForOne","type":"bool","internalType":"bool"},{"name":"amountSpecified","type":"int256","internalType":"int256"},{"name":"sqrtPriceLimitX96","type":"uint160","internalType":"uint160"}]},{"name":"delta","type":"int256","internalType":"BalanceDelta"},{"name":"hookData","type":"bytes","internalType":"bytes"}],"outputs":[{"name":"","type":"bytes4","internalType":"bytes4"},{"name":"","type":"int128","internalType":"int128"}],"stateMutability":"nonpayable"},{"type":"function","name":"baseToken","inputs":[],"outputs":[{"name":"","type":"address","internalType":"address"}],"stateMutability":"view"},{"type":"function","name":"beforeAddLiquidity","inputs":[{"name":"sender","type":"address","internalType":"address"},{"name":"key","type":"tuple","internalType":"struct PoolKey","components":[{"name":"currency0","type":"address","internalType":"Currency"},{"name":"currency1","type":"address","internalType":"Currency"},{"name":"fee","type":"uint24","internalType":"uint24"},{"name":"tickSpacing","type":"int24","internalType":"int24"},{"name":"hooks","type":"address","internalType":"contract IHooks"}]},{"name":"params","type":"tuple","internalType":"struct IPoolManager.ModifyLiquidityParams","components":[{"name":"tickLower","type":"int24","internalType":"int24"},{"name":"tickUpper","type":"int24","internalType":"int24"},{"name":"liquidityDelta","type":"int256","internalType":"int256"},{"name":"salt","type":"bytes32","internalType":"bytes32"}]},{"name":"hookData","type":"bytes","internalType":"bytes"}],"outputs":[{"name":"","type":"bytes4","internalType":"bytes4"}],"stateMutability":"nonpayable"},{"type":"function","name":"beforeDonate","inputs":[{"name":"sender","type":"address","internalType":"address"},{"name":"key","type":"tuple","internalType":"struct PoolKey","components":[{"name":"currency0","type":"address","internalType":"Currency"},{"name":"currency1","type":"address","internalType":"Currency"},{"name":"fee","type":"uint24","internalType":"uint24"},{"name":"tickSpacing","type":"int24","internalType":"int24"},{"name":"hooks","type":"address","internalType":"contract IHooks"}]},{"name":"amount0","type":"uint256","internalType":"uint256"},{"name":"amount1","type":"uint256","internalType":"uint256"},{"name":"hookData","type":"bytes","internalType":"bytes"}],"outputs":[{"name":"","type":"bytes4","internalType":"bytes4"}],"stateMutability":"nonpayable"},{"type":"function","name":"beforeInitialize","inputs":[{"name":"sender","type":"address","internalType":"address"},{"name":"key","type":"tuple","internalType":"struct PoolKey","components":[{"name":"currency0","type":"address","internalType":"Currency"},{"name":"currency1","type":"address","internalType":"Currency"},{"name":"fee","type":"uint24","internalType":"uint24"},{"name":"tickSpacing","type":"int24","internalType":"int24"},{"name":"hooks","type":"address","internalType":"contract IHooks"}]},{"name":"sqrtPriceX96","type":"uint160","internalType":"uint160"}],"outputs":[{"name":"","type":"bytes4","internalType":"bytes4"}],"stateMutability":"nonpayable"},{"type":"function","name":"beforeRemoveLiquidity","inputs":[{"name":"sender","type":"address","internalType":"address"},{"name":"key","type":"tuple","internalType":"struct PoolKey","components":[{"name":"currency0","type":"address","internalType":"Currency"},{"name":"currency1","type":"address","internalType":"Currency"},{"name":"fee","type":"uint24","internalType":"uint24"},{"name":"tickSpacing","type":"int24","internalType":"int24"},{"name":"hooks","type":"address","internalType":"contract IHooks"}]},{"name":"params","type":"tuple","internalType":"struct IPoolManager.ModifyLiquidityParams","components":[{"name":"tickLower","type":"int24","internalType":"int24"},{"name":"tickUpper","type":"int24","internalType":"int24"},{"name":"liquidityDelta","type":"int256","internalType":"int256"},{"name":"salt","type":"bytes32","internalType":"bytes32"}]},{"name":"hookData","type":"bytes","internalType":"bytes"}],"outputs":[{"name":"","type":"bytes4","internalType":"bytes4"}],"stateMutability":"nonpayable"},{"type":"function","name":"beforeSwap","inputs":[{"name":"sender","type":"address","internalType":"address"},{"name":"key","type":"tuple","internalType":"struct PoolKey","components":[{"name":"currency0","type":"address","internalType":"Currency"},{"name":"currency1","type":"address","internalType":"Currency"},{"name":"fee","type":"uint24","internalType":"uint24"},{"name":"tickSpacing","type":"int24","internalType":"int24"},{"name":"hooks","type":"address","internalType":"contract IHooks"}]},{"name":"params","type":"tuple","internalType":"struct IPoolManager.SwapParams","components":[{"name":"zeroForOne","type":"bool","internalType":"bool"},{"name":"amountSpecified","type":"int256","internalType":"int256"},{"name":"sqrtPriceLimitX96","type":"uint160","internalType":"uint160"}]},{"name":"hookData","type":"bytes","internalType":"bytes"}],"outputs":[{"name":"","type":"bytes4","internalType":"bytes4"},{"name":"","type":"int256","internalType":"BeforeSwapDelta"},{"name":"","type":"uint24","internalType":"uint24"}],"stateMutability":"nonpayable"},{"type":"function","name":"deploy2Currency","inputs":[{"name":"_currency0","type":"address","internalType":"address"},{"name":"_currency1","type":"address","internalType":"address"},{"name":"_tokenName","type":"string[2]","internalType":"string[2]"},{"name":"_tokenSymbol","type":"string[2]","internalType":"string[2]"},{"name":"deadline","type":"uint256","internalType":"uint256"}],"outputs":[{"name":"","type":"address[2]","internalType":"address[2]"}],"stateMutability":"nonpayable"},{"type":"function","name":"getHookPermissions","inputs":[],"outputs":[{"name":"","type":"tuple","internalType":"struct Hooks.Permissions","components":[{"name":"beforeInitialize","type":"bool","internalType":"bool"},{"name":"afterInitialize","type":"bool","internalType":"bool"},{"name":"beforeAddLiquidity","type":"bool","internalType":"bool"},{"name":"afterAddLiquidity","type":"bool","internalType":"bool"},{"name":"beforeRemoveLiquidity","type":"bool","internalType":"bool"},{"name":"afterRemoveLiquidity","type":"bool","internalType":"bool"},{"name":"beforeSwap","type":"bool","internalType":"bool"},{"name":"afterSwap","type":"bool","internalType":"bool"},{"name":"beforeDonate","type":"bool","internalType":"bool"},{"name":"afterDonate","type":"bool","internalType":"bool"},{"name":"beforeSwapReturnDelta","type":"bool","internalType":"bool"},{"name":"afterSwapReturnDelta","type":"bool","internalType":"bool"},{"name":"afterAddLiquidityReturnDelta","type":"bool","internalType":"bool"},{"name":"afterRemoveLiquidityReturnDelta","type":"bool","internalType":"bool"}]}],"stateMutability":"pure"},{"type":"function","name":"isPairInitiated","inputs":[{"name":"","type":"address","internalType":"address"},{"name":"","type":"address","internalType":"address"}],"outputs":[{"name":"","type":"bool","internalType":"bool"}],"stateMutability":"view"},{"type":"function","name":"isPairedWithBaseToken","inputs":[{"name":"_currency0","type":"address","internalType":"address"},{"name":"_currency1","type":"address","internalType":"address"}],"outputs":[{"name":"","type":"bool","internalType":"bool"}],"stateMutability":"view"},{"type":"function","name":"pairEndingTime","inputs":[{"name":"","type":"address","internalType":"address"},{"name":"","type":"address","internalType":"address"}],"outputs":[{"name":"","type":"uint256","internalType":"uint256"}],"stateMutability":"view"},{"type":"function","name":"pairInitiatedTime","inputs":[{"name":"","type":"address","internalType":"address"},{"name":"","type":"address","internalType":"address"}],"outputs":[{"name":"","type":"uint256","internalType":"uint256"}],"stateMutability":"view"},{"type":"function","name":"poolManager","inputs":[],"outputs":[{"name":"","type":"address","internalType":"contract IPoolManager"}],"stateMutability":"view"},{"type":"function","name":"resetPair","inputs":[{"name":"_currency0","type":"address","internalType":"address"},{"name":"_currency1","type":"address","internalType":"address"},{"name":"deadline","type":"uint256","internalType":"uint256"}],"outputs":[{"name":"","type":"address[2]","internalType":"address[2]"}],"stateMutability":"nonpayable"},{"type":"function","name":"transferVixtoken","inputs":[{"name":"to","type":"address","internalType":"address"},{"name":"value","type":"uint256","internalType":"uint256"},{"name":"_token","type":"address","internalType":"address"}],"outputs":[{"name":"","type":"bool","internalType":"bool"}],"stateMutability":"nonpayable"},{"type":"error","name":"HookNotImplemented","inputs":[]},{"type":"error","name":"NotPoolManager","inputs":[]},{"type":"error","name":"invalidLiquidityAction","inputs":[]}],"bytecode":{"object":"0x60a0604052346102b757604051601f61248f38819003918201601f19168301916001600160401b038311848410176102bb5780849260409485528339810103126102b7578051906001600160a01b03821682036102b757602001516001600160a01b03811691908290036102b7576080525f6101a061007c6102cf565b8281528260208201528260408201528260608201528260808201528260a08201528260c08201528260e0820152826101008201528261012082015282610140820152826101608201528261018082015201525f6101a06100da6102cf565b82815282602082015260016040820152600160608201528260808201528260a0820152600160c08201528260e082015282610100820152826101208201526001610140820152826101608201528261018082015201526120003016158015906102aa575b8015610299575b8015610288575b801561027b575b801561026e575b801561025e575b8015610252575b8015610246575b801561023a575b801561022a575b801561021e575b8015610212575b8015610206575b6101f357600480546001600160a01b03191691909117905560405161219f90816102f0823960805181818161021f0152818161035c015281816103ae0152818161063001528181610680015281816107830152818161086d0152610a400152f35b630732d7b560e51b5f523060045260245ffd5b50600130161515610192565b5060023016151561018b565b50600430161515610184565b506008301615156001141561017d565b50601030161515610176565b5060203016151561016f565b50604030161515610168565b5060803016151560011415610161565b506101003016151561015a565b5061020030161515610153565b50610400301615156001141561014c565b506108003016151560011415610145565b506110003016151561013e565b5f80fd5b634e487b7160e01b5f52604160045260245ffd5b604051906101c082016001600160401b038111838210176102bb5760405256fe60806040526004361015610011575f80fd5b5f3560e01c806321d0ee7014610a2d578063259982e514610a2d578063575e24b4146108165780636c2bbe7e1461066d5780636f5e84b6146107c05780636fe7e6eb146107455780638b7cc6291461072957806396accffe146106f3578063989840bd146106c35780639f063efc1461066d578063b47b2fb1146105d9578063b6a8b0fa1461020c578063c4e833ce14610471578063c55dae6314610449578063c57981b51461042d578063caf70ff5146103dd578063dc4c90d314610399578063dc98354e1461032b578063df8c527014610270578063e1b4af691461020c578063e7b299661461018a578063f86325ed1461016a5763f9f9e22114610116575f80fd5b346101665760403660031901126101665761012f610a80565b610137610a96565b6001600160a01b039182165f908152600260209081526040808320949093168252928352819020549051908152f35b5f80fd5b34610166575f366003190112610166576020604051650574fbde60008152f35b346101665760a0366003190112610166576101a3610a80565b6101ab610a96565b6044356001600160401b038111610166576101ca903690600401610cd0565b91606435916001600160401b03831161016657610208936101f26101fc943690600401610cd0565b9160843593611100565b60405191829182610bbb565b0390f35b346101665761021a36610bf2565b5050507f00000000000000000000000000000000000000000000000000000000000000006001600160a01b03163303925061026191505057630a85dc2960e01b5f5260045ffd5b63570c108560e11b5f5260045ffd5b3461016657606036600319011261016657610289610a80565b6044356001600160a01b03811691908290036101665760405163a9059cbb60e01b81526001600160a01b039091166004820152602480359082015290602090829060449082905f905af18015610320576102e9575b602060405160018152f35b6020813d602011610318575b8161030260209383610c94565b81010312610166575180151581146102de575f80fd5b3d91506102f5565b6040513d5f823e3d90fd5b346101665760e036600319011261016657610344610a80565b5060a036602319011261016657610359610ba5565b507f00000000000000000000000000000000000000000000000000000000000000006001600160a01b0316330361026157630a85dc2960e01b5f5260045ffd5b34610166575f366003190112610166576040517f00000000000000000000000000000000000000000000000000000000000000006001600160a01b03168152602090f35b34610166576040366003190112610166576103f6610a80565b6103fe610a96565b6001600160a01b039182165f908152600160209081526040808320949093168252928352819020549051908152f35b34610166575f3660031901126101665760206040516127108152f35b34610166575f366003190112610166576004546040516001600160a01b039091168152602090f35b34610166575f366003190112610166575f6101a060405161049181610c49565b8281528260208201528260408201528260608201528260808201528260a08201528260c08201528260e0820152826101008201528261012082015282610140820152826101608201528261018082015201526101c060206040516104f481610c49565b5f8152818101905f825260408101600181526060820160018152608083015f815260a084015f815260c085016001815260e08601905f82526101008701925f84526101208801945f8652610140890196600188526101608a01985f8a526101a06101808c019b5f8d52019b5f8d526040519d8e915f835251151591015251151560408d015251151560608c015251151560808b015251151560a08a015251151560c089015251151560e08801525115156101008701525115156101208601525115156101408501525115156101608401525115156101808301525115156101a0820152f35b3461016657610160366003190112610166576105f3610a80565b5060a03660231901126101665760603660c319011261016657610144356001600160401b0381116101665761062c903690600401610aac565b50507f00000000000000000000000000000000000000000000000000000000000000006001600160a01b0316330361026157630a85dc2960e01b5f5260045ffd5b346101665761067b36610b3c565b5050507f00000000000000000000000000000000000000000000000000000000000000006001600160a01b0316330393506102619250505057630a85dc2960e01b5f5260045ffd5b34610166576060366003190112610166576102086101fc6106e2610a80565b6106ea610a96565b60443591610e4f565b3461016657604036600319011261016657602061071f610711610a80565b610719610a96565b90610d6f565b6040519015158152f35b34610166575f36600319011261016657602060405161012c8152f35b34610166576101003660031901126101665761075f610a80565b5060a036602319011261016657610774610ba5565b5060e4358060020b03610166577f00000000000000000000000000000000000000000000000000000000000000006001600160a01b0316330361026157630a85dc2960e01b5f5260045ffd5b34610166576040366003190112610166576107d9610a80565b6107e1610a96565b9060018060a01b03165f525f60205260405f209060018060a01b03165f52602052602060ff60405f2054166040519015158152f35b346101665761014036600319011261016657610830610a80565b5060a03660231901126101665760603660c319011261016657610124356001600160401b03811161016657610869903690600401610aac565b50507f00000000000000000000000000000000000000000000000000000000000000006001600160a01b031633036102615760e4355f811315610a0557805b60c435801515810361016657156109fe575f136108df575b505b60606040516315d7892d60e21b81525f60208201525f6040820152f35b6024356001600160a01b0381169081810361016657506044356001600160a01b038116919082810361016657505f52600360205260405f209060018060a01b03165f52602052600460405f200154906040519163041aeec360e11b83526004830152602482015261012c60448201526127106064820152650574fbde6000608482015260208160a48173__$5afb86f5beec57591f5003be25b26e2fe0$__5af48015610320575f906109ca575b6109c4915060405161099f604082610c94565b601381527203a37b5b2b72337b923b4bb32b721b7b9ba1d1606d1b6020820152611590565b806108c0565b506020813d6020116109f6575b816109e460209383610c94565b81010312610166576109c4905161098c565b3d91506109d7565b50506108c2565b600160ff1b8114610a1957805f03906108a8565b634e487b7160e01b5f52601160045260245ffd5b3461016657610a3b36610ad9565b5050507f00000000000000000000000000000000000000000000000000000000000000006001600160a01b03163303915061026190505762c890a560e31b5f5260045ffd5b600435906001600160a01b038216820361016657565b602435906001600160a01b038216820361016657565b9181601f84011215610166578235916001600160401b038311610166576020838186019501011161016657565b90610160600319830112610166576004356001600160a01b0381168103610166579160a060231982011261016657602491608060c3198301126101665760c49161014435906001600160401b03821161016657610b3891600401610aac565b9091565b906101a0600319830112610166576004356001600160a01b0381168103610166579160a060231982011261016657602491608060c3198301126101665760c4916101443591610164359161018435906001600160401b03821161016657610b3891600401610aac565b60c435906001600160a01b038216820361016657565b919060408301925f905b60028210610bd257505050565b82516001600160a01b031681526020928301926001929092019101610bc5565b610120600319820112610166576004356001600160a01b0381168103610166579160a06023198301126101665760249160c4359160e4359161010435906001600160401b03821161016657610b3891600401610aac565b6101c081019081106001600160401b03821117610c6557604052565b634e487b7160e01b5f52604160045260245ffd5b604081019081106001600160401b03821117610c6557604052565b90601f801991011681019081106001600160401b03821117610c6557604052565b6001600160401b038111610c6557601f01601f191660200190565b9080601f830112156101665760409160405192610cee604085610c94565b8360408301928484116101665780915b848310610d0e5750505050505090565b82356001600160401b03811161016657820186601f8201121561016657803591610d3783610cb5565b610d4387519182610c94565b8381528860208585010111610166575f6020858196828097018386013783010152815201920191610cfe565b6004546001600160a01b0390811691168114918215610dda575b505015610d9557600190565b60405162461bcd60e51b815260206004820152601f60248201527f50616972206e6f74207061697265642077697468206261736520746f6b656e006044820152606490fd5b6001600160a01b03161490505f80610d89565b602081830312610166578051906001600160401b038211610166570181601f8201121561016657805190610e2082610cb5565b92610e2e6040519485610c94565b8284526020838301011161016657815f9260208093018386015e8301015290565b929190604093848051610e628282610c94565b36903760018060a01b03811691825f525f602052855f2060018060a01b0382165f52602052600160ff875f20541615150361107e575f838152600260209081528782206001600160a01b0384168352905286902054421115611047575f838152600360208181528883206001600160a01b038581168086529183528a85205497855292825289842090845290529087902060010154875194821694939116610f0984610c79565b87516306fdde0360e01b81525f81600481895afa908115611009575f9161102d575b50845287516306fdde0360e01b81525f81600481855afa908115611009575f91611013575b50602085015260045f895196610f6588610c79565b8a516395d89b4160e01b815292839182905afa918215611009576004925f928391610fef575b50875289516395d89b4160e01b815292839182905afa908115610fe557610fc09798505f91610fc3575b506020850152611100565b90565b610fdf91503d805f833e610fd78183610c94565b810190610ded565b5f610fb5565b88513d5f823e3d90fd5b61100391503d8085833e610fd78183610c94565b5f610f8b565b89513d5f823e3d90fd5b61102791503d805f833e610fd78183610c94565b5f610f50565b61104191503d805f833e610fd78183610c94565b5f610f2b565b855162461bcd60e51b815260206004820152601060248201526f14185a5c881b9bdd08195e1c1a5c995960821b6044820152606490fd5b855162461bcd60e51b815260206004820152601260248201527114185a5c881b9bdd081a5b9a5d1a585d195960721b6044820152606490fd5b9060028110156110c85760051b0190565b634e487b7160e01b5f52603260045260245ffd5b805180835260209291819084018484015e5f828201840152601f01601f1916010190565b90919392936040938480516111158282610c94565b36903760018060a01b03831692835f525f602052855f2060018060a01b0386165f526020525f806111966111ac60ff8a842054168a51906111568c83610c94565b6011825270034b9a830b4b924b734ba34b0ba32b21d1607d1b60208301528b5193849263c3b5563560e01b60208501528d602485015260648401906110dc565b901515604483015203601f198101835282610c94565b6020815191016a636f6e736f6c652e6c6f675afa50835f526002602052855f2060018060a01b0386165f5260205261120f865f205487516111ed8982610c94565b601081526f03830b4b922b73234b733aa34b6b29d160851b6020820152611590565b61123c865161121e8882610c94565b600a81526903232b0b23634b7329d160b51b60208201524290611590565b5f84815260208181528782206001600160a01b038816835290528690205460ff16158015611568575b15611530578461127491610d6f565b156114ec575f83815260208181528682206001600160a01b038716808452908252878320805460ff19166001908117909155868452825287832090835290528590204290819055908101908110610a19575f838152600260209081528682206001600160a01b03871683529052859020558351946112f28587610c94565b843687376115eb610b7f5f5b6002811061141157505086516020880151875197610140890197955093506001600160a01b039081169250166001600160401b03861187871017610c65579482529385526020808601948552650574fbde6000868301818152606088019182525f6080890181815260a08a0182815260c08b0183815260e08c018481526101008d018581526101208e018681529b86526003808a528a87206001600160a01b039c8d168852909952989094209b518c54908a166001600160a01b0319918216178d559a5160018d01805491909a169b169a909a17909755915160028a0155915192880192909255905160048701559151600586015592516006850155516007840155905160088301555160099091015590565b61141b81866110b7565b5161142682866110b7565b51895191848301908382106001600160401b03831117610c65578b61146e859461146062015180948a8c89396060875260608701906110dc565b9085820360208701526110dc565b92015203905ff08015610fe5576001600160a01b03168061148f838c6110b7565b52803b15610166575f809160448b51809481936340c10f1960e01b83523060048401526acecb8f27f4200f3a00000060248401525af180156110095790600192916114dc575b50016112fe565b5f6114e691610c94565b5f6114d5565b845162461bcd60e51b815260206004820152601f60248201527f50616972206e6f74207061697265642077697468204261736520546f6b656e006044820152606490fd5b855162461bcd60e51b815260206004820152601160248201527050616972207374696c6c2061637469766560781b6044820152606490fd5b505f848152600260209081528782206001600160a01b03881683529052869020544211611265565b6115bf6115d35f93928493604051938492632d839cb360e21b60208501526040602485015260648401906110dc565b90604483015203601f198101835282610c94565b6020815191016a636f6e736f6c652e6c6f675afa5056fe60806040523461034e57610b7f8038038061001981610352565b92833981019060608183031261034e5780516001600160401b03811161034e5782610045918301610377565b60208201519092906001600160401b03811161034e57604091610069918401610377565b91015182516001600160401b03811161025f57600354600181811c91168015610344575b602082101461024157601f81116102e1575b506020601f821160011461027e57819293945f92610273575b50508160011b915f199060031b1c1916176003555b81516001600160401b03811161025f57600454600181811c91168015610255575b602082101461024157601f81116101de575b50602092601f821160011461017d57928192935f92610172575b50508160011b915f199060031b1c1916176004555b600580546001600160a01b031916331790554290810190811061015e576006556040516107b690816103c98239f35b634e487b7160e01b5f52601160045260245ffd5b015190505f8061011a565b601f1982169360045f52805f20915f5b8681106101c657508360019596106101ae575b505050811b0160045561012f565b01515f1960f88460031b161c191690555f80806101a0565b9192602060018192868501518155019401920161018d565b60045f527f8a35acfbc15ff81a39ae7d344fd709f28e8600b4aa8c65c6b64bfe7fe36bd19b601f830160051c81019160208410610237575b601f0160051c01905b81811061022c5750610100565b5f815560010161021f565b9091508190610216565b634e487b7160e01b5f52602260045260245ffd5b90607f16906100ee565b634e487b7160e01b5f52604160045260245ffd5b015190505f806100b8565b601f1982169060035f52805f20915f5b8181106102c9575095836001959697106102b1575b505050811b016003556100cd565b01515f1960f88460031b161c191690555f80806102a3565b9192602060018192868b01518155019401920161028e565b60035f527fc2575a0e9e593c00f959f8c92f12db2869c3395a3b0502d05e2516446f71f85b601f830160051c8101916020841061033a575b601f0160051c01905b81811061032f575061009f565b5f8155600101610322565b9091508190610319565b90607f169061008d565b5f80fd5b6040519190601f01601f191682016001600160401b0381118382101761025f57604052565b81601f8201121561034e578051906001600160401b03821161025f576103a6601f8301601f1916602001610352565b928284526020838301011161034e57815f9260208093018386015e830101529056fe6080806040526004361015610012575f80fd5b5f3560e01c90816306fdde031461055857508063095ea7b3146104d657806318160ddd146104b957806323b872dd146103da578063313ce567146103bf57806336654887146103a257806340c10f191461029f57806370a08231146102685780638da5cb5b1461024057806395d89b4114610125578063a9059cbb146100f45763dd62ed3e146100a0575f80fd5b346100f05760403660031901126100f0576100b9610651565b6100c1610667565b6001600160a01b039182165f908152600160209081526040808320949093168252928352819020549051908152f35b5f80fd5b346100f05760403660031901126100f05761011a610110610651565b60243590336106c9565b602060405160018152f35b346100f0575f3660031901126100f0576040515f6004548060011c90600181168015610236575b6020831081146102225782855290811561020657506001146101b1575b50819003601f01601f191681019067ffffffffffffffff82118183101761019d5761019982918260405282610627565b0390f35b634e487b7160e01b5f52604160045260245ffd5b905060045f527f8a35acfbc15ff81a39ae7d344fd709f28e8600b4aa8c65c6b64bfe7fe36bd19b5f905b8282106101f057506020915082010182610169565b60018160209254838588010152019101906101db565b90506020925060ff191682840152151560051b82010182610169565b634e487b7160e01b5f52602260045260245ffd5b91607f169161014c565b346100f0575f3660031901126100f0576005546040516001600160a01b039091168152602090f35b346100f05760203660031901126100f0576001600160a01b03610289610651565b165f525f602052602060405f2054604051908152f35b346100f05760403660031901126100f0576102b8610651565b60055460243591906001600160a01b03163303610370576102dc600654421061067d565b6001600160a01b031690811561035d576102f9600654421061067d565b600254908082018092116103495760207fddf252ad1be2c89b69c2b068fc378daa952ba7f163c4a11628f55a4df523b3ef915f9360025584845283825260408420818154019055604051908152a3005b634e487b7160e01b5f52601160045260245ffd5b63ec442f0560e01b5f525f60045260245ffd5b60405162461bcd60e51b815260206004820152600a60248201526927a7262c9027aba722a960b11b6044820152606490fd5b346100f0575f3660031901126100f0576020600654604051908152f35b346100f0575f3660031901126100f057602060405160128152f35b346100f05760603660031901126100f0576103f3610651565b6103fb610667565b6001600160a01b0382165f818152600160209081526040808320338452909152902054909260443592915f198110610439575b5061011a93506106c9565b83811061049e57841561048b5733156104785761011a945f52600160205260405f2060018060a01b0333165f526020528360405f20910390558461042e565b634a1406b160e11b5f525f60045260245ffd5b63e602df0560e01b5f525f60045260245ffd5b8390637dc7a0d960e11b5f523360045260245260445260645ffd5b346100f0575f3660031901126100f0576020600254604051908152f35b346100f05760403660031901126100f0576104ef610651565b60243590331561048b576001600160a01b031690811561047857335f52600160205260405f20825f526020528060405f20556040519081527f8c5be1e5ebec7d5bd14f71427d1e84f3dd0314c0f7b2291e5b200ac8c7c3b92560203392a3602060405160018152f35b346100f0575f3660031901126100f0575f6003548060011c9060018116801561061d575b6020831081146102225782855290811561020657506001146105c85750819003601f01601f191681019067ffffffffffffffff82118183101761019d5761019982918260405282610627565b905060035f527fc2575a0e9e593c00f959f8c92f12db2869c3395a3b0502d05e2516446f71f85b5f905b82821061060757506020915082010182610169565b60018160209254838588010152019101906105f2565b91607f169161057c565b602060409281835280519182918282860152018484015e5f828201840152601f01601f1916010190565b600435906001600160a01b03821682036100f057565b602435906001600160a01b03821682036100f057565b1561068457565b60405162461bcd60e51b815260206004820152601d60248201527f544f4b454e20455850495245442c204d494e54494e4720434c4f5345440000006044820152606490fd5b6001600160a01b031690811561076d576001600160a01b031691821561035d576106f6600654421061067d565b815f525f60205260405f205481811061075457817fddf252ad1be2c89b69c2b068fc378daa952ba7f163c4a11628f55a4df523b3ef92602092855f525f84520360405f2055845f525f825260405f20818154019055604051908152a3565b8263391434e360e21b5f5260045260245260445260645ffd5b634b637e8f60e11b5f525f60045260245ffdfea2646970667358221220d6f942ae2c43716d98cba2b48a46ca73ec1b3f7cf1c27b8197cdb16f2d9705ff64736f6c634300081a0033a26469706673582212205143e7607012bcf06d5843e6dc93dc530e2b111d7b3d2a22151992a1c264795d64736f6c634300081a0033","linkReferences":{"src/lib/BondingCurve.sol":{"BondingCurve":[{"start":3162,"length":20}]}}},"methodIdentifiers":{"BASE_PRICE()":"f86325ed","FEE()":"c57981b5","SLOPE()":"8b7cc629","afterAddLiquidity(address,(address,address,uint24,int24,address),(int24,int24,int256,bytes32),int256,int256,bytes)":"9f063efc","afterDonate(address,(address,address,uint24,int24,address),uint256,uint256,bytes)":"e1b4af69","afterInitialize(address,(address,address,uint24,int24,address),uint160,int24)":"6fe7e6eb","afterRemoveLiquidity(address,(address,address,uint24,int24,address),(int24,int24,int256,bytes32),int256,int256,bytes)":"6c2bbe7e","afterSwap(address,(address,address,uint24,int24,address),(bool,int256,uint160),int256,bytes)":"b47b2fb1","baseToken()":"c55dae63","beforeAddLiquidity(address,(address,address,uint24,int24,address),(int24,int24,int256,bytes32),bytes)":"259982e5","beforeDonate(address,(address,address,uint24,int24,address),uint256,uint256,bytes)":"b6a8b0fa","beforeInitialize(address,(address,address,uint24,int24,address),uint160)":"dc98354e","beforeRemoveLiquidity(address,(address,address,uint24,int24,address),(int24,int24,int256,bytes32),bytes)":"21d0ee70","beforeSwap(address,(address,address,uint24,int24,address),(bool,int256,uint160),bytes)":"575e24b4","deploy2Currency(address,address,string[2],string[2],uint256)":"e7b29966","getHookPermissions()":"c4e833ce","isPairInitiated(address,address)":"6f5e84b6","isPairedWithBaseToken(address,address)":"96accffe","pairEndingTime(address,address)":"f9f9e221","pairInitiatedTime(address,address)":"caf70ff5","poolManager()":"dc4c90d3","resetPair(address,address,uint256)":"989840bd","transferVixtoken(address,uint256,address)":"df8c5270"},"id":94}