{"abi":[{"type":"constructor","inputs":[{"name":"poolManager","type":"address","internalType":"contract IPoolManager"},{"name":"_baseToken","type":"address","internalType":"address"},{"name":"_bondingCurve","type":"address","internalType":"address"},{"name":"slope","type":"uint256","internalType":"uint256"},{"name":"fee","type":"uint256","internalType":"uint256"},{"name":"basePrice","type":"uint256","internalType":"uint256"}],"stateMutability":"nonpayable"},{"type":"function","name":"BASE_PRICE","inputs":[],"outputs":[{"name":"","type":"uint256","internalType":"uint256"}],"stateMutability":"view"},{"type":"function","name":"FEE","inputs":[],"outputs":[{"name":"","type":"uint256","internalType":"uint256"}],"stateMutability":"view"},{"type":"function","name":"IV_TOKEN_SUPPLY","inputs":[],"outputs":[{"name":"","type":"uint256","internalType":"uint256"}],"stateMutability":"view"},{"type":"function","name":"RESERVE_SHIFT_SLOPE","inputs":[],"outputs":[{"name":"","type":"uint256","internalType":"uint256"}],"stateMutability":"view"},{"type":"function","name":"SLOPE","inputs":[],"outputs":[{"name":"","type":"uint256","internalType":"uint256"}],"stateMutability":"view"},{"type":"function","name":"afterAddLiquidity","inputs":[{"name":"sender","type":"address","internalType":"address"},{"name":"key","type":"tuple","internalType":"struct PoolKey","components":[{"name":"currency0","type":"address","internalType":"Currency"},{"name":"currency1","type":"address","internalType":"Currency"},{"name":"fee","type":"uint24","internalType":"uint24"},{"name":"tickSpacing","type":"int24","internalType":"int24"},{"name":"hooks","type":"address","internalType":"contract IHooks"}]},{"name":"params","type":"tuple","internalType":"struct IPoolManager.ModifyLiquidityParams","components":[{"name":"tickLower","type":"int24","internalType":"int24"},{"name":"tickUpper","type":"int24","internalType":"int24"},{"name":"liquidityDelta","type":"int256","internalType":"int256"},{"name":"salt","type":"bytes32","internalType":"bytes32"}]},{"name":"delta","type":"int256","internalType":"BalanceDelta"},{"name":"feesAccrued","type":"int256","internalType":"BalanceDelta"},{"name":"hookData","type":"bytes","internalType":"bytes"}],"outputs":[{"name":"","type":"bytes4","internalType":"bytes4"},{"name":"","type":"int256","internalType":"BalanceDelta"}],"stateMutability":"nonpayable"},{"type":"function","name":"afterDonate","inputs":[{"name":"sender","type":"address","internalType":"address"},{"name":"key","type":"tuple","internalType":"struct PoolKey","components":[{"name":"currency0","type":"address","internalType":"Currency"},{"name":"currency1","type":"address","internalType":"Currency"},{"name":"fee","type":"uint24","internalType":"uint24"},{"name":"tickSpacing","type":"int24","internalType":"int24"},{"name":"hooks","type":"address","internalType":"contract IHooks"}]},{"name":"amount0","type":"uint256","internalType":"uint256"},{"name":"amount1","type":"uint256","internalType":"uint256"},{"name":"hookData","type":"bytes","internalType":"bytes"}],"outputs":[{"name":"","type":"bytes4","internalType":"bytes4"}],"stateMutability":"nonpayable"},{"type":"function","name":"afterInitialize","inputs":[{"name":"sender","type":"address","internalType":"address"},{"name":"key","type":"tuple","internalType":"struct PoolKey","components":[{"name":"currency0","type":"address","internalType":"Currency"},{"name":"currency1","type":"address","internalType":"Currency"},{"name":"fee","type":"uint24","internalType":"uint24"},{"name":"tickSpacing","type":"int24","internalType":"int24"},{"name":"hooks","type":"address","internalType":"contract IHooks"}]},{"name":"sqrtPriceX96","type":"uint160","internalType":"uint160"},{"name":"tick","type":"int24","internalType":"int24"}],"outputs":[{"name":"","type":"bytes4","internalType":"bytes4"}],"stateMutability":"nonpayable"},{"type":"function","name":"afterRemoveLiquidity","inputs":[{"name":"sender","type":"address","internalType":"address"},{"name":"key","type":"tuple","internalType":"struct PoolKey","components":[{"name":"currency0","type":"address","internalType":"Currency"},{"name":"currency1","type":"address","internalType":"Currency"},{"name":"fee","type":"uint24","internalType":"uint24"},{"name":"tickSpacing","type":"int24","internalType":"int24"},{"name":"hooks","type":"address","internalType":"contract IHooks"}]},{"name":"params","type":"tuple","internalType":"struct IPoolManager.ModifyLiquidityParams","components":[{"name":"tickLower","type":"int24","internalType":"int24"},{"name":"tickUpper","type":"int24","internalType":"int24"},{"name":"liquidityDelta","type":"int256","internalType":"int256"},{"name":"salt","type":"bytes32","internalType":"bytes32"}]},{"name":"delta","type":"int256","internalType":"BalanceDelta"},{"name":"feesAccrued","type":"int256","internalType":"BalanceDelta"},{"name":"hookData","type":"bytes","internalType":"bytes"}],"outputs":[{"name":"","type":"bytes4","internalType":"bytes4"},{"name":"","type":"int256","internalType":"BalanceDelta"}],"stateMutability":"nonpayable"},{"type":"function","name":"afterSwap","inputs":[{"name":"sender","type":"address","internalType":"address"},{"name":"key","type":"tuple","internalType":"struct PoolKey","components":[{"name":"currency0","type":"address","internalType":"Currency"},{"name":"currency1","type":"address","internalType":"Currency"},{"name":"fee","type":"uint24","internalType":"uint24"},{"name":"tickSpacing","type":"int24","internalType":"int24"},{"name":"hooks","type":"address","internalType":"contract IHooks"}]},{"name":"params","type":"tuple","internalType":"struct IPoolManager.SwapParams","components":[{"name":"zeroForOne","type":"bool","internalType":"bool"},{"name":"amountSpecified","type":"int256","internalType":"int256"},{"name":"sqrtPriceLimitX96","type":"uint160","internalType":"uint160"}]},{"name":"delta","type":"int256","internalType":"BalanceDelta"},{"name":"hookData","type":"bytes","internalType":"bytes"}],"outputs":[{"name":"","type":"bytes4","internalType":"bytes4"},{"name":"","type":"int128","internalType":"int128"}],"stateMutability":"nonpayable"},{"type":"function","name":"baseToken","inputs":[],"outputs":[{"name":"","type":"address","internalType":"address"}],"stateMutability":"view"},{"type":"function","name":"beforeAddLiquidity","inputs":[{"name":"sender","type":"address","internalType":"address"},{"name":"key","type":"tuple","internalType":"struct PoolKey","components":[{"name":"currency0","type":"address","internalType":"Currency"},{"name":"currency1","type":"address","internalType":"Currency"},{"name":"fee","type":"uint24","internalType":"uint24"},{"name":"tickSpacing","type":"int24","internalType":"int24"},{"name":"hooks","type":"address","internalType":"contract IHooks"}]},{"name":"params","type":"tuple","internalType":"struct IPoolManager.ModifyLiquidityParams","components":[{"name":"tickLower","type":"int24","internalType":"int24"},{"name":"tickUpper","type":"int24","internalType":"int24"},{"name":"liquidityDelta","type":"int256","internalType":"int256"},{"name":"salt","type":"bytes32","internalType":"bytes32"}]},{"name":"hookData","type":"bytes","internalType":"bytes"}],"outputs":[{"name":"","type":"bytes4","internalType":"bytes4"}],"stateMutability":"nonpayable"},{"type":"function","name":"beforeDonate","inputs":[{"name":"sender","type":"address","internalType":"address"},{"name":"key","type":"tuple","internalType":"struct PoolKey","components":[{"name":"currency0","type":"address","internalType":"Currency"},{"name":"currency1","type":"address","internalType":"Currency"},{"name":"fee","type":"uint24","internalType":"uint24"},{"name":"tickSpacing","type":"int24","internalType":"int24"},{"name":"hooks","type":"address","internalType":"contract IHooks"}]},{"name":"amount0","type":"uint256","internalType":"uint256"},{"name":"amount1","type":"uint256","internalType":"uint256"},{"name":"hookData","type":"bytes","internalType":"bytes"}],"outputs":[{"name":"","type":"bytes4","internalType":"bytes4"}],"stateMutability":"nonpayable"},{"type":"function","name":"beforeInitialize","inputs":[{"name":"sender","type":"address","internalType":"address"},{"name":"key","type":"tuple","internalType":"struct PoolKey","components":[{"name":"currency0","type":"address","internalType":"Currency"},{"name":"currency1","type":"address","internalType":"Currency"},{"name":"fee","type":"uint24","internalType":"uint24"},{"name":"tickSpacing","type":"int24","internalType":"int24"},{"name":"hooks","type":"address","internalType":"contract IHooks"}]},{"name":"sqrtPriceX96","type":"uint160","internalType":"uint160"}],"outputs":[{"name":"","type":"bytes4","internalType":"bytes4"}],"stateMutability":"nonpayable"},{"type":"function","name":"beforeRemoveLiquidity","inputs":[{"name":"sender","type":"address","internalType":"address"},{"name":"key","type":"tuple","internalType":"struct PoolKey","components":[{"name":"currency0","type":"address","internalType":"Currency"},{"name":"currency1","type":"address","internalType":"Currency"},{"name":"fee","type":"uint24","internalType":"uint24"},{"name":"tickSpacing","type":"int24","internalType":"int24"},{"name":"hooks","type":"address","internalType":"contract IHooks"}]},{"name":"params","type":"tuple","internalType":"struct IPoolManager.ModifyLiquidityParams","components":[{"name":"tickLower","type":"int24","internalType":"int24"},{"name":"tickUpper","type":"int24","internalType":"int24"},{"name":"liquidityDelta","type":"int256","internalType":"int256"},{"name":"salt","type":"bytes32","internalType":"bytes32"}]},{"name":"hookData","type":"bytes","internalType":"bytes"}],"outputs":[{"name":"","type":"bytes4","internalType":"bytes4"}],"stateMutability":"nonpayable"},{"type":"function","name":"beforeSwap","inputs":[{"name":"sender","type":"address","internalType":"address"},{"name":"key","type":"tuple","internalType":"struct PoolKey","components":[{"name":"currency0","type":"address","internalType":"Currency"},{"name":"currency1","type":"address","internalType":"Currency"},{"name":"fee","type":"uint24","internalType":"uint24"},{"name":"tickSpacing","type":"int24","internalType":"int24"},{"name":"hooks","type":"address","internalType":"contract IHooks"}]},{"name":"params","type":"tuple","internalType":"struct IPoolManager.SwapParams","components":[{"name":"zeroForOne","type":"bool","internalType":"bool"},{"name":"amountSpecified","type":"int256","internalType":"int256"},{"name":"sqrtPriceLimitX96","type":"uint160","internalType":"uint160"}]},{"name":"hookData","type":"bytes","internalType":"bytes"}],"outputs":[{"name":"","type":"bytes4","internalType":"bytes4"},{"name":"","type":"int256","internalType":"BeforeSwapDelta"},{"name":"","type":"uint24","internalType":"uint24"}],"stateMutability":"nonpayable"},{"type":"function","name":"bondingCurve","inputs":[],"outputs":[{"name":"","type":"address","internalType":"contract IBondingCurve"}],"stateMutability":"view"},{"type":"function","name":"calculateIv","inputs":[{"name":"_poolAddress","type":"address","internalType":"address"},{"name":"volume","type":"uint160","internalType":"uint160"},{"name":"deriveAsset","type":"address","internalType":"address"}],"outputs":[{"name":"_iv","type":"uint160","internalType":"uint160"}],"stateMutability":"view"},{"type":"function","name":"deploy2Currency","inputs":[{"name":"deriveToken","type":"address","internalType":"address"},{"name":"_tokenName","type":"string[2]","internalType":"string[2]"},{"name":"_tokenSymbol","type":"string[2]","internalType":"string[2]"},{"name":"_poolAddress","type":"address","internalType":"address"},{"name":"volume","type":"uint160","internalType":"uint160"},{"name":"deadline","type":"uint256","internalType":"uint256"}],"outputs":[{"name":"","type":"address[2]","internalType":"address[2]"}],"stateMutability":"nonpayable"},{"type":"function","name":"getHookPermissions","inputs":[],"outputs":[{"name":"","type":"tuple","internalType":"struct Hooks.Permissions","components":[{"name":"beforeInitialize","type":"bool","internalType":"bool"},{"name":"afterInitialize","type":"bool","internalType":"bool"},{"name":"beforeAddLiquidity","type":"bool","internalType":"bool"},{"name":"afterAddLiquidity","type":"bool","internalType":"bool"},{"name":"beforeRemoveLiquidity","type":"bool","internalType":"bool"},{"name":"afterRemoveLiquidity","type":"bool","internalType":"bool"},{"name":"beforeSwap","type":"bool","internalType":"bool"},{"name":"afterSwap","type":"bool","internalType":"bool"},{"name":"beforeDonate","type":"bool","internalType":"bool"},{"name":"afterDonate","type":"bool","internalType":"bool"},{"name":"beforeSwapReturnDelta","type":"bool","internalType":"bool"},{"name":"afterSwapReturnDelta","type":"bool","internalType":"bool"},{"name":"afterAddLiquidityReturnDelta","type":"bool","internalType":"bool"},{"name":"afterRemoveLiquidityReturnDelta","type":"bool","internalType":"bool"}]}],"stateMutability":"pure"},{"type":"function","name":"getVixData","inputs":[{"name":"deriveAsset","type":"address","internalType":"address"}],"outputs":[{"name":"vixHighToken","type":"address","internalType":"address"},{"name":"_vixLowToken","type":"address","internalType":"address"},{"name":"_circulation0","type":"uint256","internalType":"uint256"},{"name":"_circulation1","type":"uint256","internalType":"uint256"},{"name":"_contractHoldings0","type":"uint256","internalType":"uint256"},{"name":"_contractHoldings1","type":"uint256","internalType":"uint256"},{"name":"_reserve0","type":"uint256","internalType":"uint256"},{"name":"_reserve1","type":"uint256","internalType":"uint256"},{"name":"_poolAddress","type":"address","internalType":"address"}],"stateMutability":"view"},{"type":"function","name":"isPairInitiated","inputs":[{"name":"","type":"address","internalType":"address"}],"outputs":[{"name":"","type":"bool","internalType":"bool"}],"stateMutability":"view"},{"type":"function","name":"pairEndingTime","inputs":[{"name":"","type":"address","internalType":"address"}],"outputs":[{"name":"","type":"uint256","internalType":"uint256"}],"stateMutability":"view"},{"type":"function","name":"pairInitiatedTime","inputs":[{"name":"","type":"address","internalType":"address"}],"outputs":[{"name":"","type":"uint256","internalType":"uint256"}],"stateMutability":"view"},{"type":"function","name":"poolManager","inputs":[],"outputs":[{"name":"","type":"address","internalType":"contract IPoolManager"}],"stateMutability":"view"},{"type":"function","name":"resetPair","inputs":[{"name":"deriveToken","type":"address","internalType":"address"},{"name":"deadline","type":"uint256","internalType":"uint256"},{"name":"_poolAddress","type":"address","internalType":"address"},{"name":"volume","type":"uint160","internalType":"uint160"}],"outputs":[{"name":"","type":"address[2]","internalType":"address[2]"}],"stateMutability":"nonpayable"},{"type":"function","name":"swapReserve","inputs":[{"name":"initialIv","type":"uint256","internalType":"uint256"},{"name":"currentIv","type":"uint256","internalType":"uint256"},{"name":"reserve0","type":"uint256","internalType":"uint256"},{"name":"reserve1","type":"uint256","internalType":"uint256"},{"name":"circulation0","type":"uint256","internalType":"uint256"},{"name":"circulation1","type":"uint256","internalType":"uint256"},{"name":"deriveAsset","type":"address","internalType":"address"}],"outputs":[{"name":"","type":"uint256","internalType":"uint256"},{"name":"","type":"uint256","internalType":"uint256"}],"stateMutability":"nonpayable"},{"type":"function","name":"unlockCallback","inputs":[{"name":"data","type":"bytes","internalType":"bytes"}],"outputs":[{"name":"","type":"bytes","internalType":"bytes"}],"stateMutability":"nonpayable"},{"type":"function","name":"vixTokensPrice","inputs":[{"name":"contractHoldings","type":"uint256","internalType":"uint256"}],"outputs":[{"name":"","type":"uint256","internalType":"uint256"}],"stateMutability":"view"},{"type":"event","name":"HookSwap","inputs":[{"name":"id","type":"bytes32","indexed":true,"internalType":"bytes32"},{"name":"sender","type":"address","indexed":true,"internalType":"address"},{"name":"amount0","type":"int128","indexed":false,"internalType":"int128"},{"name":"amount1","type":"int128","indexed":false,"internalType":"int128"},{"name":"hookLPfeeAmount0","type":"uint128","indexed":false,"internalType":"uint128"},{"name":"hookLPfeeAmount1","type":"uint128","indexed":false,"internalType":"uint128"}],"anonymous":false},{"type":"event","name":"PairExpired","inputs":[{"name":"deriveToken","type":"address","indexed":true,"internalType":"address"},{"name":"vixHighToken","type":"address","indexed":true,"internalType":"address"},{"name":"vixLowToken","type":"address","indexed":true,"internalType":"address"},{"name":"initatedIV","type":"uint256","indexed":false,"internalType":"uint256"},{"name":"expiredTime","type":"uint256","indexed":false,"internalType":"uint256"}],"anonymous":false},{"type":"event","name":"PairInitiated","inputs":[{"name":"_deriveToken","type":"address","indexed":true,"internalType":"address"},{"name":"_vixHighToken","type":"address","indexed":true,"internalType":"address"},{"name":"_vixLowToken","type":"address","indexed":true,"internalType":"address"},{"name":"_initiatedTime","type":"uint256","indexed":false,"internalType":"uint256"},{"name":"_deadline","type":"uint256","indexed":false,"internalType":"uint256"},{"name":"initiatedIV","type":"uint256","indexed":false,"internalType":"uint256"}],"anonymous":false},{"type":"error","name":"HookNotImplemented","inputs":[]},{"type":"error","name":"NotPoolManager","inputs":[]},{"type":"error","name":"invalidLiquidityAction","inputs":[]}],"bytecode":{"object":"0x60a06040523461030557604051601f61490d38819003918201601f19168301916001600160401b038311848410176103095780849260c0946040528339810103126103055780516001600160a01b0381168103610305576100626020830161033d565b9161006f6040820161033d565b9260608201519060a06080840151930151936080525f6101a061009061031d565b8281528260208201528260408201528260608201528260808201528260a08201528260c08201528260e0820152826101008201528261012082015282610140820152826101608201528261018082015201525f6101a06100ee61031d565b828152826020820152600160408201528260608201528260808201528260a0820152600160c0820152600160e082015282610100820152826101208201526001610140820152826101608201528261018082015201526120003016158015906102f8575b80156102e7575b80156102da575b80156102cd575b80156102c0575b80156102b0575b80156102a0575b8015610294575b8015610288575b8015610278575b801561026c575b8015610260575b8015610254575b6102415760018060a01b031660018060a01b0319600754161760075560035560045560055560018060a01b031660018060a01b031960085416176008556040516145bb908161035282396080518181816101d501528181610257015281816102a9015281816106e2015281816108eb0152818161096001528181610b0d01528181610bde015281816118f40152818161194701526122940152f35b630732d7b560e51b5f523060045260245ffd5b506001301615156101a6565b5060023016151561019f565b50600430161515610198565b5060083016151560011415610191565b5060103016151561018a565b50602030161515610183565b506040301615156001141561017c565b5060803016151560011415610175565b506101003016151561016e565b5061020030161515610167565b5061040030161515610160565b506108003016151560011415610159565b5061100030161515610152565b5f80fd5b634e487b7160e01b5f52604160045260245ffd5b604051906101c082016001600160401b0381118382101761030957604052565b51906001600160a01b03821682036103055756fe60806040526004361015610011575f80fd5b5f3560e01c806321d0ee7014611934578063259982e5146118e157806336808a7c146118bc5780634c001a9e1461187b578063575e24b414610b89578063591094e414610b4a5780636c2bbe7e146108d85780636fe7e6eb14610acf57806377295a8d14610a935780638b7cc62914610a7657806391dd73461461092e5780639f063efc146108d8578063a79a347814610853578063b47b2fb11461068c578063b6780bf214610591578063b6a8b0fa146101c2578063bb2ffdef14610559578063bec8064914610506578063c4e833ce1461039e578063c55dae6314610376578063c57981b514610359578063d111f97e14610321578063db6ba9d4146102d8578063dc4c90d314610294578063dc98354e14610226578063e1b4af69146101c2578063eff1d50e1461019a578063f86325ed1461017d5763fc63b1fd14610158575f80fd5b34610179575f366003190112610179576020604051666a94d74f4300008152f35b5f80fd5b34610179575f366003190112610179576020600554604051908152f35b34610179575f366003190112610179576008546040516001600160a01b039091168152602090f35b34610179576101d036611ca5565b5050507f00000000000000000000000000000000000000000000000000000000000000006001600160a01b03163303925061021791505057630a85dc2960e01b5f5260045ffd5b63570c108560e11b5f5260045ffd5b346101795760e03660031901126101795761023f61199e565b5060a036602319011261017957610254611988565b507f00000000000000000000000000000000000000000000000000000000000000006001600160a01b0316330361021757630a85dc2960e01b5f5260045ffd5b34610179575f366003190112610179576040517f00000000000000000000000000000000000000000000000000000000000000006001600160a01b03168152602090f35b346101795760803660031901126101795761031d6103116102f761199e565b6102ff6119ca565b6103076119b4565b9160243590612c9a565b60405191829182611c6e565b0390f35b34610179576020366003190112610179576001600160a01b0361034261199e565b165f526001602052602060405f2054604051908152f35b34610179575f366003190112610179576020600454604051908152f35b34610179575f366003190112610179576007546040516001600160a01b039091168152602090f35b34610179575f366003190112610179575f6101a06040516103be81611b5c565b8281528260208201528260408201528260608201528260808201528260a08201528260c08201528260e0820152826101008201528261012082015282610140820152826101608201528261018082015201526101c0602060405161042181611b5c565b5f8152818101905f82526040810160018152606082015f8152608083015f815260a084015f815260c085016001815260e0860190600182526101008701925f84526101208801945f8652610140890196600188526101608a01985f8a526101a06101808c019b5f8d52019b5f8d526040519d8e915f835251151591015251151560408d015251151560608c015251151560808b015251151560a08a015251151560c089015251151560e08801525115156101008701525115156101208601525115156101408501525115156101608401525115156101808301525115156101a0820152f35b346101795760603660031901126101795761051f61199e565b6024356001600160a01b038116810361017957602091610547916105416119ca565b91612533565b6040516001600160a01b039091168152f35b34610179576020366003190112610179576001600160a01b0361057a61199e565b165f526002602052602060405f2054604051908152f35b34610179576020366003190112610179576001600160a01b036105b261199e565b165f52600660205261012060405f20604051906105ce82611b40565b60018060a01b038154169182815260018060a01b03600183015416806020830152600283015480604084015260038401548060608501526004850154908160808601526005860154928360a08701526006870154948560c08801526007880154968760e08201528a60018060a01b0360088b015416998a610100840152600960018060a01b0391015416910152604051988952602089015260408801526060870152608086015260a085015260c084015260e0830152610100820152f35b3461017957610160366003190112610179576106a661199e565b5060a03660231901126101795760603660c319011261017957610144356001600160401b038111610179576106df9036906004016119f4565b907f00000000000000000000000000000000000000000000000000000000000000006001600160a01b031633036102175761071c91810190612ef4565b80516001600160a01b039081165f81815260066020908152604090912060088101546009909101549185015194519294918416936107609381169281169116612533565b91805f526006602052600660405f20015415158061083b575b610794575b6040805163b47b2fb160e01b81525f6020820152f35b5f8181526006602081905260409091209081015460078201546002830154600390930154610833966107d596919493916001600160a01b0390911690611db6565b9061080960409182516107e88482611b93565b600f81526e03932b9b2b93b329039b434b33a1d1608d1b60208201526138fe565b61081581519182611b93565b600c81526b03a37b5b2b710313ab9371d160a51b60208201526138fe565b80808061077e565b50805f526006602052600760405f2001541515610779565b346101795760c03660031901126101795761086c61199e565b6024356001600160401b0381116101795761088b903690600401611bcf565b6044356001600160401b038111610179576108aa903690600401611bcf565b916108b36119b4565b608435906001600160a01b03821682036101795761031d946103119460a43594611ffa565b34610179576108e636611a84565b5050507f00000000000000000000000000000000000000000000000000000000000000006001600160a01b0316330393506102179250505057630a85dc2960e01b5f5260045ffd5b34610179576020366003190112610179576004356001600160401b0381116101795761095e9036906004016119f4565b7f0000000000000000000000000000000000000000000000000000000000000000906001600160a01b038216330361021757826080918101031261017957604051610a4e926109ac82611b11565b610a3a8135808452610a246109c3602085016119e0565b610a0960208701938285526109ed60606109df60408a016119e0565b9860408b01998a52016119e0565b60608901818152936001600160a01b03918216918b9116612fdd565b845190518651916001600160a01b0391821691899116612fdd565b51835190309086906001600160a01b031661326e565b5190519130916001600160a01b031661326e565b61031d604051610a5f602082611b93565b5f8152604051918291602083526020830190611aed565b34610179575f366003190112610179576020600354604051908152f35b34610179576020366003190112610179576001600160a01b03610ab461199e565b165f525f602052602060ff60405f2054166040519015158152f35b346101795761010036600319011261017957610ae961199e565b5060a036602319011261017957610afe611988565b5060e4358060020b03610179577f00000000000000000000000000000000000000000000000000000000000000006001600160a01b0316330361021757630a85dc2960e01b5f5260045ffd5b34610179576020366003190112610179576020610b81670de0b6b3a7640000610b77600435600354611cfc565b0460055490611d9c565b604051908152f35b346101795761014036600319011261017957610ba361199e565b5060a03660231901126101795760603660c319011261017957610124356001600160401b03811161017957610bdc9036906004016119f4565b7f0000000000000000000000000000000000000000000000000000000000000000916001600160a01b038316330361021757610c1a91810190612ef4565b9060018060a01b0382511690610c586040928351610c388582611b93565b600e81526d03232b934bb329030b9b9b2ba1d160951b60208201526132bc565b6024356001600160a01b0381169081811415806101795760075460e435966001600160a01b039091168414905f8813801561186c57885b831561136357610c9d612f3a565b156110115750610cac90612f49565b516001600160a01b03165f90815260066020528690208261017957805487956001600160a01b03909116908114908115610fef575b5015610e7f57600854600354600283018054600554600480549a5163709cb5bb60e01b81529081019490945260248401829052604484018d90526064840152608483019890985290969091602090889060a49082906001600160a01b03165afa968715610e7557908a915f98610e37575b506004840180548301905501905560060180548501905515610dea57610179578181610d81925084309161326e565b604435936001600160a01b038516850361017957610dbd6001600160801b0382610db48294895f9860609b503091613207565b16600f0b6139e6565b9116600f0b5b6001600160801b03169060801b17915b8051926315d7892d60e21b84526020840152820152f35b9094906044356001600160a01b0381168103610179578381610e0f925086309161326e565b61017957610dbd6001600160801b0382610e328294895f9860609b503091613207565b610db4565b9392915096506020833d602011610e6d575b81610e5660209383611b93565b810103126101795789600693519790919293610d52565b3d9150610e49565b89513d5f823e3d90fd5b600854600380549083018054600554600480549a5163709cb5bb60e01b81529081019490945260248401829052604484018d90526064840152608483019890985290969091602090889060a49082906001600160a01b03165afa968715610e7557908a915f98610fb1575b50839291610f0a91600560079601610f03838254611d9c565b9055611d9c565b905501610f18858254611d9c565b905515610f6f57610179578181610f32925084309161326e565b604435936001600160a01b038516850361017957610f656001600160801b0382610db48294895f9860609b503091613207565b9116600f0b610dc3565b5093916044356001600160a01b0381168103610179576001600160801b0384610e325f966060998496610faa8988610f65995083309161326e565b3091613207565b9392915096506020833d602011610fe7575b81610fd060209383611b93565b810103126101795791519590919089906007610eea565b3d9150610fc3565b604435965090506001600160a01b038616808703610179578896501489610ce1565b61102191505f9099969912612f8b565b516001600160a01b03165f908152600660205286902096826101795787546001600160a01b0316908114908115611344575b50156111dd57600854600354600289018054600554600480548c516297da2760e81b81529182019590955260248101839052604481018a9052606481019190915260848101939093529199929091906001600160a01b03168a60a4815a93602094fa998a15610e75575f9a6111a1575b50906110e38784936004600696016110dc838254611da9565b9055611da9565b9055016110f1888254611da9565b9055156111595761017957848161110b9250843091613207565b604435936001600160a01b03851685036101795761113e6001600160801b038092610db485895f9860609b50309161326e565b9116600f0b905b6001600160801b03169060801b1791610dd3565b9094906044356001600160a01b038116810361017957828161117e9250863091613207565b6101795761113e6001600160801b038092610e3285895f9860609b50309161326e565b92919099506020833d6020116111d5575b816111bf60209383611b93565b81010312610179579151989091906110e36110c3565b3d91506111b2565b600854600380549089018054600554600480548c516297da2760e81b81529182019590955260248101839052604481018a9052606481019190915260848101939093529199929091906001600160a01b03168a60a4815a93602094fa998a15610e75575f9a611308575b50906112608784936005600796016110dc838254611da9565b90550161126e888254611da9565b9055156112c6576101795784816112889250843091613207565b604435936001600160a01b0385168503610179576112bb6001600160801b038092610db485895f9860609b50309161326e565b9116600f0b90611145565b5093916044356001600160a01b0381168103610179576001600160801b0384610e328560609984966113015f9a886112bb9950833091613207565b309161326e565b92919099506020833d60201161133c575b8161132660209383611b93565b8101031261017957915198909190611260611247565b3d9150611319565b90506044356001600160a01b0381169081810361017957501488611053565b919250611371989598612f3a565b1561157e57505f6113829112612f8b565b516001600160a01b03165f908152600660205285812096826101795787546001600160a01b031690811490811561155f575b501561144657600854600354600289018054600554600480548c516297da2760e81b81529182019590955260248101839052604481018a9052606481019190915260848101939093529199929091906001600160a01b03168a60a4815a93602094fa998a1561143c57849a6111a15750906110e38784936004600696016110dc838254611da9565b89513d86823e3d90fd5b5050600854600380549087018054600554600480548a516297da2760e81b81529182019590955260248101839052604481018890526064810191909152608481019390935293979195939192909190602090879060a49082906001600160a01b03165afa958615611555575f96611519575b50906114d18584936005600796016110dc838254611da9565b9055016114df848254611da9565b90556044356001600160a01b0381168103610179576001600160801b0384610db48560609984966113015f9a886112bb9950833091613207565b92919095506020833d60201161154d575b8161153760209383611b93565b81010312610179579151949091906114d16114b8565b3d915061152a565b87513d5f823e3d90fd5b90506044356001600160a01b03811690818103610179575014886113b4565b905061158f91925096929396612f49565b516001600160a01b039081165f9081526006602052858120805491938493919290911690811490811561184d575b501561173557600854600354600283018054600554600480548c5163709cb5bb60e01b81529182019590955260248101839052604481018d905260648101919091526084810193909352919695949392909190602090889060a49082906001600160a01b03165afa96871561143c57908a9185986116f7575b5060048401805483019055019055600601805485019055156116af57610179578181611665925084309161326e565b604435936001600160a01b0385168503610179576116986001600160801b0382610db48294895f9860609b503091613207565b60801b6001600160801b0391909216161791610dd3565b9094906044356001600160a01b03811681036101795783816116d4925086309161326e565b610179576116986001600160801b0382610e328294895f9860609b503091613207565b9392915096506020833d60201161172d575b8161171660209383611b93565b810103126101795789600693519790919293611636565b3d9150611709565b600854600380549083018054600554600480548c5163709cb5bb60e01b81529182019590955260248101839052604481018d90526064810191909152608481019390935296999791955090935090602090859060a49082906001600160a01b03165afa9384156115555786905f95611813575b506117c190600794959660058501610f03838254611d9c565b9055016117cf838254611d9c565b90556044356001600160a01b0381168103610179576001600160801b0384610db45f966060998496610faa8988611809995083309161326e565b9116600f0b611145565b939450506020833d602011611845575b8161183060209383611b93565b810103126101795791519291856117c16117a8565b3d9150611823565b90506044356001600160a01b03811690818103610179575014886115bd565b61187589612f2a565b98610c8f565b346101795760e03660031901126101795760406118b0611899611988565b60a435608435606435604435602435600435611db6565b82519182526020820152f35b34610179575f3660031901126101795760206040516acecb8f27f4200f3a0000008152f35b34610179576118ef36611a21565b5050507f00000000000000000000000000000000000000000000000000000000000000006001600160a01b03163303915061021790505762c890a560e31b5f5260045ffd5b346101795761194236611a21565b5050507f00000000000000000000000000000000000000000000000000000000000000006001600160a01b031633039150610217905057630a85dc2960e01b5f5260045ffd5b60c435906001600160a01b038216820361017957565b600435906001600160a01b038216820361017957565b606435906001600160a01b038216820361017957565b604435906001600160a01b038216820361017957565b35906001600160a01b038216820361017957565b9181601f84011215610179578235916001600160401b038311610179576020838186019501011161017957565b90610160600319830112610179576004356001600160a01b0381168103610179579160a060231982011261017957602491608060c3198301126101795760c49161014435906001600160401b03821161017957611a80916004016119f4565b9091565b906101a0600319830112610179576004356001600160a01b0381168103610179579160a060231982011261017957602491608060c3198301126101795760c4916101443591610164359161018435906001600160401b03821161017957611a80916004016119f4565b805180835260209291819084018484015e5f828201840152601f01601f1916010190565b608081019081106001600160401b03821117611b2c57604052565b634e487b7160e01b5f52604160045260245ffd5b61014081019081106001600160401b03821117611b2c57604052565b6101c081019081106001600160401b03821117611b2c57604052565b604081019081106001600160401b03821117611b2c57604052565b90601f801991011681019081106001600160401b03821117611b2c57604052565b6001600160401b038111611b2c57601f01601f191660200190565b9080601f830112156101795760409160405192611bed604085611b93565b8360408301928484116101795780915b848310611c0d5750505050505090565b82356001600160401b03811161017957820186601f8201121561017957803591611c3683611bb4565b611c4287519182611b93565b8381528860208585010111610179575f6020858196828097018386013783010152815201920191611bfd565b919060408301925f905b60028210611c8557505050565b82516001600160a01b031681526020928301926001929092019101611c78565b610120600319820112610179576004356001600160a01b0381168103610179579160a06023198301126101795760249160c4359160e4359161010435906001600160401b03821161017957611a80916004016119f4565b81810292918115918404141715611d0f57565b634e487b7160e01b5f52601160045260245ffd5b8115611d2d570490565b634e487b7160e01b5f52601260045260245ffd5b15611d4857565b60405162461bcd60e51b815260206004820152602660248201527f726573657276652073686966742073686f756c6420626520677265617465722060448201526507468616e20360d41b6064820152608490fd5b91908201809211611d0f57565b91908203918211611d0f57565b969593949681811180611fc4575b15611eb557505080666a94d74f43000002666a94d74f43000081048203611d0f57670de0b6b3a7640000611e05910494611dff861515611d41565b85611cfc565b60018201809211611d0f57611e2491611e1d91611d23565b9584611cfc565b9060018101809111611d0f57611e3991611d23565b9060018060a01b0316805f526006602052600660405f2001611e5c848254611da9565b9055805f526006602052600760405f2001611e78848254611d9c565b9055805f526006602052600460405f2001611e94868254611da9565b90555f526006602052611eaf600560405f2001918254611d9c565b90559190565b969493969291921080611fb3575b15611fa75780666a94d74f43000002666a94d74f43000081048203611d0f57670de0b6b3a7640000611efc910494611dff861515611d41565b60018201809211611d0f57611f1b91611f1491611d23565b9284611cfc565b9060018101809111611d0f57611f3091611d23565b9360018060a01b031690815f526006602052600660405f2001611f54848254611d9c565b9055815f526006602052600760405f2001611f70848254611da9565b9055815f526006602052611f8c600560405f2001918254611da9565b90555f526006602052600460405f2001611eaf848254611d9c565b5050505090505f905f90565b50670de0b6b3a76400008111611ec3565b50670de0b6b3a76400008311611dc4565b906002811015611fe65760051b0190565b634e487b7160e01b5f52603260045260245ffd5b9493929091946040938480516120108282611b93565b36903760018060a01b03821693845f525f60205260ff865f2054161580156124c8575b1561249057845f525f602052855f20600160ff19825416179055845f52600160205242865f20556120648742611d9c565b855f526002602052865f205585519761207d878a611b93565b86368a37613a07610b7f5f5b600281106123a1575050505050906120a19183612533565b8551602087018051865191966001600160a01b03918216959094929360099392166120cb85611b40565b8452602084019586528484015f8152606085015f8152608086015f815260a08701905f825260c08801925f845260e08901945f86526101008a019660018060a01b031687526101208a019760018060a01b03169b8c89528d5f5260066020528b5f209a60018060a01b039060018060a01b03905116166001600160601b0360a01b8c5416178b5560018060a01b0390511660018b019060018060a01b03166001600160601b0360a01b8254161790555160028a015551600389015551600488015551600587015551600686015551600785015560018060a01b03905116600884019060018060a01b03166001600160601b0360a01b82541617905560018060a01b0390511691019060018060a01b03166001600160601b0360a01b82541617905561228f5f60018060a01b0388511660018060a01b038751166060855161221181611b11565b6acecb8f27f4200f3a0000008082526020808301958652888301948552309390920192835287519182015292516001600160a01b03908116848801529151821660608401525116608080830191909152815261226e60a082611b93565b8351809381926348c8949160e01b8352602060048401526024830190611aed565b0381837f00000000000000000000000000000000000000000000000000000000000000006001600160a01b03165af1801561239757612320575b50855193516001600160a01b03908116959416937f560daaa031b8b3b2e5f80ba407405817b87a0643c3dfdda220be3c7f1e1cb0d3926060929161230d9042611d9c565b918051924284526020840152820152a490565b903d805f843e6123308184611b93565b820191602081840312610179578051906001600160401b03821161017957019282601f850112156101795761238e6060938560207f560daaa031b8b3b2e5f80ba407405817b87a0643c3dfdda220be3c7f1e1cb0d397519101612c2e565b509250906122c9565b82513d5f823e3d90fd5b6123ab8186611fd5565b516123b68286611fd5565b518b5191848301908382106001600160401b03831117611b2c578d6123fe85946123f062015180948a8c8939606087526060870190611aed565b908582036020870152611aed565b92015203905ff08015612486576001600160a01b03168061241f838f611fd5565b52803b15610179575f809160448d51809481936340c10f1960e01b83523060048401526acecb8f27f4200f3a00000060248401525af1801561247c57906001929161246c575b5001612089565b5f61247691611b93565b5f612465565b8b513d5f823e3d90fd5b8a513d5f823e3d90fd5b855162461bcd60e51b815260206004820152601160248201527050616972207374696c6c2061637469766560781b6044820152606490fd5b50845f526002602052855f20544211612033565b51908160020b820361017957565b519061ffff8216820361017957565b519060ff8216820361017957565b5190811515820361017957565b9081602091031261017957516001600160a01b03811681036101795790565b9291926040906125698183516125498582611b93565b600e81526d03837b7b61030b2323932b9b99d160951b60208201526132bc565b8151630d34328160e11b8152946001600160a01b039190911690602086600481855afa958615612c24575f96612be0575b508251633850c7bd60e01b81529160e083600481845afa928315612bd6575f93612b46575b5083516334324e9f60e21b815290602082600481845afa918215612b3c575f92612b00575b508451630dfe168160e01b815297602089600481855afa988915612af6575f99612ad5575b50855163d21220a760e01b81529860208a600481865afa928315611555576004969798999a5f94612aa3575b5060209089519788809263ddca3f4360e01b82525afa958615612a1a575f96612a63575b50875163313ce56760e01b81526001600160a01b03919091169290602081600481875afa8015610e7557612a24575b50875163313ce56760e01b815290602090829060049082906001600160a01b03165afa8015612a1a576129e3575b508560020b9260020b8015611d2d57627fffff1984145f19821416611d0f578080850560020b02908160020b918203611d0f57810192627fffff8413627fffff19851217611d0f5761271a61271461270e5f94613321565b95613321565b98613321565b9560018060a01b0316149312955f8089516127358b82611b93565b600a8152696973426173655a65726f60b01b60208201526127888b612774815193849263c3b5563560e01b602085015260248401526064830190611aed565b89604483015203601f198101835282611b93565b6020815191016a636f6e736f6c652e6c6f675afa5084808203830260601b04049184030260601c9280028060c01c928660011491826129ce575b5083670de0b6b3a764000004916129b4575b6001146129a957500201915b60011461299a576103e862ffffff6012925b61281f8587516128028982611b93565b600b81526a03634b8bab4b234ba3c9d160ad1b60208201526138fe565b61285a86519461282f8887611b93565b600d86526c039b1b0b632a330b1ba37b91d1609d1b60208701526001600160a01b03169485906138fe565b1604936001600160a01b03908116670de0b6b3a764000081810290921692918184041490151715611d0f576128aa926128956128a492613941565b906001600160a01b03166139c7565b906139c7565b6001600160a01b038116925f600385111561298a575090928391906001016001600160a01b038111611d0f5760011c60016001609f1b0316935b6001600160a01b038581169190811682101561292d575061290585846139c7565b6001600160a01b0390811691909101908111611d0f5760011c60016001609f1b0316936128e4565b92505092505b60019290921b6301fffffe16916001600160a01b039081168381029091169280159084049091141715611d0f57816129879161297181519182611b93565b6004815263034bb1d160e51b60208201526138fe565b90565b9150921561293357506001612933565b6103e862ffffff6024926127f2565b9150910201916127e0565b9050826ec097ce7bc90715b34b9f100000000004906127d4565b670de0b6b3a76400000260c01c93505f6127c2565b6020813d602011612a12575b816129fc60209383611b93565b8101031261017957612a0d906124f9565b6126b6565b3d91506129ef565b88513d5f823e3d90fd5b6020813d602011612a5b575b81612a3d60209383611b93565b8101031261017957600491612a536020926124f9565b509150612688565b3d9150612a30565b9095506020813d602011612a9b575b81612a7f60209383611b93565b81010312610179575162ffffff8116810361017957945f612659565b3d9150612a72565b6020919450612ac790823d8411612ace575b612abf8183611b93565b810190612514565b9390612635565b503d612ab5565b612aef91995060203d602011612ace57612abf8183611b93565b975f612609565b86513d5f823e3d90fd5b9091506020813d602011612b34575b81612b1c60209383611b93565b8101031261017957612b2d906124dc565b905f6125e4565b3d9150612b0f565b85513d5f823e3d90fd5b90925060e0813d60e011612bce575b81612b6260e09383611b93565b810103126101795780516001600160a01b0381160361017957612bc660c0612b8c602084016124dc565b92612b988782016124ea565b50612ba5606082016124ea565b50612bb2608082016124ea565b50612bbf60a082016124f9565b5001612507565b50915f6125bf565b3d9150612b55565b84513d5f823e3d90fd5b9095506020813d602011612c1c575b81612bfc60209383611b93565b8101031261017957516001600160801b038116810361017957945f61259a565b3d9150612bef565b83513d5f823e3d90fd5b929192612c3a82611bb4565b91612c486040519384611b93565b829481845281830111610179578281602093845f96015e010152565b602081830312610179578051906001600160401b03821161017957019080601f8301121561017957815161298792602001612c2e565b919092604093848051612cad8282611b93565b36903760018060a01b03841691825f525f602052600160ff875f205416151503612ebb57825f526002602052855f205442115f14612e84575f8381526006602052869020805460019091015487516001600160a01b0391821697919092169591612d1681611b78565b88516306fdde0360e01b81525f816004818b5afa908115612486575f91612e6a575b50815288516306fdde0360e01b81525f816004818c5afa908115612486575f91612e50575b506020820152885191612d6f83611b78565b89516395d89b4160e01b81525f816004818c5afa90811561247c575f91612e36575b50835289516395d89b4160e01b81525f816004818d5afa90811561247c57917fcb3fbe718785507e72e2e217e13371632ac8bdcd85c308ca838df4f28bdd49e097959391612ded9795935f91612e14575b506020840152611ffa565b94825f52600660205260018060a01b036009825f200154168151908152426020820152a490565b612e3091503d805f833e612e288183611b93565b810190612c64565b5f612de2565b612e4a91503d805f833e612e288183611b93565b5f612d91565b612e6491503d805f833e612e288183611b93565b5f612d5d565b612e7e91503d805f833e612e288183611b93565b5f612d38565b855162461bcd60e51b815260206004820152601060248201526f14185a5c881b9bdd08195e1c1a5c995960821b6044820152606490fd5b855162461bcd60e51b815260206004820152601260248201527114185a5c881b9bdd081a5b9a5d1a585d195960721b6044820152606490fd5b9081604091031261017957612f22602060405192612f1184611b78565b612f1a816119e0565b8452016119e0565b602082015290565b600160ff1b8114611d0f575f0390565b60c43580151581036101795790565b15612f5057565b60405162461bcd60e51b8152602060048201526013602482015272195e1858dd125b881b9bdd08185b1b1bddd959606a1b6044820152606490fd5b15612f9257565b60405162461bcd60e51b8152602060048201526014602482015273195e1858dd13dd5d081b9bdd08185b1b1bddd95960621b6044820152606490fd5b90816020910312610179575190565b6001600160a01b0316939291846130575750604051630476982d60e21b8152929350602091839160049183916001600160a01b03165af1801561304c576130215750565b6130429060203d602011613045575b61303a8183611b93565b810190612fce565b50565b503d613030565b6040513d5f823e3d90fd5b916001600160a01b0390911690813b1561017957604051632961046560e21b815260048101869052925a935f816024818388819af1801561304c576131f2575b506001600160a01b0316308114613166579060646020928560405198899485936323b872dd60e01b8552600485015287602485015260448401525af193841561315b57829394613117575b506020905b600460405180958193630476982d60e21b83525af190811561310b57506130215750565b604051903d90823e3d90fd5b9091506020813d602011613153575b8161313360209383611b93565b8101031261314f578291613148602092612507565b50906130e2565b8280fd5b3d9150613126565b6040513d84823e3d90fd5b5060405163a9059cbb60e01b81526001600160a01b03831660048201526024810191909152936020908590604490829086905af193841561315b578293946131b2575b506020906130e7565b9091506020813d6020116131ea575b816131ce60209383611b93565b8101031261314f5782916131e3602092612507565b50906131a9565b3d91506131c1565b6131ff9194505f90611b93565b5f925f613097565b9192906001600160a01b0316803b1561017957604051637a94c56560e11b81526001600160a01b03948516600482015293909216602484015260448301525f908290818381606481015b03925af1801561304c576132625750565b5f61326c91611b93565b565b9192906001600160a01b0316803b1561017957604051630ab714fb60e11b81526001600160a01b03948516600482015293909216602484015260448301525f90829081838160648101613251565b6132eb61330a5f9392849360405193849263319af33360e01b6020850152604060248501526064840190611aed565b6001600160a01b0391909116604483015203601f198101835282611b93565b6020815191016a636f6e736f6c652e6c6f675afa50565b60020b5f8112156138f85761333581612f2a565b905b620d89e882116138cf5760018216156138bd576001600160881b036ffffcb933bd6fad37aa2d162d1a5940015b169160028116613882575b60048116613847575b6008811661380c575b601081166137d1575b60208116613796575b6040811661375b575b60808116613720575b61010081166136e5575b61020081166136aa575b610400811661366f575b6108008116613634575b61100081166135f9575b61200081166135be575b6140008116613583575b6180008116613548575b62010000811661350d575b6202000081166134d4575b62040000811661349d575b620800001661346a575b5f1261345c575b63ffffffff81166134515761344d5f915b6001600160a01b039260ff169060201c611d9c565b1690565b61344d600191613438565b8015611d2d575f1904613427565b906b048a170391f7dc42444e8fa28102908082046b048a170391f7dc42444e8fa21490151715611d0f5760801c90613420565b916d2216e584f5fa1ea926041bedfe988102908082046d2216e584f5fa1ea926041bedfe981490151715611d0f5760801c91613416565b916e5d6af8dedb81196699c329225ee6048102908082046e5d6af8dedb81196699c329225ee6041490151715611d0f5760801c9161340b565b916f09aa508b5b7a84e1c677de54f3e99bc98102908082046f09aa508b5b7a84e1c677de54f3e99bc91490151715611d0f5760801c91613400565b916f31be135f97d08fd981231505542fcfa68102908082046f31be135f97d08fd981231505542fcfa61490151715611d0f5760801c916133f5565b916f70d869a156d2a1b890bb3df62baf32f78102908082046f70d869a156d2a1b890bb3df62baf32f71490151715611d0f5760801c916133eb565b916fa9f746462d870fdf8a65dc1f90e061e58102908082046fa9f746462d870fdf8a65dc1f90e061e51490151715611d0f5760801c916133e1565b916fd097f3bdfd2022b8845ad8f792aa58258102908082046fd097f3bdfd2022b8845ad8f792aa58251490151715611d0f5760801c916133d7565b916fe7159475a2c29b7443b29c7fa6e889d98102908082046fe7159475a2c29b7443b29c7fa6e889d91490151715611d0f5760801c916133cd565b916ff3392b0822b70005940c7a398e4b70f38102908082046ff3392b0822b70005940c7a398e4b70f31490151715611d0f5760801c916133c3565b916ff987a7253ac413176f2b074cf7815e548102908082046ff987a7253ac413176f2b074cf7815e541490151715611d0f5760801c916133b9565b916ffcbe86c7900a88aedcffc83b479aa3a48102908082046ffcbe86c7900a88aedcffc83b479aa3a41490151715611d0f5760801c916133af565b916ffe5dee046a99a2a811c461f1969c30538102908082046ffe5dee046a99a2a811c461f1969c30531490151715611d0f5760801c916133a5565b916fff2ea16466c96a3843ec78b326b528618102908082046fff2ea16466c96a3843ec78b326b528611490151715611d0f5760801c9161339c565b916fff973b41fa98c081472e6896dfb254c08102908082046fff973b41fa98c081472e6896dfb254c01490151715611d0f5760801c91613393565b916fffcb9843d60f6159c9db58835c9266448102908082046fffcb9843d60f6159c9db58835c9266441490151715611d0f5760801c9161338a565b916fffe5caca7e10e4e61c3624eaa0941cd08102908082046fffe5caca7e10e4e61c3624eaa0941cd01490151715611d0f5760801c91613381565b916ffff2e50f5f656932ef12357cf3c7fdcc8102908082046ffff2e50f5f656932ef12357cf3c7fdcc1490151715611d0f5760801c91613378565b916ffff97272373d413259a46990580e213a8102908082046ffff97272373d413259a46990580e213a1490151715611d0f5760801c9161336f565b6001600160881b03600160801b613364565b60405162461bcd60e51b81526020600482015260016024820152601560fa1b6044820152606490fd5b80613337565b61392d61330a5f93928493604051938492632d839cb360e21b6020850152604060248501526064840190611aed565b90604483015203601f198101835282611b93565b80156139c15760208110600116604e8210600116176139ad576001600a915b6001811161397e57506001600160a01b038290048111611d0f570290565b916001600160a01b038190048111611d0f57600183166139a4575b80029160011c613960565b80910290613999565b600a0a906001600160a01b038211611d0f57565b50600190565b6001600160a01b03909116908115611d2d576001600160a01b03160490565b600f0b6f7fffffffffffffffffffffffffffffff198114611d0f575f039056fe60806040523461034e57610b7f8038038061001981610352565b92833981019060608183031261034e5780516001600160401b03811161034e5782610045918301610377565b60208201519092906001600160401b03811161034e57604091610069918401610377565b91015182516001600160401b03811161025f57600354600181811c91168015610344575b602082101461024157601f81116102e1575b506020601f821160011461027e57819293945f92610273575b50508160011b915f199060031b1c1916176003555b81516001600160401b03811161025f57600454600181811c91168015610255575b602082101461024157601f81116101de575b50602092601f821160011461017d57928192935f92610172575b50508160011b915f199060031b1c1916176004555b600580546001600160a01b031916331790554290810190811061015e576006556040516107b690816103c98239f35b634e487b7160e01b5f52601160045260245ffd5b015190505f8061011a565b601f1982169360045f52805f20915f5b8681106101c657508360019596106101ae575b505050811b0160045561012f565b01515f1960f88460031b161c191690555f80806101a0565b9192602060018192868501518155019401920161018d565b60045f527f8a35acfbc15ff81a39ae7d344fd709f28e8600b4aa8c65c6b64bfe7fe36bd19b601f830160051c81019160208410610237575b601f0160051c01905b81811061022c5750610100565b5f815560010161021f565b9091508190610216565b634e487b7160e01b5f52602260045260245ffd5b90607f16906100ee565b634e487b7160e01b5f52604160045260245ffd5b015190505f806100b8565b601f1982169060035f52805f20915f5b8181106102c9575095836001959697106102b1575b505050811b016003556100cd565b01515f1960f88460031b161c191690555f80806102a3565b9192602060018192868b01518155019401920161028e565b60035f527fc2575a0e9e593c00f959f8c92f12db2869c3395a3b0502d05e2516446f71f85b601f830160051c8101916020841061033a575b601f0160051c01905b81811061032f575061009f565b5f8155600101610322565b9091508190610319565b90607f169061008d565b5f80fd5b6040519190601f01601f191682016001600160401b0381118382101761025f57604052565b81601f8201121561034e578051906001600160401b03821161025f576103a6601f8301601f1916602001610352565b928284526020838301011161034e57815f9260208093018386015e830101529056fe6080806040526004361015610012575f80fd5b5f3560e01c90816306fdde031461055857508063095ea7b3146104d657806318160ddd146104b957806323b872dd146103da578063313ce567146103bf57806336654887146103a257806340c10f191461029f57806370a08231146102685780638da5cb5b1461024057806395d89b4114610125578063a9059cbb146100f45763dd62ed3e146100a0575f80fd5b346100f05760403660031901126100f0576100b9610651565b6100c1610667565b6001600160a01b039182165f908152600160209081526040808320949093168252928352819020549051908152f35b5f80fd5b346100f05760403660031901126100f05761011a610110610651565b60243590336106c9565b602060405160018152f35b346100f0575f3660031901126100f0576040515f6004548060011c90600181168015610236575b6020831081146102225782855290811561020657506001146101b1575b50819003601f01601f191681019067ffffffffffffffff82118183101761019d5761019982918260405282610627565b0390f35b634e487b7160e01b5f52604160045260245ffd5b905060045f527f8a35acfbc15ff81a39ae7d344fd709f28e8600b4aa8c65c6b64bfe7fe36bd19b5f905b8282106101f057506020915082010182610169565b60018160209254838588010152019101906101db565b90506020925060ff191682840152151560051b82010182610169565b634e487b7160e01b5f52602260045260245ffd5b91607f169161014c565b346100f0575f3660031901126100f0576005546040516001600160a01b039091168152602090f35b346100f05760203660031901126100f0576001600160a01b03610289610651565b165f525f602052602060405f2054604051908152f35b346100f05760403660031901126100f0576102b8610651565b60055460243591906001600160a01b03163303610370576102dc600654421061067d565b6001600160a01b031690811561035d576102f9600654421061067d565b600254908082018092116103495760207fddf252ad1be2c89b69c2b068fc378daa952ba7f163c4a11628f55a4df523b3ef915f9360025584845283825260408420818154019055604051908152a3005b634e487b7160e01b5f52601160045260245ffd5b63ec442f0560e01b5f525f60045260245ffd5b60405162461bcd60e51b815260206004820152600a60248201526927a7262c9027aba722a960b11b6044820152606490fd5b346100f0575f3660031901126100f0576020600654604051908152f35b346100f0575f3660031901126100f057602060405160128152f35b346100f05760603660031901126100f0576103f3610651565b6103fb610667565b6001600160a01b0382165f818152600160209081526040808320338452909152902054909260443592915f198110610439575b5061011a93506106c9565b83811061049e57841561048b5733156104785761011a945f52600160205260405f2060018060a01b0333165f526020528360405f20910390558461042e565b634a1406b160e11b5f525f60045260245ffd5b63e602df0560e01b5f525f60045260245ffd5b8390637dc7a0d960e11b5f523360045260245260445260645ffd5b346100f0575f3660031901126100f0576020600254604051908152f35b346100f05760403660031901126100f0576104ef610651565b60243590331561048b576001600160a01b031690811561047857335f52600160205260405f20825f526020528060405f20556040519081527f8c5be1e5ebec7d5bd14f71427d1e84f3dd0314c0f7b2291e5b200ac8c7c3b92560203392a3602060405160018152f35b346100f0575f3660031901126100f0575f6003548060011c9060018116801561061d575b6020831081146102225782855290811561020657506001146105c85750819003601f01601f191681019067ffffffffffffffff82118183101761019d5761019982918260405282610627565b905060035f527fc2575a0e9e593c00f959f8c92f12db2869c3395a3b0502d05e2516446f71f85b5f905b82821061060757506020915082010182610169565b60018160209254838588010152019101906105f2565b91607f169161057c565b602060409281835280519182918282860152018484015e5f828201840152601f01601f1916010190565b600435906001600160a01b03821682036100f057565b602435906001600160a01b03821682036100f057565b1561068457565b60405162461bcd60e51b815260206004820152601d60248201527f544f4b454e20455850495245442c204d494e54494e4720434c4f5345440000006044820152606490fd5b6001600160a01b031690811561076d576001600160a01b031691821561035d576106f6600654421061067d565b815f525f60205260405f205481811061075457817fddf252ad1be2c89b69c2b068fc378daa952ba7f163c4a11628f55a4df523b3ef92602092855f525f84520360405f2055845f525f825260405f20818154019055604051908152a3565b8263391434e360e21b5f5260045260245260445260645ffd5b634b637e8f60e11b5f525f60045260245ffdfea264697066735822122095cceca76e3853ec8ffc41ce09491094bdc518a9cd09cab0d06238ce93a1b37064736f6c634300081a0033a2646970667358221220c3f7b43e62d1e779367fe66524128d4049ee37f1d5077ec8c30222a4f00a6ee664736f6c634300081a0033","linkReferences":{}},"methodIdentifiers":{"BASE_PRICE()":"f86325ed","FEE()":"c57981b5","IV_TOKEN_SUPPLY()":"36808a7c","RESERVE_SHIFT_SLOPE()":"fc63b1fd","SLOPE()":"8b7cc629","afterAddLiquidity(address,(address,address,uint24,int24,address),(int24,int24,int256,bytes32),int256,int256,bytes)":"9f063efc","afterDonate(address,(address,address,uint24,int24,address),uint256,uint256,bytes)":"e1b4af69","afterInitialize(address,(address,address,uint24,int24,address),uint160,int24)":"6fe7e6eb","afterRemoveLiquidity(address,(address,address,uint24,int24,address),(int24,int24,int256,bytes32),int256,int256,bytes)":"6c2bbe7e","afterSwap(address,(address,address,uint24,int24,address),(bool,int256,uint160),int256,bytes)":"b47b2fb1","baseToken()":"c55dae63","beforeAddLiquidity(address,(address,address,uint24,int24,address),(int24,int24,int256,bytes32),bytes)":"259982e5","beforeDonate(address,(address,address,uint24,int24,address),uint256,uint256,bytes)":"b6a8b0fa","beforeInitialize(address,(address,address,uint24,int24,address),uint160)":"dc98354e","beforeRemoveLiquidity(address,(address,address,uint24,int24,address),(int24,int24,int256,bytes32),bytes)":"21d0ee70","beforeSwap(address,(address,address,uint24,int24,address),(bool,int256,uint160),bytes)":"575e24b4","bondingCurve()":"eff1d50e","calculateIv(address,uint160,address)":"bec80649","deploy2Currency(address,string[2],string[2],address,uint160,uint256)":"a79a3478","getHookPermissions()":"c4e833ce","getVixData(address)":"b6780bf2","isPairInitiated(address)":"77295a8d","pairEndingTime(address)":"bb2ffdef","pairInitiatedTime(address)":"d111f97e","poolManager()":"dc4c90d3","resetPair(address,uint256,address,uint160)":"db6ba9d4","swapReserve(uint256,uint256,uint256,uint256,uint256,uint256,address)":"4c001a9e","unlockCallback(bytes)":"91dd7346","vixTokensPrice(uint256)":"591094e4"},"id":105}