{"abi":[{"type":"constructor","inputs":[{"name":"poolManager","type":"address","internalType":"contract IPoolManager"},{"name":"_baseToken","type":"address","internalType":"address"}],"stateMutability":"nonpayable"},{"type":"function","name":"BASE_PRICE","inputs":[],"outputs":[{"name":"","type":"uint256","internalType":"uint256"}],"stateMutability":"view"},{"type":"function","name":"FEE","inputs":[],"outputs":[{"name":"","type":"uint256","internalType":"uint256"}],"stateMutability":"view"},{"type":"function","name":"IV_TOKEN_SUPPLY","inputs":[],"outputs":[{"name":"","type":"uint256","internalType":"uint256"}],"stateMutability":"view"},{"type":"function","name":"RESERVE_SHIFT_SLOPE","inputs":[],"outputs":[{"name":"","type":"uint256","internalType":"uint256"}],"stateMutability":"view"},{"type":"function","name":"SLOPE","inputs":[],"outputs":[{"name":"","type":"uint256","internalType":"uint256"}],"stateMutability":"view"},{"type":"function","name":"afterAddLiquidity","inputs":[{"name":"sender","type":"address","internalType":"address"},{"name":"key","type":"tuple","internalType":"struct PoolKey","components":[{"name":"currency0","type":"address","internalType":"Currency"},{"name":"currency1","type":"address","internalType":"Currency"},{"name":"fee","type":"uint24","internalType":"uint24"},{"name":"tickSpacing","type":"int24","internalType":"int24"},{"name":"hooks","type":"address","internalType":"contract IHooks"}]},{"name":"params","type":"tuple","internalType":"struct IPoolManager.ModifyLiquidityParams","components":[{"name":"tickLower","type":"int24","internalType":"int24"},{"name":"tickUpper","type":"int24","internalType":"int24"},{"name":"liquidityDelta","type":"int256","internalType":"int256"},{"name":"salt","type":"bytes32","internalType":"bytes32"}]},{"name":"delta","type":"int256","internalType":"BalanceDelta"},{"name":"feesAccrued","type":"int256","internalType":"BalanceDelta"},{"name":"hookData","type":"bytes","internalType":"bytes"}],"outputs":[{"name":"","type":"bytes4","internalType":"bytes4"},{"name":"","type":"int256","internalType":"BalanceDelta"}],"stateMutability":"nonpayable"},{"type":"function","name":"afterDonate","inputs":[{"name":"sender","type":"address","internalType":"address"},{"name":"key","type":"tuple","internalType":"struct PoolKey","components":[{"name":"currency0","type":"address","internalType":"Currency"},{"name":"currency1","type":"address","internalType":"Currency"},{"name":"fee","type":"uint24","internalType":"uint24"},{"name":"tickSpacing","type":"int24","internalType":"int24"},{"name":"hooks","type":"address","internalType":"contract IHooks"}]},{"name":"amount0","type":"uint256","internalType":"uint256"},{"name":"amount1","type":"uint256","internalType":"uint256"},{"name":"hookData","type":"bytes","internalType":"bytes"}],"outputs":[{"name":"","type":"bytes4","internalType":"bytes4"}],"stateMutability":"nonpayable"},{"type":"function","name":"afterInitialize","inputs":[{"name":"sender","type":"address","internalType":"address"},{"name":"key","type":"tuple","internalType":"struct PoolKey","components":[{"name":"currency0","type":"address","internalType":"Currency"},{"name":"currency1","type":"address","internalType":"Currency"},{"name":"fee","type":"uint24","internalType":"uint24"},{"name":"tickSpacing","type":"int24","internalType":"int24"},{"name":"hooks","type":"address","internalType":"contract IHooks"}]},{"name":"sqrtPriceX96","type":"uint160","internalType":"uint160"},{"name":"tick","type":"int24","internalType":"int24"}],"outputs":[{"name":"","type":"bytes4","internalType":"bytes4"}],"stateMutability":"nonpayable"},{"type":"function","name":"afterRemoveLiquidity","inputs":[{"name":"sender","type":"address","internalType":"address"},{"name":"key","type":"tuple","internalType":"struct PoolKey","components":[{"name":"currency0","type":"address","internalType":"Currency"},{"name":"currency1","type":"address","internalType":"Currency"},{"name":"fee","type":"uint24","internalType":"uint24"},{"name":"tickSpacing","type":"int24","internalType":"int24"},{"name":"hooks","type":"address","internalType":"contract IHooks"}]},{"name":"params","type":"tuple","internalType":"struct IPoolManager.ModifyLiquidityParams","components":[{"name":"tickLower","type":"int24","internalType":"int24"},{"name":"tickUpper","type":"int24","internalType":"int24"},{"name":"liquidityDelta","type":"int256","internalType":"int256"},{"name":"salt","type":"bytes32","internalType":"bytes32"}]},{"name":"delta","type":"int256","internalType":"BalanceDelta"},{"name":"feesAccrued","type":"int256","internalType":"BalanceDelta"},{"name":"hookData","type":"bytes","internalType":"bytes"}],"outputs":[{"name":"","type":"bytes4","internalType":"bytes4"},{"name":"","type":"int256","internalType":"BalanceDelta"}],"stateMutability":"nonpayable"},{"type":"function","name":"afterSwap","inputs":[{"name":"sender","type":"address","internalType":"address"},{"name":"key","type":"tuple","internalType":"struct PoolKey","components":[{"name":"currency0","type":"address","internalType":"Currency"},{"name":"currency1","type":"address","internalType":"Currency"},{"name":"fee","type":"uint24","internalType":"uint24"},{"name":"tickSpacing","type":"int24","internalType":"int24"},{"name":"hooks","type":"address","internalType":"contract IHooks"}]},{"name":"params","type":"tuple","internalType":"struct IPoolManager.SwapParams","components":[{"name":"zeroForOne","type":"bool","internalType":"bool"},{"name":"amountSpecified","type":"int256","internalType":"int256"},{"name":"sqrtPriceLimitX96","type":"uint160","internalType":"uint160"}]},{"name":"delta","type":"int256","internalType":"BalanceDelta"},{"name":"hookData","type":"bytes","internalType":"bytes"}],"outputs":[{"name":"","type":"bytes4","internalType":"bytes4"},{"name":"","type":"int128","internalType":"int128"}],"stateMutability":"nonpayable"},{"type":"function","name":"baseToken","inputs":[],"outputs":[{"name":"","type":"address","internalType":"address"}],"stateMutability":"view"},{"type":"function","name":"beforeAddLiquidity","inputs":[{"name":"sender","type":"address","internalType":"address"},{"name":"key","type":"tuple","internalType":"struct PoolKey","components":[{"name":"currency0","type":"address","internalType":"Currency"},{"name":"currency1","type":"address","internalType":"Currency"},{"name":"fee","type":"uint24","internalType":"uint24"},{"name":"tickSpacing","type":"int24","internalType":"int24"},{"name":"hooks","type":"address","internalType":"contract IHooks"}]},{"name":"params","type":"tuple","internalType":"struct IPoolManager.ModifyLiquidityParams","components":[{"name":"tickLower","type":"int24","internalType":"int24"},{"name":"tickUpper","type":"int24","internalType":"int24"},{"name":"liquidityDelta","type":"int256","internalType":"int256"},{"name":"salt","type":"bytes32","internalType":"bytes32"}]},{"name":"hookData","type":"bytes","internalType":"bytes"}],"outputs":[{"name":"","type":"bytes4","internalType":"bytes4"}],"stateMutability":"nonpayable"},{"type":"function","name":"beforeDonate","inputs":[{"name":"sender","type":"address","internalType":"address"},{"name":"key","type":"tuple","internalType":"struct PoolKey","components":[{"name":"currency0","type":"address","internalType":"Currency"},{"name":"currency1","type":"address","internalType":"Currency"},{"name":"fee","type":"uint24","internalType":"uint24"},{"name":"tickSpacing","type":"int24","internalType":"int24"},{"name":"hooks","type":"address","internalType":"contract IHooks"}]},{"name":"amount0","type":"uint256","internalType":"uint256"},{"name":"amount1","type":"uint256","internalType":"uint256"},{"name":"hookData","type":"bytes","internalType":"bytes"}],"outputs":[{"name":"","type":"bytes4","internalType":"bytes4"}],"stateMutability":"nonpayable"},{"type":"function","name":"beforeInitialize","inputs":[{"name":"sender","type":"address","internalType":"address"},{"name":"key","type":"tuple","internalType":"struct PoolKey","components":[{"name":"currency0","type":"address","internalType":"Currency"},{"name":"currency1","type":"address","internalType":"Currency"},{"name":"fee","type":"uint24","internalType":"uint24"},{"name":"tickSpacing","type":"int24","internalType":"int24"},{"name":"hooks","type":"address","internalType":"contract IHooks"}]},{"name":"sqrtPriceX96","type":"uint160","internalType":"uint160"}],"outputs":[{"name":"","type":"bytes4","internalType":"bytes4"}],"stateMutability":"nonpayable"},{"type":"function","name":"beforeRemoveLiquidity","inputs":[{"name":"sender","type":"address","internalType":"address"},{"name":"key","type":"tuple","internalType":"struct PoolKey","components":[{"name":"currency0","type":"address","internalType":"Currency"},{"name":"currency1","type":"address","internalType":"Currency"},{"name":"fee","type":"uint24","internalType":"uint24"},{"name":"tickSpacing","type":"int24","internalType":"int24"},{"name":"hooks","type":"address","internalType":"contract IHooks"}]},{"name":"params","type":"tuple","internalType":"struct IPoolManager.ModifyLiquidityParams","components":[{"name":"tickLower","type":"int24","internalType":"int24"},{"name":"tickUpper","type":"int24","internalType":"int24"},{"name":"liquidityDelta","type":"int256","internalType":"int256"},{"name":"salt","type":"bytes32","internalType":"bytes32"}]},{"name":"hookData","type":"bytes","internalType":"bytes"}],"outputs":[{"name":"","type":"bytes4","internalType":"bytes4"}],"stateMutability":"nonpayable"},{"type":"function","name":"beforeSwap","inputs":[{"name":"sender","type":"address","internalType":"address"},{"name":"key","type":"tuple","internalType":"struct PoolKey","components":[{"name":"currency0","type":"address","internalType":"Currency"},{"name":"currency1","type":"address","internalType":"Currency"},{"name":"fee","type":"uint24","internalType":"uint24"},{"name":"tickSpacing","type":"int24","internalType":"int24"},{"name":"hooks","type":"address","internalType":"contract IHooks"}]},{"name":"params","type":"tuple","internalType":"struct IPoolManager.SwapParams","components":[{"name":"zeroForOne","type":"bool","internalType":"bool"},{"name":"amountSpecified","type":"int256","internalType":"int256"},{"name":"sqrtPriceLimitX96","type":"uint160","internalType":"uint160"}]},{"name":"hookData","type":"bytes","internalType":"bytes"}],"outputs":[{"name":"","type":"bytes4","internalType":"bytes4"},{"name":"","type":"int256","internalType":"BeforeSwapDelta"},{"name":"","type":"uint24","internalType":"uint24"}],"stateMutability":"nonpayable"},{"type":"function","name":"calculateIv","inputs":[{"name":"_poolAddress","type":"address","internalType":"address"},{"name":"volume","type":"uint160","internalType":"uint160"}],"outputs":[{"name":"_iv","type":"uint160","internalType":"uint160"}],"stateMutability":"view"},{"type":"function","name":"deploy2Currency","inputs":[{"name":"deriveToken","type":"address","internalType":"address"},{"name":"_tokenName","type":"string[2]","internalType":"string[2]"},{"name":"_tokenSymbol","type":"string[2]","internalType":"string[2]"},{"name":"_poolAddress","type":"address","internalType":"address"},{"name":"volume","type":"uint160","internalType":"uint160"},{"name":"deadline","type":"uint256","internalType":"uint256"}],"outputs":[{"name":"","type":"address[2]","internalType":"address[2]"}],"stateMutability":"nonpayable"},{"type":"function","name":"getHookPermissions","inputs":[],"outputs":[{"name":"","type":"tuple","internalType":"struct Hooks.Permissions","components":[{"name":"beforeInitialize","type":"bool","internalType":"bool"},{"name":"afterInitialize","type":"bool","internalType":"bool"},{"name":"beforeAddLiquidity","type":"bool","internalType":"bool"},{"name":"afterAddLiquidity","type":"bool","internalType":"bool"},{"name":"beforeRemoveLiquidity","type":"bool","internalType":"bool"},{"name":"afterRemoveLiquidity","type":"bool","internalType":"bool"},{"name":"beforeSwap","type":"bool","internalType":"bool"},{"name":"afterSwap","type":"bool","internalType":"bool"},{"name":"beforeDonate","type":"bool","internalType":"bool"},{"name":"afterDonate","type":"bool","internalType":"bool"},{"name":"beforeSwapReturnDelta","type":"bool","internalType":"bool"},{"name":"afterSwapReturnDelta","type":"bool","internalType":"bool"},{"name":"afterAddLiquidityReturnDelta","type":"bool","internalType":"bool"},{"name":"afterRemoveLiquidityReturnDelta","type":"bool","internalType":"bool"}]}],"stateMutability":"pure"},{"type":"function","name":"getVixData","inputs":[{"name":"deriveAsset","type":"address","internalType":"address"}],"outputs":[{"name":"vixHighToken","type":"address","internalType":"address"},{"name":"_vixLowToken","type":"address","internalType":"address"},{"name":"_circulation0","type":"uint256","internalType":"uint256"},{"name":"_circulation1","type":"uint256","internalType":"uint256"},{"name":"_contractHoldings0","type":"uint256","internalType":"uint256"},{"name":"_contractHoldings1","type":"uint256","internalType":"uint256"},{"name":"_reserve0","type":"uint256","internalType":"uint256"},{"name":"_reserve1","type":"uint256","internalType":"uint256"},{"name":"_poolAddress","type":"address","internalType":"address"}],"stateMutability":"view"},{"type":"function","name":"isPairInitiated","inputs":[{"name":"","type":"address","internalType":"address"}],"outputs":[{"name":"","type":"bool","internalType":"bool"}],"stateMutability":"view"},{"type":"function","name":"oneForZeroOperator","inputs":[{"name":"key","type":"tuple","internalType":"struct PoolKey","components":[{"name":"currency0","type":"address","internalType":"Currency"},{"name":"currency1","type":"address","internalType":"Currency"},{"name":"fee","type":"uint24","internalType":"uint24"},{"name":"tickSpacing","type":"int24","internalType":"int24"},{"name":"hooks","type":"address","internalType":"contract IHooks"}]},{"name":"_deriveAsset","type":"address","internalType":"address"},{"name":"params","type":"tuple","internalType":"struct IPoolManager.SwapParams","components":[{"name":"zeroForOne","type":"bool","internalType":"bool"},{"name":"amountSpecified","type":"int256","internalType":"int256"},{"name":"sqrtPriceLimitX96","type":"uint160","internalType":"uint160"}]},{"name":"amountInOutPositive","type":"uint256","internalType":"uint256"},{"name":"zeroIsBase","type":"bool","internalType":"bool"}],"outputs":[{"name":"","type":"int128","internalType":"int128"},{"name":"","type":"int128","internalType":"int128"}],"stateMutability":"nonpayable"},{"type":"function","name":"pairEndingTime","inputs":[{"name":"","type":"address","internalType":"address"}],"outputs":[{"name":"","type":"uint256","internalType":"uint256"}],"stateMutability":"view"},{"type":"function","name":"pairInitiatedTime","inputs":[{"name":"","type":"address","internalType":"address"}],"outputs":[{"name":"","type":"uint256","internalType":"uint256"}],"stateMutability":"view"},{"type":"function","name":"poolManager","inputs":[],"outputs":[{"name":"","type":"address","internalType":"contract IPoolManager"}],"stateMutability":"view"},{"type":"function","name":"resetPair","inputs":[{"name":"deriveToken","type":"address","internalType":"address"},{"name":"deadline","type":"uint256","internalType":"uint256"},{"name":"_poolAddress","type":"address","internalType":"address"},{"name":"volume","type":"uint160","internalType":"uint160"}],"outputs":[{"name":"","type":"address[2]","internalType":"address[2]"}],"stateMutability":"nonpayable"},{"type":"function","name":"swapReserve","inputs":[{"name":"initialIv","type":"uint256","internalType":"uint256"},{"name":"currentIv","type":"uint256","internalType":"uint256"},{"name":"reserve0","type":"uint256","internalType":"uint256"},{"name":"reserve1","type":"uint256","internalType":"uint256"},{"name":"circulation0","type":"uint256","internalType":"uint256"},{"name":"circulation1","type":"uint256","internalType":"uint256"},{"name":"deriveAsset","type":"address","internalType":"address"}],"outputs":[{"name":"","type":"uint256","internalType":"uint256"},{"name":"","type":"uint256","internalType":"uint256"}],"stateMutability":"nonpayable"},{"type":"function","name":"unlockCallback","inputs":[{"name":"data","type":"bytes","internalType":"bytes"}],"outputs":[{"name":"","type":"bytes","internalType":"bytes"}],"stateMutability":"nonpayable"},{"type":"function","name":"vixTokensPrice","inputs":[{"name":"contractHoldings","type":"uint256","internalType":"uint256"}],"outputs":[{"name":"","type":"uint256","internalType":"uint256"}],"stateMutability":"pure"},{"type":"function","name":"zeroForOneOperator","inputs":[{"name":"key","type":"tuple","internalType":"struct PoolKey","components":[{"name":"currency0","type":"address","internalType":"Currency"},{"name":"currency1","type":"address","internalType":"Currency"},{"name":"fee","type":"uint24","internalType":"uint24"},{"name":"tickSpacing","type":"int24","internalType":"int24"},{"name":"hooks","type":"address","internalType":"contract IHooks"}]},{"name":"_deriveAsset","type":"address","internalType":"address"},{"name":"params","type":"tuple","internalType":"struct IPoolManager.SwapParams","components":[{"name":"zeroForOne","type":"bool","internalType":"bool"},{"name":"amountSpecified","type":"int256","internalType":"int256"},{"name":"sqrtPriceLimitX96","type":"uint160","internalType":"uint160"}]},{"name":"amountInOutPositive","type":"uint256","internalType":"uint256"},{"name":"zeroIsBase","type":"bool","internalType":"bool"}],"outputs":[{"name":"","type":"int128","internalType":"int128"},{"name":"","type":"int128","internalType":"int128"}],"stateMutability":"nonpayable"},{"type":"event","name":"HookSwap","inputs":[{"name":"id","type":"bytes32","indexed":true,"internalType":"bytes32"},{"name":"sender","type":"address","indexed":true,"internalType":"address"},{"name":"amount0","type":"int128","indexed":false,"internalType":"int128"},{"name":"amount1","type":"int128","indexed":false,"internalType":"int128"},{"name":"hookLPfeeAmount0","type":"uint128","indexed":false,"internalType":"uint128"},{"name":"hookLPfeeAmount1","type":"uint128","indexed":false,"internalType":"uint128"}],"anonymous":false},{"type":"event","name":"PairExpired","inputs":[{"name":"deriveToken","type":"address","indexed":true,"internalType":"address"},{"name":"vixHighToken","type":"address","indexed":true,"internalType":"address"},{"name":"vixLowToken","type":"address","indexed":true,"internalType":"address"},{"name":"initatedIV","type":"uint256","indexed":false,"internalType":"uint256"},{"name":"expiredTime","type":"uint256","indexed":false,"internalType":"uint256"}],"anonymous":false},{"type":"event","name":"PairInitiated","inputs":[{"name":"_deriveToken","type":"address","indexed":true,"internalType":"address"},{"name":"_vixHighToken","type":"address","indexed":true,"internalType":"address"},{"name":"_vixLowToken","type":"address","indexed":true,"internalType":"address"},{"name":"_initiatedTime","type":"uint256","indexed":false,"internalType":"uint256"},{"name":"_deadline","type":"uint256","indexed":false,"internalType":"uint256"},{"name":"initiatedIV","type":"uint256","indexed":false,"internalType":"uint256"}],"anonymous":false},{"type":"error","name":"HookNotImplemented","inputs":[]},{"type":"error","name":"NotPoolManager","inputs":[]},{"type":"error","name":"invalidLiquidityAction","inputs":[]}],"bytecode":{"object":"0x60a0604052346102fd57604051601f614e9a38819003918201601f19168301916001600160401b038311848410176103015780849260409485528339810103126102fd578051906001600160a01b03821682036102fd57602001516001600160a01b03811691908290036102fd576080525f6101a061007c610315565b8281528260208201528260408201528260608201528260808201528260a08201528260c08201528260e0820152826101008201528261012082015282610140820152826101608201528261018082015201525f6101a06100da610315565b828152826020820152600160408201528260608201528260808201528260a0820152600160c0820152600160e082015282610100820152826101208201526001610140820152826101608201528261018082015201526120003016158015906102f0575b80156102df575b80156102d2575b80156102c5575b80156102b8575b80156102a8575b8015610298575b801561028c575b8015610280575b8015610270575b8015610264575b8015610258575b801561024c575b61023957600480546001600160a01b031916919091179055604051614b64908161033682396080518181816101f90152818161027b015281816102cd0152818161076001528181610965015281816109da01528181610d07015281816111180152818161116b01528181611b2b015281816127fc0152818161285a0152818161291b015281816129e601528181612a3501528181612abe0152818161300d01526130f00152f35b630732d7b560e51b5f523060045260245ffd5b50600130161515610192565b5060023016151561018b565b50600430161515610184565b506008301615156001141561017d565b50601030161515610176565b5060203016151561016f565b5060403016151560011415610168565b5060803016151560011415610161565b506101003016151561015a565b5061020030161515610153565b506104003016151561014c565b506108003016151560011415610145565b506110003016151561013e565b5f80fd5b634e487b7160e01b5f52604160045260245ffd5b604051906101c082016001600160401b038111838210176103015760405256fe60806040526004361015610011575f80fd5b5f3560e01c806321d0ee7014611158578063259982e51461110557806336808a7c146110e05780634c001a9e1461109f578063575e24b414610cb2578063591094e414610c505780635f40ef0114610b825780636c2bbe7e146109525780636fe7e6eb14610b4a57806377295a8d14610b0e5780638b7cc62914610af057806391dd7346146109a85780639f063efc14610952578063a79a3478146108cd578063b47b2fb11461070a578063b6780bf21461060f578063b6a8b0fa146101e6578063bb2ffdef146105d7578063c4e833ce1461046f578063c55dae6314610447578063c57981b51461042b578063d111f97e146103f3578063d9a6eef914610345578063db6ba9d4146102fc578063dc4c90d3146102b8578063dc98354e1461024a578063e1b4af69146101e6578063f68f3c57146101a8578063f86325ed146101885763fc63b1fd14610163575f80fd5b34610184575f366003190112610184576020604051666a94d74f4300008152f35b5f80fd5b34610184575f366003190112610184576020604051650574fbde60008152f35b346101845760403660031901126101845760206101d46101c66111c2565b6101ce6111d8565b9061209d565b6040516001600160a01b039091168152f35b34610184576101f43661153f565b5050507f00000000000000000000000000000000000000000000000000000000000000006001600160a01b03163303925061023b91505057630a85dc2960e01b5f5260045ffd5b63570c108560e11b5f5260045ffd5b346101845760e0366003190112610184576102636111c2565b5060a0366023190112610184576102786111ac565b507f00000000000000000000000000000000000000000000000000000000000000006001600160a01b0316330361023b57630a85dc2960e01b5f5260045ffd5b34610184575f366003190112610184576040517f00000000000000000000000000000000000000000000000000000000000000006001600160a01b03168152602090f35b346101845760803660031901126101845761034161033561031b6111c2565b6103236111ee565b61032b611204565b9160243590611de2565b60405191829182611508565b0390f35b3461018457610353366112be565b6001600160a01b039384165f90815260036020526040902092939092906103798661185b565b16936001600160a01b0361038f6020880161185b565b83546001600160a01b031696871496911686156103e8575b505060205f91013512935f146103d9576103c0946131ac565b905b60408051600f92830b81529290910b602083015290f35b6103e294612f7b565b906103c2565b14945060205f6103a7565b34610184576020366003190112610184576001600160a01b036104146111c2565b165f526001602052602060405f2054604051908152f35b34610184575f3660031901126101845760206040516127108152f35b34610184575f366003190112610184576004546040516001600160a01b039091168152602090f35b34610184575f366003190112610184575f6101a060405161048f816113f6565b8281528260208201528260408201528260608201528260808201528260a08201528260c08201528260e0820152826101008201528261012082015282610140820152826101608201528261018082015201526101c060206040516104f2816113f6565b5f8152818101905f82526040810160018152606082015f8152608083015f815260a084015f815260c085016001815260e0860190600182526101008701925f84526101208801945f8652610140890196600188526101608a01985f8a526101a06101808c019b5f8d52019b5f8d526040519d8e915f835251151591015251151560408d015251151560608c015251151560808b015251151560a08a015251151560c089015251151560e08801525115156101008701525115156101208601525115156101408501525115156101608401525115156101808301525115156101a0820152f35b34610184576020366003190112610184576001600160a01b036105f86111c2565b165f526002602052602060405f2054604051908152f35b34610184576020366003190112610184576001600160a01b036106306111c2565b165f52600360205261012060405f206040519061064c826113da565b60018060a01b038154169182815260018060a01b03600183015416806020830152600283015480604084015260038401548060608501526004850154908160808601526005860154928360a08701526006870154948560c08801526007880154968760e08201528a60018060a01b0360088b015416998a610100840152600960018060a01b0391015416910152604051988952602089015260408801526060870152608086015260a085015260c084015260e0830152610100820152f35b3461018457610160366003190112610184576107246111c2565b5060a03660231901126101845760603660c319011261018457610144356001600160401b0381116101845761075d90369060040161122e565b907f00000000000000000000000000000000000000000000000000000000000000006001600160a01b0316330361023b5761079a918101906126fe565b80516001600160a01b039081165f818152600360209081526040909120600881015460099091015491909401519193908316926107da928116911661209d565b91805f526003602052600660405f2001541515806108b5575b61080e575b6040805163b47b2fb160e01b81525f6020820152f35b5f81815260036020819052604090912060068101546007820154600283015492909301546108ad9661084f96919492916001600160a01b039091169061163c565b906108836040918251610862848261142d565b600f81526e03932b9b2b93b329039b434b33a1d1608d1b60208201526133bd565b61088f8151918261142d565b600c81526b03a37b5b2b710313ab9371d160a51b60208201526133bd565b8080806107f8565b50805f526003602052600760405f20015415156107f3565b346101845760c0366003190112610184576108e66111c2565b6024356001600160401b03811161018457610905903690600401611469565b6044356001600160401b03811161018457610924903690600401611469565b9161092d611204565b608435906001600160a01b038216820361018457610341946103359460a43594611894565b34610184576109603661130e565b5050507f00000000000000000000000000000000000000000000000000000000000000006001600160a01b03163303935061023b9250505057630a85dc2960e01b5f5260045ffd5b34610184576020366003190112610184576004356001600160401b038111610184576109d890369060040161122e565b7f0000000000000000000000000000000000000000000000000000000000000000906001600160a01b038216330361023b57826080918101031261018457604051610ac892610a26826113ab565b610ab48135808452610a9e610a3d6020850161121a565b610a836020870193828552610a676060610a5960408a0161121a565b9860408b01998a520161121a565b60608901818152936001600160a01b03918216918b9116612ca7565b845190518651916001600160a01b0391821691899116612ca7565b51835190309086906001600160a01b0316612f2d565b5190519130916001600160a01b0316612f2d565b610341604051610ad960208261142d565b5f8152604051918291602083526020830190611387565b34610184575f366003190112610184576020604051633b9aca008152f35b34610184576020366003190112610184576001600160a01b03610b2f6111c2565b165f525f602052602060ff60405f2054166040519015158152f35b346101845761010036600319011261018457610b646111c2565b5060a036602319011261018457610b796111ac565b50610278611377565b3461018457610b90366112be565b6001600160a01b039384165f9081526003602052604090209293909290610bb68661185b565b16936001600160a01b03610bcc6020880161185b565b83546001600160a01b03169687149691168615610c45575b505060205f9101351293610c2e604051610bff60408261142d565b601f81527f6f6e6520666f72207a65726f206f70657261746f7220747269676765726564006020820152612734565b15610c3c576103c094612ae6565b6103e294612786565b14945060205f610be4565b346101845760203660031901126101845760043580633b9aca000290633b9aca00820403610c9e57670de0b6b3a76400009004650574fbde60008101809111610c9e57602090604051908152f35b634e487b7160e01b5f52601160045260245ffd5b346101845761014036600319011261018457610ccc6111c2565b60a03660231901126101845760603660c319011261018457610124356001600160401b03811161018457610d0490369060040161122e565b907f00000000000000000000000000000000000000000000000000000000000000006001600160a01b0316330361023b57604091610d678351610d47858261142d565b600e81526d1cddd85c081d1c9a59d9d95c995960921b6020820152612734565b60e435905f82131561108d57610d8a82935b6001600160a01b03928101906126fe565b516024356001600160a01b03811696878214159493909216846101845760018060a01b0360045416881492815f526002602052875f20544210156110495760c43580151581036101845715610e7557505f526003602052855f20936101845750604435936001600160a01b038516928386036101845784546060985f97506001600160a01b03909116908114948515610e6b575b50508513928514610e5b57610e349360246131ac565b6001600160801b03169060801b17915b8051926315d7892d60e21b84526020840152820152f35b610e66936024612f7b565b610e34565b1493508589610e1e565b959697939194505f526003602052865f2093506044359260018060a01b03841693848103610184575084546001600160a01b031690811493841561103f575b50505f13948592610eca8851610bff8a8261142d565b1561102d57610eda936024612ae6565b93905b846001600160801b03168160801b1793825195602087019460018060a01b03610f046111d8565b1686526001600160a01b03610f176111ee565b168589015260643562ffffff81168091036101845760608901526084358060020b80910361018457608089015260a4356001600160a01b038116969087900361018457885f9760a060609b015260a08152610f7360c08261142d565b519020928614610fd8578451600f94850b81529190930b60208201525f6040820181905260608201526001600160a01b03909216917f365f10e9e7ce45d7acfd986c42e0b666f8af282e440e6dafc78c1f2b2f7867609080608081015b0390a3610e44565b8451600f92830b81529390910b60208401525f6040840181905260608401526001600160a01b0316917f365f10e9e7ce45d7acfd986c42e0b666f8af282e440e6dafc78c1f2b2f786760908060808101610fd0565b611038936024612786565b9390610edd565b1492505f88610eb4565b875162461bcd60e51b815260206004820152601760248201527f506169722065787069726564212c2072657365742069740000000000000000006044820152606490fd5b610d8a611099836126ee565b93610d79565b346101845760e03660031901126101845760406110d46110bd6111ac565b60a43560843560643560443560243560043561163c565b82519182526020820152f35b34610184575f3660031901126101845760206040516acecb8f27f4200f3a0000008152f35b34610184576111133661125b565b5050507f00000000000000000000000000000000000000000000000000000000000000006001600160a01b03163303915061023b90505762c890a560e31b5f5260045ffd5b34610184576111663661125b565b5050507f00000000000000000000000000000000000000000000000000000000000000006001600160a01b03163303915061023b905057630a85dc2960e01b5f5260045ffd5b60c435906001600160a01b038216820361018457565b600435906001600160a01b038216820361018457565b602435906001600160a01b038216820361018457565b604435906001600160a01b038216820361018457565b606435906001600160a01b038216820361018457565b35906001600160a01b038216820361018457565b9181601f84011215610184578235916001600160401b038311610184576020838186019501011161018457565b90610160600319830112610184576004356001600160a01b0381168103610184579160a060231982011261018457602491608060c3198301126101845760c49161014435906001600160401b038211610184576112ba9160040161122e565b9091565b600319810161016081126101845760a0136101845760049160a4356001600160a01b0381168103610184576060909260c31901126101845760c49061012435906101443580151581036101845790565b906101a0600319830112610184576004356001600160a01b0381168103610184579160a060231982011261018457602491608060c3198301126101845760c4916101443591610164359161018435906001600160401b038211610184576112ba9160040161122e565b60e435908160020b820361018457565b805180835260209291819084018484015e5f828201840152601f01601f1916010190565b608081019081106001600160401b038211176113c657604052565b634e487b7160e01b5f52604160045260245ffd5b61014081019081106001600160401b038211176113c657604052565b6101c081019081106001600160401b038211176113c657604052565b604081019081106001600160401b038211176113c657604052565b90601f801991011681019081106001600160401b038211176113c657604052565b6001600160401b0381116113c657601f01601f191660200190565b9080601f83011215610184576040916040519261148760408561142d565b8360408301928484116101845780915b8483106114a75750505050505090565b82356001600160401b03811161018457820186601f82011215610184578035916114d08361144e565b6114dc8751918261142d565b8381528860208585010111610184575f6020858196828097018386013783010152815201920191611497565b919060408301925f905b6002821061151f57505050565b82516001600160a01b031681526020928301926001929092019101611512565b610120600319820112610184576004356001600160a01b0381168103610184579160a06023198301126101845760249160c4359160e4359161010435906001600160401b038211610184576112ba9160040161122e565b81810292918115918404141715610c9e57565b81156115b3570490565b634e487b7160e01b5f52601260045260245ffd5b156115ce57565b60405162461bcd60e51b815260206004820152602660248201527f726573657276652073686966742073686f756c6420626520677265617465722060448201526507468616e20360d41b6064820152608490fd5b91908201809211610c9e57565b91908203918211610c9e57565b96959394968181118061184a575b1561173b57505080666a94d74f43000002666a94d74f43000081048203610c9e57670de0b6b3a764000061168b9104946116858615156115c7565b85611596565b60018201809211610c9e576116aa916116a3916115a9565b9584611596565b9060018101809111610c9e576116bf916115a9565b9060018060a01b0316805f526003602052600660405f20016116e284825461162f565b9055805f526003602052600760405f20016116fe848254611622565b9055805f526003602052600460405f200161171a86825461162f565b90555f526003602052611735600560405f2001918254611622565b90559190565b969493969291921080611839575b1561182d5780666a94d74f43000002666a94d74f43000081048203610c9e57670de0b6b3a76400006117829104946116858615156115c7565b60018201809211610c9e576117a19161179a916115a9565b9284611596565b9060018101809111610c9e576117b6916115a9565b9360018060a01b031690815f526003602052600660405f20016117da848254611622565b9055815f526003602052600760405f20016117f684825461162f565b9055815f526003602052611812600560405f200191825461162f565b90555f526003602052600460405f2001611735848254611622565b5050505090505f905f90565b50670de0b6b3a76400008111611749565b50670de0b6b3a7640000831161164a565b356001600160a01b03811681036101845790565b9060028110156118805760051b0190565b634e487b7160e01b5f52603260045260245ffd5b92909194936040938480516118a9828261142d565b36903760018060a01b031692835f525f60205260ff855f205416158015611d5f575b15611d2757835f525f602052845f20600160ff19825416179055835f52600160205242855f20556118fc8642611622565b845f526002602052855f2055845196611915868961142d565b85368937613fb0610b7f5f5b60028110611c38575050505050611938908261209d565b8551602087018051865191966001600160a01b0391821695909492936009939216611962856113da565b8452602084019586528484015f8152606085015f8152608086015f815260a08701905f825260c08801925f845260e08901945f86526101008a019660018060a01b031687526101208a019760018060a01b03169b8c89528d5f5260036020528b5f209a60018060a01b039060018060a01b03905116166001600160601b0360a01b8c5416178b5560018060a01b0390511660018b019060018060a01b03166001600160601b0360a01b8254161790555160028a015551600389015551600488015551600587015551600686015551600785015560018060a01b03905116600884019060018060a01b03166001600160601b0360a01b82541617905560018060a01b0390511691019060018060a01b03166001600160601b0360a01b825416179055611b265f60018060a01b0388511660018060a01b0387511660608551611aa8816113ab565b6acecb8f27f4200f3a0000008082526020808301958652888301948552309390920192835287519182015292516001600160a01b039081168488015291518216606084015251166080808301919091528152611b0560a08261142d565b8351809381926348c8949160e01b8352602060048401526024830190611387565b0381837f00000000000000000000000000000000000000000000000000000000000000006001600160a01b03165af18015611c2e57611bb7575b50855193516001600160a01b03908116959416937f560daaa031b8b3b2e5f80ba407405817b87a0643c3dfdda220be3c7f1e1cb0d39260609291611ba49042611622565b918051924284526020840152820152a490565b903d805f843e611bc7818461142d565b820191602081840312610184578051906001600160401b03821161018457019282601f8501121561018457611c256060938560207f560daaa031b8b3b2e5f80ba407405817b87a0643c3dfdda220be3c7f1e1cb0d397519101611d73565b50925090611b60565b82513d5f823e3d90fd5b611c42818661186f565b51611c4d828661186f565b518a5191848301908382106001600160401b038311176113c6578c611c958594611c8762015180948a8c8939606087526060870190611387565b908582036020870152611387565b92015203905ff08015611d1d576001600160a01b031680611cb6838e61186f565b52803b15610184575f809160448c51809481936340c10f1960e01b83523060048401526acecb8f27f4200f3a00000060248401525af18015611d13579060019291611d03575b5001611921565b5f611d0d9161142d565b5f611cfc565b8a513d5f823e3d90fd5b89513d5f823e3d90fd5b845162461bcd60e51b815260206004820152601160248201527050616972207374696c6c2061637469766560781b6044820152606490fd5b50835f526002602052845f205442116118cb565b929192611d7f8261144e565b91611d8d604051938461142d565b829481845281830111610184578281602093845f96015e010152565b602081830312610184578051906001600160401b03821161018457019080601f83011215610184578151611ddf92602001611d73565b90565b919092604093848051611df5828261142d565b36903760018060a01b03841691825f525f602052600160ff875f20541615150361200d57825f526002602052855f205442115f14611fd6575f8381526003602052869020805460019091015487516001600160a01b0391821697919092169591611e5e81611412565b88516306fdde0360e01b81525f816004818b5afa908115611d13575f91611fbc575b50815288516306fdde0360e01b81525f816004818c5afa908115611d13575f91611fa2575b506020820152885191611eb783611412565b89516395d89b4160e01b81525f816004818c5afa908115611f7e575f91611f88575b50835289516395d89b4160e01b81525f816004818d5afa908115611f7e57917fcb3fbe718785507e72e2e217e13371632ac8bdcd85c308ca838df4f28bdd49e097959391611f359795935f91611f5c575b506020840152611894565b94825f52600360205260018060a01b036009825f200154168151908152426020820152a490565b611f7891503d805f833e611f70818361142d565b810190611da9565b5f611f2a565b8b513d5f823e3d90fd5b611f9c91503d805f833e611f70818361142d565b5f611ed9565b611fb691503d805f833e611f70818361142d565b5f611ea5565b611fd091503d805f833e611f70818361142d565b5f611e80565b855162461bcd60e51b815260206004820152601060248201526f14185a5c881b9bdd08195e1c1a5c995960821b6044820152606490fd5b855162461bcd60e51b815260206004820152601260248201527114185a5c881b9bdd081a5b9a5d1a585d195960721b6044820152606490fd5b51908160020b820361018457565b519061ffff8216820361018457565b519060ff8216820361018457565b5190811515820361018457565b9081602091031261018457516001600160a01b03811681036101845790565b604051630d34328160e11b81526001600160a01b039190911690602081600481855afa908115612503575f916126ac575b50604051633850c7bd60e01b81529060e082600481865afa918215612503575f9261261b575b506040516334324e9f60e21b8152602081600481875afa908115612503575f916125e1575b50604051630dfe168160e01b815293602085600481845afa948515612503575f956125c0575b5060405163d21220a760e01b815294602086600481855afa918215612503576004965f9361258e575b506020906040519788809263ddca3f4360e01b82525afa958615612503575f9661254d575b5060405163313ce56760e01b815290602090829060049082906001600160a01b03165afa80156125035761250e575b5060405163313ce56760e01b815290602090829060049082906001600160a01b03165afa8015612503576124cc575b505f928060020b9160020b9283156115b357627fffff1983145f19851416610c9e578380840560020b02938460020b948503610c9e57840193627fffff8513627fffff19861217610c9e576122be6001600160801b0361225d6122576122515f95613420565b98613420565b95613420565b6001600160a01b0380821696919592909216916122b89161229e91889116808281116124c1575b5080612293612299928461162f565b86613c20565b6139fd565b976001600160a01b031686818181116124b6575b5061162f565b90611596565b60601c931215612486576122e591906001600160a01b03906122df906132ee565b16613b34565b80156115b3576123879315612474576123199291612314916ec097ce7bc90715b34b9f10000000000490611596565b611622565b6123816024915b6123726123636103e862ffffff60409861235b868b516123408d8261142d565b60098152686c697175696469747960b81b60208201526133bd565b1604976132ee565b936001600160a01b0316613318565b906001600160a01b031661339e565b9061339e565b6001600160a01b038116925f6003851115612464575090928391906001016001600160a01b038111610c9e5760011c60016001609f1b0316935b6001600160a01b038581169190811682101561240a57506123e2858461339e565b6001600160a01b0390811691909101908111610c9e5760011c60016001609f1b0316936123c1565b92505092505b60019290921b6301fffffe16916001600160a01b039081168381029091169280159084049091141715610c9e5781611ddf9161244e8151918261142d565b6004815263034bb1d160e51b60208201526133bd565b9150921561241057506001612410565b6123149061248193611596565b612319565b506124949192935080613b34565b9081156115b3576123146124ab9261238794611596565b612381601291612320565b91505086905f6122b2565b919050612299612284565b6020813d6020116124fb575b816124e56020938361142d565b81010312610184576124f690612063565b6121eb565b3d91506124d8565b6040513d5f823e3d90fd5b6020813d602011612545575b816125276020938361142d565b810103126101845760049161253d602092612063565b5091506121bc565b3d915061251a565b9095506020813d602011612586575b816125696020938361142d565b81010312610184575162ffffff811681036101845794602061218d565b3d915061255c565b60209193506125b290823d84116125b9575b6125aa818361142d565b81019061207e565b9290612168565b503d6125a0565b6125da91955060203d6020116125b9576125aa818361142d565b935f61213f565b90506020813d602011612613575b816125fc6020938361142d565b810103126101845761260d90612046565b5f612119565b3d91506125ef565b90915060e0813d60e0116126a4575b8161263760e0938361142d565b810103126101845780516001600160a01b038116036101845761269c60c061266160208401612046565b9261266e60408201612054565b5061267b60608201612054565b5061268860808201612054565b5061269560a08201612063565b5001612071565b50905f6120f4565b3d915061262a565b90506020813d6020116126e6575b816126c76020938361142d565b8101031261018457516001600160801b0381168103610184575f6120ce565b3d91506126ba565b600160ff1b8114610c9e575f0390565b908160409103126101845761272c60206040519261271b84611412565b6127248161121a565b84520161121a565b602082015290565b5f61276161276f829360405192839163104c13eb60e21b6020840152602060248401526044830190611387565b03601f19810183528261142d565b6020815191016a636f6e736f6c652e6c6f675afa50565b929194935f146129525781156128915784611ddf93816001600160801b039460078695600381016127d4856127bd83549e8f613f0e565b9d600585016127cd83825461162f565b905561162f565b9055016127e28a825461162f565b90551561284457816127f66128369361185b565b6128248a7f000000000000000000000000000000000000000000000000000000000000000092833091612ec6565b612831602030930161185b565b612f2d565b16600f0b9316600f0b613400565b81612854602061288c940161185b565b6128828a7f000000000000000000000000000000000000000000000000000000000000000092833091612ec6565b612831309261185b565b612836565b9391905060038401918254906128a78183613d67565b95670de0b6b3a7640000870296808804670de0b6b3a76400001490151715610c9e57866001600160801b0394600783611ddf986128f9858a99600561283699016128f2838254611622565b9055611622565b905501612907858254611622565b90556129156020820161185b565b612943857f000000000000000000000000000000000000000000000000000000000000000092833091612f2d565b61294d309261185b565b612ec6565b909190848315612a625750600381019485549261296f8285613d67565b96670de0b6b3a7640000880297808904670de0b6b3a76400001490151715610c9e576001600160801b0395600787958a936129ad85612a179a61162f565b9055600581016129be85825461162f565b9055016129cc85825461162f565b905515612a1f57816129e0612a0e9361185b565b612824857f000000000000000000000000000000000000000000000000000000000000000092833091612ec6565b16600f0b613400565b9216600f0b90565b81612a2f6020612a5d940161185b565b612882857f000000000000000000000000000000000000000000000000000000000000000092833091612ec6565b612a0e565b6001600160801b039350612a0e81612a17946007879560038101612a9c85612a8c83549e8f613c7e565b9d600585016128f2838254611622565b905501612aaa8a8254611622565b9055612ab86020820161185b565b6129438a7f000000000000000000000000000000000000000000000000000000000000000092833091612f2d565b9194938593919015612bf2578115612b2f57926001600160801b03928184936006611ddf97600281016127d485612b1f83549e8f613f0e565b9d600485016127cd83825461162f565b91925050604090612b638251612b45848261142d565b600c81526b0c4eaf240d0d2ced040ecd2f60a31b6020820152612734565b6002810194855495612b758288613d67565b96670de0b6b3a7640000880297808904670de0b6b3a76400001490151715610c9e57611ddf9560066001600160801b039695612836946128f98c8096612be3828d9c612bc38151918261142d565b600e81526d03a37b5b2b7102932ba3ab9371d160951b60208201526133bd565b600485016128f2838254611622565b909250848315612c5e57506002810194855492612c0f8285613d67565b96670de0b6b3a7640000880297808904670de0b6b3a76400001490151715610c9e576001600160801b0395600687958a93612c4d85612a179a61162f565b9055600481016129be85825461162f565b6001600160801b039350612a0e81612a17946006879560028101612a9c85612c8883549e8f613c7e565b9d600485016128f2838254611622565b90816020910312610184575190565b6001600160a01b031693929184612d165750604051630476982d60e21b8152929350602091839160049183916001600160a01b03165af1801561250357612ceb5750565b612d0c9060203d602011612d0f575b612d04818361142d565b810190612c98565b50565b503d612cfa565b916001600160a01b0390911690813b1561018457604051632961046560e21b815260048101869052925a935f816024818388819af1801561250357612eb1575b506001600160a01b0316308114612e25579060646020928560405198899485936323b872dd60e01b8552600485015287602485015260448401525af1938415612e1a57829394612dd6575b506020905b600460405180958193630476982d60e21b83525af1908115612dca5750612ceb5750565b604051903d90823e3d90fd5b9091506020813d602011612e12575b81612df26020938361142d565b81010312612e0e578291612e07602092612071565b5090612da1565b8280fd5b3d9150612de5565b6040513d84823e3d90fd5b5060405163a9059cbb60e01b81526001600160a01b03831660048201526024810191909152936020908590604490829086905af1938415612e1a57829394612e71575b50602090612da6565b9091506020813d602011612ea9575b81612e8d6020938361142d565b81010312612e0e578291612ea2602092612071565b5090612e68565b3d9150612e80565b612ebe9194505f9061142d565b5f925f612d56565b9192906001600160a01b0316803b1561018457604051637a94c56560e11b81526001600160a01b03948516600482015293909216602484015260448301525f908290818381606481015b03925af1801561250357612f215750565b5f612f2b9161142d565b565b9192906001600160a01b0316803b1561018457604051630ab714fb60e11b81526001600160a01b03948516600482015293909216602484015260448301525f90829081838160648101612f10565b919493156130985784831561305257506003810194855492612f9d8285613d67565b96670de0b6b3a7640000880297808904670de0b6b3a76400001490151715610c9e57611ddf956007858a93612fe5856001600160801b039a60058c9b016128f2838254611622565b905501612ff3858254611622565b90551561304257816130076128369361185b565b613035857f000000000000000000000000000000000000000000000000000000000000000092833091612f2d565b61294d602030930161185b565b81612915602061288c940161185b565b611ddf9350612836816001600160801b0394600786956003810161307c856127bd83549e8f613f0e565b90550161308a8a825461162f565b90556128546020820161185b565b909190811561312857846001600160801b039381612a179460078795600381016130c885612a8c83549e8f613c7e565b9055016130d68a8254611622565b90551561311857816130ea612a0e9361185b565b6130358a7f000000000000000000000000000000000000000000000000000000000000000092833091612f2d565b81612ab86020612a5d940161185b565b93919050600384019182549061313e8183613d67565b95670de0b6b3a7640000870296808804670de0b6b3a76400001490151715610c9e5786612a17946007612a0e936001600160801b039861317f858b9961162f565b90556005810161319085825461162f565b90550161319e85825461162f565b9055612a2f6020820161185b565b90919294935f14613256578415613229576040926131cf8451612b45868261142d565b600283019182546131e08382613d67565b97670de0b6b3a7640000890298808a04670de0b6b3a76400001490151715610c9e5760066001600160801b03968796612fe58c8096612be382611ddf9e612bc38151918261142d565b82809550612836611ddf946001600160801b039493600686956002810161307c85612b1f83549e8f613f0e565b919390811561328657846001600160801b039381612a179460068795600281016130c885612c8883549e8f613c7e565b93919050600284019182549061329c8183613d67565b95670de0b6b3a7640000870296808804670de0b6b3a76400001490151715610c9e5786612a17946006612a0e936001600160801b03986132dd858b9961162f565b90556004810161319085825461162f565b6001600160a01b03908116670de0b6b3a764000081810290921692918184041490151715610c9e57565b80156133985760208110600116604e821060011617613384576001600a915b6001811161335557506001600160a01b038290048111610c9e570290565b916001600160a01b038190048111610c9e576001831661337b575b80029160011c613337565b80910290613370565b600a0a906001600160a01b038211610c9e57565b50600190565b6001600160a01b039091169081156115b3576001600160a01b03160490565b6133ec61276f5f93928493604051938492632d839cb360e21b6020850152604060248501526064840190611387565b90604483015203601f19810183528261142d565b600f0b6f7fffffffffffffffffffffffffffffff198114610c9e575f0390565b60020b5f8112156139f757613434816126ee565b905b620d89e882116139ce5760018216156139bc576001600160881b036ffffcb933bd6fad37aa2d162d1a5940015b169160028116613981575b60048116613946575b6008811661390b575b601081166138d0575b60208116613895575b6040811661385a575b6080811661381f575b61010081166137e4575b61020081166137a9575b610400811661376e575b6108008116613733575b61100081166136f8575b61200081166136bd575b6140008116613682575b6180008116613647575b62010000811661360c575b6202000081166135d3575b62040000811661359c575b6208000016613569575b5f1261355b575b63ffffffff81166135505761354c5f915b6001600160a01b039260ff169060201c611622565b1690565b61354c600191613537565b80156115b3575f1904613526565b906b048a170391f7dc42444e8fa28102908082046b048a170391f7dc42444e8fa21490151715610c9e5760801c9061351f565b916d2216e584f5fa1ea926041bedfe988102908082046d2216e584f5fa1ea926041bedfe981490151715610c9e5760801c91613515565b916e5d6af8dedb81196699c329225ee6048102908082046e5d6af8dedb81196699c329225ee6041490151715610c9e5760801c9161350a565b916f09aa508b5b7a84e1c677de54f3e99bc98102908082046f09aa508b5b7a84e1c677de54f3e99bc91490151715610c9e5760801c916134ff565b916f31be135f97d08fd981231505542fcfa68102908082046f31be135f97d08fd981231505542fcfa61490151715610c9e5760801c916134f4565b916f70d869a156d2a1b890bb3df62baf32f78102908082046f70d869a156d2a1b890bb3df62baf32f71490151715610c9e5760801c916134ea565b916fa9f746462d870fdf8a65dc1f90e061e58102908082046fa9f746462d870fdf8a65dc1f90e061e51490151715610c9e5760801c916134e0565b916fd097f3bdfd2022b8845ad8f792aa58258102908082046fd097f3bdfd2022b8845ad8f792aa58251490151715610c9e5760801c916134d6565b916fe7159475a2c29b7443b29c7fa6e889d98102908082046fe7159475a2c29b7443b29c7fa6e889d91490151715610c9e5760801c916134cc565b916ff3392b0822b70005940c7a398e4b70f38102908082046ff3392b0822b70005940c7a398e4b70f31490151715610c9e5760801c916134c2565b916ff987a7253ac413176f2b074cf7815e548102908082046ff987a7253ac413176f2b074cf7815e541490151715610c9e5760801c916134b8565b916ffcbe86c7900a88aedcffc83b479aa3a48102908082046ffcbe86c7900a88aedcffc83b479aa3a41490151715610c9e5760801c916134ae565b916ffe5dee046a99a2a811c461f1969c30538102908082046ffe5dee046a99a2a811c461f1969c30531490151715610c9e5760801c916134a4565b916fff2ea16466c96a3843ec78b326b528618102908082046fff2ea16466c96a3843ec78b326b528611490151715610c9e5760801c9161349b565b916fff973b41fa98c081472e6896dfb254c08102908082046fff973b41fa98c081472e6896dfb254c01490151715610c9e5760801c91613492565b916fffcb9843d60f6159c9db58835c9266448102908082046fffcb9843d60f6159c9db58835c9266441490151715610c9e5760801c91613489565b916fffe5caca7e10e4e61c3624eaa0941cd08102908082046fffe5caca7e10e4e61c3624eaa0941cd01490151715610c9e5760801c91613480565b916ffff2e50f5f656932ef12357cf3c7fdcc8102908082046ffff2e50f5f656932ef12357cf3c7fdcc1490151715610c9e5760801c91613477565b916ffff97272373d413259a46990580e213a8102908082046ffff97272373d413259a46990580e213a1490151715610c9e5760801c9161346e565b6001600160881b03600160801b613463565b60405162461bcd60e51b81526020600482015260016024820152601560fa1b6044820152606490fd5b80613436565b5f19600160601b8209918160601b91828085109403938085039414613b275783821115610184578190600160601b9009811960018101809111610c9e57613a5790831680930494600184805f030401908584119003611596565b9203041781600302600381048303610c9e57600218613a768184611596565b60020360028111610c9e57613a8a91611596565b613a948184611596565b60020360028111610c9e57613aa891611596565b613ab28184611596565b60020360028111610c9e57613ac691611596565b613ad08184611596565b60020360028111610c9e57613ae491611596565b613aee8184611596565b6002039060028211610c9e57613b0e91613b0791611596565b8093611596565b6002039160028311610c9e57611ddf926122b891611596565b5080925015610184570490565b5f91905f198282099082810292838084109303928084039314613c1557600160c01b831015613c11578491600160c01b91900993613bfd575068010000000000000000908284119003818102918183041490151715610c9e57613b98600180611596565b8060020360028111610c9e57613bad91611596565b8060020360028111610c9e57613bc291611596565b8060020360028111610c9e57613bd791611596565b92836002039360028511610c9e57611ddf94613bf291611596565b920360c01c17611596565b634e487b7160e01b81526011600452602490fd5b8480fd5b505050905060c01c90565b915f198284099282810292838086109503948086039514613c70578483111561018457829109811960018101809111610c9e57613a5790831680930494600184805f030401908584119003611596565b505080925015610184570490565b633b9aca00908082029082820403610c9e57613ca583670de0b6b3a7640000809304611596565b0482820291808304841490151715610c9e57671bc16d674ec80000613cd784670de0b6b3a7640000613cde9504611596565b0490611622565b650574fbde60008281029290830403610c9e57670de0b6b3a7640000613d05920490611622565b670de0b6b3a763d8f090818102918183041490151715610c9e57670de0b6b3a7640000900490565b81810292915f8212600160ff1b821416610c9e578184051490151715610c9e57565b81810392915f138015828513169184121617610c9e57565b908015613ec957670de0b6b3a76400008102908104670de0b6b3a764000003610c9e57633b9aca00670de0b6b3a764000090920482810292670de0b6b3a764271090920491830403610c9e57650574fbde60008201809211610c9e57613dcc906126ee565b90613dd78180613d2d565b631dcd650092906377359400613df692613df091613d2d565b90613d4f565b905f8212613e7a57613e0a613e0f92613f6e565b613d4f565b8160011b916002830503610c9e5781156115b357600160ff1b81145f19831416610c9e57055f8112613e3e5790565b60405162461bcd60e51b8152602060048201526014602482015273125b9d985b1a59081d1bdad95b88185b5bdd5b9d60621b6044820152606490fd5b60405162461bcd60e51b815260206004820152602160248201527f4469736372696d696e616e74206d757374206265206e6f6e2d6e6567617469766044820152606560f81b6064820152608490fd5b60405162461bcd60e51b815260206004820152601e60248201527f436f7374206d7573742062652067726561746572207468616e207a65726f00006044820152606490fd5b633b9aca00908082029082820403610c9e57613f3583670de0b6b3a7640000809304611596565b0482820291808304841490151715610c9e57671bc16d674ec80000613f6784670de0b6b3a7640000613cde9504611596565b049061162f565b908115613faa5760018201808311610c9e5760011c825b838210613f90575050565b909250613fa18361231481846115a9565b60011c90613f85565b5f915056fe60806040523461034e57610b7f8038038061001981610352565b92833981019060608183031261034e5780516001600160401b03811161034e5782610045918301610377565b60208201519092906001600160401b03811161034e57604091610069918401610377565b91015182516001600160401b03811161025f57600354600181811c91168015610344575b602082101461024157601f81116102e1575b506020601f821160011461027e57819293945f92610273575b50508160011b915f199060031b1c1916176003555b81516001600160401b03811161025f57600454600181811c91168015610255575b602082101461024157601f81116101de575b50602092601f821160011461017d57928192935f92610172575b50508160011b915f199060031b1c1916176004555b600580546001600160a01b031916331790554290810190811061015e576006556040516107b690816103c98239f35b634e487b7160e01b5f52601160045260245ffd5b015190505f8061011a565b601f1982169360045f52805f20915f5b8681106101c657508360019596106101ae575b505050811b0160045561012f565b01515f1960f88460031b161c191690555f80806101a0565b9192602060018192868501518155019401920161018d565b60045f527f8a35acfbc15ff81a39ae7d344fd709f28e8600b4aa8c65c6b64bfe7fe36bd19b601f830160051c81019160208410610237575b601f0160051c01905b81811061022c5750610100565b5f815560010161021f565b9091508190610216565b634e487b7160e01b5f52602260045260245ffd5b90607f16906100ee565b634e487b7160e01b5f52604160045260245ffd5b015190505f806100b8565b601f1982169060035f52805f20915f5b8181106102c9575095836001959697106102b1575b505050811b016003556100cd565b01515f1960f88460031b161c191690555f80806102a3565b9192602060018192868b01518155019401920161028e565b60035f527fc2575a0e9e593c00f959f8c92f12db2869c3395a3b0502d05e2516446f71f85b601f830160051c8101916020841061033a575b601f0160051c01905b81811061032f575061009f565b5f8155600101610322565b9091508190610319565b90607f169061008d565b5f80fd5b6040519190601f01601f191682016001600160401b0381118382101761025f57604052565b81601f8201121561034e578051906001600160401b03821161025f576103a6601f8301601f1916602001610352565b928284526020838301011161034e57815f9260208093018386015e830101529056fe6080806040526004361015610012575f80fd5b5f3560e01c90816306fdde031461055857508063095ea7b3146104d657806318160ddd146104b957806323b872dd146103da578063313ce567146103bf57806336654887146103a257806340c10f191461029f57806370a08231146102685780638da5cb5b1461024057806395d89b4114610125578063a9059cbb146100f45763dd62ed3e146100a0575f80fd5b346100f05760403660031901126100f0576100b9610651565b6100c1610667565b6001600160a01b039182165f908152600160209081526040808320949093168252928352819020549051908152f35b5f80fd5b346100f05760403660031901126100f05761011a610110610651565b60243590336106c9565b602060405160018152f35b346100f0575f3660031901126100f0576040515f6004548060011c90600181168015610236575b6020831081146102225782855290811561020657506001146101b1575b50819003601f01601f191681019067ffffffffffffffff82118183101761019d5761019982918260405282610627565b0390f35b634e487b7160e01b5f52604160045260245ffd5b905060045f527f8a35acfbc15ff81a39ae7d344fd709f28e8600b4aa8c65c6b64bfe7fe36bd19b5f905b8282106101f057506020915082010182610169565b60018160209254838588010152019101906101db565b90506020925060ff191682840152151560051b82010182610169565b634e487b7160e01b5f52602260045260245ffd5b91607f169161014c565b346100f0575f3660031901126100f0576005546040516001600160a01b039091168152602090f35b346100f05760203660031901126100f0576001600160a01b03610289610651565b165f525f602052602060405f2054604051908152f35b346100f05760403660031901126100f0576102b8610651565b60055460243591906001600160a01b03163303610370576102dc600654421061067d565b6001600160a01b031690811561035d576102f9600654421061067d565b600254908082018092116103495760207fddf252ad1be2c89b69c2b068fc378daa952ba7f163c4a11628f55a4df523b3ef915f9360025584845283825260408420818154019055604051908152a3005b634e487b7160e01b5f52601160045260245ffd5b63ec442f0560e01b5f525f60045260245ffd5b60405162461bcd60e51b815260206004820152600a60248201526927a7262c9027aba722a960b11b6044820152606490fd5b346100f0575f3660031901126100f0576020600654604051908152f35b346100f0575f3660031901126100f057602060405160128152f35b346100f05760603660031901126100f0576103f3610651565b6103fb610667565b6001600160a01b0382165f818152600160209081526040808320338452909152902054909260443592915f198110610439575b5061011a93506106c9565b83811061049e57841561048b5733156104785761011a945f52600160205260405f2060018060a01b0333165f526020528360405f20910390558461042e565b634a1406b160e11b5f525f60045260245ffd5b63e602df0560e01b5f525f60045260245ffd5b8390637dc7a0d960e11b5f523360045260245260445260645ffd5b346100f0575f3660031901126100f0576020600254604051908152f35b346100f05760403660031901126100f0576104ef610651565b60243590331561048b576001600160a01b031690811561047857335f52600160205260405f20825f526020528060405f20556040519081527f8c5be1e5ebec7d5bd14f71427d1e84f3dd0314c0f7b2291e5b200ac8c7c3b92560203392a3602060405160018152f35b346100f0575f3660031901126100f0575f6003548060011c9060018116801561061d575b6020831081146102225782855290811561020657506001146105c85750819003601f01601f191681019067ffffffffffffffff82118183101761019d5761019982918260405282610627565b905060035f527fc2575a0e9e593c00f959f8c92f12db2869c3395a3b0502d05e2516446f71f85b5f905b82821061060757506020915082010182610169565b60018160209254838588010152019101906105f2565b91607f169161057c565b602060409281835280519182918282860152018484015e5f828201840152601f01601f1916010190565b600435906001600160a01b03821682036100f057565b602435906001600160a01b03821682036100f057565b1561068457565b60405162461bcd60e51b815260206004820152601d60248201527f544f4b454e20455850495245442c204d494e54494e4720434c4f5345440000006044820152606490fd5b6001600160a01b031690811561076d576001600160a01b031691821561035d576106f6600654421061067d565b815f525f60205260405f205481811061075457817fddf252ad1be2c89b69c2b068fc378daa952ba7f163c4a11628f55a4df523b3ef92602092855f525f84520360405f2055845f525f825260405f20818154019055604051908152a3565b8263391434e360e21b5f5260045260245260445260645ffd5b634b637e8f60e11b5f525f60045260245ffdfea2646970667358221220204e058253c14f5ece71de3f92269c07c4ac04d597acd5f4d3aeb05bc5a0092b64736f6c634300081a0033a26469706673582212205ca603212dd71d07f2858c55c16658cbf4f0dbc555754f188aa6dedd3779d95f64736f6c634300081a0033","linkReferences":{}},"methodIdentifiers":{"BASE_PRICE()":"f86325ed","FEE()":"c57981b5","IV_TOKEN_SUPPLY()":"36808a7c","RESERVE_SHIFT_SLOPE()":"fc63b1fd","SLOPE()":"8b7cc629","afterAddLiquidity(address,(address,address,uint24,int24,address),(int24,int24,int256,bytes32),int256,int256,bytes)":"9f063efc","afterDonate(address,(address,address,uint24,int24,address),uint256,uint256,bytes)":"e1b4af69","afterInitialize(address,(address,address,uint24,int24,address),uint160,int24)":"6fe7e6eb","afterRemoveLiquidity(address,(address,address,uint24,int24,address),(int24,int24,int256,bytes32),int256,int256,bytes)":"6c2bbe7e","afterSwap(address,(address,address,uint24,int24,address),(bool,int256,uint160),int256,bytes)":"b47b2fb1","baseToken()":"c55dae63","beforeAddLiquidity(address,(address,address,uint24,int24,address),(int24,int24,int256,bytes32),bytes)":"259982e5","beforeDonate(address,(address,address,uint24,int24,address),uint256,uint256,bytes)":"b6a8b0fa","beforeInitialize(address,(address,address,uint24,int24,address),uint160)":"dc98354e","beforeRemoveLiquidity(address,(address,address,uint24,int24,address),(int24,int24,int256,bytes32),bytes)":"21d0ee70","beforeSwap(address,(address,address,uint24,int24,address),(bool,int256,uint160),bytes)":"575e24b4","calculateIv(address,uint160)":"f68f3c57","deploy2Currency(address,string[2],string[2],address,uint160,uint256)":"a79a3478","getHookPermissions()":"c4e833ce","getVixData(address)":"b6780bf2","isPairInitiated(address)":"77295a8d","oneForZeroOperator((address,address,uint24,int24,address),address,(bool,int256,uint160),uint256,bool)":"5f40ef01","pairEndingTime(address)":"bb2ffdef","pairInitiatedTime(address)":"d111f97e","poolManager()":"dc4c90d3","resetPair(address,uint256,address,uint160)":"db6ba9d4","swapReserve(uint256,uint256,uint256,uint256,uint256,uint256,address)":"4c001a9e","unlockCallback(bytes)":"91dd7346","vixTokensPrice(uint256)":"591094e4","zeroForOneOperator((address,address,uint24,int24,address),address,(bool,int256,uint160),uint256,bool)":"d9a6eef9"},"id":105}