{"abi":[{"type":"constructor","inputs":[{"name":"poolManager","type":"address","internalType":"contract IPoolManager"},{"name":"_baseToken","type":"address","internalType":"address"},{"name":"_bondingCurve","type":"address","internalType":"address"},{"name":"slope","type":"uint256","internalType":"uint256"},{"name":"fee","type":"uint256","internalType":"uint256"},{"name":"basePrice","type":"uint256","internalType":"uint256"}],"stateMutability":"nonpayable"},{"type":"function","name":"BASE_PRICE","inputs":[],"outputs":[{"name":"","type":"uint256","internalType":"uint256"}],"stateMutability":"view"},{"type":"function","name":"FEE","inputs":[],"outputs":[{"name":"","type":"uint256","internalType":"uint256"}],"stateMutability":"view"},{"type":"function","name":"IV_TOKEN_SUPPLY","inputs":[],"outputs":[{"name":"","type":"uint256","internalType":"uint256"}],"stateMutability":"view"},{"type":"function","name":"RESERVE_SHIFT_SLOPE","inputs":[],"outputs":[{"name":"","type":"uint256","internalType":"uint256"}],"stateMutability":"view"},{"type":"function","name":"SLOPE","inputs":[],"outputs":[{"name":"","type":"uint256","internalType":"uint256"}],"stateMutability":"view"},{"type":"function","name":"afterAddLiquidity","inputs":[{"name":"sender","type":"address","internalType":"address"},{"name":"key","type":"tuple","internalType":"struct PoolKey","components":[{"name":"currency0","type":"address","internalType":"Currency"},{"name":"currency1","type":"address","internalType":"Currency"},{"name":"fee","type":"uint24","internalType":"uint24"},{"name":"tickSpacing","type":"int24","internalType":"int24"},{"name":"hooks","type":"address","internalType":"contract IHooks"}]},{"name":"params","type":"tuple","internalType":"struct IPoolManager.ModifyLiquidityParams","components":[{"name":"tickLower","type":"int24","internalType":"int24"},{"name":"tickUpper","type":"int24","internalType":"int24"},{"name":"liquidityDelta","type":"int256","internalType":"int256"},{"name":"salt","type":"bytes32","internalType":"bytes32"}]},{"name":"delta","type":"int256","internalType":"BalanceDelta"},{"name":"feesAccrued","type":"int256","internalType":"BalanceDelta"},{"name":"hookData","type":"bytes","internalType":"bytes"}],"outputs":[{"name":"","type":"bytes4","internalType":"bytes4"},{"name":"","type":"int256","internalType":"BalanceDelta"}],"stateMutability":"nonpayable"},{"type":"function","name":"afterDonate","inputs":[{"name":"sender","type":"address","internalType":"address"},{"name":"key","type":"tuple","internalType":"struct PoolKey","components":[{"name":"currency0","type":"address","internalType":"Currency"},{"name":"currency1","type":"address","internalType":"Currency"},{"name":"fee","type":"uint24","internalType":"uint24"},{"name":"tickSpacing","type":"int24","internalType":"int24"},{"name":"hooks","type":"address","internalType":"contract IHooks"}]},{"name":"amount0","type":"uint256","internalType":"uint256"},{"name":"amount1","type":"uint256","internalType":"uint256"},{"name":"hookData","type":"bytes","internalType":"bytes"}],"outputs":[{"name":"","type":"bytes4","internalType":"bytes4"}],"stateMutability":"nonpayable"},{"type":"function","name":"afterInitialize","inputs":[{"name":"sender","type":"address","internalType":"address"},{"name":"key","type":"tuple","internalType":"struct PoolKey","components":[{"name":"currency0","type":"address","internalType":"Currency"},{"name":"currency1","type":"address","internalType":"Currency"},{"name":"fee","type":"uint24","internalType":"uint24"},{"name":"tickSpacing","type":"int24","internalType":"int24"},{"name":"hooks","type":"address","internalType":"contract IHooks"}]},{"name":"sqrtPriceX96","type":"uint160","internalType":"uint160"},{"name":"tick","type":"int24","internalType":"int24"}],"outputs":[{"name":"","type":"bytes4","internalType":"bytes4"}],"stateMutability":"nonpayable"},{"type":"function","name":"afterRemoveLiquidity","inputs":[{"name":"sender","type":"address","internalType":"address"},{"name":"key","type":"tuple","internalType":"struct PoolKey","components":[{"name":"currency0","type":"address","internalType":"Currency"},{"name":"currency1","type":"address","internalType":"Currency"},{"name":"fee","type":"uint24","internalType":"uint24"},{"name":"tickSpacing","type":"int24","internalType":"int24"},{"name":"hooks","type":"address","internalType":"contract IHooks"}]},{"name":"params","type":"tuple","internalType":"struct IPoolManager.ModifyLiquidityParams","components":[{"name":"tickLower","type":"int24","internalType":"int24"},{"name":"tickUpper","type":"int24","internalType":"int24"},{"name":"liquidityDelta","type":"int256","internalType":"int256"},{"name":"salt","type":"bytes32","internalType":"bytes32"}]},{"name":"delta","type":"int256","internalType":"BalanceDelta"},{"name":"feesAccrued","type":"int256","internalType":"BalanceDelta"},{"name":"hookData","type":"bytes","internalType":"bytes"}],"outputs":[{"name":"","type":"bytes4","internalType":"bytes4"},{"name":"","type":"int256","internalType":"BalanceDelta"}],"stateMutability":"nonpayable"},{"type":"function","name":"afterSwap","inputs":[{"name":"sender","type":"address","internalType":"address"},{"name":"key","type":"tuple","internalType":"struct PoolKey","components":[{"name":"currency0","type":"address","internalType":"Currency"},{"name":"currency1","type":"address","internalType":"Currency"},{"name":"fee","type":"uint24","internalType":"uint24"},{"name":"tickSpacing","type":"int24","internalType":"int24"},{"name":"hooks","type":"address","internalType":"contract IHooks"}]},{"name":"params","type":"tuple","internalType":"struct IPoolManager.SwapParams","components":[{"name":"zeroForOne","type":"bool","internalType":"bool"},{"name":"amountSpecified","type":"int256","internalType":"int256"},{"name":"sqrtPriceLimitX96","type":"uint160","internalType":"uint160"}]},{"name":"delta","type":"int256","internalType":"BalanceDelta"},{"name":"hookData","type":"bytes","internalType":"bytes"}],"outputs":[{"name":"","type":"bytes4","internalType":"bytes4"},{"name":"","type":"int128","internalType":"int128"}],"stateMutability":"nonpayable"},{"type":"function","name":"baseToken","inputs":[],"outputs":[{"name":"","type":"address","internalType":"address"}],"stateMutability":"view"},{"type":"function","name":"beforeAddLiquidity","inputs":[{"name":"sender","type":"address","internalType":"address"},{"name":"key","type":"tuple","internalType":"struct PoolKey","components":[{"name":"currency0","type":"address","internalType":"Currency"},{"name":"currency1","type":"address","internalType":"Currency"},{"name":"fee","type":"uint24","internalType":"uint24"},{"name":"tickSpacing","type":"int24","internalType":"int24"},{"name":"hooks","type":"address","internalType":"contract IHooks"}]},{"name":"params","type":"tuple","internalType":"struct IPoolManager.ModifyLiquidityParams","components":[{"name":"tickLower","type":"int24","internalType":"int24"},{"name":"tickUpper","type":"int24","internalType":"int24"},{"name":"liquidityDelta","type":"int256","internalType":"int256"},{"name":"salt","type":"bytes32","internalType":"bytes32"}]},{"name":"hookData","type":"bytes","internalType":"bytes"}],"outputs":[{"name":"","type":"bytes4","internalType":"bytes4"}],"stateMutability":"nonpayable"},{"type":"function","name":"beforeDonate","inputs":[{"name":"sender","type":"address","internalType":"address"},{"name":"key","type":"tuple","internalType":"struct PoolKey","components":[{"name":"currency0","type":"address","internalType":"Currency"},{"name":"currency1","type":"address","internalType":"Currency"},{"name":"fee","type":"uint24","internalType":"uint24"},{"name":"tickSpacing","type":"int24","internalType":"int24"},{"name":"hooks","type":"address","internalType":"contract IHooks"}]},{"name":"amount0","type":"uint256","internalType":"uint256"},{"name":"amount1","type":"uint256","internalType":"uint256"},{"name":"hookData","type":"bytes","internalType":"bytes"}],"outputs":[{"name":"","type":"bytes4","internalType":"bytes4"}],"stateMutability":"nonpayable"},{"type":"function","name":"beforeInitialize","inputs":[{"name":"sender","type":"address","internalType":"address"},{"name":"key","type":"tuple","internalType":"struct PoolKey","components":[{"name":"currency0","type":"address","internalType":"Currency"},{"name":"currency1","type":"address","internalType":"Currency"},{"name":"fee","type":"uint24","internalType":"uint24"},{"name":"tickSpacing","type":"int24","internalType":"int24"},{"name":"hooks","type":"address","internalType":"contract IHooks"}]},{"name":"sqrtPriceX96","type":"uint160","internalType":"uint160"}],"outputs":[{"name":"","type":"bytes4","internalType":"bytes4"}],"stateMutability":"nonpayable"},{"type":"function","name":"beforeRemoveLiquidity","inputs":[{"name":"sender","type":"address","internalType":"address"},{"name":"key","type":"tuple","internalType":"struct PoolKey","components":[{"name":"currency0","type":"address","internalType":"Currency"},{"name":"currency1","type":"address","internalType":"Currency"},{"name":"fee","type":"uint24","internalType":"uint24"},{"name":"tickSpacing","type":"int24","internalType":"int24"},{"name":"hooks","type":"address","internalType":"contract IHooks"}]},{"name":"params","type":"tuple","internalType":"struct IPoolManager.ModifyLiquidityParams","components":[{"name":"tickLower","type":"int24","internalType":"int24"},{"name":"tickUpper","type":"int24","internalType":"int24"},{"name":"liquidityDelta","type":"int256","internalType":"int256"},{"name":"salt","type":"bytes32","internalType":"bytes32"}]},{"name":"hookData","type":"bytes","internalType":"bytes"}],"outputs":[{"name":"","type":"bytes4","internalType":"bytes4"}],"stateMutability":"nonpayable"},{"type":"function","name":"beforeSwap","inputs":[{"name":"sender","type":"address","internalType":"address"},{"name":"key","type":"tuple","internalType":"struct PoolKey","components":[{"name":"currency0","type":"address","internalType":"Currency"},{"name":"currency1","type":"address","internalType":"Currency"},{"name":"fee","type":"uint24","internalType":"uint24"},{"name":"tickSpacing","type":"int24","internalType":"int24"},{"name":"hooks","type":"address","internalType":"contract IHooks"}]},{"name":"params","type":"tuple","internalType":"struct IPoolManager.SwapParams","components":[{"name":"zeroForOne","type":"bool","internalType":"bool"},{"name":"amountSpecified","type":"int256","internalType":"int256"},{"name":"sqrtPriceLimitX96","type":"uint160","internalType":"uint160"}]},{"name":"hookData","type":"bytes","internalType":"bytes"}],"outputs":[{"name":"","type":"bytes4","internalType":"bytes4"},{"name":"","type":"int256","internalType":"BeforeSwapDelta"},{"name":"","type":"uint24","internalType":"uint24"}],"stateMutability":"nonpayable"},{"type":"function","name":"bondingCurve","inputs":[],"outputs":[{"name":"","type":"address","internalType":"contract IBondingCurve"}],"stateMutability":"view"},{"type":"function","name":"calculateIv","inputs":[{"name":"_poolAddress","type":"address","internalType":"address"},{"name":"volume","type":"uint160","internalType":"uint160"}],"outputs":[{"name":"_iv","type":"uint160","internalType":"uint160"}],"stateMutability":"view"},{"type":"function","name":"deploy2Currency","inputs":[{"name":"deriveToken","type":"address","internalType":"address"},{"name":"_tokenName","type":"string[2]","internalType":"string[2]"},{"name":"_tokenSymbol","type":"string[2]","internalType":"string[2]"},{"name":"_poolAddress","type":"address","internalType":"address"},{"name":"volume","type":"uint160","internalType":"uint160"},{"name":"deadline","type":"uint256","internalType":"uint256"}],"outputs":[{"name":"","type":"address[2]","internalType":"address[2]"}],"stateMutability":"nonpayable"},{"type":"function","name":"getHookPermissions","inputs":[],"outputs":[{"name":"","type":"tuple","internalType":"struct Hooks.Permissions","components":[{"name":"beforeInitialize","type":"bool","internalType":"bool"},{"name":"afterInitialize","type":"bool","internalType":"bool"},{"name":"beforeAddLiquidity","type":"bool","internalType":"bool"},{"name":"afterAddLiquidity","type":"bool","internalType":"bool"},{"name":"beforeRemoveLiquidity","type":"bool","internalType":"bool"},{"name":"afterRemoveLiquidity","type":"bool","internalType":"bool"},{"name":"beforeSwap","type":"bool","internalType":"bool"},{"name":"afterSwap","type":"bool","internalType":"bool"},{"name":"beforeDonate","type":"bool","internalType":"bool"},{"name":"afterDonate","type":"bool","internalType":"bool"},{"name":"beforeSwapReturnDelta","type":"bool","internalType":"bool"},{"name":"afterSwapReturnDelta","type":"bool","internalType":"bool"},{"name":"afterAddLiquidityReturnDelta","type":"bool","internalType":"bool"},{"name":"afterRemoveLiquidityReturnDelta","type":"bool","internalType":"bool"}]}],"stateMutability":"pure"},{"type":"function","name":"getVixData","inputs":[{"name":"deriveAsset","type":"address","internalType":"address"}],"outputs":[{"name":"vixHighToken","type":"address","internalType":"address"},{"name":"_vixLowToken","type":"address","internalType":"address"},{"name":"_circulation0","type":"uint256","internalType":"uint256"},{"name":"_circulation1","type":"uint256","internalType":"uint256"},{"name":"_contractHoldings0","type":"uint256","internalType":"uint256"},{"name":"_contractHoldings1","type":"uint256","internalType":"uint256"},{"name":"_reserve0","type":"uint256","internalType":"uint256"},{"name":"_reserve1","type":"uint256","internalType":"uint256"},{"name":"_poolAddress","type":"address","internalType":"address"}],"stateMutability":"view"},{"type":"function","name":"isPairInitiated","inputs":[{"name":"","type":"address","internalType":"address"}],"outputs":[{"name":"","type":"bool","internalType":"bool"}],"stateMutability":"view"},{"type":"function","name":"pairEndingTime","inputs":[{"name":"","type":"address","internalType":"address"}],"outputs":[{"name":"","type":"uint256","internalType":"uint256"}],"stateMutability":"view"},{"type":"function","name":"pairInitiatedTime","inputs":[{"name":"","type":"address","internalType":"address"}],"outputs":[{"name":"","type":"uint256","internalType":"uint256"}],"stateMutability":"view"},{"type":"function","name":"poolManager","inputs":[],"outputs":[{"name":"","type":"address","internalType":"contract IPoolManager"}],"stateMutability":"view"},{"type":"function","name":"resetPair","inputs":[{"name":"deriveToken","type":"address","internalType":"address"},{"name":"deadline","type":"uint256","internalType":"uint256"},{"name":"_poolAddress","type":"address","internalType":"address"},{"name":"volume","type":"uint160","internalType":"uint160"}],"outputs":[{"name":"","type":"address[2]","internalType":"address[2]"}],"stateMutability":"nonpayable"},{"type":"function","name":"swapReserve","inputs":[{"name":"initialIv","type":"uint256","internalType":"uint256"},{"name":"currentIv","type":"uint256","internalType":"uint256"},{"name":"reserve0","type":"uint256","internalType":"uint256"},{"name":"reserve1","type":"uint256","internalType":"uint256"},{"name":"circulation0","type":"uint256","internalType":"uint256"},{"name":"circulation1","type":"uint256","internalType":"uint256"},{"name":"deriveAsset","type":"address","internalType":"address"}],"outputs":[{"name":"","type":"uint256","internalType":"uint256"},{"name":"","type":"uint256","internalType":"uint256"}],"stateMutability":"nonpayable"},{"type":"function","name":"unlockCallback","inputs":[{"name":"data","type":"bytes","internalType":"bytes"}],"outputs":[{"name":"","type":"bytes","internalType":"bytes"}],"stateMutability":"nonpayable"},{"type":"function","name":"vixTokensPrice","inputs":[{"name":"contractHoldings","type":"uint256","internalType":"uint256"}],"outputs":[{"name":"","type":"uint256","internalType":"uint256"}],"stateMutability":"view"},{"type":"event","name":"HookSwap","inputs":[{"name":"id","type":"bytes32","indexed":true,"internalType":"bytes32"},{"name":"sender","type":"address","indexed":true,"internalType":"address"},{"name":"amount0","type":"int128","indexed":false,"internalType":"int128"},{"name":"amount1","type":"int128","indexed":false,"internalType":"int128"},{"name":"hookLPfeeAmount0","type":"uint128","indexed":false,"internalType":"uint128"},{"name":"hookLPfeeAmount1","type":"uint128","indexed":false,"internalType":"uint128"}],"anonymous":false},{"type":"event","name":"PairExpired","inputs":[{"name":"deriveToken","type":"address","indexed":true,"internalType":"address"},{"name":"vixHighToken","type":"address","indexed":true,"internalType":"address"},{"name":"vixLowToken","type":"address","indexed":true,"internalType":"address"},{"name":"initatedIV","type":"uint256","indexed":false,"internalType":"uint256"},{"name":"expiredTime","type":"uint256","indexed":false,"internalType":"uint256"}],"anonymous":false},{"type":"event","name":"PairInitiated","inputs":[{"name":"_deriveToken","type":"address","indexed":true,"internalType":"address"},{"name":"_vixHighToken","type":"address","indexed":true,"internalType":"address"},{"name":"_vixLowToken","type":"address","indexed":true,"internalType":"address"},{"name":"_initiatedTime","type":"uint256","indexed":false,"internalType":"uint256"},{"name":"_deadline","type":"uint256","indexed":false,"internalType":"uint256"},{"name":"initiatedIV","type":"uint256","indexed":false,"internalType":"uint256"}],"anonymous":false},{"type":"error","name":"HookNotImplemented","inputs":[]},{"type":"error","name":"NotPoolManager","inputs":[]},{"type":"error","name":"T","inputs":[]},{"type":"error","name":"invalidLiquidityAction","inputs":[]}],"bytecode":{"object":"0x60a06040523461030557604051601f61459c38819003918201601f19168301916001600160401b038311848410176103095780849260c0946040528339810103126103055780516001600160a01b0381168103610305576100626020830161033d565b9161006f6040820161033d565b9260608201519060a06080840151930151936080525f6101a061009061031d565b8281528260208201528260408201528260608201528260808201528260a08201528260c08201528260e0820152826101008201528261012082015282610140820152826101608201528261018082015201525f6101a06100ee61031d565b828152826020820152600160408201528260608201528260808201528260a0820152600160c0820152600160e082015282610100820152826101208201526001610140820152826101608201528261018082015201526120003016158015906102f8575b80156102e7575b80156102da575b80156102cd575b80156102c0575b80156102b0575b80156102a0575b8015610294575b8015610288575b8015610278575b801561026c575b8015610260575b8015610254575b6102415760018060a01b031660018060a01b0319600754161760075560035560045560055560018060a01b031660018060a01b0319600854161760085560405161424a90816103528239608051818181610220015281816102a2015281816102f4015281816106e7015281816108ec0152818161096101528181610b0e01528181610bdf015281816118c40152818161191701526122370152f35b630732d7b560e51b5f523060045260245ffd5b506001301615156101a6565b5060023016151561019f565b50600430161515610198565b5060083016151560011415610191565b5060103016151561018a565b50602030161515610183565b506040301615156001141561017c565b5060803016151560011415610175565b506101003016151561016e565b5061020030161515610167565b5061040030161515610160565b506108003016151560011415610159565b5061100030161515610152565b5f80fd5b634e487b7160e01b5f52604160045260245ffd5b604051906101c082016001600160401b0381118382101761030957604052565b51906001600160a01b03821682036103055756fe60806040526004361015610011575f80fd5b5f3560e01c806321d0ee7014611904578063259982e5146118b157806336808a7c1461188c5780634c001a9e1461184b578063575e24b414610b8a578063591094e414610b4b5780636c2bbe7e146108d95780636fe7e6eb14610ad057806377295a8d14610a945780638b7cc62914610a7757806391dd73461461092f5780639f063efc146108d9578063a79a347814610854578063b47b2fb114610691578063b6780bf214610596578063b6a8b0fa1461020d578063bb2ffdef1461055e578063c4e833ce146103f6578063c55dae63146103ce578063c57981b5146103b1578063d111f97e14610379578063db6ba9d414610323578063dc4c90d3146102df578063dc98354e14610271578063e1b4af691461020d578063eff1d50e146101e5578063f68f3c571461019a578063f86325ed1461017d5763fc63b1fd14610158575f80fd5b34610179575f366003190112610179576020604051666a94d74f4300008152f35b5f80fd5b34610179575f366003190112610179576020600554604051908152f35b34610179576040366003190112610179576101b361196e565b602435906001600160a01b0382168203610179576020916101d3916127a9565b6040516001600160a01b039091168152f35b34610179575f366003190112610179576008546040516001600160a01b039091168152602090f35b346101795761021b36611c5f565b5050507f00000000000000000000000000000000000000000000000000000000000000006001600160a01b03163303925061026291505057630a85dc2960e01b5f5260045ffd5b63570c108560e11b5f5260045ffd5b346101795760e03660031901126101795761028a61196e565b5060a03660231901126101795761029f611958565b507f00000000000000000000000000000000000000000000000000000000000000006001600160a01b0316330361026257630a85dc2960e01b5f5260045ffd5b34610179575f366003190112610179576040517f00000000000000000000000000000000000000000000000000000000000000006001600160a01b03168152602090f35b346101795760803660031901126101795761033c61196e565b6044356001600160a01b038116810361017957610375916103699161035f611984565b91602435906124ee565b60405191829182611c28565b0390f35b34610179576020366003190112610179576001600160a01b0361039a61196e565b165f526001602052602060405f2054604051908152f35b34610179575f366003190112610179576020600454604051908152f35b34610179575f366003190112610179576007546040516001600160a01b039091168152602090f35b34610179575f366003190112610179575f6101a060405161041681611b16565b8281528260208201528260408201528260608201528260808201528260a08201528260c08201528260e0820152826101008201528261012082015282610140820152826101608201528261018082015201526101c0602060405161047981611b16565b5f8152818101905f82526040810160018152606082015f8152608083015f815260a084015f815260c085016001815260e0860190600182526101008701925f84526101208801945f8652610140890196600188526101608a01985f8a526101a06101808c019b5f8d52019b5f8d526040519d8e915f835251151591015251151560408d015251151560608c015251151560808b015251151560a08a015251151560c089015251151560e08801525115156101008701525115156101208601525115156101408501525115156101608401525115156101808301525115156101a0820152f35b34610179576020366003190112610179576001600160a01b0361057f61196e565b165f526002602052602060405f2054604051908152f35b34610179576020366003190112610179576001600160a01b036105b761196e565b165f52600660205261012060405f20604051906105d382611afa565b60018060a01b038154169182815260018060a01b03600183015416806020830152600283015480604084015260038401548060608501526004850154908160808601526005860154928360a08701526006870154948560c08801526007880154968760e08201528a60018060a01b0360088b015416998a610100840152600960018060a01b0391015416910152604051988952602089015260408801526060870152608086015260a085015260c084015260e0830152610100820152f35b3461017957610160366003190112610179576106ab61196e565b5060a03660231901126101795760603660c319011261017957610144356001600160401b038111610179576106e49036906004016119ae565b907f00000000000000000000000000000000000000000000000000000000000000006001600160a01b031633036102625761072191810190612cf6565b80516001600160a01b039081165f8181526006602090815260409091206008810154600990910154919094015191939083169261076192811691166127a9565b91805f526006602052600660405f20015415158061083c575b610795575b6040805163b47b2fb160e01b81525f6020820152f35b5f8181526006602081905260409091209081015460078201546002830154600390930154610834966107d696919493916001600160a01b0390911690611d5c565b9061080a60409182516107e98482611b4d565b600f81526e03932b9b2b93b329039b434b33a1d1608d1b60208201526134b8565b61081681519182611b4d565b600c81526b03a37b5b2b710313ab9371d160a51b60208201526134b8565b80808061077f565b50805f526006602052600760405f200154151561077a565b346101795760c03660031901126101795761086d61196e565b6024356001600160401b0381116101795761088c903690600401611b89565b6044356001600160401b038111610179576108ab903690600401611b89565b916108b4611984565b608435906001600160a01b038216820361017957610375946103699460a43594611fa0565b34610179576108e736611a3e565b5050507f00000000000000000000000000000000000000000000000000000000000000006001600160a01b0316330393506102629250505057630a85dc2960e01b5f5260045ffd5b34610179576020366003190112610179576004356001600160401b0381116101795761095f9036906004016119ae565b7f0000000000000000000000000000000000000000000000000000000000000000906001600160a01b038216330361026257826080918101031261017957604051610a4f926109ad82611acb565b610a3b8135808452610a256109c46020850161199a565b610a0a60208701938285526109ee60606109e060408a0161199a565b9860408b01998a520161199a565b60608901818152936001600160a01b03918216918b9116612dcf565b845190518651916001600160a01b0391821691899116612dcf565b51835190309086906001600160a01b0316613055565b5190519130916001600160a01b0316613055565b610375604051610a60602082611b4d565b5f8152604051918291602083526020830190611aa7565b34610179575f366003190112610179576020600354604051908152f35b34610179576020366003190112610179576001600160a01b03610ab561196e565b165f525f602052602060ff60405f2054166040519015158152f35b346101795761010036600319011261017957610aea61196e565b5060a036602319011261017957610aff611958565b5060e4358060020b03610179577f00000000000000000000000000000000000000000000000000000000000000006001600160a01b0316330361026257630a85dc2960e01b5f5260045ffd5b34610179576020366003190112610179576020610b82670de0b6b3a7640000610b78600435600354611cb6565b0460055490611d42565b604051908152f35b346101795761014036600319011261017957610ba461196e565b5060a03660231901126101795760603660c319011261017957610124356001600160401b03811161017957610bdd9036906004016119ae565b7f0000000000000000000000000000000000000000000000000000000000000000916001600160a01b038316330361026257610c1b91810190612cf6565b6024356001600160a01b038116919082811415806101795760075460e435936001600160a01b039091168514905f8513801561182357855b831561132757610c61612d2c565b15610fcf5750610c7090612d3b565b516001600160a01b03165f90815260066020526040902094826101795785546001600160a01b0316908114908115610fb0575b5015610e3f576008546003546002870180546005546004805460405163709cb5bb60e01b81529182019590955260248101839052604481018a905260648101919091526084810193909352919792909190602090899060a49082906001600160a01b03165afa978815610e34575f98610dfa575b50600483018054880190558601905560060180548601905515610db157610179578281610d479250853091613055565b6044356001600160a01b0381168103610179576001600160801b0382610d78829484606098610d8196503091612fee565b16600f0b613675565b9116600f0b5b6001600160801b03169060801b175b604051906315d7892d60e21b825260208201525f6040820152f35b6044356001600160a01b0381168103610179578481610dd39250873091613055565b610179576001600160801b0382610df5829484606098610d8196503091612fee565b610d78565b92919097506020833d602011610e2c575b81610e1860209383611b4d565b810103126101795791519690919086610d17565b3d9150610e0b565b6040513d5f823e3d90fd5b6008546003805490870180546005546004805460405163709cb5bb60e01b81529182019590955260248101839052604481018a905260648101919091526084810193909352919792909190602090899060a49082906001600160a01b03165afa978815610e34575f98610f74575b5090610ecd878493600560079601610ec6838254611d42565b9055611d42565b905501610edb868254611d42565b905515610f3057610179578281610ef59250853091613055565b6044356001600160a01b0381168103610179576001600160801b0382610d78829484606098610f2696503091612fee565b9116600f0b610d87565b50909290604435906001600160a01b03821682036101795784610df56060966001600160801b0395938694610f6d8988610f269950833091613055565b3091612fee565b92919097506020833d602011610fa8575b81610f9260209383611b4d565b8101031261017957915196909190610ecd610ead565b3d9150610f85565b90506044356001600160a01b0381169081810361017957501487610ca3565b610fdf91505f9097969712612d7d565b516001600160a01b03165f90815260066020526040902093826101795784546001600160a01b0316908114908115611308575b501561119b57600854600354600286018054600554600480546040516297da2760e81b81529182019590955260248101839052604481018b9052606481019190915260848101939093529692909190602090829060a49082906001600160a01b03165afa968715610e345788915f9861115d575b508392916110a69160046006960161109f838254611d4f565b9055611d4f565b9055016110b4858254611d4f565b905515611119576101795781816110ce9250853091612fee565b6044356001600160a01b0381168103610179576001600160801b038092610d7885846060986110ff96503091613055565b9116600f0b905b6001600160801b03169060801b17610d96565b6044356001600160a01b038116810361017957838161113b9250873091612fee565b610179576001600160801b038092610df585846060986110ff96503091613055565b9392915096506020833d602011611193575b8161117c60209383611b4d565b810103126101795791519590919087906006611086565b3d915061116f565b600854600380549086018054600554600480546040516297da2760e81b81529182019590955260248101839052604481018b9052606481019190915260848101939093529692909190602090829060a49082906001600160a01b03165afa968715610e345788915f986112ca575b508392916112229160056007960161109f838254611d4f565b905501611230858254611d4f565b9055156112865761017957818161124a9250853091612fee565b6044356001600160a01b0381168103610179576001600160801b038092610d78858460609861127b96503091613055565b9116600f0b90611106565b50909290604435906001600160a01b03821682036101795784610df5856001600160801b03959386946112c360609a8861127b9950833091612fee565b3091613055565b9392915096506020833d602011611300575b816112e960209383611b4d565b810103126101795791519590919087906007611209565b3d91506112dc565b90506044356001600160a01b0381169081810361017957501487611012565b919250611335969596612d2c565b1561153f57505f6113469112612d7d565b516001600160a01b03165f90815260066020526040812093826101795784546001600160a01b0316908114908115611520575b501561141257600854600354600286018054600554600480546040516297da2760e81b81529182019590955260248101839052604481018b905260648101919091526084810193909352919692909190602090889060a49082906001600160a01b03165afa96871561140757908891859861115d57508392916110a69160046006960161109f838254611d4f565b6040513d86823e3d90fd5b5050600854600380549084018054600554600480546040516297da2760e81b81529182019590955260248101839052604481018990526064810191909152608481019390935291969492909190602090889060a49082906001600160a01b03165afa968715610e34575f976114e4575b509061149b86849360056007960161109f838254611d4f565b9055016114a9858254611d4f565b9055604435906001600160a01b03821682036101795784610d78856001600160801b03959386946112c360609a8861127b9950833091612fee565b92919096506020833d602011611518575b8161150260209383611b4d565b810103126101795791519590919061149b611482565b3d91506114f5565b90506044356001600160a01b0381169081810361017957501487611379565b905061154f919250949394612d3b565b516001600160a01b039081165f90815260066020526040812080549095919283929116908114908115611804575b50156116e6576008546003546002870180546005546004805460405163709cb5bb60e01b81529182019590955260248101839052604481018a905260648101919091526084810193909352919792909190602090899060a49082906001600160a01b03165afa9788156114075784986116ac575b50600483018054880190558601905560060180548601905515611668576101795782816116219250853091613055565b6044356001600160a01b0381168103610179576001600160801b0382610d7882948460609861165296503091612fee565b60801b6001600160801b03919092161617610d96565b6044356001600160a01b038116810361017957848161168a9250873091613055565b610179576001600160801b0382610df582948460609861165296503091612fee565b92919097506020833d6020116116de575b816116ca60209383611b4d565b8101031261017957915196909190866115f1565b3d91506116bd565b50506008546003805490850180546005546004805460405163709cb5bb60e01b8152918201959095526024810183905260448101889052606481019190915260848101939093529496949592909190602090829060a49082906001600160a01b03165afa958615610e345787915f976117c6575b5083929161177391600560079601610ec6838254611d42565b905501611781848254611d42565b9055604435906001600160a01b03821682036101795784610d786060966001600160801b0395938694610f6d89886117bc9950833091613055565b9116600f0b611106565b9392915095506020833d6020116117fc575b816117e560209383611b4d565b81010312610179579151949091908690600761175a565b3d91506117d8565b90506044356001600160a01b038116908181036101795750148761157d565b600160ff1b861461183757855f0395610c53565b634e487b7160e01b5f52601160045260245ffd5b346101795760e0366003190112610179576040611880611869611958565b60a435608435606435604435602435600435611d5c565b82519182526020820152f35b34610179575f3660031901126101795760206040516acecb8f27f4200f3a0000008152f35b34610179576118bf366119db565b5050507f00000000000000000000000000000000000000000000000000000000000000006001600160a01b03163303915061026290505762c890a560e31b5f5260045ffd5b3461017957611912366119db565b5050507f00000000000000000000000000000000000000000000000000000000000000006001600160a01b031633039150610262905057630a85dc2960e01b5f5260045ffd5b60c435906001600160a01b038216820361017957565b600435906001600160a01b038216820361017957565b606435906001600160a01b038216820361017957565b35906001600160a01b038216820361017957565b9181601f84011215610179578235916001600160401b038311610179576020838186019501011161017957565b90610160600319830112610179576004356001600160a01b0381168103610179579160a060231982011261017957602491608060c3198301126101795760c49161014435906001600160401b03821161017957611a3a916004016119ae565b9091565b906101a0600319830112610179576004356001600160a01b0381168103610179579160a060231982011261017957602491608060c3198301126101795760c4916101443591610164359161018435906001600160401b03821161017957611a3a916004016119ae565b805180835260209291819084018484015e5f828201840152601f01601f1916010190565b608081019081106001600160401b03821117611ae657604052565b634e487b7160e01b5f52604160045260245ffd5b61014081019081106001600160401b03821117611ae657604052565b6101c081019081106001600160401b03821117611ae657604052565b604081019081106001600160401b03821117611ae657604052565b90601f801991011681019081106001600160401b03821117611ae657604052565b6001600160401b038111611ae657601f01601f191660200190565b9080601f830112156101795760409160405192611ba7604085611b4d565b8360408301928484116101795780915b848310611bc75750505050505090565b82356001600160401b03811161017957820186601f8201121561017957803591611bf083611b6e565b611bfc87519182611b4d565b8381528860208585010111610179575f6020858196828097018386013783010152815201920191611bb7565b919060408301925f905b60028210611c3f57505050565b82516001600160a01b031681526020928301926001929092019101611c32565b610120600319820112610179576004356001600160a01b0381168103610179579160a06023198301126101795760249160c4359160e4359161010435906001600160401b03821161017957611a3a916004016119ae565b8181029291811591840414171561183757565b8115611cd3570490565b634e487b7160e01b5f52601260045260245ffd5b15611cee57565b60405162461bcd60e51b815260206004820152602660248201527f726573657276652073686966742073686f756c6420626520677265617465722060448201526507468616e20360d41b6064820152608490fd5b9190820180921161183757565b9190820391821161183757565b969593949681811180611f6a575b15611e5b57505080666a94d74f43000002666a94d74f4300008104820361183757670de0b6b3a7640000611dab910494611da5861515611ce7565b85611cb6565b6001820180921161183757611dca91611dc391611cc9565b9584611cb6565b906001810180911161183757611ddf91611cc9565b9060018060a01b0316805f526006602052600660405f2001611e02848254611d4f565b9055805f526006602052600760405f2001611e1e848254611d42565b9055805f526006602052600460405f2001611e3a868254611d4f565b90555f526006602052611e55600560405f2001918254611d42565b90559190565b969493969291921080611f59575b15611f4d5780666a94d74f43000002666a94d74f4300008104820361183757670de0b6b3a7640000611ea2910494611da5861515611ce7565b6001820180921161183757611ec191611eba91611cc9565b9284611cb6565b906001810180911161183757611ed691611cc9565b9360018060a01b031690815f526006602052600660405f2001611efa848254611d42565b9055815f526006602052600760405f2001611f16848254611d4f565b9055815f526006602052611f32600560405f2001918254611d4f565b90555f526006602052600460405f2001611e55848254611d42565b5050505090505f905f90565b50670de0b6b3a76400008111611e69565b50670de0b6b3a76400008311611d6a565b906002811015611f8c5760051b0190565b634e487b7160e01b5f52603260045260245ffd5b9290919493604093848051611fb58282611b4d565b36903760018060a01b031692835f525f60205260ff855f20541615801561246b575b1561243357835f525f602052845f20600160ff19825416179055835f52600160205242855f20556120088642611d42565b845f526002602052855f20558451966120218689611b4d565b85368937613696610b7f5f5b6002811061234457505050505061204490826127a9565b8551602087018051865191966001600160a01b039182169590949293600993921661206e85611afa565b8452602084019586528484015f8152606085015f8152608086015f815260a08701905f825260c08801925f845260e08901945f86526101008a019660018060a01b031687526101208a019760018060a01b03169b8c89528d5f5260066020528b5f209a60018060a01b039060018060a01b03905116166001600160601b0360a01b8c5416178b5560018060a01b0390511660018b019060018060a01b03166001600160601b0360a01b8254161790555160028a015551600389015551600488015551600587015551600686015551600785015560018060a01b03905116600884019060018060a01b03166001600160601b0360a01b82541617905560018060a01b0390511691019060018060a01b03166001600160601b0360a01b8254161790556122325f60018060a01b0388511660018060a01b03875116606085516121b481611acb565b6acecb8f27f4200f3a0000008082526020808301958652888301948552309390920192835287519182015292516001600160a01b03908116848801529151821660608401525116608080830191909152815261221160a082611b4d565b8351809381926348c8949160e01b8352602060048401526024830190611aa7565b0381837f00000000000000000000000000000000000000000000000000000000000000006001600160a01b03165af1801561233a576122c3575b50855193516001600160a01b03908116959416937f560daaa031b8b3b2e5f80ba407405817b87a0643c3dfdda220be3c7f1e1cb0d392606092916122b09042611d42565b918051924284526020840152820152a490565b903d805f843e6122d38184611b4d565b820191602081840312610179578051906001600160401b03821161017957019282601f85011215610179576123316060938560207f560daaa031b8b3b2e5f80ba407405817b87a0643c3dfdda220be3c7f1e1cb0d39751910161247f565b5092509061226c565b82513d5f823e3d90fd5b61234e8186611f7b565b516123598286611f7b565b518a5191848301908382106001600160401b03831117611ae6578c6123a1859461239362015180948a8c8939606087526060870190611aa7565b908582036020870152611aa7565b92015203905ff08015612429576001600160a01b0316806123c2838e611f7b565b52803b15610179575f809160448c51809481936340c10f1960e01b83523060048401526acecb8f27f4200f3a00000060248401525af1801561241f57906001929161240f575b500161202d565b5f61241991611b4d565b5f612408565b8a513d5f823e3d90fd5b89513d5f823e3d90fd5b845162461bcd60e51b815260206004820152601160248201527050616972207374696c6c2061637469766560781b6044820152606490fd5b50835f526002602052845f20544211611fd7565b92919261248b82611b6e565b916124996040519384611b4d565b829481845281830111610179578281602093845f96015e010152565b602081830312610179578051906001600160401b03821161017957019080601f830112156101795781516124eb9260200161247f565b90565b9190926040938480516125018282611b4d565b36903760018060a01b03841691825f525f602052600160ff875f20541615150361271957825f526002602052855f205442115f146126e2575f8381526006602052869020805460019091015487516001600160a01b039182169791909216959161256a81611b32565b88516306fdde0360e01b81525f816004818b5afa90811561241f575f916126c8575b50815288516306fdde0360e01b81525f816004818c5afa90811561241f575f916126ae575b5060208201528851916125c383611b32565b89516395d89b4160e01b81525f816004818c5afa90811561268a575f91612694575b50835289516395d89b4160e01b81525f816004818d5afa90811561268a57917fcb3fbe718785507e72e2e217e13371632ac8bdcd85c308ca838df4f28bdd49e0979593916126419795935f91612668575b506020840152611fa0565b94825f52600660205260018060a01b036009825f200154168151908152426020820152a490565b61268491503d805f833e61267c8183611b4d565b8101906124b5565b5f612636565b8b513d5f823e3d90fd5b6126a891503d805f833e61267c8183611b4d565b5f6125e5565b6126c291503d805f833e61267c8183611b4d565b5f6125b1565b6126dc91503d805f833e61267c8183611b4d565b5f61258c565b855162461bcd60e51b815260206004820152601060248201526f14185a5c881b9bdd08195e1c1a5c995960821b6044820152606490fd5b855162461bcd60e51b815260206004820152601260248201527114185a5c881b9bdd081a5b9a5d1a585d195960721b6044820152606490fd5b51908160020b820361017957565b519061ffff8216820361017957565b519060ff8216820361017957565b5190811515820361017957565b9081602091031261017957516001600160a01b03811681036101795790565b604051630d34328160e11b8152906001600160a01b0316602082600481845afa918215610e34575f92612cb2575b50604051633850c7bd60e01b815260e081600481855afa908115610e34575f91612c23575b506040516334324e9f60e21b815290602082600481865afa918215610e34575f92612be7575b50604051630dfe168160e01b815292602084600481845afa938415610e34575f94612bc6575b5060405163d21220a760e01b815293602085600481855afa918215610e34576004955f93612b94575b506020906040519687809263ddca3f4360e01b82525afa948515610e34575f95612b53575b5060405163313ce56760e01b815290602090829060049082906001600160a01b03165afa8015610e3457612b14575b5060405163313ce56760e01b815290602090829060049082906001600160a01b03165afa8015610e3457612add575b508060020b9160020b908115611cd357627fffff1983145f19831416611837578180840560020b02918260020b92830361183757820191627fffff8313627fffff198412176118375761295961295361294d5f936130a3565b946130a3565b926130a3565b931292808002938460c01c94816001149081612ac8575b50612ac3575b600114612ab4576103e862ffffff6012965b1604966001600160a01b03908116670de0b6b3a76400008181029092169491818604149015171561183757612a03966001600160a01b03966129fd966129f79590916129d5908a16613413565b9460018060a01b03948103840260601c938183030260601b0404020116613499565b90613499565b1661350f565b6001600160a01b038111612a65576001600160a01b03169060011b6301fffffe168082026001600160a01b0316918115918304141715611837576124eb81604051612a4f604082611b4d565b6004815263034bb1d160e51b60208201526134b8565b60405162461bcd60e51b815260206004820152602160248201527f7371727420726573756c7420746f6f206c6172676520666f722075696e7431366044820152600360fc1b6064820152608490fd5b6103e862ffffff602496612988565b612976565b670de0b6b3a76400000260c01c95505f612970565b6020813d602011612b0c575b81612af660209383611b4d565b8101031261017957612b079061276f565b6128f4565b3d9150612ae9565b6020813d602011612b4b575b81612b2d60209383611b4d565b8101031261017957600491612b4360209261276f565b5091506128c5565b3d9150612b20565b9094506020813d602011612b8c575b81612b6f60209383611b4d565b81010312610179575162ffffff8116810361017957936020612896565b3d9150612b62565b6020919350612bb890823d8411612bbf575b612bb08183611b4d565b81019061278a565b9290612871565b503d612ba6565b612be091945060203d602011612bbf57612bb08183611b4d565b925f612848565b9091506020813d602011612c1b575b81612c0360209383611b4d565b8101031261017957612c1490612752565b905f612822565b3d9150612bf6565b905060e0813d60e011612caa575b81612c3e60e09383611b4d565b810103126101795780516001600160a01b0381160361017957612ca360c0612c6860208401612752565b92612c7560408201612760565b50612c8260608201612760565b50612c8f60808201612760565b50612c9c60a0820161276f565b500161277d565b505f6127fc565b3d9150612c31565b9091506020813d602011612cee575b81612cce60209383611b4d565b8101031261017957516001600160801b038116810361017957905f6127d7565b3d9150612cc1565b9081604091031261017957612d24602060405192612d1384611b32565b612d1c8161199a565b84520161199a565b602082015290565b60c43580151581036101795790565b15612d4257565b60405162461bcd60e51b8152602060048201526013602482015272195e1858dd125b881b9bdd08185b1b1bddd959606a1b6044820152606490fd5b15612d8457565b60405162461bcd60e51b8152602060048201526014602482015273195e1858dd13dd5d081b9bdd08185b1b1bddd95960621b6044820152606490fd5b90816020910312610179575190565b6001600160a01b031693929184612e3e5750604051630476982d60e21b8152929350602091839160049183916001600160a01b03165af18015610e3457612e135750565b612e349060203d602011612e37575b612e2c8183611b4d565b810190612dc0565b50565b503d612e22565b916001600160a01b0390911690813b1561017957604051632961046560e21b815260048101869052925a935f816024818388819af18015610e3457612fd9575b506001600160a01b0316308114612f4d579060646020928560405198899485936323b872dd60e01b8552600485015287602485015260448401525af1938415612f4257829394612efe575b506020905b600460405180958193630476982d60e21b83525af1908115612ef25750612e135750565b604051903d90823e3d90fd5b9091506020813d602011612f3a575b81612f1a60209383611b4d565b81010312612f36578291612f2f60209261277d565b5090612ec9565b8280fd5b3d9150612f0d565b6040513d84823e3d90fd5b5060405163a9059cbb60e01b81526001600160a01b03831660048201526024810191909152936020908590604490829086905af1938415612f4257829394612f99575b50602090612ece565b9091506020813d602011612fd1575b81612fb560209383611b4d565b81010312612f36578291612fca60209261277d565b5090612f90565b3d9150612fa8565b612fe69194505f90611b4d565b5f925f612e7e565b9192906001600160a01b0316803b1561017957604051637a94c56560e11b81526001600160a01b03948516600482015293909216602484015260448301525f908290818381606481015b03925af18015610e34576130495750565b5f61305391611b4d565b565b9192906001600160a01b0316803b1561017957604051630ab714fb60e11b81526001600160a01b03948516600482015293909216602484015260448301525f90829081838160648101613038565b60020b5f81121561340d57805f03905b620d89e882116133fe5760018216156133ec576001600160881b036ffffcb933bd6fad37aa2d162d1a5940015b1691600281166133d0575b600481166133b4575b60088116613398575b6010811661337c575b60208116613360575b60408116613344575b60808116613328575b610100811661330c575b61020081166132f0575b61040081166132d4575b61080081166132b8575b611000811661329c575b6120008116613280575b6140008116613264575b6180008116613248575b62010000811661322c575b620200008116613211575b6204000081166131f6575b62080000166131dd575b5f126131cf575b63ffffffff81166131c7575f905b60201c60ff91909116016001600160a01b031690565b6001906131b1565b8015611cd3575f19046131a3565b6b048a170391f7dc42444e8fa290910260801c9061319c565b6d2216e584f5fa1ea926041bedfe9890920260801c91613192565b916e5d6af8dedb81196699c329225ee6040260801c91613187565b916f09aa508b5b7a84e1c677de54f3e99bc90260801c9161317c565b916f31be135f97d08fd981231505542fcfa60260801c91613171565b916f70d869a156d2a1b890bb3df62baf32f70260801c91613167565b916fa9f746462d870fdf8a65dc1f90e061e50260801c9161315d565b916fd097f3bdfd2022b8845ad8f792aa58250260801c91613153565b916fe7159475a2c29b7443b29c7fa6e889d90260801c91613149565b916ff3392b0822b70005940c7a398e4b70f30260801c9161313f565b916ff987a7253ac413176f2b074cf7815e540260801c91613135565b916ffcbe86c7900a88aedcffc83b479aa3a40260801c9161312b565b916ffe5dee046a99a2a811c461f1969c30530260801c91613121565b916fff2ea16466c96a3843ec78b326b528610260801c91613118565b916fff973b41fa98c081472e6896dfb254c00260801c9161310f565b916fffcb9843d60f6159c9db58835c9266440260801c91613106565b916fffe5caca7e10e4e61c3624eaa0941cd00260801c916130fd565b916ffff2e50f5f656932ef12357cf3c7fdcc0260801c916130f4565b916ffff97272373d413259a46990580e213a0260801c916130eb565b6001600160881b03600160801b6130e0565b6315e4079d60e11b5f5260045ffd5b806130b3565b80156134935760208110600116604e82106001161761347f576001600a915b6001811161345057506001600160a01b038290048111611837570290565b916001600160a01b0381900481116118375760018316613476575b80029160011c613432565b8091029061346b565b600a0a906001600160a01b03821161183757565b50600190565b6001600160a01b03909116908115611cd3576001600160a01b03160490565b5f919082916134fc60405180926134e86020830195632d839cb360e21b8752604060248501526064840190611aa7565b90604483015203601f198101835282611b4d565b51906a636f6e736f6c652e6c6f675afa50565b9081156136705760108211158061360d575b50600182600160801b8110156135fb575b80600160401b60089210156135ee575b6401000000008110156135e1575b620100008110156135d5575b6101008110156135c9575b60108110156135bc575b10156135b4575b8083040160011c8083040160011c8083040160011c8083040160011c8083040160011c8083040160011c91828002116135ad57565b905f190190565b60011b613578565b60041c9160021b91613571565b811c9160041b91613567565b60101c91811b9161355c565b60201c9160101b91613550565b60401c9160201b91613542565b50600160401b9050608083901c613532565b6001831461366957600483111561365657600983111561364357613631575f613521565b9060100361363e57600490565b600390565b509060090361365157600390565b600290565b509060040361366457600290565b600190565b5060019150565b5f9150565b600f0b6f7fffffffffffffffffffffffffffffff198114611837575f039056fe60806040523461034e57610b7f8038038061001981610352565b92833981019060608183031261034e5780516001600160401b03811161034e5782610045918301610377565b60208201519092906001600160401b03811161034e57604091610069918401610377565b91015182516001600160401b03811161025f57600354600181811c91168015610344575b602082101461024157601f81116102e1575b506020601f821160011461027e57819293945f92610273575b50508160011b915f199060031b1c1916176003555b81516001600160401b03811161025f57600454600181811c91168015610255575b602082101461024157601f81116101de575b50602092601f821160011461017d57928192935f92610172575b50508160011b915f199060031b1c1916176004555b600580546001600160a01b031916331790554290810190811061015e576006556040516107b690816103c98239f35b634e487b7160e01b5f52601160045260245ffd5b015190505f8061011a565b601f1982169360045f52805f20915f5b8681106101c657508360019596106101ae575b505050811b0160045561012f565b01515f1960f88460031b161c191690555f80806101a0565b9192602060018192868501518155019401920161018d565b60045f527f8a35acfbc15ff81a39ae7d344fd709f28e8600b4aa8c65c6b64bfe7fe36bd19b601f830160051c81019160208410610237575b601f0160051c01905b81811061022c5750610100565b5f815560010161021f565b9091508190610216565b634e487b7160e01b5f52602260045260245ffd5b90607f16906100ee565b634e487b7160e01b5f52604160045260245ffd5b015190505f806100b8565b601f1982169060035f52805f20915f5b8181106102c9575095836001959697106102b1575b505050811b016003556100cd565b01515f1960f88460031b161c191690555f80806102a3565b9192602060018192868b01518155019401920161028e565b60035f527fc2575a0e9e593c00f959f8c92f12db2869c3395a3b0502d05e2516446f71f85b601f830160051c8101916020841061033a575b601f0160051c01905b81811061032f575061009f565b5f8155600101610322565b9091508190610319565b90607f169061008d565b5f80fd5b6040519190601f01601f191682016001600160401b0381118382101761025f57604052565b81601f8201121561034e578051906001600160401b03821161025f576103a6601f8301601f1916602001610352565b928284526020838301011161034e57815f9260208093018386015e830101529056fe6080806040526004361015610012575f80fd5b5f3560e01c90816306fdde031461055857508063095ea7b3146104d657806318160ddd146104b957806323b872dd146103da578063313ce567146103bf57806336654887146103a257806340c10f191461029f57806370a08231146102685780638da5cb5b1461024057806395d89b4114610125578063a9059cbb146100f45763dd62ed3e146100a0575f80fd5b346100f05760403660031901126100f0576100b9610651565b6100c1610667565b6001600160a01b039182165f908152600160209081526040808320949093168252928352819020549051908152f35b5f80fd5b346100f05760403660031901126100f05761011a610110610651565b60243590336106c9565b602060405160018152f35b346100f0575f3660031901126100f0576040515f6004548060011c90600181168015610236575b6020831081146102225782855290811561020657506001146101b1575b50819003601f01601f191681019067ffffffffffffffff82118183101761019d5761019982918260405282610627565b0390f35b634e487b7160e01b5f52604160045260245ffd5b905060045f527f8a35acfbc15ff81a39ae7d344fd709f28e8600b4aa8c65c6b64bfe7fe36bd19b5f905b8282106101f057506020915082010182610169565b60018160209254838588010152019101906101db565b90506020925060ff191682840152151560051b82010182610169565b634e487b7160e01b5f52602260045260245ffd5b91607f169161014c565b346100f0575f3660031901126100f0576005546040516001600160a01b039091168152602090f35b346100f05760203660031901126100f0576001600160a01b03610289610651565b165f525f602052602060405f2054604051908152f35b346100f05760403660031901126100f0576102b8610651565b60055460243591906001600160a01b03163303610370576102dc600654421061067d565b6001600160a01b031690811561035d576102f9600654421061067d565b600254908082018092116103495760207fddf252ad1be2c89b69c2b068fc378daa952ba7f163c4a11628f55a4df523b3ef915f9360025584845283825260408420818154019055604051908152a3005b634e487b7160e01b5f52601160045260245ffd5b63ec442f0560e01b5f525f60045260245ffd5b60405162461bcd60e51b815260206004820152600a60248201526927a7262c9027aba722a960b11b6044820152606490fd5b346100f0575f3660031901126100f0576020600654604051908152f35b346100f0575f3660031901126100f057602060405160128152f35b346100f05760603660031901126100f0576103f3610651565b6103fb610667565b6001600160a01b0382165f818152600160209081526040808320338452909152902054909260443592915f198110610439575b5061011a93506106c9565b83811061049e57841561048b5733156104785761011a945f52600160205260405f2060018060a01b0333165f526020528360405f20910390558461042e565b634a1406b160e11b5f525f60045260245ffd5b63e602df0560e01b5f525f60045260245ffd5b8390637dc7a0d960e11b5f523360045260245260445260645ffd5b346100f0575f3660031901126100f0576020600254604051908152f35b346100f05760403660031901126100f0576104ef610651565b60243590331561048b576001600160a01b031690811561047857335f52600160205260405f20825f526020528060405f20556040519081527f8c5be1e5ebec7d5bd14f71427d1e84f3dd0314c0f7b2291e5b200ac8c7c3b92560203392a3602060405160018152f35b346100f0575f3660031901126100f0575f6003548060011c9060018116801561061d575b6020831081146102225782855290811561020657506001146105c85750819003601f01601f191681019067ffffffffffffffff82118183101761019d5761019982918260405282610627565b905060035f527fc2575a0e9e593c00f959f8c92f12db2869c3395a3b0502d05e2516446f71f85b5f905b82821061060757506020915082010182610169565b60018160209254838588010152019101906105f2565b91607f169161057c565b602060409281835280519182918282860152018484015e5f828201840152601f01601f1916010190565b600435906001600160a01b03821682036100f057565b602435906001600160a01b03821682036100f057565b1561068457565b60405162461bcd60e51b815260206004820152601d60248201527f544f4b454e20455850495245442c204d494e54494e4720434c4f5345440000006044820152606490fd5b6001600160a01b031690811561076d576001600160a01b031691821561035d576106f6600654421061067d565b815f525f60205260405f205481811061075457817fddf252ad1be2c89b69c2b068fc378daa952ba7f163c4a11628f55a4df523b3ef92602092855f525f84520360405f2055845f525f825260405f20818154019055604051908152a3565b8263391434e360e21b5f5260045260245260445260645ffd5b634b637e8f60e11b5f525f60045260245ffdfea2646970667358221220571e960bb7c94cad0b080a4dbf3f52cd0bdd8fcbe41e7772290a4175cb2c9ef764736f6c634300081a0033a264697066735822122054bdd8b3e349f78a1802c1d158ddb2e8e16263f9a43723ae75ac4b142b76f73464736f6c634300081a0033","linkReferences":{}},"methodIdentifiers":{"BASE_PRICE()":"f86325ed","FEE()":"c57981b5","IV_TOKEN_SUPPLY()":"36808a7c","RESERVE_SHIFT_SLOPE()":"fc63b1fd","SLOPE()":"8b7cc629","afterAddLiquidity(address,(address,address,uint24,int24,address),(int24,int24,int256,bytes32),int256,int256,bytes)":"9f063efc","afterDonate(address,(address,address,uint24,int24,address),uint256,uint256,bytes)":"e1b4af69","afterInitialize(address,(address,address,uint24,int24,address),uint160,int24)":"6fe7e6eb","afterRemoveLiquidity(address,(address,address,uint24,int24,address),(int24,int24,int256,bytes32),int256,int256,bytes)":"6c2bbe7e","afterSwap(address,(address,address,uint24,int24,address),(bool,int256,uint160),int256,bytes)":"b47b2fb1","baseToken()":"c55dae63","beforeAddLiquidity(address,(address,address,uint24,int24,address),(int24,int24,int256,bytes32),bytes)":"259982e5","beforeDonate(address,(address,address,uint24,int24,address),uint256,uint256,bytes)":"b6a8b0fa","beforeInitialize(address,(address,address,uint24,int24,address),uint160)":"dc98354e","beforeRemoveLiquidity(address,(address,address,uint24,int24,address),(int24,int24,int256,bytes32),bytes)":"21d0ee70","beforeSwap(address,(address,address,uint24,int24,address),(bool,int256,uint160),bytes)":"575e24b4","bondingCurve()":"eff1d50e","calculateIv(address,uint160)":"f68f3c57","deploy2Currency(address,string[2],string[2],address,uint160,uint256)":"a79a3478","getHookPermissions()":"c4e833ce","getVixData(address)":"b6780bf2","isPairInitiated(address)":"77295a8d","pairEndingTime(address)":"bb2ffdef","pairInitiatedTime(address)":"d111f97e","poolManager()":"dc4c90d3","resetPair(address,uint256,address,uint160)":"db6ba9d4","swapReserve(uint256,uint256,uint256,uint256,uint256,uint256,address)":"4c001a9e","unlockCallback(bytes)":"91dd7346","vixTokensPrice(uint256)":"591094e4"},"id":109}