{"abi":[{"type":"function","name":"annualizedIV","inputs":[{"name":"fee","type":"uint256","internalType":"uint256"},{"name":"dailyVolume","type":"uint256","internalType":"uint256"},{"name":"tickLiquidity","type":"uint256","internalType":"uint256"}],"outputs":[{"name":"","type":"uint256","internalType":"uint256"}],"stateMutability":"pure"}],"bytecode":{"object":"0x60808060405234601957610173908161001e823930815050f35b5f80fdfe60806040526004361015610011575f80fd5b5f3560e01c639f5fabe014610024575f80fd5b60603660031901126100c9576004356100496100446044356024356100e0565b6100f7565b816005029160058304036100b557610060916100cd565b61016d9060b75b82811061008257602061007a84846100cd565b604051908152f35b91508180156100a157806100999161016d046100ea565b60011c610067565b634e487b7160e01b5f52601260045260245ffd5b634e487b7160e01b5f52601160045260245ffd5b5f80fd5b818102929181159184041417156100b557565b81156100a1570490565b919082018092116100b557565b801561013857600181018082116100b55760011c815b82821061011957505090565b90915061012f8261012a81846100e0565b6100ea565b60011c9061010d565b505f9056fea2646970667358221220785b4928b931bdc62fcd7fa4f553ee0e7e21b1057a5a1f159e901b6740b7d42864736f6c634300081a0033","linkReferences":{}},"methodIdentifiers":{"annualizedIV(uint256,uint256,uint256)":"9f5fabe0"},"id":96}