{"abi":[{"type":"function","name":"sqrt","inputs":[{"name":"x","type":"uint256","internalType":"uint256"}],"outputs":[{"name":"result","type":"uint256","internalType":"uint256"}],"stateMutability":"pure"}],"bytecode":{"object":"0x608080604052346019576101e3908161001e823930815050f35b5f80fdfe6080806040526004361015610012575f80fd5b5f3560e01c63677342ce14610025575f80fd5b60203660031901126100435760209061003f600435610047565b8152f35b5f80fd5b9081156101a857601082111580610145575b50600182600160801b811015610133575b80600160401b6008921015610126575b640100000000811015610119575b6201000081101561010d575b610100811015610101575b60108110156100f4575b10156100ec575b8083040160011c8083040160011c8083040160011c8083040160011c8083040160011c8083040160011c91828002116100e557565b905f190190565b60011b6100b0565b60041c9160021b916100a9565b811c9160041b9161009f565b60101c91811b91610094565b60201c9160101b91610088565b60401c9160201b9161007a565b50600160401b9050608083901c61006a565b600183146101a157600483111561018e57600983111561017b57610169575f610059565b9060100361017657600490565b600390565b509060090361018957600390565b600290565b509060040361019c57600290565b600190565b5060019150565b5f915056fea2646970667358221220704315b4c49647dd30f6f40febc9acb73a13467bd7df5d8418a535028120319464736f6c634300081a0033","linkReferences":{}},"methodIdentifiers":{"sqrt(uint256)":"677342ce"},"id":113}