{"abi":[{"type":"function","name":"SQRT_PRICE_10000_100","inputs":[],"outputs":[{"name":"","type":"uint160","internalType":"uint160"}],"stateMutability":"view"},{"type":"function","name":"SQRT_PRICE_1000_100","inputs":[],"outputs":[{"name":"","type":"uint160","internalType":"uint160"}],"stateMutability":"view"},{"type":"function","name":"SQRT_PRICE_1010_100","inputs":[],"outputs":[{"name":"","type":"uint160","internalType":"uint160"}],"stateMutability":"view"},{"type":"function","name":"SQRT_PRICE_101_100","inputs":[],"outputs":[{"name":"","type":"uint160","internalType":"uint160"}],"stateMutability":"view"},{"type":"function","name":"SQRT_PRICE_121_100","inputs":[],"outputs":[{"name":"","type":"uint160","internalType":"uint160"}],"stateMutability":"view"},{"type":"function","name":"SQRT_PRICE_1_1","inputs":[],"outputs":[{"name":"","type":"uint160","internalType":"uint160"}],"stateMutability":"view"},{"type":"function","name":"SQRT_PRICE_1_2","inputs":[],"outputs":[{"name":"","type":"uint160","internalType":"uint160"}],"stateMutability":"view"},{"type":"function","name":"SQRT_PRICE_1_4","inputs":[],"outputs":[{"name":"","type":"uint160","internalType":"uint160"}],"stateMutability":"view"},{"type":"function","name":"SQRT_PRICE_2_1","inputs":[],"outputs":[{"name":"","type":"uint160","internalType":"uint160"}],"stateMutability":"view"},{"type":"function","name":"SQRT_PRICE_4_1","inputs":[],"outputs":[{"name":"","type":"uint160","internalType":"uint160"}],"stateMutability":"view"},{"type":"function","name":"SQRT_PRICE_99_100","inputs":[],"outputs":[{"name":"","type":"uint160","internalType":"uint160"}],"stateMutability":"view"},{"type":"function","name":"SQRT_PRICE_99_1000","inputs":[],"outputs":[{"name":"","type":"uint160","internalType":"uint160"}],"stateMutability":"view"}],"bytecode":{"object":"0x6080806040523460195761024d908161001e823930815050f35b5f80fdfe6080806040526004361015610012575f80fd5b5f3560e01c908163328b22b4146101f75750806388c8f225146101d55780638a81a2de146101bb57806398ec04cc14610199578063a31858011461017f578063a96bfbf21461015e578063ae366da71461013d578063bbc49a6e1461011b578063bd5e4184146100fa578063e282efb7146100d8578063ed318160146100be5763fcc6433b146100a0575f80fd5b5f3660031901126100ba57604051600160601b8152602090f35b5f80fd5b5f3660031901126100ba576040516001605f1b8152602090f35b5f3660031901126100ba5760206040516c011999999999999999999999998152f35b5f3660031901126100ba5760206040516bb504f333f9de6484597d89b38152f35b5f3660031901126100ba5760206040516c03298b075b4b6a5240945790618152f35b5f3660031901126100ba5760206040516bfeb77f264dc5273ef5e2f75b8152f35b5f3660031901126100ba5760206040516b508c6bc6cb3b01636bd290d18152f35b5f3660031901126100ba57604051600560611b8152602090f35b5f3660031901126100ba5760206040516c016a09e667f3bcc908b2fb13668152f35b5f3660031901126100ba57604051600160611b8152602090f35b5f3660031901126100ba5760206040516c032d94aa8d0f912742a3fc34e18152f35b5f3660031901126100ba57806c010146dd68287f35899f20af6760209252f3fea26469706673582212209a3281476a866887d87e3aa07428a36c08e76f36506e4579ab308048ec22177064736f6c634300081a0033","linkReferences":{}},"methodIdentifiers":{"SQRT_PRICE_10000_100()":"a3185801","SQRT_PRICE_1000_100()":"bbc49a6e","SQRT_PRICE_1010_100()":"88c8f225","SQRT_PRICE_101_100()":"328b22b4","SQRT_PRICE_121_100()":"e282efb7","SQRT_PRICE_1_1()":"fcc6433b","SQRT_PRICE_1_2()":"bd5e4184","SQRT_PRICE_1_4()":"ed318160","SQRT_PRICE_2_1()":"98ec04cc","SQRT_PRICE_4_1()":"8a81a2de","SQRT_PRICE_99_100()":"ae366da7","SQRT_PRICE_99_1000()":"a96bfbf2"},"id":96}