{"abi":[{"type":"constructor","inputs":[{"name":"_manager","type":"address","internalType":"contract IPoolManager"}],"stateMutability":"nonpayable"},{"type":"function","name":"manager","inputs":[],"outputs":[{"name":"","type":"address","internalType":"contract IPoolManager"}],"stateMutability":"view"},{"type":"function","name":"swap","inputs":[{"name":"key","type":"tuple","internalType":"struct PoolKey","components":[{"name":"currency0","type":"address","internalType":"Currency"},{"name":"currency1","type":"address","internalType":"Currency"},{"name":"fee","type":"uint24","internalType":"uint24"},{"name":"tickSpacing","type":"int24","internalType":"int24"},{"name":"hooks","type":"address","internalType":"contract IHooks"}]},{"name":"params","type":"tuple","internalType":"struct IPoolManager.SwapParams","components":[{"name":"zeroForOne","type":"bool","internalType":"bool"},{"name":"amountSpecified","type":"int256","internalType":"int256"},{"name":"sqrtPriceLimitX96","type":"uint160","internalType":"uint160"}]}],"outputs":[],"stateMutability":"payable"},{"type":"function","name":"unlockCallback","inputs":[{"name":"rawData","type":"bytes","internalType":"bytes"}],"outputs":[{"name":"","type":"bytes","internalType":"bytes"}],"stateMutability":"nonpayable"},{"type":"error","name":"NoSwapOccurred","inputs":[]}],"bytecode":{"object":"0x60a034607357601f610a1a38819003918201601f19168301916001600160401b03831184841017607757808492602094604052833981010312607357516001600160a01b038116810360735760805260405161098e908161008c8239608051818181608a0152818161038101526105210152f35b5f80fd5b634e487b7160e01b5f52604160045260245ffdfe60806040526004361015610011575f80fd5b5f3560e01c80631e2817de146103b0578063481c6a751461036c576391dd73461461003a575f80fd5b346103565760203660031901126103565760043567ffffffffffffffff8111610356573660238201121561035657806004013567ffffffffffffffff8111610356578101366024820111610356577f00000000000000000000000000000000000000000000000000000000000000006001600160a01b0381169233849003610356576101208184031261035657604051916100d4836105ed565b6100e060248301610647565b835260a0601f19838603011261035657604051936100fd85610609565b61010960448401610647565b855261011760648401610647565b6020860152608483013562ffffff8116810361035657604086015260a48301358060020b810361035657606086015260c48301356001600160a01b03811681036103565760808601526020840194855260609083900360bf1901126103565760405191610183836105ed565b60e48101359081151582036103565790835261010481013560208401526101240135916001600160a01b0383168303610356575f95610236936040830152604085019180835286519161020f6020998a9461024a6040516101e48882610625565b838152601f1988013689830137604051633cf3645360e21b81529a8b9788968795600487019061067f565b8051151560a4860152602081015160c4860152604001516001600160a01b031660e4850152565b61012061010484015261012483019061065b565b03925af1928315610361575f9361032e575b505151156102de5783515183516102b59591610296916001600160a01b0391821691168461028d608088901d6106c2565b600f0b9261071d565b518501519251600f9290920b926001600160a01b0392831692166108f2565b604051906102c38183610625565b5f82526102da60405192828493845283019061065b565b0390f35b835185015183516103299591610309916001600160a01b0391821691168461028d600f88900b6106c2565b5151925160809290921d600f0b926001600160a01b0392831692166108f2565b6102b5565b9092508581813d831161035a575b6103468183610625565b810103126103565751915f61025c565b5f80fd5b503d61033c565b6040513d5f823e3d90fd5b34610356575f366003190112610356576040517f00000000000000000000000000000000000000000000000000000000000000006001600160a01b03168152602090f35b366003190161010081126103565760a013610356576040516103d181610609565b6004356001600160a01b03811681036103565781526024356001600160a01b038116810361035657602082015260443562ffffff811681036103565760408201526064358060020b81036103565760608201526084356001600160a01b038116810361035657608082015260603660a319011261035657604051610454816105ed565b60a435801515810361035657815260c435602082015260e435916001600160a01b0383168303610356576104e98261051c9460405f95015260408051610499816105ed565b33815260208101948552019081526104bf6040519333602086015251604085019061067f565b518051151560e08401526020810151610100840152604001516001600160a01b0316610120830152565b61012081526104fa61014082610625565b604051809381926348c8949160e01b835260206004840152602483019061065b565b0381837f00000000000000000000000000000000000000000000000000000000000000006001600160a01b03165af180156103615761055757005b3d805f833e6105668183610625565b8101906020818303126103565780519067ffffffffffffffff8211610356570181601f8201121561035657805167ffffffffffffffff81116105d957604051926105ba601f8301601f191660200185610625565b81845260208284010111610356575f928160208094018483015e010152005b634e487b7160e01b5f52604160045260245ffd5b6060810190811067ffffffffffffffff8211176105d957604052565b60a0810190811067ffffffffffffffff8211176105d957604052565b90601f8019910116810190811067ffffffffffffffff8211176105d957604052565b35906001600160a01b038216820361035657565b805180835260209291819084018484015e5f828201840152601f01601f1916010190565b80516001600160a01b03908116835260208083015182169084015260408083015162ffffff169084015260608083015160020b9084015260809182015116910152565b600f0b6f7fffffffffffffffffffffffffffffff1981146106e2575f0390565b634e487b7160e01b5f52601160045260245ffd5b90816020910312610356575180151581036103565790565b90816020910312610356575190565b9192916001600160a01b03168061078b5750604051630476982d60e21b81529250602091839160049183916001600160a01b03165af18015610361576107605750565b6107819060203d602011610784575b6107798183610625565b81019061070e565b50565b503d61076f565b6001600160a01b0390911691823b1561035657604051632961046560e21b815260048101839052935a945f816024818389819bf18015610361576108dd575b506001600160a01b031684308214610882576020929160649160405195869485936323b872dd60e01b8552600485015288602485015260448401525af180156108775791602091849361084a575b505b600460405180958193630476982d60e21b83525af190811561083e57506107605750565b604051903d90823e3d90fd5b61086990833d8511610870575b6108618183610625565b8101906106f6565b505f610818565b503d610857565b6040513d85823e3d90fd5b9290506044602092604051948593849263a9059cbb60e01b845288600485015260248401525af18015610877579160209184936108c0575b5061081a565b6108d690833d8511610870576108618183610625565b505f6108ba565b6108ea9195505f90610625565b5f935f6107ca565b91906001600160a01b0316803b1561035657604051630b0d9c0960e01b81526001600160a01b03938416600482015291909216602482015260448101929092525f908290606490829084905af180156103615761094c5750565b5f61095691610625565b56fea2646970667358221220d7761be22eb19761d5b3fd5b8b25a11b34ea2c3b54031aab0a6c5b3736bbe6e964736f6c634300081a0033","linkReferences":{}},"methodIdentifiers":{"manager()":"481c6a75","swap((address,address,uint24,int24,address),(bool,int256,uint160))":"1e2817de","unlockCallback(bytes)":"91dd7346"},"id":124}