{"abi":[{"type":"function","name":"FEE_GROWTH_GLOBAL0_OFFSET","inputs":[],"outputs":[{"name":"","type":"uint256","internalType":"uint256"}],"stateMutability":"view"},{"type":"function","name":"LIQUIDITY_OFFSET","inputs":[],"outputs":[{"name":"","type":"uint256","internalType":"uint256"}],"stateMutability":"view"},{"type":"function","name":"POOLS_SLOT","inputs":[],"outputs":[{"name":"","type":"bytes32","internalType":"bytes32"}],"stateMutability":"view"},{"type":"function","name":"POSITIONS_OFFSET","inputs":[],"outputs":[{"name":"","type":"uint256","internalType":"uint256"}],"stateMutability":"view"},{"type":"function","name":"TICKS_OFFSET","inputs":[],"outputs":[{"name":"","type":"uint256","internalType":"uint256"}],"stateMutability":"view"},{"type":"function","name":"TICK_BITMAP_OFFSET","inputs":[],"outputs":[{"name":"","type":"uint256","internalType":"uint256"}],"stateMutability":"view"}],"bytecode":{"object":"0x6080806040523460195761010d908161001e823930815050f35b5f80fdfe60808060405260043610156011575f80fd5b5f3560e01c9081632ba31c531460c45750806357eb1da71460af578063769323e314609a5780637d35604a146085578063b432004a1460705763ca24e3b5146057575f80fd5b5f366003190112606c57602060405160018152f35b5f80fd5b5f366003190112606c57602060405160038152f35b5f366003190112606c57602060405160058152f35b5f366003190112606c57602060405160048152f35b5f366003190112606c57602060405160068152f35b5f366003190112606c5780600660209252f3fea2646970667358221220aa30a6bb90f96f5a6191c5e3bd92988001890277865e22da22b93f2b5f61020764736f6c634300081a0033","linkReferences":{}},"methodIdentifiers":{"FEE_GROWTH_GLOBAL0_OFFSET()":"ca24e3b5","LIQUIDITY_OFFSET()":"b432004a","POOLS_SLOT()":"57eb1da7","POSITIONS_OFFSET()":"2ba31c53","TICKS_OFFSET()":"769323e3","TICK_BITMAP_OFFSET()":"7d35604a"},"id":114}