{"abi":[{"type":"constructor","inputs":[{"name":"_manager","type":"address","internalType":"contract IPoolManager"}],"stateMutability":"nonpayable"},{"type":"function","name":"manager","inputs":[],"outputs":[{"name":"","type":"address","internalType":"contract IPoolManager"}],"stateMutability":"view"},{"type":"function","name":"take","inputs":[{"name":"key","type":"tuple","internalType":"struct PoolKey","components":[{"name":"currency0","type":"address","internalType":"Currency"},{"name":"currency1","type":"address","internalType":"Currency"},{"name":"fee","type":"uint24","internalType":"uint24"},{"name":"tickSpacing","type":"int24","internalType":"int24"},{"name":"hooks","type":"address","internalType":"contract IHooks"}]},{"name":"amount0","type":"uint256","internalType":"uint256"},{"name":"amount1","type":"uint256","internalType":"uint256"}],"outputs":[],"stateMutability":"payable"},{"type":"function","name":"unlockCallback","inputs":[{"name":"rawData","type":"bytes","internalType":"bytes"}],"outputs":[{"name":"","type":"bytes","internalType":"bytes"}],"stateMutability":"nonpayable"}],"bytecode":{"object":"0x60a034608157601f610bae38819003918201601f19168301916001600160401b03831184841017608557808492602094604052833981010312608157516001600160a01b0381168103608157608052604051610b14908161009a8239608051818181608a01528181610219015281816103990152818161054101526109c10152f35b5f80fd5b634e487b7160e01b5f52604160045260245ffdfe60806040526004361015610011575f80fd5b5f3560e01c8063055419b614610248578063481c6a7514610204576391dd73461461003a575f80fd5b346102005760203660031901126102005760043567ffffffffffffffff8111610200573660238201121561020057806004013567ffffffffffffffff8111610200578101366024820111610200577f00000000000000000000000000000000000000000000000000000000000000006001600160a01b0316330361020057610100828203126102005760a06024604051926100d484610470565b6100df8286016104ca565b845284900301604319011261020057604051916100fb8361048c565b610107604482016104ca565b8352610115606482016104ca565b6020840152608481013562ffffff8116810361020057604084015260a48101358060020b810361020057606084015260c48101356001600160a01b0381168103610200576080840152602082019280845260e4820135806040850152610104606085019301358352806101de575b50505190816101b8575b6101b46040515f6020820152602081526101a86040826104a8565b604051918291826104de565b0390f35b91516020015191516101d6926001600160a01b039182169116610529565b5f808061018d565b905183516101f992916001600160a01b039182169116610529565b5f80610183565b5f80fd5b34610200575f366003190112610200576040517f00000000000000000000000000000000000000000000000000000000000000006001600160a01b03168152602090f35b366003190160e081126102005760a013610200576040516102688161048c565b6004356001600160a01b03811681036102005781526024356001600160a01b038116810361020057602082015260443562ffffff811681036102005760408201526064358060020b81036102005760608201526084356001600160a01b038116810361020057815f9160806103949401526040516102e581610470565b338152602081019182526060604082019160a4358352019060c4358252604051923360208501525160018060a01b03815116604085015260018060a01b03602082015116606085015262ffffff6040820151166080850152606081015160020b60a0850152608060018060a01b039101511660c08401525160e083015251610100820152610100815261037a610120826104a8565b604051809381926348c8949160e01b8352600483016104de565b0381837f00000000000000000000000000000000000000000000000000000000000000006001600160a01b03165af18015610465576103cf57005b3d805f833e6103de81836104a8565b8101906020818303126102005780519067ffffffffffffffff8211610200570181601f8201121561020057805167ffffffffffffffff81116104515760405192610432601f8301601f1916602001856104a8565b81845260208284010111610200575f928160208094018483015e010152005b634e487b7160e01b5f52604160045260245ffd5b6040513d5f823e3d90fd5b6080810190811067ffffffffffffffff82111761045157604052565b60a0810190811067ffffffffffffffff82111761045157604052565b90601f8019910116810190811067ffffffffffffffff82111761045157604052565b35906001600160a01b038216820361020057565b602060409281835280519182918282860152018484015e5f828201840152601f01601f1916010190565b9190820391821161051557565b634e487b7160e01b5f52601160045260245ffd5b6105343083836109b2565b93915f9391939461096d577f00000000000000000000000000000000000000000000000000000000000000006001600160a01b031693843b1561020057604051630b0d9c0960e01b81526001600160a01b038085166004830181905290861660248301819052604483018a905290959094915f81606481838c5af1801561046557610953575b50906105c79130916109b2565b909391906001607f1b8a10156109445789600f0b6f7fffffffffffffffffffffffffffffff198114610930578903600f0b036108d557889161060891610508565b0361085557869161061891610508565b036107d95781610682575050602090600460405180958193630476982d60e21b83525af1908115610676575061064b5750565b61066c9060203d60201161066f575b61066481836104a8565b810190610a82565b50565b503d61065a565b604051903d90823e3d90fd5b82939491923b156107ca57604051632961046560e21b815260048101849052858160248183895af180156107ce579086916107b5575b5030821461075a576020929160649160405195869485936323b872dd60e01b8552600485015288602485015260448401525af1801561074f57916020918493610722575b505b600460405180958193630476982d60e21b83525af1908115610676575061064b5750565b61074190833d8511610748575b61073981836104a8565b810190610a6a565b505f6106fc565b503d61072f565b6040513d85823e3d90fd5b9290506044602092604051948593849263a9059cbb60e01b845288600485015260248401525af1801561074f57916020918493610798575b506106fe565b6107ae90833d85116107485761073981836104a8565b505f610792565b816107bf916104a8565b6107ca57845f6106b8565b8480fd5b6040513d88823e3d90fd5b60405162461bcd60e51b815260206004820152604860248201527f74686520646966666572656e6365206265747765656e20706d42616c4265666f60448201527f726520616e6420706d42616c4166746572206973206e6f7420657175616c20746064820152671bc8185b5bdd5b9d60c21b608482015260a490fd5b60405162461bcd60e51b815260206004820152604c60248201527f74686520646966666572656e6365206265747765656e207573657242616c416660448201527f74657220616e64207573657242616c4265666f7265206973206e6f742065717560648201526b185b081d1bc8185b5bdd5b9d60a21b608482015260a490fd5b60405162461bcd60e51b815260206004820152602d60248201527f64656c74614166746572206973206e6f7420657175616c20746f202d616d6f7560448201526c6e742e746f496e74313238282960981b6064820152608490fd5b634e487b7160e01b8a52601160045260248afd5b6393dafdf160e01b8952600489fd5b6105c7929198505f610964916104a8565b5f9790916105ba565b60405162461bcd60e51b815260206004820152601d60248201527f64656c74614265666f7265206973206e6f7420657175616c20746f20300000006044820152606490fd5b92906109be9084610a91565b927f00000000000000000000000000000000000000000000000000000000000000006001600160a01b0316906109f48282610a91565b9360018060a01b03165f5260018060a01b0316602052602060405f2060246040518094819363789add5560e11b835260048301525afa908115610465575f91610a3b575090565b90506020813d602011610a62575b81610a56602093836104a8565b81010312610200575190565b3d9150610a49565b90816020910312610200575180151581036102005790565b90816020910312610200575190565b6001600160a01b031680610aa457503190565b6040516370a0823160e01b81526001600160a01b039092166004830152602090829060249082905afa908115610465575f91610a3b57509056fea26469706673582212205bbdf627c599d135552c60078810344da7d9f5f3d72d684164d42d28665cc53564736f6c634300081a0033","linkReferences":{}},"methodIdentifiers":{"manager()":"481c6a75","take((address,address,uint24,int24,address),uint256,uint256)":"055419b6","unlockCallback(bytes)":"91dd7346"},"id":127}